:400000000080002011000000391700003917000080B500AF024A034B1B68136001F0BEFBBC760040FA46004010B5054C237833B9044B13B10448AFF300800123237010BDBD
:400040004881FF1F000000005C2E0000084B10B51BB108490848AFF300800848036803B910BD074B002BFBD0BDE81040184700BF000000004C81FF1F5C2E0000C880FF1FEE
:400080000000000080B483B000AF78607B6818460C37BD4680BC704780B582B000AF78607B681846FFF7EEFF7B6829221A717B6829221A717B6818460837BD4680BD00BFD5
:4000C00080B483B000AF78600B467B807B687A889A8100BF0C37BD4680BC704780B584B000AF62B601F0EEFB1F4801F067FC3B461846FFF7D1FF1D4801F060FC3B46002110
:40010000184600F0A1F91A4801F058FC3B464FF4FA711846FFF7D4FF164801F04FFC3B460021184600F0D4F8134801F047FC3B46184600F057F903461A46104B1A801048E0
:4001400001F03CFC0F4B18680C4B1B889BB21A460D4902F05FFA0B4B1B68184601F02EFCFA2001F0BDFDE2E7602E0000742E00008C2E0000A42E0000B42E00006481FF1FB3
:40018000CC2E00006881FF1FD42E000080B584B000AF7860084611461A460346FB700B46BB7013467B700023FB73FB780021184601F026FCBB78184601F0FCFCFB7B5A1CD7
:4001C000FA737A789A428CBF01230023DBB2002B07D0BB695A1CBA611B78184601F0EAFCECE701F0BBFC00BF1037BD4680BD00BF80B584B002AF7860084611461A46034666
:40020000FB700B46BB7013467B70BA78F9787B1C009301237868FFF7B9FF00BF0837BD4680BD00BF90B585B000AF7860084611461A460346FB700B46BB7013467B7000237A
:40024000FB73FB780021184601F0DAFBBB78184601F0B0FCFB780121184601F02DFCFB7B5A1CFA731A467B78013B9A42B4BF01230023DBB2002B08D03C6A631C3B6201202C
:4002800001F0D8FC03462370E9E7002001F0D2FC03461A463B6A1A7001F060FC00BF1437BD4690BD80B586B002AFF8607B600B46FB721346BB72BA7AF97A7B68009301239B
:4002C000F868FFF7AFFF00BF1037BD4680BD00BF80B586B002AF7860396078687B68197901238022FFF784FF78687B6819790123FF22FFF77DFF78687B681979002300222E
:40030000FFF776FF78687B6819797B689B7B9122FFF76EFF78687B68197901230022FFF767FF78687B6819790023FF22FFF760FF78687B68197900238022FFF759FF3B68FE
:40034000002B44D00023BB6078687B68197907F1080300930223F822FFF764FF3B7A9BB21B029AB27B7A9BB21344FB8100233B7200237B720023BB720023FB72FB89002B8E
:4003800004D0FA893B6802FB03F33B603B68DBB23B723B681B0ADBB27B723B681B0CDBB2BB723B681B0EDBB2FB7278687B68197907F10803009304230422FFF7E7FE786859
:4003C0007B68197904230022FFF712FF06E078687B68197902230022FFF70AFF00BF1037BD4680BD80B586B002AF786000237B737B7B03F00703002B08D178687B68197920
:4004000007F10D031322FFF74DFFF1E778687B68197907F10803009302231E22FFF702FF3B7A9BB21B029AB27B7A9BB21344FB8178687B68197901230B22FFF7D9FEFB89A7
:4004400018461037BD4680BD80B582B000AF78600B46FB70786800F0BFFDFB781946786800F07AFD786800F03FF8786800F006F8012318460837BD4680BD00BF80B582B04C
:4004800000AF786078687B68197901230122FFF7AFFE4021786800F039FF034683F00103DBB2002B01D000231AE078687B68197902230122FFF79CFE0021786800F026FF64
:4004C000034683F00103DBB2002B01D0002307E078687B681979E8230122FFF789FE012318460837BD4680BD80B588B002AF786007F10E0207F10F031946786800F0F4FD80
:40050000034683F00103DBB2002B40F0988078687B68197907F1080300930623B022FFF781FE78687B6819790123FF22FFF760FE78687B68197900234F22FFF759FE78689C
:400540007B6819792C234E22FFF752FE78687B6819790023FF22FFF74BFE78687B681979B423B622FFF744FEBB7B002B01D00C2300E000237B750023FB750023BB75BB7D7B
:400580002F2B3CD8BA7D7B7D9A4203D3FB7BFA7D9A421BD1BB7DDB08DBB2184607F11802134413F8103C5AB2BB7D03F00703012101FA03F35BB2DB435BB213405BB2DAB2F9
:4005C00007F11803034403F8102C14E0BB7DDB08DBB207F11802134413F8103C1A46BB7D03F0070342FA03F303F00103002B02D0FB7D0133FB75BB7D0133BB75BFE7786815
:400600007B68197907F1080300930623B022FFF7BDFD786800F040FA786800F075FC786800F0BEF8386178687B681979E8230122FFF7DEFD3969786800F006F800E000BF37
:400640001837BD4680BD00BF80B594B002AF786039604FF4A563A7F840304FF47073FB874FF42573BB8740F24E237B8740F2B2233B874FF42573FB8640F22623BB8644F6B2
:4006800020633B633B6844F61F62934201D8002381E040F6E8037B6407F124031946786800F0E4F807F10C0207F124031946786800F01CF997F82430002B05D0BA697B6C09
:4006C000134403F24E237B6497F82630002B07D0BB6903F2B2235B007A6C13447B6409E097F82530002B05D0BA697B6C134403F525737B6497F82730002B05D0FA697B6C45
:40070000134403F525737B6497F82830002B41D0BB8E7A6C13447B647A6C3B689A4201D9002338E03A687B6CD31AFB62FB89DBB21A46F96A786800F0C1FD0346A7F8423062
:4007400097F82730002B05D07A8AB7F842301344A7F8423000233B7200237B72B7F842301946786800F006FE03467B857B8DDBB23B727B8D1B12DBB27B7278687B68197943
:4007800007F10803009302237122FFF7FFFC7B683A689A60012318464837BD4680BD00BF80B58EB000AF786040F276737B864FF470733B864FF42573FB8540F24E23BB8540
:4007C00040F2B2237B854FF425733B8540F22623FB8440F636337B6307F120031946786800F044F807F1080207F120031946786800F07CF897F82030002B05D07A697B6BF2
:40080000134403F24E237B6397F82230002B07D07B6903F2B2235B007A6B13447B6309E097F82130002B05D07A697B6B134403F525737B6397F82330002B05D0BA697B6BD5
:40084000134403F525737B6397F82430002B05D0FA697B6B134403F226237B637B687A6B9A607B6B18463837BD4680BD80B584B000AF7860396078687B68197907F10F0377
:400880000122FFF70FFDFB7B03F01003002B14BF01230023DAB23B681A70FB7B03F00803002B14BF01230023DAB23B689A70FB7B03F00403002B14BF01230023DAB23B68C3
:4008C0005A70FB7B03F04003002B14BF01230023DAB23B68DA70FB7B5BB2DBB2DB09DAB23B681A7100BF1037BD4680BD80B588B002AFF860B9607A600021F86800F09CF862
:4009000003469AB27B681A80F868FB68197907F11503009301234622FFF784FC7B7D9BB201339AB27B689A807B6899887B681B88DBB21A46F86800F099FC02467B68DA6028
:400940000023FB82F868FB68197907F11003009302235122FFF766FC3B7C9BB21B029AB27B7C9BB21344FB82FB8A1946F86800F04FF803461A467B68DA807B68D9887B68E7
:400980001B88DBB21A46F86800F070FC02467B681A610121F86800F04FF803469AB27B685A80F868FB68197907F11003009302237122FFF737FC3B7C9BB21B029AB27B7C02
:4009C0009BB21344FB82FB8A1946F86800F020F803461A467B681A81BB68DB78002B07D07B681A897B68DB88D31A9AB27B681A817B6819897B685B88DBB21A46F86800F0E0
:400A000035FC02467B685A6100BF1837BD4680BD80B483B000AF78600B467B807B88DBB27A88120A92B293409BB201339BB218460C37BD4680BC704780B584B000AF7860FD
:400A40000B46FB700023FB73FB78002B0DD178687B68197907F10F035022FFF723FCFB7B0133DBB25B00DBB211E0FB78012B0DD178687B68197907F10F037022FFF712FC45
:400A8000FB7B0133DBB25B00DBB200E0FF2318461037BD4680BD00BF80B582B000AF786078687B6819790123FF22FFF7A1FB78687B68197900230022FFF79AFB78687B686F
:400AC00019790023FF22FFF793FB78687B68197900230922FFF78CFB78687B68197900231022FFF785FB78687B68197900231122FFF77EFB78687B68197901232422FFF78D
:400B000077FB78687B681979FF232522FFF770FB78687B68197900237522FFF769FB78687B6819790123FF22FFF762FB78687B6819792C234E22FFF75BFB78687B68197919
:400B400000234822FFF754FB78687B68197920233022FFF74DFB78687B6819790023FF22FFF746FB78687B68197909233022FFF73FFB78687B68197900235422FFF738FB91
:400B800078687B68197904233122FFF731FB78687B68197903233222FFF72AFB78687B68197983234022FFF723FB78687B68197925234622FFF71CFB78687B68197900235F
:400BC0006022FFF715FB78687B68197900232722FFF70EFB78687B68197906235022FFF707FB78687B68197900235122FFF700FB78687B68197996235222FFF7F9FA78689E
:400C00007B68197908235622FFF7F2FA78687B68197930235722FFF7EBFA78687B68197900236122FFF7E4FA78687B68197900236222FFF7DDFA78687B6819790023642228
:400C4000FFF7D6FA78687B68197900236522FFF7CFFA78687B681979A0236622FFF7C8FA78687B6819790123FF22FFF7C1FA78687B68197932232222FFF7BAFA78687B68F2
:400C8000197914234722FFF7B3FA78687B681979FF234922FFF7ACFA78687B68197900234A22FFF7A5FA78687B6819790023FF22FFF79EFA78687B6819790A237A22FFF72D
:400CC00097FA78687B68197900237B22FFF790FA78687B68197921237822FFF789FA78687B6819790123FF22FFF782FA78687B68197934232322FFF77BFA78687B68197965
:400D000000234222FFF774FA78687B681979FF234422FFF76DFA78687B68197926234522FFF766FA78687B68197905234622FFF75FFA78687B68197940234022FFF758FA9D
:400D400078687B68197906230E22FFF751FA78687B6819791A232022FFF74AFA78687B68197940234322FFF743FA78687B6819790023FF22FFF73CFA78687B6819790323E6
:400D80003422FFF735FA78687B68197944233522FFF72EFA78687B6819790123FF22FFF727FA78687B68197904233122FFF720FA78687B68197909234B22FFF719FA786820
:400DC0007B68197905234C22FFF712FA78687B68197904234D22FFF70BFA78687B6819790023FF22FFF704FA78687B68197900234422FFF7FDF978687B68197920234522AA
:400E0000FFF7F6F978687B68197908234722FFF7EFF978687B68197928234822FFF7E8F978687B68197900236722FFF7E1F978687B68197904237022FFF7DAF978687B68BA
:400E4000197901237122FFF7D3F978687B681979FE237222FFF7CCF978687B68197900237622FFF7C5F978687B68197900237722FFF7BEF978687B6819790123FF22FFF790
:400E8000B7F978687B68197901230D22FFF7B0F978687B6819790023FF22FFF7A9F978687B68197901238022FFF7A2F978687B681979F8230122FFF79BF978687B681979EC
:400EC0000123FF22FFF794F978687B68197901238E22FFF78DF978687B68197901230022FFF786F978687B6819790023FF22FFF77FF978687B68197900238022FFF778F9ED
:400F000000BF0837BD4680BD80B584B000AF786078687B68197904230A22FFF769F978687B68197907F10F038422FFF7BBF978687B681979FB7B23F01003DBB28422FFF7BA
:400F400057F978687B68197901230B22FFF750F900BF1037BD4680BD80B584B000AF78600B46FB70FB78002B11D078687B68197907F10E038922FFF795F978687B681979E9
:400F8000BB7B43F00103DBB28922FFF731F9786800F022F878687B68197907F10F036022FFF780F978687B681979FB7B43F01203DBB26022FFF71CF94FF07A51786800F02B
:400FC0004FF878687B681979FF230122FFF710F900BF1037BD4680BD80B582B000AF786078687B68197900238822FFF701F978687B68197901238022FFF7FAF878687B6805
:4010000019790123FF22FFF7F3F878687B68197900230022FFF7ECF878687B6819797B680E339122FFF73EF978687B68197901230022FFF7DDF878687B6819790023FF222C
:40104000FFF7D6F878687B68197900238022FFF7CFF800BF0837BD4680BD00BF0000000080B586B002AF786039604FF00001386801F048FA0346002B0AD1386800F0C8FF92
:4010800017A3D3E9002301F095F80346002B01D0002320E000233B7300237B734FF08641386801F091F80346184601F053FA0346FB81FB89DBB23B73FB891B12DBB27B731A
:4010C00078687B68197907F10C03009302234422FFF75CF8012318461037BD4680BD00BFA4703D0AD7FF7F4080B586B000AFF860B9607A60F868FB68197901238022FFF7FE
:4011000077F8F868FB6819790123FF22FFF770F8F868FB68197900230022FFF769F8F868FB6819790623FF22FFF762F8F868FB68197907F117038322FFF7B4F8F868FB68F7
:401140001979FB7D43F00403DBB28322FFF750F8F868FB6819790723FF22FFF749F8F868FB68197901238122FFF742F8F868FB68197901238022FFF73BF8F868FB681979FF
:401180006B239422FFF734F8F868FB68197900238322FFF72DF80023FB75FB7D002B08D1F868FB68197907F117038322FFF77AF8F3E7F868FB68197901238322FFF718F810
:4011C000F868FB68197907F117039222FFF76AF8FB7D03F07F03DAB2BB681A70FB7D5BB2DBB2DB09DAB27B681A70F868FB68197900238122FEF7FCFFF868FB6819790623DE
:40120000FF22FEF7F5FFF868FB68197907F117038322FFF747F8F868FB681979FB7D23F00403DBB28322FEF7E3FFF868FB6819790123FF22FEF7DCFFF868FB681979012390
:401240000022FEF7D5FFF868FB6819790023FF22FEF7CEFFF868FB68197900238022FEF7C7FF012318461837BD4680BD80B485B000AF78600B467B8013467B707B781A466F
:401280000C4B03FB02F303F5FA730B4AA2FB03239B09FB607B88FA6802FB03F2FB685B081344054AA2FB03239B0918461437BD4680BC7047002F3A00D34D621080B487B039
:4012C00000AFF860B9601346FB71FB791A460D4B03FB02F303F5FA730B4AA2FB03239B097B61BB684FF47A7202FB03F27B695B081A447B69B2FBF3F318461C37BD4680BC9D
:40130000704700BF002F3A00D34D621080B584B000AF78600B46FB7078687B681979FB7843F00103DBB20022FEF762FF0023FB73FB7B03F00703002B08D178687B6819792F
:4013400007F10F031322FEF7ADFFF1E778687B68197901230B22FEF74BFF78687B68197900230022FEF744FF012318461037BD4680BD00BF80B485B000AF78600B467B80FA
:401380000023FB6000237B817B88002B18D07B88013BFB60FB6823F0FF03002B06D0FB685B08FB607B8901337B81F3E77B891B029AB2FB689BB2DBB29BB213439BB200E0BE
:4013C000002318461437BD4680BC704780B582B000AF786039603A680021786801F011F900BF0837BD4680BD80B584B000AFF860B9607A607A68B968F86801F0F7F800BF63
:401400001037BD4680BD00BF80B483B000AF0346FB71FEE780B487B000AF7860396000233B6100237B6127E07B699B007A6813441B68BB60BB68FB73BB6823F0FF03BB602C
:4014400014E03B695B003A6813441B781A46BB68134419463B695B003A6813445B780B703B6901333B61FB7B013BFB73FB7B002BE7D17B6901337B617B690E2BD4D900BF04
:401480001C37BD4680BC704780B582B000AF304B33221A802F4B18221A702F4B02221A704FF0402308221A702C4B03221A702C4B2C4A1278D2B21A702B4B08221A802B4B4C
:4014C00041F251221A800023FB7019237B6014E0FB785B00DAB2264B1B78DBB203F00103DBB21343DBB203F00303FB704FF4F07000F01AFC7B68013B7B607B68002B02D0DA
:40150000FB78032BE4D17B68002B02D10320FFF77BFF184B4FF480721A80164B07221A70154B00221A70154B48221A70114B00221A70134B02221A70124A124B1B78DBB24E
:4015400043F00103DBB2137000BF0837BD4680BD80400040824000400043004000420040A146004008010049224200402042004025420040044000400640004008400040E7
:4015800001400040A243004080B483B000AF0B4B1B78FB710A4AFB7903F00703DBB21370084AFB791B09DBB21370074B44221A7000BF0C37BD4680BC704700BFCF01004939
:4015C0006E5800406F5800407658004080B586B000AF72B6484A484B1B78DBB243F00403DBB213700023FB7513E0FA7D13465B0013445B00414A13443B613B691A683B6954
:401600009B889BB219461046FFF7E0FEFB7D0133FB75FB7D092BE8D90023FB751CE0FA7D13469B0013445B00354A1344FB60FB681B68BB60FB685B687B60FB681A7A5B7A7D
:401640001B0213437B807B881A467968B868FFF7CBFEFB7D0133FB75FB7D012BDFD929494FF09040FFF7D6FE274A274B1B78DBB243F00203DBB21370244A244B1B78DBB2CE
:4016800043F00203DBB21370214A214B1B78DBB243F04003DBB213701E4A1E4B1B78DBB243F01003DBB213700A221B491B48FFF79BFE08221A491B48FFF796FE1A4A1A4B59
:4016C0001B78DBB243F00803DBB21370174B61221A70FFF7D9FE154B81221A70144B01221A70FFF751FF0E2209491248FFF77CFE00BF1837BD4680BDE8460040042F000026
:40170000402F00003C0000480350014013500140A0430040C24300406C030048C05100407803004812510040224300400048004004000840B043004080B500AF00F02AFFFF
:4017400003461B680C2B00D1FEE7FEE780B584B000AF78600F4B1A687B6813441A460E4BD31A802B09DC0B4B1B68FB60094B1A687B681344074A136007E000F00BFF02465E
:401780000C2313604FF0FF33FB60FB6818461037BD4680BDCC80FF1F8081FF1F80B586B000AF224B7B61224B3B61204B7B6135E03B691B68FB603B695B68BB603B699B6877
:4017C0003B6000237B600CE0FB681A68BB681A60BB680433BB60FB680433FB607B6804337B607A683B689A42EED13B69DB683B6000237B6008E0BB6800221A60BB680433E2
:40180000BB607B6804337B607A683B689A42F2D13B6910333B617B69013B7B617B69002BC6D100F0BDFEFEF759FCFEE701000000B02F000080B582B000AF184B184A1A6040
:40184000184A184B1B6843F40073136000237B600FE07B68032B04D8134A7B6852F8233000E0124B12497A6841F822307B6801337B607B682F2BECD90E4B1B78DAB20E4B82
:401880001A700E4B0A4A1A60FFF7A0FE0C4B00221A6000BF0837BD4680BD00BF0CED00E00004FA0514ED00E000000000391700000080FF1FBC760040C480FF1F08ED00E09F
:4018C000C080FF1F80B500AF064B1B78002B04D100F00AF8034B01221A7000F025F800BF80BD00BF6C81FF1F80B400AF094B72221A70094B20221A70084B06221A70084B35
:4019000047221A70074B00221A7000BFBD4680BC704700BF88650040896500402A6500403A6500408B65004080B582B000AF00F003FA0346FB71114A104B1B78DBB243F048
:401940002003DBB213700E4A0D4B1B78DBB243F01003DBB213700B4A0A4B1B78DBB243F01003DBB2137000F0A1F9FB79184600F0E7F900BF0837BD4680BD00BF9865004088
:40198000996500409B65004080B483B000AF0346FB7100BF074B1B78DBB203F00403002BF8D1054AFB79137000BF0C37BD4680BC704700BF6B6500404B65004080B584B059
:4019C00000AF78600023FB810C4B1B78002B10D009E0FB897A6813441B781846FFF7D4FFFB890133FB81FB897A6813441B78002BEFD100BF1037BD4680BD00BF6C81FF1FED
:401A000080B485B000AF03460A46FB711346BB710223FB73234B1B78DBB2102B3CD1224B1B78DBB203F00803002B33D11F4B4FF400421A60FB795B00FB71BB79002B07D007
:401A4000FB7943F00103FB71164B49221A7002E0144B45221A70164AFB791370124B01221A7000BF134B1B78DBB203F00103002BF8D0104B1B78DBB203F00A03DBB20A2B02
:401A800005D1084B10221A700323FB7304E00023FB7301E00123FB73FB7B18461437BD4680BC70477881FF1FD949004080E100E0D8490040D749004080B485B000AF0346D4
:401AC0000A46FB711346BB710223FB731F4B1B78DBB203F00403002B31D0FB795B00FB71BB79002B07D0FB7943F00103FB71184B49221A7002E0164B45221A70154AFB797B
:401B00001370124B12221A70134B04221A7000BF114B1B78DBB203F00103002BF8D00E4B1B78DBB203F00A03DBB20A2B05D1084B10221A700323FB7301E00023FB73FB7B38
:401B400018461437BD4680BC704700BFD94900407881FF1FD8490040D749004080B483B000AF0223FB71104B1B78DBB203F00403002B12D00C4B10221A700C4B04221A708A
:401B80000B4B10221A7000BF084B1B78DBB203F02103002BF8D00023FB71FB7918460C37BD4680BC704700BFD9490040D74900407881FF1F80B485B000AF0346FB710223B3
:401BC000FB73184B1B78DBB203F00403002B22D0154AFB791370154B04221A70144B46221A7000BF114B1B78DBB203F00103002BF8D00E4B1B78DBB203F00203002B05D18F
:401C00000B4B60221A700023FB7304E0084B60221A700323FB73FB7B18461437BD4680BC704700BFD9490040D8490040D74900407881FF1F80B485B000AF0346FB710023DC
:401C4000FB73164B1B78DBB203F00403002B1FD0134B1B78DBB2492B05D1124B00221A700F4B4A221A7000BF0E4B1B78DBB203F00103002BF8D00C4B1B78FB73FB79002B27
:401C800003D0084B10221A7002E0054B60221A70FB7B18461437BD4680BC7047D94900407881FF1FD7490040D849004080B400AF094A094B1B78DBB243F00103DBB21370C4
:401CC000064A064B1B78DBB243F00103DBB2137000BFBD4680BC7047A2430040B243004080B582B000AF786008E00C4B1B68184600F01AF87B68A3F500437B607B68B3F599
:401D0000004FF2D8064B1B687A6802FB03F3184600F00AF800BF0837BD4680BDDC80FF1FD480FF1F000000000230800803D000BF01380046FCD17047EFF3108072B67047C7
:401D400080F31088704700BF81F0004102E000BF83F0004330B54FEA41044FEA430594EA050F08BF90EA020F1FBF54EA000C55EA020C7FEA645C7FEA655C00F0E2804FEABE
:401D80005454D4EB5555B8BF6D420CDD2C4480EA020281EA030382EA000083EA010180EA020281EA0303362D88BF30BD11F0004F4FEA01314FF4801C4CEA113102D04042FD
:401DC00061EB410113F0004F4FEA03334CEA133302D0524263EB430394EA050F00F0A780A4F10104D5F1200E0DDB02FA0EFC22FA05F2801841F1000103FA0EF2801843FA49
:401E000005F359410EE0A5F120050EF1200E012A03FA0EFC28BF4CF0020C43FA05F3C01851EBE37101F0004507D54FF0000EDCF1000C7EEB00006EEB0101B1F5801F1BD30B
:401E4000B1F5001F0CD349085FEA30004FEA3C0C04F101044FEA445212F5800F80F09A80BCF1004F08BF5FEA500C50F1000041EB045141EA050130BD5FEA4C0C404141EBF4
:401E8000010111F4801FA4F10104E9D191F0000F04BF01460020B1FA81F308BF2033A3F10B03B3F120020CDA0C3208DD02F1140CC2F10C0201FA0CF021FA02F10CE002F10C
:401EC0001402D8BFC2F1200C01FA02F120FA0CFCDCBF41EA0C019040E41AA2BF01EB0451294330BD6FEA04041F3C1CDA0C340EDC04F11404C4F1200220FA04F001FA02F3EC
:401F000040EA030021FA04F345EA030130BDC4F10C04C4F1200220FA02F001FA04F340EA0300294630BD21FA04F0294630BD94F0000F83F4801306BF81F480110134013DD9
:401F40004EE77FEA645C18BF7FEA655C29D094EA050F08BF90EA020F05D054EA000C04BF1946104630BD91EA030F1EBF0021002030BD5FEA545C05D14000494128BF41F058
:401F8000004130BD14F580043CBF01F5801130BD01F0004545F0FE4141F470014FF0000030BD7FEA645C1ABF194610467FEA655C1CBF0B46024650EA013406BF52EA03357E
:401FC00091EA030F41F4002130BD00BF90F0000F04BF0021704730B54FF4806404F132044FF000054FF0000150E700BF90F0000F04BF0021704730B54FF4806404F1320416
:4020000010F0004548BF40424FF000013EE700BF42004FEAE2014FEA31014FEA02701FBF12F07F4393F07F4F81F06051704792F0000F14BF93F07F4F704730B54FF4607406
:4020400001F0004521F0004120E700BF50EA010208BF704730B54FF000050AE050EA010208BF704730B511F0004502D5404261EB41014FF4806404F132045FEA915C3FF4BC
:40208000DCAE4FF003025FEADC0C18BF03325FEADC0C18BF033202EBDC02C2F1200300FA03FC20FA02F001FA03FE40EA0E0021FA02F11444C1E600BF4FF0FF3C06E000BF13
:4020C0004FF0010C02E000BF4FF0010C4DF804CD4FEA410C7FEA6C5C4FEA430C18BF7FEA6C5C1BD001B050EA410C0CBF52EA430C91EA030F02BF90EA020F0020704710F120
:40210000000F91EA030F58BF994208BF90422CBFD8176FEAE37040F0010070474FEA410C7FEA6C5C02D150EA013C07D14FEA430C7FEA6C5CD6D152EA033CD3D05DF8040B4F
:40214000704700BF8446104662468C461946634600E000BF01B5FFF7B7FF002848BF10F1000F01BD4DF808EDFFF7F4FF0CBF012000205DF808FB00BF4DF808EDFFF7EAFFEA
:4021800034BF012000205DF808FB00BF4DF808EDFFF7E0FF94BF012000205DF808FB00BF4DF808EDFFF7CEFF94BF012000205DF808FB00BF4DF808EDFFF7C4FF34BF01206B
:4021C00000205DF808FB00BF4FF0FF0C1CEAD0521EBF1CEAD15392EA0C0F93EA0C0F6FD01A4480EA010C400218BF5FEA41211ED04FF0006343EA501043EA5111A0FB0131AF
:402200000CF00040B1F5000F3EBF490041EAD3715B0040EA010062F17F02FD2A1DD8B3F1004F40EBC25008BF20F00100704790F0000F0CF0004C08BF49024CEA502040EA0A
:4022400051207F3AC2BFD2F1FF0340EAC250704740F400004FF00003013A5DDC12F1190FDCBF00F000407047C2F10002410021FA02F1C2F1200200FA02FC5FEA310040F1E8
:40228000000053EA4C0308BF20EADC70704792F0000F00F0004C02BF400010F4000F013AF9D040EA0C0093F0000F01F0004C02BF490011F4000F013BF9D041EA0C018FE703
:4022C0000CEAD15392EA0C0F18BF93EA0C0F0AD030F0004C18BF31F0004CD8D180EA010000F00040704790F0000F17BF90F0004F084691F0000F91F0004F14D092EA0C0FDC
:4023000001D142020FD193EA0C0F03D14B0218BF084608D180EA010000F0004040F0FE4040F40000704740F0FE4040F4400070474FF0FF0C1CEAD0521EBF1CEAD15392EA6E
:402340000C0F93EA0C0F69D0A2EB030280EA010C49024FEA402037D04FF0805343EA111143EA10130CF000408B4238BF5B0042F17D024FF4000C8B4224BF5B1A40EA0C0015
:40238000B3EB510F24BFA3EB510340EA5C00B3EB910F24BFA3EB910340EA9C00B3EBD10F24BFA3EBD10340EADC001B0118BF5FEA1C1CE0D1FD2A3FF650AF8B4240EBC25078
:4023C00008BF20F0010070470CF0004C4CEA50207F32C2BFD2F1FF0340EAC250704740F400004FF00003013A37E792F0000F00F0004C02BF400010F4000F013AF9D040EA98
:402400000C0093F0000F01F0004C02BF490011F4000F013BF9D041EA0C0195E70CEAD15392EA0C0F08D142027FF47DAF93EA0C0F7FF470AF084676E793EA0C0F04D14B02EE
:402440003FF44CAF08466EE730F0004C18BF31F0004CCAD130F000427FF45CAF31F000437FF43CAF5FE700BF4FF0FF3C06E000BF4FF0010C02E000BF4FF0010C4DF804CD2B
:402480004FEA40024FEA41037FEA226C18BF7FEA236C11D001B052EA530C18BF90EA010F58BFB2EB030088BFC81738BF6FEAE17018BF40F0010070477FEA226C02D15FEA80
:4024C000402C05D17FEA236CE4D15FEA412CE1D05DF8040B704700BF844608466146FFE70FB5FFF7C9FF002848BF10F1000F0FBD4DF808EDFFF7F4FF0CBF012000205DF8F6
:4025000008FB00BF4DF808EDFFF7EAFF34BF012000205DF808FB00BF4DF808EDFFF7E0FF94BF012000205DF808FB00BF4DF808EDFFF7D2FF94BF012000205DF808FB00BF0F
:402540004DF808EDFFF7C8FF34BF012000205DF808FB00BF42000ED2B2F1FE4F0BD34FF09E03B3EB126209D44FEA002343F0004323FA02F070474FF00000704712F1610F59
:4025800001D1420202D14FF0FF3070474FF00000704700BF014B1868704700BF4081FF1F0E4B70B51E460E4C0025E41AA410A54204D056F8253098470135F8E700F0E6FC00
:4025C000084B094C1E46E41AA4100025A54204D056F8253098470135F8E770BD982F0000982F0000982F0000A02F000010B5431E0A44914204D011F8014B03F8014FF8E7BB
:4026000010BD03460244934202D003F8011BFAE7704700000EB400B54FF402719CB0ADF814106FF00041049107914FF6FF711DAB02900690084853F8042BADF81610006837
:4026400002A9019300F064F8029B00221A701CB05DF804EB03B070474081FF1F2DE9F0478E6882469E420C46914698463ED88A8912F4906F3AD02568096902236F1A656988
:4026800005EB450595FBF3F57B1C43449D4238BF1D4653050FD5294600F040FB064698B13A462169FFF7A2FFA38923F4906343F08003A38113E02A4600F08EFB064670B9A4
:4026C0002169504600F0DEFA0C23CAF80030A3894FF0FF3043F04003A381BDE8F08726613E44266046466561ED1BA560464528BF464649463246206800F0A8FAA368002049
:402700009B1BA36023681E442660BDE8F08700002DE9F04F9DB003938B8980461C060D4616460DD50B695BB9402100F0F7FA2860286118B90C23C8F80030CDE040236B61E5
:402740000023099320238DF82930DFF89CB130238DF82A3037463C4614F8013B1BB9B7EB060910D003E0252BF9D02746F3E74B46324629464046FFF771FF013000F0A78088
:40278000099B4B4409933B78002B00F0A08000234FF0FF3204930793059206938DF853301A930126052221784E4800F041FA671C049B38B14B4A3C46801A06FA00F0184304
:4027C0000490EFE7D90644BF20228DF853201A0744BF2B228DF8532022782A2A03D0079A00210A200BE0039A111D12680391002A10DA524243F00200079204900BE0274617
:402800003B780134303B092B03D800FB02320121F5E701B107923B782E2B1ED17B782A2B0AD1039B02371A1D1B680392002BB8BF4FF0FF33059310E0002319460593781C31
:402840000A2407463A780130303A092A03D804FB01210123F5E703B1059103223978224800F0E6F940B14023CBEB000003FA00F0049B013718430490397806221B487E1C75
:402880008DF8281000F0D4F988B1194B33B9039B073323F007030833039314E003AB00932A46144B04A94046AFF3008007E003AB00932A460F4B04A9404600F093F8B0F1B5
:4028C000FF3F824603D0099B5344099342E7AB895B0601D4099801E04FF0FF301DB0BDE8F08F00BF562F00005C2F0000602F0000000000005D2600002DE9F04791461F464A
:402900000A698B6806469342B8BF1346C9F8003091F843200C46DDF8208012B10133C9F800302368990642BFD9F800300233C9F80030256815F0060510D104F1190A07E0E5
:402940000123524639463046C04701301AD00135E368D9F800209B1A9D42F1DB94F843302268003318BF012392060FD5E118302081F843005A1C94F845102244023382F80E
:40298000431003E04FF0FF30BDE8F08704F1430239463046C0470130F4D02268D9F80050E36802F00602042A08BF5D1B2269A3680CBF25EAE57500259342C4BF9B1AED18CE
:4029C0004FF000091A344D4509D00123224639463046C0470130D5D009F10109F3E70020BDE8F0872DE9F04317460A7E85B06E2A984606460C460C9B01F1430E00F0AE80DF
:402A000011D8632A22D009D8002A00F0BB80582A40F0CA8081F84520834955E0642A1ED0692A1CD0C0E0732A00F0B08009D86F2A2ED0702A40F0B8800A6842F020020A601B
:402A40003EE0752A24D0782A3AD0ADE01A6801F14205111D1960136884F84230A8E021681A6811F0800F02D0111D196008E011F0400F02F10401196002D0B2F9003000E0CF
:402A80001368002B3CDA2D225B4284F8432037E021681A6811F0800F02D0111D196007E011F0400F02F10401196001D0138800E01368227E5C496F2A14BF0A2208221BE0F3
:402AC00078225A4984F845202268186812F0800F00F104051D6003D1550601D5038800E00368D00744BF42F0200222601BB9226822F0200222601022002084F8430001E015
:402B000049490A226568002DA56008DB206820F0040020602BB9002D7DD175460CE0002B79D07546B3FBF2F002FB1033CB5C05F8013D03460028F5D1082A0BD12368DA07C1
:402B400008D5236962689A42DEBF302305F8013C05F1FF35C5EB0E0323612EE008681A6810F0800F496903D0101D1860136808E010F0400F02F104001860136801D01980EE
:402B800000E0196000232361754616E01A68111D1960156800216268284600F049F808B1401B6060636804E004F1420584F8422001232361002384F84330CDF800803B4617
:402BC00003AA21463046FFF797FE013002D14FF0FF3026E023692A4639463046C0470130F5D023689B0710D5002504F1190907E001234A4639463046C0470130E7D0013557
:402C0000E368039A9B1A9D42F2DBE068039B9842B8BF184605E00B7804F1420584F842308AE705B0BDE8F083672F0000782F000010B5C9B202449042034605D01C7801306E
:402C40008C42F8D1184610BD002010BD884210B501EB020301D8421E0BE09842FBD28118D21AD34204D013F8014D01F8014DF8E710BD994204D011F8014B02F8014FF8E773
:402C800010BD000038B50546002944D051F8043C0C1F002BB8BFE41800F0D4F81E4A1368114613B96360146030E0A3420DD92268A018834201BF18685B6812182260636033
:402CC0000C6023E0A24203D813465A68002AF9D118681918A1420BD12168014458188242196013D110685268014419605A600DE002D90C232B6009E021686018824201BF2E
:402D0000106852680918216062605C602846BDE8384000F098B838BD7481FF1F70B5CD1C25F0030508350C2D38BF0C25002D064601DBA94202D90C23336046E000F082F838
:402D4000234B1C681A462146A1B10B685B1B0ED40B2B03D90B60CC18CD501EE08C420BBF63684B681360636018BF0C4615E00C464968E9E7174C23681BB9304600F052F852
:402D800020602946304600F04DF8431C18D0C41C24F00304A0420DD12560304600F053F804F10B00231D20F00700C31A0ED05A42E25070BD211A304600F034F80130EBD17A
:402DC0000C233360304600F03EF8002070BD00BF7481FF1F7081FF1FF8B5074615460E4621B91146BDE8F840FFF798BF1AB9FFF749FF2846F8BD00F027F885420ED92946E3
:402E00003846FFF78BFF044650B131462A46FFF7EDFB31463846FFF735FF01E03046F8BD2046F8BD38B5064C0023054608462360FEF78CFC431C02D1236803B12B6038BD52
:402E40007C81FF1F7047704751F8040C0028BEBF091851F8043CC018043870470000000050726F6772616D2073746172746564210D0A000043726561746564204C617365D2
:402E800072204F626A656374210D0A00496E697469616C697A656420564C35334C30580D0A0000005365742074696D656F7574210D0A00005374617274656420636F6E7430
:402EC000696E756F7573210D0A0000001B5B324A000000002D2D2D2D2D2D2052414E47494E472044415441202D2D2D2D2D2D0D0A44697374616E63653A202564206D6D0D3D
:402F00000A000000C84900401900005100401000205100405000F0510040100000000140001000140140000480180140800300400140000A004C0140000200500140200019
:402F400060520040E4020048060000180140EC02004880004300232D302B2000686C4C006566674546470030313233343536373839414243444546003031323334353637AC
:402F8000383961626364656600000000F8B500BFF8BC08BC9E4670474D00000035180000F8B500BFF8BC08BC9E46704729000000C02F0000C880FF1F80000000380000007D
:402FC000000000008081FF1F00366E01C05D0000180000000000E02E0000000000000000000000000000000000000000000000000000000000000000542F00000000000047
:403000000000000000000000000000000000000000000000000000000000000000000000000000000000000000000000000000000000000000000000E080FF1F0000000012
:403040000000000000000000000000000000000000000000000000000000000000000000000000000000000000000000000000000000000000000000000000000000000050
:403080000000000000000000000000000000000000000000000000000000000000000000000000000000000000000000000000000000000000000000000000000000000010
:4030C00000000000000000000000000000000000000000000000000000000000000000000000000000000000000000000000000000000000000000000000000000000000D0
:40310000000000000000000000000000000000000000000000000000000000000000000000000000000000000000000000000000000000000000000000000000000000008F
:020000040003F7
:0200000480007A
:400000000365004003150140011701401418014045190140701A0140561B014002420140014301400348014010490140094C01400C4D01400250014001510140887289389C
:400040008B0FE008E401EA05E2048602880495019A08A202A401A801AC01B002B208B401B501B604BE41BF10D418D804D904DB04DF010120022005010606071008200C40B6
:400080000E0A0F2010A2111014801601172819081A011B111C101D211E0A1F022304262027112D082E022F0530083480350537103A053B093E883F21444045204680474097
:4000C0004C804F6057405B015C10600463026C226D106E0475047609772886018A208B408E048F01C0F6C2E2C4FFCAF0CCF2CEF0D0B0D230D621D80CE008E204000C02712E
:400100000580060307130F0C100912D01414152C1743181019711AAC1B061F08201021712240230E262028DC2A2230E031C0330F341F353039223A023B083F1040024604E3
:4001400049FF4A074BFF4C404D204EF04F055008580459045A045F01604061A8624063208013810882048314842086C08720881389188A0C8F209208940A9501961498E039
:400180009B019C039D109E149F0CA080A101A220A518A615A8E0AB02AC40AE20AF01B010B106B2E0B301B40FB520B718B908BA20BE01BF11C036C101C50BC7CEC831C9FF33
:4001C000CAFFCBFFCEF0CF44D00CD401D804D904DA04DB04DF01E6C0EA40EB0201020320051608100A200B400D080E040F4210801104120814801514160219221B201D1456
:400200001E401F04211822082340240425042680274029022A012C402E042F0630903118348036843710380839043B403D183E023F804110441046014C044E10508454081C
:40024000550257015E405F25882089028A028B208C088F019110920493049404970898409B109CA09D209E029F40A204A342A408C07CC2FEC4FECAF1CC7ECEFAD054D22047
:40028000D6F0E008E401EA053E10CE20961082209610E2201220164072207710822086409A209B10AA10AB10C430DC80DE20E010E480EAA01080132017087B107F40808055
:4002C0008710C40EDE031040731083108740884093109780A710AB28C408DC01E20110011C0103C002800000430000001F1020001C082300030000E301FF0000001C00E1C0
:4003000000182300333C0CC23F80000002440000040000040CC0000008E700182C00101F0F3800C00000A208000004002604050001C00E0006FFFFFF62A0F0410C00000015
:400340000000021104040404000000010000000000004002001030100010101200000000000000000000000000000000830040808300830000000000000B0B000000000036
:40038000000000000000000000000000000000000000000000000000000000000000000000000000000000000000000000000000000000000000000000000000000000003D
:4003C00000000000000000000000000000000000000000000000000000000000000000000000000000000000000000000000000000000000000000000000000000000000FD
:4004000000000000000000000000000000000000000000000000000000000000000000000000000000000000000000000000000000000000000000000000000000000000BC
:40044000000000000000000000000000000000000000000000000000000000000000000000000000000000000000000000000000000000000000000000000000000000007C
:0200000490006A
:0400000000004005B7
:0200000490105A
:04000000BC90ACAF55
:0200000490303A
:020000007B7013
:0200000490402A
:4000000000000000000000000000000000000000000000000000000000000000000000000000000000000000000000000000000000000000000000000000000000000000C0
:400040000000000000000000000000000000000000000000000000000000000000000000000000000000000000000000000000000000000000000000000000000000000080
:400080000000000000000000000000000000000000000000000000000000000000000000000000000000000000000000000000000000000000000000000000000000000040
:4000C0000000000000000000000000000000000000000000000000000000000000000000000000000000000000000000000000000000000000000000000000000000000000
:0200000490501A
:0C00000000012E16106900012E2A8BD979
:00000001FF