:400000000080002011000000ED0F0000ED0F000008B5044B1A6803F53F5302331A6001F00BF800BFFA46004010B5054C237833B9044B13B10448AFF300800123237010BD7B
:400040004881FF1F000000001C340000084B10B51BB108490848AFF300800848036803B910BD074B002BFBD0BDE81040184700BF000000004C81FF1F1C340000C880FF1F62
:400080000000000010B584B062B629238DF804300021684600F08AFE4FF4FA73ADF80C300021684600F072F8684600F0D5F8094C2080094801F026F8228892B20749606863
:4000C00002F06CFD606801F01DF8FA2001F018F9EAE700BF6481FF1FA0350000A8350000F8B5084614461F46069D002101F01CF8204601F0ABF80022531CDCB2BA4206D206
:400100006E1C287801F0A2F822463546F4E701F081F8F8BD10B584B004AC04F8013D00940123FFF7DDFF04B010BD00BFF8B50C4616461F46069D0021204600F0F5FF30463C
:4001400001F084F80121204601F02EF80022531CDCB27B1E9A4207DA6E1C012001F0A2F8287022463546F2E7002001F09BF8287001F050F8F8BD00BF00B583B000930123EC
:40018000FFF7D4FF03B05DF804FB00BF30B585B004460D46012380220179FFF7BBFF0123FF2221792046FFF7B5FF00231A4621792046FFF7AFFFA37B912221792046FFF72C
:4001C000A9FF0123002221792046FFF7A3FF0023FF2221792046FFF79DFF0023802221792046FFF797FF75B304AB002243F8042D217900930223F8222046FFF797FF9DF8FA
:400200000C209DF80D3003EB02239BB20BB103FB05F58DF80C502B0A8DF80D302B0C8DF80E302D0E8DF80F50217903AB009304231A462046FFF754FF042300222179204661
:40024000FFF768FF05E00223002221792046FFF761FF05B030BD00BF30B585B0044600238DF80F309DF80F3013F0070F07D10DF10F03132221792046FFF77EFFF2E7217903
:4002800003AB009302231E222046FFF74FFF9DF80C509DF80D3003EB0525ADB201230B2221792046FFF736FF284605B030BD00BF10B582B00C460DF1070301220179FFF785
:4002C0005BFF9DF80730C3F300122270C3F3C002A270C3F380026270C3F38012E270DB09237102B010BD00BFCBB2080A03FA00F0013080B2704700BF00B583B000238DF8B5
:40030000073059B90DF1070350220179FFF734FF9DF8070001304000C0B20EE001290BD10DF1070370220179FFF726FF9DF8070001304000C0B200E0FF2003B05DF804FB30
:4003400010B504460123FF220179FFF7E3FE00231A4621792046FFF7DDFE0023FF2221792046FFF7D7FE0023092221792046FFF7D1FE0023102221792046FFF7CBFE00232B
:40038000112221792046FFF7C5FE0123242221792046FFF7BFFEFF23252221792046FFF7B9FE0023752221792046FFF7B3FE0123FF2221792046FFF7ADFE2C234E2221797E
:4003C0002046FFF7A7FE0023482221792046FFF7A1FE2023302221792046FFF79BFE0023FF2221792046FFF795FE0923302221792046FFF78FFE0023542221792046FFF759
:4004000089FE0423312221792046FFF783FE0323322221792046FFF77DFE8323402221792046FFF777FE2523462221792046FFF771FE0023602221792046FFF76BFE0023AA
:40044000272221792046FFF765FE0623502221792046FFF75FFE0023512221792046FFF759FE9623522221792046FFF753FE0823562221792046FFF74DFE3023572221794B
:400480002046FFF747FE0023612221792046FFF741FE0023622221792046FFF73BFE0023642221792046FFF735FE0023652221792046FFF72FFEA023662221792046FFF70A
:4004C00029FE0123FF2221792046FFF723FE3223222221792046FFF71DFE1423472221792046FFF717FEFF23492221792046FFF711FE00234A2221792046FFF70BFE0023E1
:40050000FF2221792046FFF705FE0A237A2221792046FFF7FFFD00237B2221792046FFF7F9FD2123782221792046FFF7F3FD0123FF2221792046FFF7EDFD3423232221791B
:400540002046FFF7E7FD0023422221792046FFF7E1FDFF23442221792046FFF7DBFD2623452221792046FFF7D5FD0523462221792046FFF7CFFD40231A4621792046FFF707
:40058000C9FD06230E2221792046FFF7C3FD1A23202221792046FFF7BDFD4023432221792046FFF7B7FD0023FF2221792046FFF7B1FD0323342221792046FFF7ABFD44235C
:4005C000352221792046FFF7A5FD0123FF2221792046FFF79FFD0423312221792046FFF799FD09234B2221792046FFF793FD05234C2221792046FFF78DFD04234D222179CA
:400600002046FFF787FD0023FF2221792046FFF781FD0023442221792046FFF77BFD2023452221792046FFF775FD0823472221792046FFF76FFD2823482221792046FFF778
:4006400069FD0023672221792046FFF763FD0423702221792046FFF75DFD0123712221792046FFF757FDFE23722221792046FFF751FD0023762221792046FFF74BFD0023F3
:40068000772221792046FFF745FD0123FF2221792046FFF73FFD01230D2221792046FFF739FD0023FF2221792046FFF733FD0123802221792046FFF72DFDF823012221794B
:4006C0002046FFF727FD0123FF2221792046FFF721FD01238E2221792046FFF71BFD0123002221792046FFF715FD0023FF2221792046FFF70FFD0023802221792046FFF7F0
:4007000009FD10BD10B582B0044604230A220179FFF700FD0DF10703842221792046FFF72BFD9DF8073003F0EF03842221792046FFF7F0FC01230B2221792046FFF7EAFCB3
:4007400002B010BD10B50446002388220179FFF7E1FC0123802221792046FFF7DBFC0123FF2221792046FFF7D5FC00231A4621792046FFF7CFFC04F10E0391222179204635
:40078000FFF7FAFC0123002221792046FFF7C2FC0023FF2221792046FFF7BCFC0023802221792046FFF7B6FC10BD00BF0000000030B585B005460C460021204601F0A6F99A
:4007C000F8B9204600F028FF11A3D3E9002300F0F5FFC0B94FF08641204600F0F9FF01F0BDF980B28DF80C0000128DF80D00297903AB0093022344222846FFF771FC012019
:4008000002E0002000E0002005B030BDAFF30080A4703D0AD7FF7F4010B582B0044671B10DF1060389220179FFF7A6FC9DF8063043F00103892221792046FFF76BFC20466B
:40084000FFF780FF0DF10703602221792046FFF793FC9DF8073043F01203602221792046FFF758FC4FF07A512046FFF7A1FFFF23012221792046FFF74DFC02B010BD00BF4C
:40088000F0B583B004460F4616460546012380220179FFF73FFC0123FF2221792046FFF739FC00231A4621792046FFF733FC0623FF2221792046FFF72DFC0DF1070383227B
:4008C00021792046FFF758FC9DF8073043F00403832221792046FFF71DFC0723FF2221792046FFF717FC0123812221792046FFF711FC0123802221792046FFF70BFC6B2385
:40090000942221792046FFF705FC0023832221792046FFF7FFFB00238DF807309DF807303BB90DF10703832221792846FFF724FCF4E70123832221792046FFF7EBFB0DF16A
:400940000703922221792046FFF716FC9DF8073003F07F023A70DB0933700023812221792046FFF7D7FB0623FF2221792046FFF7D1FB0DF10703832221792046FFF7FCFB0C
:400980009DF8073003F0FB03832221792046FFF7C1FB0123FF2221792046FFF7BBFB0123002221792046FFF7B5FB0023FF2221792046FFF7AFFB0023802221792046FFF7A7
:4009C000A9FB012003B0F0BD074B03FB02F202F5FA720648A0FB02329309D20903FB0121A0FB013080097047002F3A00D34D6210F0B585B005460F4614460021FFF77CFC0D
:400A0000208029790DF10F030093012346222846FFF78CFB9DF80F100131A18022782846FFF7D2FFE060297903AE0096022351222846FFF77BFB9DF80C109DF80D3003EB78
:400A4000012189B22846FFF74FFC0146E08022782846FFF7B9FF206101212846FFF74CFC608029790096022371222846FFF75EFB9DF80C109DF80D3003EB012189B22846F5
:400A8000FFF732FC2081FB7813B1E388C01A2081A27821892846FFF797FF606105B0F0BD10B588B0044606A9FFF702FC6A4606A92046FFF79DFF9DF818301BB1039800F6F8
:400AC000845001E040F636309DF81A302BB1039B03F2B22300EB430006E09DF819301BB1039B184400F525709DF81B301BB1049B184400F525709DF81C301BB1059B184466
:400B000000F22620A06008B010BD00BF084B03FB02F202F5FA720748A0FB02329009D2094FF47A7303FB0121B1FBF0F0704700BF002F3A00D34D621030B583B00446054605
:400B400041F0010300220179FFF7E4FA00238DF807309DF8073013F0070F07D10DF10703132221792846FFF707FBF2E701230B2221792046FFF7CEFA00231A46217920468C
:400B8000FFF7C8FA012003B030BD00BF38B5044601231A460179FFF7BDFA40212046FFF7CBFF054688B10223012221792046FFF7B1FA00212046FFF7BFFF054628B1E823BD
:400BC000012221792046FFF7A5FA284638BD00BF69B10139002031F0FF0303D04908013080B2F8E7C9B241EA002080B270470020704700BFF0B58DB044F61F63994250D937
:400C00000E4604460AA9FFF753FB04AA0AA92046FFF7EEFE9DF828301BB1079B03F6363301E040F6E8039DF82A202AB1079A02F2B22203EB420306E09DF829201AB1079932
:400C40000B4403F525739DF82B701FB108990B4403F525739DF82C502DB303F226218E4201D2002520E09DF81220711A2046FFF74DFF81B21FB1BDF81600014489B2204672
:400C8000FFF7A6FF8DF80C0000128DF80D00217903AB0093022371222046FFF721FAA66002E0002500E0012528460DB0F0BD00BF70B584B004460DF10E020DF10F01FFF7FB
:400CC000DFFD002870D0217902AB00930623B0222046FFF72BFA0123FF2221792046FFF719FA00234F2221792046FFF713FA2C234E2221792046FFF70DFA0023FF222179DB
:400D00002046FFF707FAB423B62221792046FFF701FA9DF80E300BB10C2600E0002600231D462F2B24D8B34203D39DF80F2095420ED103F00701012202FA01F104AA02EB27
:400D4000D30010F8082C22EA010200F8082C0CE004AA02EBD30212F8082C03F007010A4112F0010F01D00135EDB20133DBB2D8E7217902AB00930623B0222046FFF7B0F937
:400D80002046FFF7DDFA2046FFF7BCFC2046FFF787FE0546E823012221792046FFF7BAF929462046FFF726FF04B070BD38B504460D46FFF7C7FC29462046FFF72DFD20467A
:400DC000FFF776FF2046FFF7E1FE012038BD00BFFEE700BFF0B40022174611E050F82760F3B226F0FF0608E001EB420511F812406D78A5550132013BDBB2002BF4D10137B8
:400E0000182FEBD9F0BC7047064B1B78DBB203F00701054A11701B09013213704422034B1A707047CF0100496E5800407658004008B50A46002101F062FE08BD38B5332286
:400E4000244B1A80182202331A70022203F27E231A7008224FF040231A70032103F5007319701D4B1B78DBB21C490B701C4B1A8041F25122023B1A80002419250CE0194B26
:400E80001B7803F0010343EA440404F003044FF4F07000F04DFA013D0DB1032CEFD115B90320FFF795FF104B4FF480721A8007221A7000220D490A704820023108701A708C
:400EC0000222033B1A700A4A137843F00103137038BD00BF8040004008010049A146004022420040254200400440004006400040A243004008B501F0F7FD08BD38B572B64A
:400F00002B4A137843F00403137000240CE0294D630019194A0011462A44084691882858FFF786FF0134E4B2072CF0D922494FF09040FFF74FFF214A137843F00203137032
:400F40001032137843F0020313701D4C237843F040032370A2F58632513A137843F0100313700A2217491848FFF7C4FF0A2217491748FFF7BFFF082216491748FFF7BAFFD3
:400F8000164A137843F008031370154D61232B70FFF754FF81232B700122124B1A70FFF733FF0E2221461048FFF7A4FF38BD00BFE8460040D8350000640000480350014053
:400FC000A0430040280400480051004034040048C05100404004004812510040224300400048004004000840B043004008B501F04FFD03680C2B00D1FEE7FEE708B5C0B2B7
:4010000000F07CF9FEE700BF08B5094B1A681044084BC31A802B02DC054B186005E001F037FD0C2303604FF0FF32104608BD00BFCC80FF1F8081FF1F08B5104E104D16E062
:4010400029686B68AC68002204E051F8040B43F8040B0432A242F8D1E868002203E0002143F8041B04328242F9D11035013E002EE6D101F013FDFFF705F8FEE70100000096
:401080006436000008B5104A104B1A60104A136843F40073136000230AE0032B03D80D4A52F8231000E00C490C4A42F8231001332F2BF2D90A4B1A780A4B1A70074A0A4B11
:4010C0001A60FFF71BFF08BD0004FA050CED00E014ED00E000000000ED0F00000080FF1FBC760040C080FF1F08ED00E0034B1B7813F0040FFAD1024B187070476264004051
:401100004164004038B5074B1B782BB938BDFFF7EDFF0134A4B201E005460024285D0028F5D138BD6C81FF1F1A4B1B78DBB2102B29D1194B1B7813F0080F26D14FF40042A8
:40114000164B1A604000C0B229B140F001004922104B1A7002E045220E4B1A70104B1870012201331A700F4B1B7813F0010FFAD00C4B1B7803F00A030A2B08D11022054B53
:401180001A700320704702207047012070470020704700BF7881FF1FD949004080E100E0D8490040D7490040164B1B7813F0040F23D04000C0B229B140F001004922124B87
:4011C0001A7002E04522104B1A70104B1870122201331A700422023B1A700D4B1B7813F0010FFAD00A4B1B7803F00A030A2B06D11022054B1A7003207047022070470020DA
:40120000704700BFD94900407881FF1FD8490040D74900400A4B1B7813F0040F0ED01023074A13700421023A1170064A1370064B1B7813F0210FFAD00020704702207047D5
:40124000D94900407881FF1FD7490040114B1B7813F0040F1BD0104B18700422013B1A7046220E4B1A700E4B1B7813F0010FFAD00B4B1B7813F0020F04D16022074B1A7092
:40128000002070476022054B1A70032070470220704700BFD9490040D84900407881FF1FD7490040114B1B7813F0040F1BD0104B1B78DBB2492B05D100220E4B1A704A2229
:4012C0000B4B1A700B4B1B7813F0010FFAD00A4B1B78DBB218B11021064A117004E06021034A117000E0002318467047D94900407881FF1FD7490040D849004001BE70470D
:4013000010B5044605E0084B186800F011F8A4F50044B4F5004FF6D8034B586800FB04F000F006F810BD00BFD080FF1F000000000230800803D000BF01380046FCD1704716
:40134000EFF3108072B6704780F31088704700BF81F0004102E000BF83F0004330B54FEA41044FEA430594EA050F08BF90EA020F1FBF54EA000C55EA020C7FEA645C7FEAC3
:40138000655C00F0E2804FEA5454D4EB5555B8BF6D420CDD2C4480EA020281EA030382EA000083EA010180EA020281EA0303362D88BF30BD11F0004F4FEA01314FF4801C87
:4013C0004CEA113102D0404261EB410113F0004F4FEA03334CEA133302D0524263EB430394EA050F00F0A780A4F10104D5F1200E0DDB02FA0EFC22FA05F2801841F1000159
:4014000003FA0EF2801843FA05F359410EE0A5F120050EF1200E012A03FA0EFC28BF4CF0020C43FA05F3C01851EBE37101F0004507D54FF0000EDCF1000C7EEB00006EEB78
:401440000101B1F5801F1BD3B1F5001F0CD349085FEA30004FEA3C0C04F101044FEA445212F5800F80F09A80BCF1004F08BF5FEA500C50F1000041EB045141EA050130BD17
:401480005FEA4C0C404141EB010111F4801FA4F10104E9D191F0000F04BF01460020B1FA81F308BF2033A3F10B03B3F120020CDA0C3208DD02F1140CC2F10C0201FA0CF0B5
:4014C00021FA02F10CE002F11402D8BFC2F1200C01FA02F120FA0CFCDCBF41EA0C019040E41AA2BF01EB0451294330BD6FEA04041F3C1CDA0C340EDC04F11404C4F1200207
:4015000020FA04F001FA02F340EA030021FA04F345EA030130BDC4F10C04C4F1200220FA02F001FA04F340EA0300294630BD21FA04F0294630BD94F0000F83F4801306BF5E
:4015400081F480110134013D4EE77FEA645C18BF7FEA655C29D094EA050F08BF90EA020F05D054EA000C04BF1946104630BD91EA030F1EBF0021002030BD5FEA545C05D1CB
:401580004000494128BF41F0004130BD14F580043CBF01F5801130BD01F0004545F0FE4141F470014FF0000030BD7FEA645C1ABF194610467FEA655C1CBF0B46024650EA14
:4015C000013406BF52EA033591EA030F41F4002130BD00BF90F0000F04BF0021704730B54FF4806404F132044FF000054FF0000150E700BF90F0000F04BF0021704730B504
:401600004FF4806404F1320410F0004548BF40424FF000013EE700BF42004FEAE2014FEA31014FEA02701FBF12F07F4393F07F4F81F06051704792F0000F14BF93F07F4F71
:40164000704730B54FF4607401F0004521F0004120E700BF50EA010208BF704730B54FF000050AE050EA010208BF704730B511F0004502D5404261EB41014FF4806404F1B2
:4016800032045FEA915C3FF4DCAE4FF003025FEADC0C18BF03325FEADC0C18BF033202EBDC02C2F1200300FA03FC20FA02F001FA03FE40EA0E0021FA02F11444C1E600BF9D
:4016C0004FF0FF3C06E000BF4FF0010C02E000BF4FF0010C4DF804CD4FEA410C7FEA6C5C4FEA430C18BF7FEA6C5C1BD001B050EA410C0CBF52EA430C91EA030F02BF90EAF4
:40170000020F0020704710F1000F91EA030F58BF994208BF90422CBFD8176FEAE37040F0010070474FEA410C7FEA6C5C02D150EA013C07D14FEA430C7FEA6C5CD6D152EAB6
:40174000033CD3D05DF8040B704700BF8446104662468C461946634600E000BF01B5FFF7B7FF002848BF10F1000F01BD4DF808EDFFF7F4FF0CBF012000205DF808FB00BFC7
:401780004DF808EDFFF7EAFF34BF012000205DF808FB00BF4DF808EDFFF7E0FF94BF012000205DF808FB00BF4DF808EDFFF7CEFF94BF012000205DF808FB00BF4DF808ED29
:4017C000FFF7C4FF34BF012000205DF808FB00BF4FF0FF0C1CEAD0521EBF1CEAD15392EA0C0F93EA0C0F6FD01A4480EA010C400218BF5FEA41211ED04FF0006343EA501048
:4018000043EA5111A0FB01310CF00040B1F5000F3EBF490041EAD3715B0040EA010062F17F02FD2A1DD8B3F1004F40EBC25008BF20F00100704790F0000F0CF0004C08BFD3
:4018400049024CEA502040EA51207F3AC2BFD2F1FF0340EAC250704740F400004FF00003013A5DDC12F1190FDCBF00F000407047C2F10002410021FA02F1C2F1200200FA80
:4018800002FC5FEA310040F1000053EA4C0308BF20EADC70704792F0000F00F0004C02BF400010F4000F013AF9D040EA0C0093F0000F01F0004C02BF490011F4000F013BDB
:4018C000F9D041EA0C018FE70CEAD15392EA0C0F18BF93EA0C0F0AD030F0004C18BF31F0004CD8D180EA010000F00040704790F0000F17BF90F0004F084691F0000F91F039
:40190000004F14D092EA0C0F01D142020FD193EA0C0F03D14B0218BF084608D180EA010000F0004040F0FE4040F40000704740F0FE4040F4400070474FF0FF0C1CEAD05231
:401940001EBF1CEAD15392EA0C0F93EA0C0F69D0A2EB030280EA010C49024FEA402037D04FF0805343EA111143EA10130CF000408B4238BF5B0042F17D024FF4000C8B422A
:4019800024BF5B1A40EA0C00B3EB510F24BFA3EB510340EA5C00B3EB910F24BFA3EB910340EA9C00B3EBD10F24BFA3EBD10340EADC001B0118BF5FEA1C1CE0D1FD2A3FF6FD
:4019C00050AF8B4240EBC25008BF20F0010070470CF0004C4CEA50207F32C2BFD2F1FF0340EAC250704740F400004FF00003013A37E792F0000F00F0004C02BF400010F4D6
:401A0000000F013AF9D040EA0C0093F0000F01F0004C02BF490011F4000F013BF9D041EA0C0195E70CEAD15392EA0C0F08D142027FF47DAF93EA0C0F7FF470AF084676E775
:401A400093EA0C0F04D14B023FF44CAF08466EE730F0004C18BF31F0004CCAD130F000427FF45CAF31F000437FF43CAF5FE700BF4FF0FF3C06E000BF4FF0010C02E000BFDD
:401A80004FF0010C4DF804CD4FEA40024FEA41037FEA226C18BF7FEA236C11D001B052EA530C18BF90EA010F58BFB2EB030088BFC81738BF6FEAE17018BF40F0010070473B
:401AC0007FEA226C02D15FEA402C05D17FEA236CE4D15FEA412CE1D05DF8040B704700BF844608466146FFE70FB5FFF7C9FF002848BF10F1000F0FBD4DF808EDFFF7F4FF4E
:401B00000CBF012000205DF808FB00BF4DF808EDFFF7EAFF34BF012000205DF808FB00BF4DF808EDFFF7E0FF94BF012000205DF808FB00BF4DF808EDFFF7D2FF94BF0120EF
:401B400000205DF808FB00BF4DF808EDFFF7C8FF34BF012000205DF808FB00BF42000ED2B2F1FE4F0BD34FF09E03B3EB126209D44FEA002343F0004323FA02F070474FF056
:401B80000000704712F1610F01D1420202D14FF0FF3070474FF00000704700BF03685A004CBF43F0004323F000431844704700BF61B32DE9F84F01F1FF3A90460646D146F5
:401BC000002707EB090404EBD4746410E50071190846FFF7E3FFA245834605F10800304409D0FFF7DBFFC34500F1FF3005D8404509D2671CE5E7C34505D9A74202D004F16A
:401C0000FF39DEE700210846BDE8F88F08467047012807D0022807D0044B00280CBF184600207047024870470248704725230000292300002D23000030B5254B83B00446D7
:401C40008D1E7BB301A92846AFF3008020B301992A46FFF7ADFF0146F0B1FFF79FFF4B68A064012B12D0002B01F1040021DBFFF795FF0023E06423650368002B1DDBFFF777
:401C80008DFF00232061184603B030BD002323610523184603B030BD002323610923184603B030BD0B490C4B0846591AC9100191CEE70123E0642365DEE7C3F30360FFF708
:401CC000A7FF0028206114BF00230923DBE700BF0000000020340000A0350000036810B5DA07044606D49B0700F1480009D500F05BFC2368590709D51A070ED5DB0613D5FE
:401D000010BD00F049FC23685907F5D404F1D00000F052FC23681A07F0D404F5A87000F053FC2368DB06EBD404F5E870BDE8104000F08EBC03680BB1184470471846704730
:401D400009207047704700BF70B504460D4608E02A6C2369626121462A4601209847082808D1296C2046FFF767FF06460028EFD000F086FE0728FBD13046296CFFF7E2FFC3
:401D8000281D00F0FDFB00BF2DE9F0470646ADF5727D03AD0C1D17460FCC0FC50FCC0FC50FCC0FC594E80F0002ACD6F80C80D6F8189085E80F0000233046216C2360FFF7A6
:401DC0003BFF0546002F14BF0A2709277DB1A36B47F010018DE810023246636401203346C04778BB28460DF5727DBDE8F087236C4FF4F072736121467AA800F075FE3369D2
:401E00007AAA314638469847889B82468DE8100239466364324633460120C04790B94FF4F0727AA9204600F05FFEBAF1080F06D1216C3046FFF700FF09270546C6E7BAF1B1
:401E4000070F04D009200DF5727DBDE8F0872846216CFFF777FF03A800F092FB406C7047F0B5CB6BF9B00B640E1D01AD0F4604460FCE0FC50FCE0FC50FCE0FC596E80F0045
:401E80004FF0FF3685E80F00009606E023696A46214698470828054608D110992046FFF7CBFE0028F2D0092079B0F0BD6846FFF715FF062DF7D139462046FFF745FF00BF98
:401EC00030B4DD6BC160826119461D64002230BC5AE700BF70B54369C6680B6426B10122FFF752FF00F0CCFD03690A4604460D46014602209847072807D0082803D1294642
:401F00002046FFF721FF00F0BBFD3046296CFFF719FF281D00F034FBC2682AB110B4CC6B00220C6410BC2FE79AE700BF704700BF836813B1014601201847704700B50429C7
:401F400007D8DFE801F00309060909000BB90F2A05D902205DF804FB01205DF804FB00EB820252681846019B1A605DF804FB00BF10B584B0002303AC0A4600941946FFF72C
:401F8000DDFF039804B010BD00B5042907D8DFE801F00309060909000BB90F2A05D902205DF804FB01205DF804FB019900EB82020968184651605DF804FB00BF10B584B031
:401FC00004AC44F8042D00230A4600941946FFF7DBFF04B010BD00BFF0B5D36BADF50F7D1364151D17AC07460E460FCD0FC40FCD0FC40FCD0FC495E80F004FF0FF3584E8B8
:402000000F00169511E016A86A46FFF7D7FF314616A8B84780B9049B16AA6946082098470528044609D0092806D026996846FFF703FE0C210028E6D0092416A8FFF74EFE46
:4020400020460DF50F7DF0BD2DE9F04FCC6C914622688BB004340D460792089400F0030B1E46002B64D11202032307928DF825608DF824302B6DBBF1020F08BFAC6B13F028
:40208000010343D100F00800C2B2039201932768002F3DD0022E47D02788B4F802800434AB6C28F0010A0F2148469A44FFF760FF824537D827F001039A4450452CBF0020B2
:4020C00001204FEA480808F0020807F0010748EA0708B8F1010F41D038D3B8F1020F1DD1236823F000420292BBF1000F79D130B10399002900F08180002A00F0A880002BFA
:4021000079DB029B013304EB8304C0E700230193022E40DDFFF714FE002842D009200BB0BDE8F08F0020CCE7D4F804800834B7E7022B9FDC130CD9B212048DF825300223AB
:4021400004EB810407928DF8243093E7BBF1000F02D0002840F0B080043498E7BBF1000F26D1B0B194E80C00991C4FEAD272D5D005F158010133069100F09480201DFFF770
:40218000D9FD06AB01462846AFF30080002840F0B88008347BE707A9484600F0F3FA0028BCD1019B002B5CD108200BB0BDE8F08F0D2148462F6AFFF7DBFE8742E9D1AB6A0C
:4021C0009C42E6D12046FFF7E9FC0F2102464846FFF7F4FE48462A460021FFF7EFFE07209DE70D2148462F6AFFF7C2FE874248D02368002B85DA043483E7029B3BB305F14A
:402200005803271DCDF810B0DDF80C80A346DDF808A01C46059602E0B245B04616D038460694FFF787FD06AB014600222846AFF3008008F1010604370028EDD0029B5C4666
:402240004345DDF810B0059ED2D100E05C4648460D21FFF78DFE069B2862AC626B6206205DE70F214846FFF783FE0E2102464846FFF7A4FE48462A4A0F21FFF79FFE07200E
:402280004DE7AB6A9C42B3D1042202990027A318A962EF622A636B632368BB421FDB012301932EE748460D21FFF762FE2862069B6B62AC62062032E72046FFF76FFC043474
:4022C0000646AC632846AFF3008000283FF426AF484632460F21FFF771FE07201FE70846013004EB8000FFF759FC0F2102464846FFF764FE48462A463946FFF75FFE07206D
:402300000DE707460D214846FFF732FE022F2862CDD12B46069A43F82C2F6B62C9E700BF0000000000238FE601238DE602238BE6F0B50446C5B004290DD8DFE801F05703F1
:402340000C310F00012B4FEA124695B266D17219102A40F29F80022045B0F0BD002BFAD1102AF8D82368D80600F1C98022AE3046019200F077F9A06B019A0023012505FA32
:4023800003F1114203D00168043046F823100133042BF4D1A063304600F05AF90020DBE7032BD8D1150C97B2EB19102BD3D823681E0700F1B88022AE30467F0000F026F957
:4023C00006EBC5027B1EA56B57B12946043A51F8040B013B42F8040F581CF8D105EB87053046A56300F0F0F80020B5E7002BB2D1A56B97B2201D012606FA03F1394203F14D
:40240000010302D0296804350160102B00F10400F2D112F400503BD1A5639DE7052B9AD17719202F97D80F2E65D92F46002D48D12A460027002AA06B71DD00EBC20201468B
:4024400044A800EBC6008C3851F8045B914240F8045FF9D1084697B13246102E44A938BF102201EBC202A2F5C4727900043A00EB810150F8045B814242F8045FF9D1012B1B
:4024800047D00F2EA16332D917B102A800F094F8002061E70F2E3FF65EAF00272268D1070DD522F00101052B21600193204652D022F0030240F8482B00F072F8019B002FB1
:4024C00051D02268510736D4012B3ED00F2E06D822A8019300F06CF8019B002FA8D002A8019300F06DF8019BC6F11002A2E722A800F05AF8C8E7102FCFD9103FCEE723F04B
:402500001003236004F5E870019200F0ABF8019A2CE70431A16322A800F03EF8B8E7002F9AD10146ABE723F00803236004F5A87000F06CF83FE7204622F0040240F8D02BC8
:40254000019300F03DF8019BBEE722A8019300F027F8019BC8E741F0020140F8481B00F027F8019BABE7012B03D00F2E3FF660AFAEE722A8019300F013F8019B58E700BF95
:4025800000F1340191E838009C46A6464CF8045D90E8FF0FE54600BD90EC210B704700BF80EC210B704700BF90EC200B704700BF80EC200B704700BFD0EC200B704700BFB0
:4025C000C0EC200B704700BFF0EC0201F0EC0211F0EC0221F0EC0231F0EC0241F0EC0251F0EC0261F0EC0271F0EC0281F0EC0291F0EC02A1F0EC02B1F0EC02C1F0EC02D1AC
:40260000F0EC02E1F0EC02F1704700BFE0EC0201E0EC0211E0EC0221E0EC0231E0EC0241E0EC0251E0EC0261E0EC0271E0EC0281E0EC0291E0EC02A1E0EC02B1E0EC02C133
:40264000E0EC02D1E0EC02E1E0EC02F1704700BFB0FC0181B0FC0191B0FC01A1B0FC01B1704700BFA0FC0181A0FC0191A0FC01A1A0FC01B1704700BFEC4600B52DE90050AE
:402680002DE9FF1F4FF000032DE90C0001A9FFF7E7FBDDF840E012B0704700BFEC4600B52DE900502DE9FF1F4FF000032DE90C0001A9FFF70FFCDDF840E012B0704700BF16
:4026C000EC4600B52DE900502DE9FF1F4FF000032DE90C0001A9FFF71FFCDDF840E012B0704700BFEC4600B52DE900502DE9FF1F4FF000032DE90C0001ABFFF7E1FBDDF8D5
:4027000040E012B0704700BFEC4600B52DE900502DE9FF1F4FF000032DE90C0001AAFFF75BFCDDF840E012B0704700BF037A1BB9437A43B9B02070475A1E036802721A0233
:402740000260180E70474268013B10B4437213680321141D01721A024460026010BC180E704700BF00B585B003AA0023009219460C22FFF7E3FB039805B05DF804FB00BFDE
:40278000F0E700BF2DE9F04306460D4685B04FF000082846FFF7CAFFB028044600F0B48020F07F0313F0FF0320D000F0F003802B7AD0902B35D0A02B48D0B02B5CD0C02BB8
:4027C00000F0898000F0F803D02B0BD100F00702013242F40022052301213046FFF7A8FD0028D6D0092005B0BDE8F0830DF10C0919468700CDF800900D223046FFF79EFBF9
:40280000FFB2039B043760064CBFDF1BFF180023CDF8009019460D2230460397FFF7B4FBB7E700F00D030D2BDCD003AF002300F00F02194600973046FFF780FB00230097E2
:4028400019460D223046FFF79FFBA2E7C2434FF47F6302F0070243FA02F2010702EA03024FF0000348BF42F4804219463046FFF75FFD0028B6D18CE7B1284AD0B22853D072
:40288000B32800F0818000F0FC03B42BAAD000F007020132012342F4002219463046FFF747FD00289ED174E72846FFF73FFF24022043B0F5004F95D004010023A2B21946FC
:4028C0003046FFF735FD00288CD114F4004F18BF4FF001085DE7C62862D0C7286CD000F0F803C02B7BD0C82800F09180C9287FF479AF2846FFF71AFF020300F00F0002F49B
:4029000070220130024366E7B8F1000F6ED0002069E72846FFF70AFF024600283FF462AF10F0F003B9D05DE700230DF10C090D221946CDF800903046FFF700FB2846FFF717
:40294000F5FE02064FF002040CD5039B00F07F00A040034428460393FFF7E8FE030604F10704F2D4039B00F07F0000FA04F203F5017400231444CDF8009019460D22304615
:402980000394FFF701FB04E72846FFF7CFFE010300F00F0001F47021421C01230A437CE72846FFF7C3FE010300F00F0001F47021421C03230A4370E72846FFF7B7FE024680
:4029C00000283FF40FAF10F0F0037FF40BAF04213046FFF7ADFC00287FF404AFD9E600F00F020132032342F4202256E703AC43460E22414600943046FFF7A0FA00943046B5
:402A000043460F224146FFF7BFFA4046EBE62846FFF78CFE00F0F00200F00F031032013343EA0232D7E600BF10B5C36C84B003205A688DF80C00DC7912020833084601A9F0
:402A400001928DF80D400293FFF79CFE04B010BD08B5FFF795FE806C08BD00BF08B5FFF78FFEC36CD87903EB8000083008BD00BF08B500F005F800BF08B5FFF7F9FF00BFD8
:402A800008B5062000F06EF80120FEF7B7FA0000014B1868704700BF4081FF1F0E4B70B51E460E4C0025E41AA410A54204D056F8253098470135F8E700F0C2FD084B094C39
:402AC0001E46E41AA4100025A54204D056F8253098470135F8E770BD4C3600004C3600004C3600005436000010B5431E0A44914204D011F8014B03F8014FF8E710BD03465C
:402B00000244934202D003F8011BFAE770471F2938B504460D4604D9162303604FF0FF3038BD426C12B152F821304BB9204600F033F82A4601462046BDE8384000F01AB8BE
:402B4000012B0CD0591C03D116230360012038BD0024284642F825409847204638BD002038BD0000024B01461868FFF7D0BF00BF4081FF1F38B5074C002305460846114648
:402B8000236000F037FC431C02D1236803B12B6038BD00BF7C81FF1F00F024BC0EB400B54FF402719CB0ADF814106FF00041049107914FF6FF711DAB02900690084853F885
:402BC000042BADF81610006802A9019300F0C2F8029B00221A701CB05DF804EB03B070474081FF1F70B5CD1C25F0030508350C2D38BF0C25002D064601DBA94202D90C23D5
:402C0000336046E000F06FFB234B1C681A462146A1B10B685B1B0ED40B2B03D90B60CC18CD501EE08C420BBF63684B681360636018BF0C4615E00C464968E9E7174C236804
:402C40001BB9304600F016FB20602946304600F011FB431C18D0C41C24F00304A0420DD12560304600F040FB04F10B00231D20F00700C31A0ED05A42E25070BD211A3046C2
:402C800000F0F8FA0130EBD10C233360304600F02BFB002070BD00BF7481FF1F7081FF1F2DE9F0478E6882469E420C46914698463ED88A8912F4906F3AD02568096902237B
:402CC0006F1A656905EB450595FBF3F57B1C43449D4238BF1D4653050FD52946FFF782FF064698B13A462169FFF7FEFEA38923F4906343F08003A38113E02A4600F042FB21
:402D0000064670B92169504600F0F0FA0C23CAF80030A3894FF0FF3043F04003A381BDE8F08726613E44266046466561ED1BA560464528BF464649463246206800F0B8FA96
:402D4000A36800209B1BA36023681E442660BDE8F08700002DE9F04F9DB003938B8980461C060D4616460DD50B695BB94021FFF739FF2860286118B90C23C8F80030CDE056
:402D800040236B610023099320238DF82930DFF89CB130238DF82A3037463C4614F8013B1BB9B7EB060910D003E0252BF9D02746F3E74B46324629464046FFF771FF01302A
:402DC00000F0A780099B4B4409933B78002B00F0A08000234FF0FF3204930793059206938DF853301A930126052221784E4800F051FA671C049B38B14B4A3C46801A06FAE2
:402E000000F018430490EFE7D90644BF20228DF853201A0744BF2B228DF8532022782A2A03D0079A00210A200BE0039A111D12680391002A10DA524243F0020007920490DD
:402E40000BE027463B780134303B092B03D800FB02320121F5E701B107923B782E2B1ED17B782A2B0AD1039B02371A1D1B680392002BB8BF4FF0FF33059310E000231946BF
:402E80000593781C0A2407463A780130303A092A03D804FB01210123F5E703B1059103223978224800F0F6F940B14023CBEB000003FA00F0049B01371843049039780622F0
:402EC0001B487E1C8DF8281000F0E4F988B1194B33B9039B073323F007030833039314E003AB00932A46144B04A94046AFF3008007E003AB00932A460F4B04A9404600F08E
:402F000093F8B0F1FF3F824603D0099B5344099342E7AB895B0601D4099801E04FF0FF301DB0BDE8F08F00BF0A360000103600001436000000000000A12C00002DE9F04798
:402F400091461F460A698B6806469342B8BF1346C9F8003091F843200C46DDF8208012B10133C9F800302368990642BFD9F800300233C9F80030256815F0060510D104F16D
:402F8000190A07E00123524639463046C04701301AD00135E368D9F800209B1A9D42F1DB94F843302268003318BF012392060FD5E118302081F843005A1C94F8451022446D
:402FC000023382F8431003E04FF0FF30BDE8F08704F1430239463046C0470130F4D02268D9F80050E36802F00602042A08BF5D1B2269A3680CBF25EAE57500259342C4BF93
:403000009B1AED184FF000091A344D4509D00123224639463046C0470130D5D009F10109F3E70020BDE8F0872DE9F04317460A7E85B06E2A984606460C460C9B01F1430EFC
:4030400000F0AE8011D8632A22D009D8002A00F0BB80582A40F0CA8081F84520834955E0642A1ED0692A1CD0C0E0732A00F0B08009D86F2A2ED0702A40F0B8800A6842F043
:4030800020020A603EE0752A24D0782A3AD0ADE01A6801F14205111D1960136884F84230A8E021681A6811F0800F02D0111D196008E011F0400F02F10401196002D0B2F90D
:4030C000003000E01368002B3CDA2D225B4284F8432037E021681A6811F0800F02D0111D196007E011F0400F02F10401196001D0138800E01368227E5C496F2A14BF0A22C2
:4031000008221BE078225A4984F845202268186812F0800F00F104051D6003D1550601D5038800E00368D00744BF42F0200222601BB9226822F0200222601022002084F8CD
:40314000430001E049490A226568002DA56008DB206820F0040020602BB9002D7DD175460CE0002B79D07546B3FBF2F002FB1033CB5C05F8013D03460028F5D1082A0BD1C3
:403180002368DA0708D5236962689A42DEBF302305F8013C05F1FF35C5EB0E0323612EE008681A6810F0800F496903D0101D1860136808E010F0400F02F1040018601368A6
:4031C00001D0198000E0196000232361754616E01A68111D1960156800216268284600F059F808B1401B6060636804E004F1420584F8422001232361002384F84330CDF858
:4032000000803B4603AA21463046FFF797FE013002D14FF0FF3026E023692A4639463046C0470130F5D023689B0710D5002504F1190907E001234A4639463046C0470130FC
:40324000E7D00135E368039A9B1A9D42F2DBE068039B9842B8BF184605E00B7804F1420584F842308AE705B0BDE8F0831B3600002C36000038B5064C002305460846236082
:40328000FDF7C2FE431C02D1236803B12B6038BD7C81FF1F10B5C9B202449042034605D01C7801308C42F8D1184610BD002010BD884210B501EB020301D8421E0BE09842E6
:4032C000FBD28118D21AD34204D013F8014D01F8014DF8E710BD994204D011F8014B02F8014FF8E710BD70477047000038B50546002944D051F8043C0C1F002BB8BFE41818
:40330000FFF7F1FF1E4A1368114613B96360146030E0A3420DD92268A018834201BF18685B681218226063600C6023E0A24203D813465A68002AF9D118681918A1420BD169
:403340002168014458188242196013D110685268014419605A600DE002D90C232B6009E021686018824201BF106852680918216062605C602846BDE83840FFF7B5BF38BD18
:403380007481FF1FF8B5074615460E4621B91146BDE8F840FFF726BC1AB9FFF7A7FF2846F8BD00F015F885420ED929463846FFF719FC044650B131462A46FFF795FB314607
:4033C0003846FFF793FF01E03046F8BD2046F8BD51F8040C0028BEBF091851F8043CC01804387047024B58221A604FF0FF3070477C81FF1F024B58221A604FF0FF30704746
:403400007C81FF1F08B10181B0B000840000000008B10181B0B00084000000000000000064CCFF7FB0A80380B8CCFF7FAB08B180E4CCFF7FB0A80380F4CCFF7FAB08B18099
:4034400038CDFF7F0084028044CDFF7FB0A9048060CEFF7FB0A8018090CEFF7F0100000098CEFF7F00840280D8CEFF7FB0B0A88094D2FF7FB0A80180CCD2FF7FB0B0A880FE
:4034800030D3FF7FB0A9048090D3FF7FB0A80180F0D3FF7FB0AB028030D5FF7F0100000050D5FF7FB0AB0480F8D5FF7FB0A807805CD6FF7F0100000080D6FF7FB0A9028046
:4034C000CCD6FF7FA908B18008D7FF7F0100000024D7FF7FB0AB0C80D8D7FF7FB0AA0380CCD8FF7FA908B180E8D8FF7F0100000048E7FF7FB0A90280E4E7FF7FB0B0A88066
:4035000034E8FF7F0100000040E8FF7FB0B0AA8078E8FF7FAE71B28044E9FF7F0100000040E9FF7FAB3F388098E9FF7F01000000A4E9FF7FB0B0AA80E0E9FF7F01000000BF
:4035400098EAFF7FAB0EB28000EBFF7FB0AF0A80D4EDFF7F01000000D8EDFF7FAB3F048020F0FF7F01000000FCF1FF7F0084048010F2FF7F010000000CF2FF7FB0AD04803D
:40358000A8F4FF7FB0A80380C8F4FF7F78FEFF7FCCF4FF7F7CFEFF7FD8F4FF7F010000001B5B324A000000002D2D2D2D2D2D2052414E47494E472044415441202D2D2D2D33
:4035C0002D2D0D0A44697374616E63653A202564206D6D0D0A000000C84900401900205100405000F0510040100000000140001000140140000800400140000A004C014079
:4036000000020050014020004300232D302B2000686C4C006566674546470030313233343536373839414243444546003031323334353637383961626364656600000000A1
:40364000F8B500BFF8BC08BC9E4670474D00000085100000F8B500BFF8BC08BC9E4670472900000078360000C880FF1F800000003800000000000000000000008081FF1F56
:403680000000E02EC05D00001800000000366E01000000000000000000000000000000000000000000000000000000000000000008360000000000000000000000000000E4
:4036C000000000000000000000000000000000000000000000000000000000000000000000000000000000000000000000000000E080FF1F0000000000000000000000004C
:403700000000000000000000000000000000000000000000000000000000000000000000000000000000000000000000000000000000000000000000000000000000000089
:403740000000000000000000000000000000000000000000000000000000000000000000000000000000000000000000000000000000000000000000000000000000000049
:403780000000000000000000000000000000000000000000000000000000000000000000000000000000000000000000000000000000000000000000000000000000000009
:4037C00000000000000000000000000000000000000000000000000000000000000000000000000000000000000000000000000000000000000000000000000000000000C9
:020000040003F7
:0200000480007A
:40000000045200400364004043000140330101404C020140490301404E0401404405014001070140020B0140010D014001150140011B0140094101400D4201400343014015
:4000400002450140054601400447014001480140024901400B4C0140014D0140035001400151014000080108040D61088172820F8538040110011801280130013A203E018E
:4000800058045F01800383E3840C85FF8613880289808C088D44900F911C921093E1941F9508981399189A0C9D109E13A1E7A318A404A704A80CA93CABC2AC01ADC0B01C62
:4000C000B31FB40FB538B7C0BA22BB08C034C105C50CC6B0C7E0C829C9FFCAFFCBFFCEF0CF44D00CD602D710D804D904DA04DB04DF01E6C0EA40EB0200040412068107103D
:4001000009220D200E410F20100812081402172818441A081B101D231E402401261827142C082D012E802F20354137283C143E013F40444045084D804F04561057025C40EF
:400140006D106E046F01754076017728C0F4C2FAC4E2CAF0CCF0CEF0D0C0D210D6100104020103020506060409060C040F011101120A140415081A041B011D082101220458
:40018000250227042A022B082D1030043101330634083518360339223E414025410642034401460E47C0482449FF4AFF4BFF4C624DA04EF04F41500C5401580459045A040D
:4001C0005B045F016640670269106A306B106D106E106F12850687089101950697189B109D069F08A30AA514A708B31EB501BB08BF10D904DF0104020588062008200B0461
:400200000D080F441440168017201D801E801F20200421082208241026222728284029082D052EA0310832A033023582368837103B043D103E443F0145A047044C024E04C6
:40024000560157405C245E827A017B0283218412860190019110924C930494129501960197409A109B159C429D80A120A210A302A508A720C0B0C270C450CAF3CCFFCEF247
:40028000D070D230D6F0E420022004140E03100C127118DC1A2220102240240926D028102AAC301F36E03A804002460449FF4A074BFF4C404D204EF04F05500858045A042A
:4002C0005F01604061A8624063208218840885078630886089078A188E028F2090089270932095189602980199049B019C049D019F06A001A308A510A660A801A902AB01C1
:40030000AD18AE40B002B201B320B478B518B604B707B920BA20BE41BF14D418D804D904DB04DF010040010202100516060109200A400E640F021080120813081590170981
:40034000184019801B011C221D301F212406250826402C402D8A2E402F283504364A37203D103E043F804004450846204902508051405C0166206702900191109204940255
:400380009A119B299C409D88A21AA348A410AC02AD27AE04AF48C0FDC2FAC4FECAF0CCF0CE70D004D680D830E609E801AC01E609E801E420EA01EA01000803010604500485
:4003C00056028B01C0D0D420D6203E1052808004860294089E02AA04AC04CE20D420E690E880EC409610AE80EE108801E4048220844090019801A801900198019C40A620A5
:400400009610AA10EA8012201320144078017C01900198019C40A620C40EDE03AB20000108010A0103C000000C0001000C000C0000000000080000080800080000000000DC
:40044000000B0B0000000000000000000000000000000000000000000000000000000000000000000000000000000000000000000000000000000000000000000000000066
:40048000000000000000000000000000000000000000000000000000000000000000000000000000000000000000000000000000000000000000000000000000000000003C
:4004C00000000000000000000000000000000000000000000000000000000000000000000000000000000000000000000000000000000000000000000000000000000000FC
:4005000000000000000000000000000000000000000000000000000000000000000000000000000000000000000000000000000000000000000000000000000000000000BB
:40054000000000000000000000000000000000000000000000000000000000000000000000000000000000000000000000000000000000000000000000000000000000007B
:0200000490006A
:0400000000004005B7
:0200000490105A
:04000000BC90ACAF55
:0200000490303A
:020000005BDFC4
:0200000490402A
:4000000000000000000000000000000000000000000000000000000000000000000000000000000000000000000000000000000000000000000000000000000000000000C0
:400040000000000000000000000000000000000000000000000000000000000000000000000000000000000000000000000000000000000000000000000000000000000080
:400080000000000000000000000000000000000000000000000000000000000000000000000000000000000000000000000000000000000000000000000000000000000040
:4000C0000000000000000000000000000000000000000000000000000000000000000000000000000000000000000000000000000000000000000000000000000000000000
:0200000490501A
:0C00000000012E16106900012E2D6C4826
:00000001FF