:400000000080002011000000150600001506000008B5044B1A6803F53F5302331A6000F01FFB00BFFA46004010B5054C237833B9044B13B10448AFF300800123237010BD27
:400040008081FF1F00000000144D0000084B10B51BB108490848AFF300800848036803B910BD074B002BFBD0BDE81040184700BF000000008481FF1F144D0000C880FF1FD0
:40008000000000002DE9F047CCB062B600F070FB00F0E0FB194800F085FB07A800F0ACF807A800F091F98246FA2000F049FEDAF80440A06800F0FCFF06460F46E06800F001
:4000C000F7FF80468946206900F0F2FF04460D4607A800F007F90490CDE90245CDE9008932463B4606490CA803F03EF8054800F059FB0CA800F056FBD6E700BFE84D0000A3
:400100000C4E0000404E0000F8B5084614461F46069D002100F01AFD204600F0A9FD0022531CDCB2BA4206D26E1C287800F0A0FD22463546F4E700F07FFDF8BD10B584B0D4
:4001400004AC04F8013D00940123FFF7DDFF04B010BD00BFF8B50C4616461F46069D0021204600F0F3FC304600F082FD0121204600F02CFD0022531CDCB27B1E9A4207DA07
:400180006E1C012000F0A0FD287022463546F2E7002000F099FD287000F04EFDF8BD00BF08B502F053FA08BD10B5044600236B2268210068FFF7C2FF6D23192268212068C2
:4001C000FFF7BCFF18231B2268212068FFF7B6FF20236A2268212068FFF7B0FF37231A4668212068FFF7AAFF06231A2268212068FFF7A4FF10BD00BF70B504460026466055
:4002000000258560C56005610120FFF7C9FF20601420FFF7C5FF0580458085808660C6600661A0601420FFF7BBFF0580458085808660C6600661E0600C20FFF7B1FF054617
:40024000231DA268E16800F0CBF82561E3682B602046FFF7A9FF204670BD00BF30B585B0044602AB009306233B2268210068FFF771FFA2689DF808109DF8093043EA01232F
:400280001380A2689DF80A109DF80B3043EA01235380A2689DF80C109DF80D3043EA01239380A568B5F9000001F010F84FF0645101F060F8A860A568B5F9020001F006F868
:4002C0004FF0645101F056F8E860A568B5F9040000F0FCFF4FF0645101F04CF82861A06805B030BD10B50446FFF7B8FFA3680021186901F0DDF908B1012010BD002010BDB9
:4003000010B584B0044603AB00930223412268210068FFF71FFF9DF80C009DF80D3043EA002000F0D3FF044901F0D8F8034900F019FF606004B010BD0000AA43B81E124270
:4003400030B585B0044602AB00930623432268210068FFF7FFFEE2689DF808109DF8093043EA01231380E2689DF80A109DF80B3043EA01235380E2689DF80C109DF80D3004
:4003800043EA01239380E568B5F9000000F09EFF0C4901F0A3F8A860E568B5F9020000F095FF084901F09AF8E860E568B5F9040000F08CFF034901F091F82861E06805B005
:4003C00030BD00BFA6E96A4410B50446FFF746FF2046FFF795FF2046FFF7B2FF206910BD10B401604260836010BC7047FEE700BFF0B40022174611E050F82760F3B226F008
:40040000FF0608E001EB420511F812406D78A5550132013BDBB2002BF4D101370E2FEBD9F0BC7047064B1B78DBB203F00701054A11701B09013213704422034B1A707047CF
:40044000CF0100496E5800407658004008B50A46002102F00EF908BD38B53322244B1A80182202331A70022203F27E231A7008224FF040231A70032103F5007319701D4B05
:400480001B78DBB21C490B701C4B1A8041F25122023B1A80002419250CE0194B1B7803F0010343EA440404F003044FF4F07000F08BFC013D0DB1032CEFD115B90320FFF726
:4004C00095FF104B4FF480721A8007221A7000220D490A704820023108701A700222033B1A700A4A137843F00103137038BD00BF8040004008010049A146004022420040A6
:40050000254200400440004006400040A243004008B502F0A3F808BD38B572B6304A137843F00403137000240CE02E4D630019194A0011462A44084691882858FFF786FF6E
:400540000134E4B2092CF0D900240BE02549A3001819420088188022016CC06BFFF7D8FF0134E4B2002CF1D01F494FF09040FFF73FFF1E4A137843F002031370103213789A
:4005800043F0020313701A4C237843F040032370A2F58632513A137843F0100313700A2214491548FFF7B4FF0A2214491448FFF7AFFF144A137843F008031370124D6123A3
:4005C0002B70FFF749FF81232B7001220F4B1A70FFF728FF0E2221460D48FFF799FF38BDE8460040484E00003C00004803500140A043004048030048C0510040540300488E
:4006000010510040224300400048004004000840B043004008B501F0EDFF03680C2B00D1FEE7FEE708B5C0B200F088FBFEE700BF08B5094B1A681044084BC31AB3F5007F12
:4006400002DC054B186005E001F0D4FF0C2303604FF0FF32104608BDCC80FF1FC881FF1F08B5104E104D16E029686B68AC68002204E051F8040B43F8040B0432A242F8D1CC
:40068000E868002203E0002143F8041B04328242F9D11035013E002EE6D101F0B1FFFFF7F1FCFEE7010000001850000008B5104A104B1A60104A136843F40073136000236A
:4006C0000AE0032B03D80D4A52F8231000E00C490C4A42F8231001332F2BF2D90A4B1A780A4B1A70074A0A4B1A60FFF715FF08BD0004FA050CED00E014ED00E00000000070
:40070000150600000080FF1FBC760040C080FF1F08ED00E07222074B1A70202201331A7006225F3B1A70472210331A70002251331A7070478865004010B500F04DFB04460E
:400740000A4A137843F0200313700132137843F0100313700232137843F01003137000F0DFFA204600F03CFB10BD00BF9865004008B5054B1B7823B9FFF7CCFF0122024BE6
:400780001A70FFF7D9FF08BD9C81FF1F034B1B7813F0040FFAD1024B187070476B6500404B65004038B5074B1B782BB938BDFFF7EDFF0134A4B201E005460024285D00287E
:4007C000F5D138BD9C81FF1F38B50222114B1A7081220E3B1A70082202331A700F2511331D70002401331C704FF400420A4B1A600721284600F0CEFA0849284600F0B6FAC3
:400800001022074B1A70074B1C70074B1C70074B1C7038BDD649004080E100E07D080000A881FF1FAE81FF1FB081FF1FAC81FF1F08B500F0D1FA064A137843F004031370B8
:400840001032137843F00403137000F0C9FA08BDA543004008B5074B1B7823B9FFF7B4FF0122044B1A70FFF7E3FF4FF40042024B1A6008BD9E81FF1F00E100E038B5A54B67
:400880001C78A54B1B7813F0400F00F03A81E4B214F0010F00F01D819F4B1B78453B052B00F21481DFE813F006008200120112010600DF0004F0DF0504F00A04082C42D1BA
:4008C000954B1B78DBB2452B35D1944B1B7813F0FF0F10D0924B1B681B78DBB2914A137004228C4B1A7001228F4B1A7046228A4B1A702C46EDE08D4B1B7813F0020F0DD0D1
:400900008B4A137843F00A0313706022824B1A704FF40042874B1A602C46DAE0864A137843F0100313701022844B1A700422023B1A702C46CDE00022764B1A704A22764B69
:400940001A702C46C5E00A2C2BD1794A137843F0A0031370754B1B7813F0020F14D06E4B1B7813F0080F01D0092300E00A23704A11780B4313706022674B1A704FF40042EB
:400980006C4B1A602C46A4E06B4A137843F0100313701022694B1A700422023B1A702C4697E0002000F0CAF92C4692E014F0020F36D15D4B1A78D2B2584B1B78DBB29A4291
:4009C00010D2594A1378DBB255490968CB5CDBB254490B7004214F4B197013780133DBB2137076E0514B1B7813F0020F0CD0504A137843F00A0313706022474B1A704FF42A
:400A000000424C4B1A6064E04B4A137843F0100313701022494B1A700422023B1A7058E0424B1B7813F0020F0CD0414A137843F09A0313706022384B1A704FF400423D4BAC
:400A40001A6046E03C4A137843F01003137010223A4B1A700422023B1A70354A137843F09003137035E0364A1378DBB2354908682C490978C9B2C15413780133DBB213708B
:400A80001278D2B2304B1B78DBB29A4203D21022204B1A701DE0254B1B7813F0020F0CD0234A137843F00903137060221A4B1A704FF400421F4B1A600BE01F4A137843F01F
:400AC000100313700022134B1A7002E0002000F035F914F0200F1CD00F4B1B7813F0080F01D0012300E00223114A11780B431370114A137803F0EF0313701022064B1A7006
:400B000038BD054B1B7813F0100F02D11022024B1A7038BDD7490040A881FF1FAF81FF1FB481FF1FD8490040AC81FF1FAD81FF1FAE81FF1F80E100E0D6490040D94900405B
:400B4000B081FF1FB881FF1FBC81FF1F1A4B1B78DBB2102B29D1194B1B7813F0080F26D14FF40042164B1A604000C0B229B140F001004922104B1A7002E045220E4B1A7019
:400B8000104B1870012201331A700F4B1B7813F0010FFAD00C4B1B7803F00A030A2B08D11022054B1A700320704702207047012070470020704700BFA881FF1FD9490040D9
:400BC00080E100E0D8490040D7490040164B1B7813F0040F23D04000C0B229B140F001004922124B1A7002E04522104B1A70104B1870122201331A700422023B1A700D4B9F
:400C00001B7813F0010FFAD00A4B1B7803F00A030A2B06D11022054B1A7003207047022070470020704700BFD9490040A881FF1FD8490040D74900400A4B1B7813F0040F93
:400C40000ED01023074A13700421023A1170064A1370064B1B7813F0210FFAD00020704702207047D9490040A881FF1FD7490040114B1B7813F0040F1BD0104B1870042247
:400C8000013B1A7046220E4B1A700E4B1B7813F0010FFAD00B4B1B7813F0020F04D16022074B1A70002070476022054B1A70032070470220704700BFD9490040D8490040C2
:400CC000A881FF1FD7490040114B1B7813F0040F1BD0104B1B78DBB2492B05D100220E4B1A704A220B4B1A700B4B1B7813F0010FFAD00A4B1B78DBB218B11021064A117041
:400D000004E06021034A117000E0002318467047D9490040A881FF1FD7490040D8490040054A137843F0010313701032137843F001031370704700BFA243004001BE7047D2
:400D400010B5044605E0084B186800F03DF8A4F50044B4F5004FF6D8034B586800FB04F000F032F810BD00BFD080FF1F70B504460E46074B1D681F2802D90020FFF7DEFF24
:400D800004F01F04103455F8240045F8246070BD08ED00E038B504460D46072902D90020FFF7CCFF1F2C02D90020FFF7C7FF04F01F0000F1604000F564406D01EDB205706D
:400DC00038BD00BF000000000230800803D000BF01380046FCD17047EFF3108072B6704780F31088704700BF81F0004102E000BF83F0004330B54FEA41044FEA430594EAB3
:400E0000050F08BF90EA020F1FBF54EA000C55EA020C7FEA645C7FEA655C00F0E2804FEA5454D4EB5555B8BF6D420CDD2C4480EA020281EA030382EA000083EA010180EA45
:400E4000020281EA0303362D88BF30BD11F0004F4FEA01314FF4801C4CEA113102D0404261EB410113F0004F4FEA03334CEA133302D0524263EB430394EA050F00F0A78092
:400E8000A4F10104D5F1200E0DDB02FA0EFC22FA05F2801841F1000103FA0EF2801843FA05F359410EE0A5F120050EF1200E012A03FA0EFC28BF4CF0020C43FA05F3C0182E
:400EC00051EBE37101F0004507D54FF0000EDCF1000C7EEB00006EEB0101B1F5801F1BD3B1F5001F0CD349085FEA30004FEA3C0C04F101044FEA445212F5800F80F09A805B
:400F0000BCF1004F08BF5FEA500C50F1000041EB045141EA050130BD5FEA4C0C404141EB010111F4801FA4F10104E9D191F0000F04BF01460020B1FA81F308BF2033A3F19A
:400F40000B03B3F120020CDA0C3208DD02F1140CC2F10C0201FA0CF021FA02F10CE002F11402D8BFC2F1200C01FA02F120FA0CFCDCBF41EA0C019040E41AA2BF01EB0451FD
:400F8000294330BD6FEA04041F3C1CDA0C340EDC04F11404C4F1200220FA04F001FA02F340EA030021FA04F345EA030130BDC4F10C04C4F1200220FA02F001FA04F340EAF7
:400FC0000300294630BD21FA04F0294630BD94F0000F83F4801306BF81F480110134013D4EE77FEA645C18BF7FEA655C29D094EA050F08BF90EA020F05D054EA000C04BF2E
:401000001946104630BD91EA030F1EBF0021002030BD5FEA545C05D14000494128BF41F0004130BD14F580043CBF01F5801130BD01F0004545F0FE4141F470014FF000000C
:4010400030BD7FEA645C1ABF194610467FEA655C1CBF0B46024650EA013406BF52EA033591EA030F41F4002130BD00BF90F0000F04BF0021704730B54FF4806404F1320496
:401080004FF000054FF0000150E700BF90F0000F04BF0021704730B54FF4806404F1320410F0004548BF40424FF000013EE700BF42004FEAE2014FEA31014FEA02701FBF11
:4010C00012F07F4393F07F4F81F06051704792F0000F14BF93F07F4F704730B54FF4607401F0004521F0004120E700BF50EA010208BF704730B54FF000050AE050EA010241
:4011000008BF704730B511F0004502D5404261EB41014FF4806404F132045FEA915C3FF4DCAE4FF003025FEADC0C18BF03325FEADC0C18BF033202EBDC02C2F1200300FA81
:4011400003FC20FA02F001FA03FE40EA0E0021FA02F11444C1E600BF80F0004002E000BF81F0004142001FBF5FEA410392EA030F7FEA226C7FEA236C6AD04FEA1262D2EB93
:401180001363C1BFD218414048404140B8BF5B42192B88BF704710F0004F40F4000020F07F4018BF404211F0004F41F4000121F07F4118BF494292EA030F3FD0A2F10102D8
:4011C00041FA03FC10EB0C00C3F1200301FA03F100F0004302D5494260EB4000B0F5000F13D3B0F1807F06D340084FEA310102F10102FE2A51D2B1F1004F40EBC25008BFCC
:4012000020F0010040EA03007047490040EB000010F4000FA2F10102EDD1B0FA80FCACF1080CB2EB0C0200FA0CF0AABF00EBC25052421843BCBFD0401843704792F0000FE3
:4012400081F4000106BF80F400000132013BB5E74FEA41037FEA226C18BF7FEA236C21D092EA030F04D092F0000F08BF0846704790EA010F1CBF0020704712F07F4F04D1E0
:40128000400028BF40F00040704712F100723CBF00F50000704700F0004343F0FE4040F4000070477FEA226216BF08467FEA23630146420206BF5FEA412390EA010F40F47B
:4012C000800070474FF0000304E000BF10F0004348BF40425FEA000C08BF704743F0964301464FF000001CE050EA010208BF70474FF000030AE000BF50EA010208BF704744
:4013000011F0004302D5404261EB41015FEA010C02BF84460146002043F0B64308BFA3F18053A3F50003BCFA8CF2083AA3EBC25310DB01FA02FC634400FA02FCC2F12002D4
:40134000BCF1004F20FA02F243EB020008BF20F00100704702F1200201FA02FCC2F1200250EA4C0021FA02F243EB020008BF20EADC7070474FF0FF0C1CEAD0521EBF1CEAD3
:40138000D15392EA0C0F93EA0C0F6FD01A4480EA010C400218BF5FEA41211ED04FF0006343EA501043EA5111A0FB01310CF00040B1F5000F3EBF490041EAD3715B0040EA5E
:4013C000010062F17F02FD2A1DD8B3F1004F40EBC25008BF20F00100704790F0000F0CF0004C08BF49024CEA502040EA51207F3AC2BFD2F1FF0340EAC250704740F40000ED
:401400004FF00003013A5DDC12F1190FDCBF00F000407047C2F10002410021FA02F1C2F1200200FA02FC5FEA310040F1000053EA4C0308BF20EADC70704792F0000F00F0EC
:40144000004C02BF400010F4000F013AF9D040EA0C0093F0000F01F0004C02BF490011F4000F013BF9D041EA0C018FE70CEAD15392EA0C0F18BF93EA0C0F0AD030F0004CCC
:4014800018BF31F0004CD8D180EA010000F00040704790F0000F17BF90F0004F084691F0000F91F0004F14D092EA0C0F01D142020FD193EA0C0F03D14B0218BF084608D1E3
:4014C00080EA010000F0004040F0FE4040F40000704740F0FE4040F4400070474FF0FF0C1CEAD0521EBF1CEAD15392EA0C0F93EA0C0F69D0A2EB030280EA010C49024FEAF1
:40150000402037D04FF0805343EA111143EA10130CF000408B4238BF5B0042F17D024FF4000C8B4224BF5B1A40EA0C00B3EB510F24BFA3EB510340EA5C00B3EB910F24BF72
:40154000A3EB910340EA9C00B3EBD10F24BFA3EBD10340EADC001B0118BF5FEA1C1CE0D1FD2A3FF650AF8B4240EBC25008BF20F0010070470CF0004C4CEA50207F32C2BF81
:40158000D2F1FF0340EAC250704740F400004FF00003013A37E792F0000F00F0004C02BF400010F4000F013AF9D040EA0C0093F0000F01F0004C02BF490011F4000F013B60
:4015C000F9D041EA0C0195E70CEAD15392EA0C0F08D142027FF47DAF93EA0C0F7FF470AF084676E793EA0C0F04D14B023FF44CAF08466EE730F0004C18BF31F0004CCAD156
:4016000030F000427FF45CAF31F000437FF43CAF5FE700BF4FF0FF3C06E000BF4FF0010C02E000BF4FF0010C4DF804CD4FEA40024FEA41037FEA226C18BF7FEA236C11D0F6
:4016400001B052EA530C18BF90EA010F58BFB2EB030088BFC81738BF6FEAE17018BF40F0010070477FEA226C02D15FEA402C05D17FEA236CE4D15FEA412CE1D05DF8040BB3
:40168000704700BF844608466146FFE70FB5FFF7C9FF002848BF10F1000F0FBD4DF808EDFFF7F4FF0CBF012000205DF808FB00BF4DF808EDFFF7EAFF34BF012000205DF89A
:4016C00008FB00BF4DF808EDFFF7E0FF94BF012000205DF808FB00BF4DF808EDFFF7D2FF94BF012000205DF808FB00BF4DF808EDFFF7C8FF34BF012000205DF808FB00BF80
:4017000003685A004CBF43F0004323F000431844704700BF61B32DE9F84F01F1FF3A90460646D146002707EB090404EBD4746410E50071190846FFF7E3FFA245834605F15A
:401740000800304409D0FFF7DBFFC34500F1FF3005D8404509D2671CE5E7C34505D9A74202D004F1FF39DEE700210846BDE8F88F08467047012807D0022807D0044B0028E5
:401780000CBF1846002070470248704702487047891E00008D1E0000911E000030B5254B83B004468D1E7BB301A92846AFF3008020B301992A46FFF7ADFF0146F0B1FFF7E4
:4017C0009FFF4B68A064012B12D0002B01F1040021DBFFF795FF0023E06423650368002B1DDBFFF78DFF00232061184603B030BD002323610523184603B030BD00232361CA
:401800000923184603B030BD0B490C4B0846591AC9100191CEE70123E0642365DEE7C3F30360FFF7A7FF0028206114BF00230923DBE700BF00000000184D0000E84D0000A2
:40184000036810B5DA07044606D49B0700F1480009D500F05BFC2368590709D51A070ED5DB0613D510BD00F049FC23685907F5D404F1D00000F052FC23681A07F0D404F57B
:40188000A87000F053FC2368DB06EBD404F5E870BDE8104000F08EBC03680BB1184470471846704709207047704700BF70B504460D4608E02A6C2369626121462A460120FA
:4018C0009847082808D1296C2046FFF767FF06460028EFD000F086FE0728FBD13046296CFFF7E2FF281D00F0FDFB00BF2DE9F0470646ADF5727D03AD0C1D17460FCC0FC52A
:401900000FCC0FC50FCC0FC594E80F0002ACD6F80C80D6F8189085E80F0000233046216C2360FFF73BFF0546002F14BF0A2709277DB1A36B47F010018DE8100232466364F3
:4019400001203346C04778BB28460DF5727DBDE8F087236C4FF4F072736121467AA800F07DFE33697AAA314638469847889B82468DE8100239466364324633460120C047B7
:4019800090B94FF4F0727AA9204600F067FEBAF1080F06D1216C3046FFF700FF09270546C6E7BAF1070F04D009200DF5727DBDE8F0872846216CFFF777FF03A800F092FB48
:4019C000406C7047F0B5CB6BF9B00B640E1D01AD0F4604460FCE0FC50FCE0FC50FCE0FC596E80F004FF0FF3685E80F00009606E023696A46214698470828054608D110998E
:401A00002046FFF7CBFE0028F2D0092079B0F0BD6846FFF715FF062DF7D139462046FFF745FF00BF30B4DD6BC160826119461D64002230BC5AE700BF70B54369C6680B647B
:401A400026B10122FFF752FF00F0CCFD03690A4604460D46014602209847072807D0082803D129462046FFF721FF00F0BBFD3046296CFFF719FF281D00F034FBC2682AB1AC
:401A800010B4CC6B00220C6410BC2FE79AE700BF704700BF836813B1014601201847704700B5042907D8DFE801F00309060909000BB90F2A05D902205DF804FB01205DF870
:401AC00004FB00EB820252681846019B1A605DF804FB00BF10B584B0002303AC0A4600941946FFF7DDFF039804B010BD00B5042907D8DFE801F00309060909000BB90F2AA1
:401B000005D902205DF804FB01205DF804FB019900EB82020968184651605DF804FB00BF10B584B004AC44F8042D00230A4600941946FFF7DBFF04B010BD00BFF0B5D36BD1
:401B4000ADF50F7D1364151D17AC07460E460FCD0FC40FCD0FC40FCD0FC495E80F004FF0FF3584E80F00169511E016A86A46FFF7D7FF314616A8B84780B9049B16AA694652
:401B8000082098470528044609D0092806D026996846FFF703FE0C210028E6D0092416A8FFF74EFE20460DF50F7DF0BD2DE9F04FCC6C914622688BB004340D4607920894A1
:401BC00000F0030B1E46002B64D11202032307928DF825608DF824302B6DBBF1020F08BFAC6B13F0010343D100F00800C2B2039201932768002F3DD0022E47D02788B4F81D
:401C000002800434AB6C28F0010A0F2148469A44FFF760FF824537D827F001039A4450452CBF002001204FEA480808F0020807F0010748EA0708B8F1010F41D038D3B8F1E6
:401C4000020F1DD1236823F000420292BBF1000F79D130B10399002900F08180002A00F0A880002B79DB029B013304EB8304C0E700230193022E40DDFFF714FE002842D060
:401C800009200BB0BDE8F08F0020CCE7D4F804800834B7E7022B9FDC130CD9B212048DF82530022304EB810407928DF8243093E7BBF1000F02D0002840F0B080043498E78C
:401CC000BBF1000F26D1B0B194E80C00991C4FEAD272D5D005F158010133069100F09480201DFFF7D9FD06AB01462846AFF30080002840F0B88008347BE707A9484600F067
:401D0000F3FA0028BCD1019B002B5CD108200BB0BDE8F08F0D2148462F6AFFF7DBFE8742E9D1AB6A9C42E6D12046FFF7E9FC0F2102464846FFF7F4FE48462A460021FFF771
:401D4000EFFE07209DE70D2148462F6AFFF7C2FE874248D02368002B85DA043483E7029B3BB305F15803271DCDF810B0DDF80C80A346DDF808A01C46059602E0B245B046F0
:401D800016D038460694FFF787FD06AB014600222846AFF3008008F1010604370028EDD0029B5C464345DDF810B0059ED2D100E05C4648460D21FFF78DFE069B2862AC6247
:401DC0006B6206205DE70F214846FFF783FE0E2102464846FFF7A4FE48462A4A0F21FFF79FFE07204DE7AB6A9C42B3D1042202990027A318A962EF622A636B632368BB4261
:401E00001FDB012301932EE748460D21FFF762FE2862069B6B62AC62062032E72046FFF76FFC04340646AC632846AFF3008000283FF426AF484632460F21FFF771FE0720A8
:401E40001FE70846013004EB8000FFF759FC0F2102464846FFF764FE48462A463946FFF75FFE07200DE707460D214846FFF732FE022F2862CDD12B46069A43F82C2F6B62DE
:401E8000C9E700BF0000000000238FE601238DE602238BE6F0B50446C5B004290DD8DFE801F057030C310F00012B4FEA124695B266D17219102A40F29F80022045B0F0BD05
:401EC000002BFAD1102AF8D82368D80600F1C98022AE3046019200F077F9A06B019A0023012505FA03F1114203D00168043046F823100133042BF4D1A063304600F05AF90C
:401F00000020DBE7032BD8D1150C97B2EB19102BD3D823681E0700F1B88022AE30467F0000F026F906EBC5027B1EA56B57B12946043A51F8040B013B42F8040F581CF8D1B3
:401F400005EB87053046A56300F0F0F80020B5E7002BB2D1A56B97B2201D012606FA03F1394203F1010302D0296804350160102B00F10400F2D112F400503BD1A5639DE723
:401F8000052B9AD17719202F97D80F2E65D92F46002D48D12A460027002AA06B71DD00EBC202014644A800EBC6008C3851F8045B914240F8045FF9D1084697B13246102E65
:401FC00044A938BF102201EBC202A2F5C4727900043A00EB810150F8045B814242F8045FF9D1012B47D00F2EA16332D917B102A800F094F8002061E70F2E3FF65EAF0027CE
:402000002268D1070DD522F00101052B21600193204652D022F0030240F8482B00F072F8019B002F51D02268510736D4012B3ED00F2E06D822A8019300F06CF8019B002FB5
:40204000A8D002A8019300F06DF8019BC6F11002A2E722A800F05AF8C8E7102FCFD9103FCEE723F01003236004F5E870019200F0ABF8019A2CE70431A16322A800F03EF8CA
:40208000B8E7002F9AD10146ABE723F00803236004F5A87000F06CF83FE7204622F0040240F8D02B019300F03DF8019BBEE722A8019300F027F8019BC8E741F0020140F813
:4020C000481B00F027F8019BABE7012B03D00F2E3FF660AFAEE722A8019300F013F8019B58E700BF00F1340191E838009C46A6464CF8045D90E8FF0FE54600BD90EC210BD8
:40210000704700BF80EC210B704700BF90EC200B704700BF80EC200B704700BFD0EC200B704700BFC0EC200B704700BFF0EC0201F0EC0211F0EC0221F0EC0231F0EC02414C
:40214000F0EC0251F0EC0261F0EC0271F0EC0281F0EC0291F0EC02A1F0EC02B1F0EC02C1F0EC02D1F0EC02E1F0EC02F1704700BFE0EC0201E0EC0211E0EC0221E0EC0231D8
:40218000E0EC0241E0EC0251E0EC0261E0EC0271E0EC0281E0EC0291E0EC02A1E0EC02B1E0EC02C1E0EC02D1E0EC02E1E0EC02F1704700BFB0FC0181B0FC0191B0FC01A11B
:4021C000B0FC01B1704700BFA0FC0181A0FC0191A0FC01A1A0FC01B1704700BFEC4600B52DE900502DE9FF1F4FF000032DE90C0001A9FFF7E7FBDDF840E012B0704700BF29
:40220000EC4600B52DE900502DE9FF1F4FF000032DE90C0001A9FFF70FFCDDF840E012B0704700BFEC4600B52DE900502DE9FF1F4FF000032DE90C0001A9FFF71FFCDDF86C
:4022400040E012B0704700BFEC4600B52DE900502DE9FF1F4FF000032DE90C0001ABFFF7E1FBDDF840E012B0704700BFEC4600B52DE900502DE9FF1F4FF000032DE90C0091
:4022800001AAFFF75BFCDDF840E012B0704700BF037A1BB9437A43B9B02070475A1E036802721A020260180E70474268013B10B4437213680321141D01721A0244600260F2
:4022C00010BC180E704700BF00B585B003AA0023009219460C22FFF7E3FB039805B05DF804FB00BFF0E700BF2DE9F04306460D4685B04FF000082846FFF7CAFFB02804461D
:4023000000F0B48020F07F0313F0FF0320D000F0F003802B7AD0902B35D0A02B48D0B02B5CD0C02B00F0898000F0F803D02B0BD100F00702013242F4002205230121304686
:40234000FFF7A8FD0028D6D0092005B0BDE8F0830DF10C0919468700CDF800900D223046FFF79EFBFFB2039B043760064CBFDF1BFF180023CDF8009019460D22304603975A
:40238000FFF7B4FBB7E700F00D030D2BDCD003AF002300F00F02194600973046FFF780FB0023009719460D223046FFF79FFBA2E7C2434FF47F6302F0070243FA02F201070E
:4023C00002EA03024FF0000348BF42F4804219463046FFF75FFD0028B6D18CE7B1284AD0B22853D0B32800F0818000F0FC03B42BAAD000F007020132012342F40022194657
:402400003046FFF747FD00289ED174E72846FFF73FFF24022043B0F5004F95D004010023A2B219463046FFF735FD00288CD114F4004F18BF4FF001085DE7C62862D0C728AF
:402440006CD000F0F803C02B7BD0C82800F09180C9287FF479AF2846FFF71AFF020300F00F0002F470220130024366E7B8F1000F6ED0002069E72846FFF70AFF0246002873
:402480003FF462AF10F0F003B9D05DE700230DF10C090D221946CDF800903046FFF700FB2846FFF7F5FE02064FF002040CD5039B00F07F00A040034428460393FFF7E8FEFF
:4024C000030604F10704F2D4039B00F07F0000FA04F203F5017400231444CDF8009019460D2230460394FFF701FB04E72846FFF7CFFE010300F00F0001F47021421C01231F
:402500000A437CE72846FFF7C3FE010300F00F0001F47021421C03230A4370E72846FFF7B7FE024600283FF40FAF10F0F0037FF40BAF04213046FFF7ADFC00287FF404AFF3
:40254000D9E600F00F020132032342F4202256E703AC43460E22414600943046FFF7A0FA0094304643460F224146FFF7BFFA4046EBE62846FFF78CFE00F0F00200F00F03E1
:402580001032013343EA0232D7E600BF10B5C36C84B003205A688DF80C00DC7912020833084601A901928DF80D400293FFF79CFE04B010BD08B5FFF795FE806C08BD00BFCD
:4025C00008B5FFF78FFEC36CD87903EB8000083008BD00BF08B500F005F800BF08B5FFF7F9FF00BF08B5062000F0A2FD0120FEF719F80000014B1868704700BF4081FF1F64
:402600000E4B70B51E460E4C0025E41AA410A54204D056F8253098470135F8E702F0EAFC084B094C1E46E41AA4100025A54204D056F8253098470135F8E770BD00500000AB
:40264000005000000050000008500000024B0146186800F063B800BF4081FF1F10B5431E0A44914204D011F8014B03F8014FF8E710BD03460244934202D003F8011BFAE710
:402680007047000038B50546002944D051F8043C0C1F002BB8BFE41801F0C8FB1E4A1368114613B96360146030E0A3420DD92268A018834201BF18685B6812182260636057
:4026C0000C6023E0A24203D813465A68002AF9D118681918A1420BD12168014458188242196013D110685268014419605A600DE002D90C232B6009E021686018824201BF34
:40270000106852680918216062605C602846BDE8384001F08CBB38BDA481FF1F70B5CD1C25F0030508350C2D38BF0C25002D064601DBA94202D90C23336046E001F076FB1E
:40274000234B1C681A462146A1B10B685B1B0ED40B2B03D90B60CC18CD501EE08C420BBF63684B681360636018BF0C4615E00C464968E9E7174C23681BB9304600F09EFC08
:4027800020602946304600F099FC431C18D0C41C24F00304A0420DD12560304601F047FB04F10B00231D20F00700C31A0ED05A42E25070BD211A304600F080FC0130EBD1E8
:4027C0000C233360304601F032FB002070BD00BFA481FF1FA081FF1F2DE9F04788B0149F002B1E461299B8BF03F1004327F02007B6BF1E4600232D23462F1446109DDDF8FA
:402800004CA00B7003D0452F03D1013501E0032300E0022307AA049206AA03928DE828042246334600F058FD472F804602D1119BDB0728D5462F08EB050911D198F80030CF
:40284000302B0AD1002200232046314602F0D6F918B9C5F10105CAF80050DAF800309944002200232046314602F0C8F908B9302202E0CDF81C9006E0079B994503D9591CCF
:4028800007911A70F8E74046079B159AC8EB0303136008B0BDE8F087034673B50029B8BF494203F8022BB4BF2D222B22092942701ADD0DF1070216460A2591FBF5F405FB8B
:4028C0001411092C01F1300102F8011D2146F4DC3031541E02F8011CB4421A460AD214F8012B03F8012BF7E71A463024214402F8024B5970101A02B070BD00002DE9F04F2C
:4029000091B00C46DDF8688016461F46054601F07BFA03681846099300F04AFC00230E93D8F800300A90073323F0070303F1080294F81890D4F800B0C8F80020D3E9002318
:40294000C4E91223D4F84CA0D4F848802AF000430B934FF0FF32A74B40460B9902F080F9A0B94FF0FF32A34B40460B9902F05AF960B9002200234046514602F049F910B1A1
:402980002D2384F843309C4B9C4A0AE0424653464046514602F064F9002800F09281984B984AB9F1470F8CBF90469846032323612BF0040323604FF0000A3DE0B9F1670FD0
:4029C00000F08A81B9F1470F00F0868123600193636800210DF13302059002920093424653460691CDF81090CDF80CE02846FFF7F3FE09F0DF03472B804600F08481B9F11E
:402A0000650F0D9900F28D8101394A4604F150000D91FFF741FF0E9A82468318012A236100F37C812268D10700F178819DF8333013B12D2384F84330009733460FAA214678
:402A4000284600F09FF9013002D14FF0FF3096E123685A0501D4236965E0B9F1650F40F2D580D4E912010022002302F0C7F878B30123654A31462846B8470130E5D00E9B0B
:402A80000D9A9A420BDB2368D80708D423689B0740F111814FF0000804F1190906E10A9B099A31462846B8470130CED04FF0000804F11A090E9B013B9845E7DA01234A46A1
:402AC00031462846B8470130BFD008F10108F1E70D9B002B29DC01234B4A31462846B8470130B2D00D9B23B90E9B13B92368D907CCD50A9B099A31462846B8470130A4D05A
:402B00004FF0000904F11A0A0D9B5B42994509DA0123524631462846B847013095D009F10109F1E70E9B4246A7E00E9AA36D9A42A8BF1A46002A914606DC4FF0000A29EACA
:402B4000E97904F11A0B11E01346314642462846B8470130F1D178E701235A4631462846B84701303FF471AF0AF1010AA36DC9EB03029245F0DB08EB03090D9A0E9B9A4209
:402B80000FDB2368DA070CD40E9B0D9A9844C9EB08089B1A9845A8BF9846B8F1000F08DC0FE00A9B099A31462846B8470130EBD14BE743464A4631462846B84701303FF4E1
:402BC00044AF4FF0000928EAE87804F11A0A09E00123524631462846B84701303FF435AF09F101090D9A0E9B9B1AC8EB03039945EEDB4BE7FFFFEF7F904E0000944E000077
:402C0000984E00009C4E0000A04E00000E9A012A01DCDB0738D50123424631462846B84701303FF412AF0A9B099A31462846B84701303FF40AAFD4E912010022002301F033
:402C4000DDFF20B14FF0000804F11A090EE00E9B08F10102013B19E001234A4631462846B84701303FF4F1AE08F101080E9B013B9845F1DB534604F1500231462846B84791
:402C800001307FF403AFE0E64246012331462846B8470130EED1D8E601234A4631462846B84701303FF4D1AE08F10108E3680F9A9B1A9845F0DBE0680F9B9842B8BF18464B
:402CC0005DE062680EA8531C0DF1340E4BF480637FF474AE062201E012B90122626075E6002106910DF133018DE80C00236005904246CDF81090CDF80CE0029153462846E2
:402D0000FFF76AFD80460D9BD81C02DB626893421DDDA9F102095FFA89F970E60133236184E6B9F1660F14D10029636807DD216113B92268D2071DD501330B4419E013B99F
:402D40002268D00701D5023313E0012311E04FF067090D9B0E9A934205DB22682361D10708D5013305E0002BD4BFC3F102030123134423610D9B4FF0000AA36556E611B0E3
:402D8000BDE8F08F2DE9F04791461F460A698B6806469342B8BF1346C9F8003091F843200C46DDF8208012B10133C9F800302368990642BFD9F800300233C9F800302568A4
:402DC00015F0060510D104F1190A07E00123524639463046C04701301AD00135E368D9F800209B1A9D42F1DB94F843302268003318BF012392060FD5E118302081F8430006
:402E00005A1C94F845102244023382F8431003E04FF0FF30BDE8F08704F1430239463046C0470130F4D02268D9F80050E36802F00602042A08BF5D1B2269A3680CBF25EA6E
:402E4000E57500259342C4BF9B1AED184FF000091A344D4509D00123224639463046C0470130D5D009F10109F3E70020BDE8F0872DE9F04317460A7E85B06E2A9846064623
:402E80000C460C9B01F1430E00F0AE8011D8632A22D009D8002A00F0BB80582A40F0CA8081F84520834955E0642A1ED0692A1CD0C0E0732A00F0B08009D86F2A2ED0702AD5
:402EC00040F0B8800A6842F020020A603EE0752A24D0782A3AD0ADE01A6801F14205111D1960136884F84230A8E021681A6811F0800F02D0111D196008E011F0400F02F1BE
:402F00000401196002D0B2F9003000E01368002B3CDA2D225B4284F8432037E021681A6811F0800F02D0111D196007E011F0400F02F10401196001D0138800E01368227EC5
:402F40005C496F2A14BF0A2208221BE078225A4984F845202268186812F0800F00F104051D6003D1550601D5038800E00368D00744BF42F0200222601BB9226822F02002A2
:402F800022601022002084F8430001E049490A226568002DA56008DB206820F0040020602BB9002D7DD175460CE0002B79D07546B3FBF2F002FB1033CB5C05F8013D034631
:402FC0000028F5D1082A0BD12368DA0708D5236962689A42DEBF302305F8013C05F1FF35C5EB0E0323612EE008681A6810F0800F496903D0101D1860136808E010F0400F56
:4030000002F104001860136801D0198000E0196000232361754616E01A68111D1960156800216268284600F0F3FE08B1401B6060636804E004F1420584F842200123236166
:40304000002384F84330CDF800803B4603AA21463046FFF797FE013002D14FF0FF3026E023692A4639463046C0470130F5D023689B0710D5002504F1190907E001234A4614
:4030800039463046C0470130E7D00135E368039A9B1A9D42F2DBE068039B9842B8BF184605E00B7804F1420584F842308AE705B0BDE8F083A24E0000B34E000038B5064C18
:4030C0000023054608462360FDF7B2FA431C02D1236803B12B6038BDC081FF1F1F2938B504460D4604D9162303604FF0FF3038BD426C12B152F821304BB9204600F032F863
:403100002A4601462046BDE8384000F019B8012B0CD0591C03D116230360012038BD0024284642F825409847204638BD002038BD024B01461868FFF7D1BF00BF4081FF1FD9
:4031400038B5074C0023054608461146236001F0CDFD431C02D1236803B12B6038BD00BFC081FF1F01F0BABD0EB400B54FF402719CB0ADF814106FF00041049107914FF6F3
:40318000FF711DAB02900690084853F8042BADF81610006802A9019301F088F9029B00221A701CB05DF804EB03B070474081FF1F034613F8012B002AFBD1181A01387047C7
:4031C0002DE9F74F03690C6980469C427FDC013C01F114074FEA840E00F1140606EB0E0357F82450019356F824300135B3FBF5F507EB0E09C5B34FF0000A3846B446D3464F
:4032000050F8043B9AB205FB02A21B0C4FEA124A05FB03A392B2C2EB0B0BBCF800204FEA134A5A441FFA83FBDCF800308145CBEB134303EB224392B242EA03424FEA234B8A
:403240004CF8042BDCD256F80E306BB9019B043B9E421A4602D3C8F8104005E01268043B002AF8D1013CF3E7404600F0EEFF00282BDB304601354FF0000E57F8042B036862
:4032800091B2C1EB0E0E120C99B27144C2EB134303EB214389B24FEA234EB94541EA034340F8043BE9D256F8242006EB840362B9043B9E421A4602D3C8F8104005E0126822
:4032C000043B002AF8D1013CF3E7284600E0002003B0BDE8F08F00002DE9F04F456A95B08246219CCDE9022345B91020FFF7AEF9CAF82400456085600560C560DAF82430AC
:40330000196859B15A68012393404A608B60504600F0C3FDDAF8243000221A60039BA04A002BBDBF01232360039B0023BCBF23F000430393DDF80C80A8BF236028F0004308
:403340001B0D1B0593421DD142F20F73209A1360029B43B9934A944BC8F31300002814BF1846104600E09048229B002B00F04685C37813B100F1080300E0C31C229A136049
:4033800000F03CBDDDE90245002200232046294601F034FC074658B1209A01231360229B002B00F01E8581481860013800F026BD12AB019313AB009322462B46504600F06C
:4033C000BFFFC8F30A56049056B1C5F3130343F07F51204641F44011A6F2FF3611971DE0139B129E1E4406F23243202B0ADD029A06F21240C3F1400322FA00F008FA03F3EA
:40340000184304E0C3F12000029B03FA00F0FDF72DFE0123A1F1F871013E11930022644BFDF7E6FC58A3D3E9002301F07FF958A3D3E90023FDF7DEFC044630460D46FDF735
:4034400025FE55A3D3E9002301F070F902460B4620462946FDF7CEFC04460D4601F016FC0022834600232046294601F0D1FB58B15846FDF70BFE02460B462046294601F089
:40348000BDFB08B90BF1FF3BBBF1160F0DD8DDE90223484901EBCB01D1E9000101F0D6FB30B10BF1FF3B002300E00123109300E01090129B9E1B731E079343BFC3F1000846
:4034C000002307934FF00008BBF1000F06DB079BCDF82CB05B440793002705E00023CBEB0808CBF100070B931E9B092B28D8052BC4BF043B1E931E9BC8BF0025A3F10203CC
:40350000D8BF0125032B20D8DFE803F0060E0204012302E0012308E000230A931F9B002B1DDD9946059321E000230A931F9B0BEB030909F10103012B0593B8BF012315E0DD
:40354000012500231E930A9501E001230A934FF0FF390022CDF8149012231F9206E04FF001094B46CDF81490CDF87C90DAF8244000226260042101F114029A421CD862684D
:40358000490001326260F6E761436F63A787D23FB3C8608B288AC63FFB799F501344D33F0000F07FC44E0000CD4E0000A14E00000000F83FE04E00006168504600F038FCDF
:4035C000DAF8243020601B680693059B0E2B00F25B81002D00F05881DDE90234BBF1000FCDE90E3430DD9F4A0BF00F034FEA2B1502EBC303E80618CBCDE908340CD5DDE924
:403600000E01994B05F00F05D3E9082301F0B8F90324CDE9020100E00224934E6DB1E90708D5DDE90801D6E9002301F07FF8CDE9080101346D100836F0E7DDE90823DDE9FD
:40364000020101F09DF920E0CBF1000505B3DDE90E01844B05F00F0203EBC203D3E9002301F064F8CDE902017F4E2D110023022455B1EA0705D5D6E9002301F057F8013489
:4036800001236D100836F3E71BB1CDE9020100E00224109BE3B1DDE902560022734B2846314601F0B5FA98B1059B8BB1B9F1000F40F3E6800BF1FF330893314600226C4B74
:4036C000284601F033F80134CDE902014E4602E0059ECDF820B02046FDF7D8FCDDE9022301F024F8634B0022FDF784FBA1F1507304460C931D46D6B9DDE9020100225E4B77
:40370000FDF776FB22460C9BCDE9020101F09EFA002840F03F820C99224601F10043DDE9020101F075FA002840F02B82A8E00A9A4C4B711E002A49D003EBC103D3E9002324
:4037400000204E4901F01CF922462B46FDF750FBCDE90C01069CDDE9020101F097FA0546FDF794FC02460B46DDE90201FDF740FBDDE90C23303504F8015BCDE9020101F008
:4037800047FA002840F01D83DDE9022300203749FDF72EFBDDE90C2301F03AFA002840F0D180069BE31AB3426ADADDE90C0100222F4B00F0BBFF0022CDE90C01DDE90201C7
:4037C0002B4B00F0B3FFCDE90201C4E703EBC1012246D1E900012B4600F0A8FF069BCDE90C011D469C19DDE9020101F04FFA0646FDF74CFC02460B46DDE90201FDF7F8FA23
:40380000303605F8016BAC42CDE902014FF0000222D11A4BDDE90C01FDF7ECFA02460B46DDE9020101F012FA002840F08B80DDE90C2300201149FDF7DBFA02460B46DDE973
:40384000020101F0E5F9D8B114F8013C621E302B40F0B7821446F7E7054B00F067FFCDE90201C0E7E04E0000B84F00000000F03F0000244000001C40000014400000E03F8B
:40388000DDE90E34CDE90234139B002B7CDBBBF10E0F79DCAB4B03EBCB03D3E900671F9B002B14DA059B002B11DC40F06C810022A54B3046394600F039FFDDE9022301F03E
:4038C000BBF9059D2E46002840F05F8165E1069CDDE9028932463B464046494601F050F801F0D4F90546FDF7D1FB32463B4600F01DFF0B46024649464046FDF779FA05F16D
:40390000300E069B04F801EBC3EB040E059B73452DD102460B46FDF76DFA8046894602460B463046394601F073F978B942464B463046394601F062F9002800F04482EB07DB
:4039400004D440E2DDF820B000E01C4614F8012C631E392A07D1069A9A42F6D1069930220BF1010B0A701A7801321A702BE20022764B00F0DBFE002200238046894601F0E8
:403980003DF90028A6D01EE20A9A002A2BD01E9A012A0ADC119A12B103F2334302E0129BC3F136033D46444613E0059B5D1EAF42BFBF0B9BEA1B9B180B93059BB6BF2F463C
:4039C0007D1B0025002BA7BF4446059BC3EB08040023079A01211A4450469844079200F0FBFA064602E03D4644460A9E5CB1079B002B08DDA342A8BF2346079AC3EB0808AB
:403A0000E41AD31A0793002F1DDD0A9BABB18DB131462A46504600F079FB049A01460646504600F0E2FA04990890504600F035FA089B04937A1B06D000E03A460499504603
:403A400000F064FB04900121504600F0C5FA0B9B05465BB31A460146504600F057FB1E9B0546012B18DC029B83B9039BC3F3130373B9039B23F000473F0D3F054FB1079BC1
:403A800008F1010801330793012702E0002700E0029F0B9B73B100E000272B6905EB8303186900F04CFAC0F1200004E01E9B012BD9DD0B9F0120079B184410F01F0008D0E2
:403AC000C0F12003042B02DDC0F11C0002E006D018461C30079B8044034404440793B8F1000F05DD42460499504600F05DFB0490079B002B05DD29461A46504600F054FBA2
:403B00000546109B23B32946049800F09EFB00281EDA00230A220499504600F0D5F90A9B0BF1FF3B0490002B00F05F81314600230A22504600F0C8F9B9F1000F06463FDC2E
:403B40003BE000BFE04E00000000144000002440059B002B2BDC1E9B022B28DDDDF81490B9F1000F11D129464B460522504600F0ABF901460546049800F067FB00280CDCD3
:403B800003E0354600E000252E461F9B069C6FEA030B09E03546DDF820B0069B069A5C1C312313700BF1010B05960026F7E00A9BDDF8149023B9069CB2E01E9B022BCFDC73
:403BC000002C05DD31462246504600F0EDFA06469FB17168504600F02BF90446326906F10C01023292000C30FEF738FD01222146504600F0D9FA059000E00596029B069F02
:403C000003F00103079329460498FFF7D9FA3146044600F13008049800F017FB059A02902946504600F02DFBC36802463BB901460A90049800F009FB0A9A034600E0012380
:403C4000114650460A9300F028F90A9B53B91E9A42B9079A32B9B8F1390F2AD0029B002B1CDC1DE0029A002A04DB1BD11E9ACAB9079ABAB9002B13DD01220499504600F0D0
:403C800093FA2946049000F0E0FA002803DC07D118F0010F04D0B8F1390F0AD004F131087C1C0CE0002B07F101040BDDB8F1390F03D139233B70013756E008F1010887F897
:403CC00000806CE0069B2746E31A4B4504F8018C3BD000230A220499504600F0F5F8059B04909E424FF00A024FF000033146504604D100F0E9F80646059084E700F0E4F8FE
:403D0000002306460A220599504600F0DDF8059079E700230A220499504600F0D5F8049029460498FFF74CFA069B00F1300804F8018BE31A4B45ECDB069B0596B9F1010F44
:403D4000ACBF4B4401331F46002601220499504600F02AFA2946049000F077FA002803DC15D118F0010F12D03C4614F8013C621E392B09D1069B934204D10BF1010B3123A5
:403D8000069A02E01446F0E70133137007E03C4614F8013C621E302B01D11446F8E72946504600F07AF8059B6BB12EB19E4203D03146504600F071F80599504600F06DF85D
:403DC00001E0DDF820B00499504600F066F80023209A23700BF101031360229B1BB11C6001E008480AE0069808E0B9F1000F3FF7E2AE1E9B022B7FF7DEAEB1E615B0BDE8CB
:403E0000F08F00BFA04E0000004870474481FF1F10B5C9B202449042034605D01C7801308C42F8D1184610BD002010BD7047704770B5456A04460E463DB91020FEF706FC8D
:403E40006062456085600560C560656AEB6843B1636ADB6853F8260078B1026843F8262017E021220421204600F0B8FA636AE860DB68002BECD1002070BD012101FA06F5B5
:403E80006A1D9200204600F0A9FA0028F3D04660856000230361C36070BD70B5446A06460D463CB91020FEF7D1FB7062446084600460C4603DB1736A6A68DB6853F822100C
:403EC000296043F8225070BD2DE9F04106460C460D691F4601F1140E0023DEF80000013381B202FB0171000C0F0C02FB007089B201EB00419D424FEA10474EF8041BECDC24
:403F0000D7B1A3689D4212DB616830460131FFF78FFF8046226904F10C01023292000C30FEF79CFB21463046FFF7B7FF444604EB850301355F6125612046BDE8F081030CBB
:403F40001B0413B90004102300E0002310F07F4F04BF0002083310F0704F04BF0001043310F0404F04BF80000233002803DB420003D5581C704718467047202070470368CB
:403F800013F007020BD0D90722D49A074BBF5B089B08036003604CBF01200220704799B209B91B0C102213F0FF0F04BF1B0A0832190704BF1B090432990704BF9B080232B8
:403FC000D90702D45B0805D00132036010467047002070472020704710B50C460121FFF727FF01224461026110BD2DE9F74F14460A69236988469A42BEBF0B46A0461C46A0
:40400000D8F81070D4F81090D8F80830D8F8041007EB09069E42C8BF0131FFF709FF00F114052B4605EB860C0022634502D243F8042BFAE704F1140208F1140102EB8903C8
:4040400001EB87070093009B0192934257D9B2F800B0BBF1000F23D08946AE464FF0000859F8044BBEF800A0A3B20BFB03A34FEA144ADEF8004043444FEA14480BFB0A849A
:40408000F24604EB13449BB243EA04434F454FEA14484AF8043B01D9D646E1E7CEF80480019B0432B3F802A0BAF1000F21D02C4689462B684FF00008B9F800E0B4F802B03B
:4040C0009BB20AFB0EBEA346F04443EA08434BF8043B59F8043BB4F804E01B0C0AFB03E34F4503EB18434FEA134801D95C46E3E763600435A7E75CF8043D13B9013E002E4A
:40410000F9DC066103B0BDE8F08F00002DE9F843154612F0030206460F4607D0214C013A002354F82220FFF7CFFE0746AD1036D0746A3CB91020FEF789FA70624460846040
:404140000460C460D6F82480D8F808404CB940F271213046FFF740FF04460023C8F8080003604FF00008EB070AD5394622463046FFF73BFF814639463046FFF78EFE4F46A9
:404180006D100CD0206808B10446ECE7224621463046FFF72AFF2060C0F80080F4E73846BDE8F883A84F00002DE9F0470C460746914626694FEA621A56444968A368751CCE
:4041C000AB4202DA01315B00FAE73846FFF730FE002380461A4600F11401534503DA41F823200133F9E72AEAEA73206901EB830319F01F0904F1140101EB800E14D0C9F1D3
:40420000200C002208689A4600FA09F0024343F8042B51F8042B8E4522FA0CF2F2D8CAF8042042B1B51C06E0043B51F8042B8E4543F8042FF9D8013D3846C8F81050214673
:40424000FFF72BFE4046BDE8F08703690A6910B59B1A11D192001430143183180A4453F8044D52F8041D8C4202D007D3012010BD9842F4D3002010BD184610BD4FF0FF30A8
:4042800010BD2DE9F8430C460746114620461546FFF7DBFF061E08D131463846FFF7C8FD012303614661BDE8F883BCBF23462C4638466168BABF1D4601260026FFF7B8FDEC
:4042C0002B69C660266905F1140904F1140101EB860709EB830800F114054FF0000C51F8042B59F8044B93B29C44A3B2240CC3EB0C03C4EB124202EB23429BB24FEA224C43
:40430000C84543EA02428E4645F8042BE7D8BE450ED25EF8041B8AB26244131403EB114392B242EA03424FEA234C45F8042BEEE755F8043D0BB9013EFAE70661BDE8F883C6
:404340002DE9F3411C4601219046089E099DFFF76FFDC4F31302C4F30A5407460CB142F480120192B8F1000F19D002A840F8088DFFF705FE009B48B1019AC0F1200102FA97
:4043800001F10B43C2407B61019200E07B61019B002B14BF02210121BB61396107E001A8FFF7EDFD019B01217B613961203034B1A4F2334404443460C0F1350009E0A0F2D8
:4043C000324007EB810330601869FFF7B8FDC0EB41102860384602B0BDE8F08138B502FB01F42146FEF79AF9054618B122460021FEF73FF9284638BD2DE9F0478E68824649
:404400009E420C46914698463ED88A8912F4906F3AD02568096902236F1A656905EB450595FBF3F57B1C43449D4238BF1D4653050FD52946FEF772F9064698B13A4621692F
:40444000FEF70CF9A38923F4906343F08003A38113E02A4600F039F9064670B921695046FEF710F90C23CAF80030A3894FF0FF3043F04003A381BDE8F08726613E4426601A
:4044800046466561ED1BA560464528BF464649463246206800F0FEF8A36800209B1BA36023681E442660BDE8F08700002DE9F04F9DB003938B8980461C060D4616460DD5F2
:4044C0000B695BB94021FEF729F92860286118B90C23C8F80030CDE040236B610023099320238DF82930DFF89CB130238DF82A3037463C4614F8013B1BB9B7EB060910D0FD
:4045000003E0252BF9D02746F3E74B46324629464046FFF771FF013000F0A780099B4B4409933B78002B00F0A08000234FF0FF3204930793059206938DF853301A930126FF
:40454000052221784E48FFF763FC671C049B38B14B4A3C46801A06FA00F018430490EFE7D90644BF20228DF853201A0744BF2B228DF8532022782A2A03D0079A00210A20ED
:404580000BE0039A111D12680391002A10DA524243F00200079204900BE027463B780134303B092B03D800FB02320121F5E701B107923B782E2B1ED17B782A2B0AD1039B3F
:4045C00002371A1D1B680392002BB8BF4FF0FF33059310E0002319460593781C0A2407463A780130303A092A03D804FB01210123F5E703B10591032239782248FFF708FC6F
:4046000040B14023CBEB000003FA00F0049B013718430490397806221B487E1C8DF82810FFF7F6FB88B1194B33B9039B073323F007030833039314E003AB00932A46144BF0
:4046400004A94046FEF75AF907E003AB00932A460F4B04A94046FEF70BFCB0F1FF3F824603D0099B5344099342E7AB895B0601D4099801E04FF0FF301DB0BDE8F08F00BF1A
:40468000E04F0000E64F0000EA4F0000FD280000F9430000884210B501EB020301D8421E0BE09842FBD28118D21AD34204D013F8014D01F8014DF8E710BD994204D011F83F
:4046C000014B02F8014FF8E710BDF8B5074615460E4621B91146BDE8F840FEF71FB81AB9FDF7D0FF2846F8BD00F015F885420ED929463846FEF712F8044650B131462A4673
:40470000FDF7ACFF31463846FDF7BCFF01E03046F8BD2046F8BD51F8040C0028BEBF091851F8043CC01804387047000070B54FF0FF0C4CF4E06C1CEA11541DBF1CEA1355EC
:4047400094EA0C0F95EA0C0F00F0DEF82C4481EA030621EA4C5123EA4C5350EA013518BF52EA033541F4801143F4801338D0A0FB02CE4FF00005E1FB02E506F00042E0FB30
:4047800003E54FF00006E1FB03569CF0000F18BF4EF0010EA4F1FF04B6F5007F64F5407404D25FEA4E0E6D4146EB060642EAC62141EA55514FEAC52040EA5E504FEACE2E94
:4047C000B4F1FD0C88BFBCF5E06F1ED8BEF1004F08BF5FEA500E50F1000041EB045170BD06F0004646EA010140EA020081EA0301B4EB5C04C2BFD4EB0C0541EA045170BD6D
:4048000041F480114FF0000E013C00F3AB8014F1360FDEBF002001F0004170BDC4F10004203C35DA0C341BDC04F11404C4F1200500FA05F320FA04F001FA05F240EA020044
:4048400001F0004221F0004110EBD37021FA04F642EB06015EEA430E08BF20EAD37070BDC4F10C04C4F1200500FA04F320FA05F001FA04F240EA020001F0004110EBD37026
:4048800041F100015EEA430E08BF20EAD37070BDC4F1200500FA05F24EEA020E20FA04F301FA05F243EA020321FA04F001F0004121FA04F220EA020000EBD3705EEA430E7E
:4048C00008BF20EAD37070BD94F0000F0FD101F00046400041EB010111F4801F08BF013CF7D041EA060195F0000F18BF704703F00046520043EB030313F4801F08BF013D32
:40490000F7D043EA0603704794EA0C0F0CEA135518BF95EA0C0F0CD050EA410618BF52EA4306D1D181EA030101F000414FF0000070BD50EA410606BF1046194652EA430673
:4049400019D094EA0C0F02D150EA013613D195EA0C0F05D152EA03361CBF104619460AD181EA030101F0004141F0FE4141F470014FF0000070BD41F0FE4141F4780170BDCF
:4049800070B54FF0FF0C4CF4E06C1CEA11541DBF1CEA135594EA0C0F95EA0C0F00F0A7F8A4EB050481EA030E52EA03354FEA013100F088804FEA03334FF0805545EA1313C2
:4049C00043EA12634FEA022245EA111545EA10654FEA00260EF000419D4208BF964244F1FD0404F5407402D25B084FEA3202B61A65EB03055B084FEA32024FF480104FF40E
:404A0000002CB6EB020E75EB030E22BFB61A754640EA0C005B084FEA3202B6EB020E75EB030E22BFB61A754640EA5C005B084FEA3202B6EB020E75EB030E22BFB61A754644
:404A400040EA9C005B084FEA3202B6EB020E75EB030E22BFB61A754640EADC0055EA060E18D04FEA051545EA16754FEA06164FEAC30343EA52734FEAC2025FEA1C1CC0D16F
:404A800011F4801F0BD141EA00014FF000004FF0004CB6E711F4801F04BF01430020B4F1FD0C88BFBCF5E06F3FF6AFAEB5EB030C04BFB6EB020C5FEA500C50F1000041EB5E
:404AC000045170BD0EF0004E4EEA113114EB5C04C2BFD4EB0C0541EA045170BD41F480114FF0000E013C90E645EA060E8DE60CEA135594EA0C0F08BF95EA0C0F3FF43BAF20
:404B000094EA0C0F0AD150EA01347FF434AF95EA0C0F7FF425AF104619462CE795EA0C0F06D152EA03353FF4FDAE1046194622E750EA410618BF52EA43067FF4C5AE50EA15
:404B400041047FF40DAF52EA43057FF4EBAE12E74FF0FF3C06E000BF4FF0010C02E000BF4FF0010C4DF804CD4FEA410C7FEA6C5C4FEA430C18BF7FEA6C5C1BD001B050EAAD
:404B8000410C0CBF52EA430C91EA030F02BF90EA020F0020704710F1000F91EA030F58BF994208BF90422CBFD8176FEAE37040F0010070474FEA410C7FEA6C5C02D150EA48
:404BC000013C07D14FEA430C7FEA6C5CD6D152EA033CD3D05DF8040B704700BF8446104662468C461946634600E000BF01B5FFF7B7FF002848BF10F1000F01BD4DF808ED6E
:404C0000FFF7F4FF0CBF012000205DF808FB00BF4DF808EDFFF7EAFF34BF012000205DF808FB00BF4DF808EDFFF7E0FF94BF012000205DF808FB00BF4DF808EDFFF7CEFF4D
:404C400094BF012000205DF808FB00BF4DF808EDFFF7C4FF34BF012000205DF808FB00BF4FEA410C7FEA6C5C02D150EA013C0AD14FEA430C7FEA6C5C02D152EA033C02D195
:404C80004FF0000070474FF0010070474FEA410212F5001215D211D56FF47873B3EB625212D94FEAC12343F0004343EA505311F0004F23FA02F018BF404270474FF0000009
:404CC000704750EA013005D111F0004008BF6FF0004070474FF00000704700BF024B58221A604FF0FF307047C081FF1F024B58221A604FF0FF307047C081FF1F08B10181E4
:404D0000B0B000840000000008B10181B0B000840000000000000000F0B3FF7FAB08B1801CB4FF7FB0A803802CB4FF7FAB08B18070B4FF7F0100000064CAFF7FB0A90280D6
:404D400000CBFF7FB0B0A88050CBFF7F010000005CCBFF7FB0B0AA8094CBFF7FAE71B28060CCFF7F010000005CCCFF7FAB3F3880B4CCFF7F01000000C0CCFF7FB0B0AA80E5
:404D8000FCCCFF7F01000000B4CDFF7FAB0EB2801CCEFF7FB0AF0A80F0D0FF7F01000000F4D0FF7FAB3F04803CD3FF7F0100000018D5FF7F008404802CD5FF7F0100000001
:404DC00028D5FF7FB0AD0480C4D7FF7FB0A80380E4D7FF7F28FFFF7FE8D7FF7F2CFFFF7FF4D7FF7F01000000446F6E6520696E7469616C697A696E67205541525420616EC2
:404E00006420493243210D0A0000000041434320583A20252E33660D0A41434320593A20252E33660D0A414343205A3A20252E33660D0A46414C4C454E3A25640D0A000095
:404E40001B5B324A00000000C84900401900005100401000205100405000F0510040100000000140001000140140000480180140800300400140000A004C01400002005033
:404E80000140200000180140C802004880004300494E4600696E66004E414E006E616E0030003031323334353637383941424344454600303132333435363738396162632A
:404EC00064656600496E66696E697479004E614E00504F534958002E0000000000000000000000000000F03F000000000000244000000000000059400000000000408F4040
:404F0000000000000088C34000000000006AF8400000000080842E4100000000D01263410000000084D797410000000065CDCD41000000205FA00242000000E87648374256
:404F4000000000A2941A6D42000040E59C30A2420000901EC4BCD64200003426F56B0C430080E03779C3414300A0D8855734764300C84E676DC1AB43003D9160E458E1434F
:404F8000408CB5781DAF154450EFE2D6E41A4B4492D54D06CFF08044F64AE1C7022DB544B49DD9794378EA4405000000190000007D000000000000000080E03779C3414384
:404FC000176E05B5B5B89346F5F93FE9034F384D321D30F94877825A3CBF737FDD4F1575232D302B2000686C4C0065666745464700000000F8B500BFF8BC08BC9E4670471B
:405000004D000000AD060000F8B500BFF8BC08BC9E4670472900000028500000C880FF1FB80000004800000000000000C881FF1F0000E02EC05D00001800000000366E019B
:4050400000000000000000000000000000000000000000000000000000000000000000008E4E00000000000000000000000000000000000000000000000000000000000054
:405080000000000000000000000000000000000000000000000000000000000000000000E080FF1FD74E0000E54F0000E54F0000E54F0000E54F0000E54F0000E54F000015
:4050C000E54F0000E54F0000E54F0000FFFFFFFFFFFFFFFFFFFFFFFFFFFF000000000000000000000000000000000000000000000000000000000000000000000000000022
:40510000000000000000000000000000000000000000000000000000000000000000000000000000000000000000000000000000000000000000000000000000000000006F
:40514000000000000000000000000000000000000000000000000000000000000000000000000000000000000000000000000000000000000000000000000000000000002F
:4051800000000000000000000000000000000000000000000000000000000000000000000000000000000000000000000000000000000000000000000000000000000000EF
:4051C00000000000000000000000000000000000000000000000000000000000000000000000000000000000000000000000000000000000000000000000000000000000AF
:020000040003F7
:0200000480007A
:400000000452004003650040011501401418014044190140711A0140541B0140024201400143014001480140024901400F4C0140084D0140025001400151014009800CC0D7
:4000400061806440887289388B0FEA018602880495019A08A202A401A801AC01B002B208B401B501B604BE41BF10D418D804D904DB04DF0101200220050106060710082079
:400080000C400E0A0F2010A2111014801601172819081A011B111C101D211E0A1F022304262027112D082E022F0530083480350537103A053B093E883F21444045204680D2
:4000C00047404C804F6057405B015C10600463026C226D106E0475047609772886018A208B408E048F01C0F6C2E2C4FFCAF0CCF2CEF0D0B0D230D621D80CE008000C02718D
:400100000580060307130F0C100912D01414152C1743181019711AAC1B061F08201021712240230E262028DC2A2230E031C0330F341F353039223A023B083F1040024604E3
:4001400049FF4A074BFF4C404D204EF04F055008580459045A045F01604061A8624063208013810882048314842086C08720881389188A0C8F209208940A9501961498E039
:400180009B019C039D109E149F0CA080A101A220A518A615A8E0AB02AC40AE20AF01B010B106B2E0B301B40FB520B718B908BA20BE01BF11C036C101C50BC60CC70EC81505
:4001C000C9FFCAFFCBFFCEF0CF44D00CD401D804D904DA04DB04DF01E6C0EA40EB0201020320051608100A200B400D880E040F4010801104120814801514160219221B2041
:400200001D141E401F04211822082340240425042680274029022A012C402E042F0630903118348036843710380839043B403D183E023F804110441046014C044E10508447
:400240005408558056405E405F158640871088208A028C088F019110920493049404970898409B109CA09D209E029F40A204A342A408C07CC2FEC4FECAF1CC7ECEFAD0540A
:40028000D220D6F0EA013E10CE2096109610AA10EA8008200C101220132017015B01622078107C208710C203C40ED602D802DE031040731088409310AB20C408DC01E201D6
:4002C00010011C0103C000001F1020001C082300030000E301FF0000001C00E100182300333C0CC23F80000002440000040000040CC0000008E700182C00101F0F3800C0DA
:400300000000A208000004002604050001C00E0006FFFFFF62A0F0410C000000000002110404040400000001000000000000400200103010001010120000000000000000E7
:400340000000000000000000800040808000800000000000C000000BCB00C000000000000000000000000000000000000000000000000000000000000000000000000000E7
:40038000000000000000000000000000000000000000000000000000000000000000000000000000000000000000000000000000000000000000000000000000000000003D
:4003C00000000000000000000000000000000000000000000000000000000000000000000000000000000000000000000000000000000000000000000000000000000000FD
:4004000000000000000000000000000000000000000000000000000000000000000000000000000000000000000000000000000000000000000000000000000000000000BC
:40044000000000000000000000000000000000000000000000000000000000000000000000000000000000000000000000000000000000000000000000000000000000007C
:0200000490006A
:0400000000004005B7
:0200000490105A
:04000000BC90ACAF55
:0200000490303A
:02000000AD63EE
:0200000490402A
:4000000000000000000000000000000000000000000000000000000000000000000000000000000000000000000000000000000000000000000000000000000000000000C0
:400040000000000000000000000000000000000000000000000000000000000000000000000000000000000000000000000000000000000000000000000000000000000080
:400080000000000000000000000000000000000000000000000000000000000000000000000000000000000000000000000000000000000000000000000000000000000040
:4000C0000000000000000000000000000000000000000000000000000000000000000000000000000000000000000000000000000000000000000000000000000000000000
:0200000490501A
:0C00000000012E16106900012E36BDCC48
:00000001FF