:400000000080002011000000910D0000910D000008B5044B1A6803F53F5302331A6000F0D7FE00BFFA46004010B5054C237833B9044B13B10448AFF300800123237010BD66
:400040004881FF1F000000001C2D0000084B10B51BB108490848AFF300800848036803B910BD074B002BFBD0BDE81040184700BF000000004C81FF1F1C2D0000C880FF1F70
:400080000000000008B55021014800F081FB08BD6481FF1F08B54621014800F079FB08BD6481FF1F38B5194C204600F0A7FA0546204600F095FA854226D1204600F090FAE5
:4000C000A0F10A01204600F08DFA204600F098FA204600F085FA002810DD204600F080FA7D30800080B200F0E1FE204600F078FA7D30800080B200F0DFFE38BD002000F0BE
:40010000D5FE002000F0D8FE38BD00BF6881FF1F70B501F04BFB0146104C207604F11C05284600F097FC284600F090FC01F032FF5C340146204600F0F1F9284600F088FCAA
:4001400001F028FF0646284600F07EFC01F022FF02463146204600F0E9F970BD6481FF1F01282DD14FF6FF73994229D170B582B0144C04F11C0000F065FC204600F0F0FAFE
:40018000114D2A461149204602F048F9261D304600F016FA2A460E49304602F03FF95C3401960C4B00930C4B0C4A0D49204600F09DF92A460B49204602F030F902B070BD3A
:4001C000704700BF6481FF1FCC80FF1F69070000DD0500000000FA437368313F333308C366E60E43DD04000010B58AB062B600F00BFF01F0F9F901F015FD704801F03AFDBC
:400200006F4801F04DFC6F4801F072FC6E4801F0EDFD05A800F092FB6C4A05A901A800F0E1F8684600F0C8FA694B93F894302BB97021674800F09AFA044600E000247CB1A0
:40024000634C012384F894307221684600F0E6FA4FF47A7001F040F9022384F894300FE05B4B93F89430022B05D17021584800F07DFA00B901241CB10022554B83F8942083
:40028000534B93F89430022B06D101A800F000F96F2803D1012402E0002400E0002434B103224B4B83F8942001F078FD11E0484B93F89430032B05D101A800F0E9F8632810
:4002C00000D101242CB10222414B83F8942001F00BFD3F4B93F89430022B05D166213C4800F044FA044600E0002434B10422384B83F8942001F0DAFA11E0354B93F89430AE
:40030000042B05D16621324800F030FA00B901242CB102222E4B83F8942001F009FA2C4B93F89430052B3FF67FAFDFE803F0030F1C29323E6721684600F05EFA7221684689
:4003400000F05AFA01A800F0A3F86DE77221684600F064FA4FF47A7001F0BEF802221C4B83F8942060E77221684600F045FA6721684600F027FA0021144800F05DF953E799
:400380007221684600F038FA6721684600F046FA4AE77221684600F02FFA6721684600F03DFA01A800F074F83EE76721684600F023FA7221684600F031FA35E71101000095
:4003C0008500000095000000A50000006881FF1F6481FF1F08B54FF6FF710120FFF7C0FE08BD00BF10B5044600202070E0606260A16001F0BBFB204610BD00BF10B50C46F7
:4004000001F0CCFB204601F0A5FB10BD08B5A1F16203102B32D8DFE803F0112D313109313131313119313129313121000378012B26D1406800F064F9002008BD0378012BA9
:4004400020D1406800F05CF9002008BD0378012B1AD1406800F054F9002008BD0378012B14D1406800F04CF9002008BD012303706F2008BD00230370632008BD002008BD61
:40048000002008BD002008BD002008BD002008BD38B5044601F076FB0346D0B101F06CFB0546A06800F0C0FAE060012806D10521094B19702046FFF7A1FF05E00321064B57
:4004C00019702046FFF79AFF29462046FFF79EFF0346184638BD00BFF881FF1F10B5044600F07CF8204610BD01627047F8B504460F4616461D4600F063F8002323626362A1
:40050000A362E3622363079B63636761A661E56106992046FFF7E8FF2046F8BD10B50446006A01F085FC606210BD00BF70B50446016BC06901F086FD0546616A606901F0F0
:4005400081FD0146284601F075FC0546A16AA06901F078FD0146284601F06CFC0546E062154901F02BFF10B1134BE36206E01349284601F005FF08B1104BE362E56A00213B
:40058000284601F011FF40B1666B284601F020FF0146304600F06AF808E0666B05F1004001F016FF0146304600F046F8636AA362E36A236370BD00BF0000C8420000C8C278
:4005C00010B5044600230360436001220272C360036100F0C5FC204610BD00BF704700BFC0687047642902DD6423C3607047002902DC0023C3607047C160704700697047E4
:40060000C3680361704700BF08B5016088B200F04DFC08BD08B5416088B200F04DFC08BD10B50C460172084601F032FB84F0010001F03AFB10BD00BF38B5054631B9FFF794
:40064000E3FF00212846FFF7E5FF09E00C467D34A4002146FFF7D8FF21462846FFF7DAFF01212846FFF7DCFF38BD00BF38B5054631B9FFF7C9FF00212846FFF7CBFF09E09A
:400680000C467D34A4002146FFF7BEFF21462846FFF7C0FF00212846FFF7C2FF38BD00BF38B505467D318C002146FFF7ADFFC83C21462846FFF7AEFF002C03DA0021284666
:4006C000FFF7A8FF01212846FFF7AAFF38BD00BF38B505467D318C002146FFF79BFFC83C21462846FFF790FF002C03DA00212846FFF78AFF01212846FFF792FF38BD00BFD1
:4007000038B504460D46C368182B03DC1921FFF769FF06E0FFF764FF00F10A012046FFF761FF2046FFF76CFF662D04D1E1682046FFF782FF38BD622D04D1E1682046FFF700
:4007400095FF38BD722D04D1E1682046FFF7A8FF38BD6C2D03D1E1682046FFF7B9FF38BD0022027042707047704700BF502901D0702901D1037808E0462901D0662903D14E
:40078000037813B1437800E000231846704700BF502907D1037813B1002303707047012303707047462906D1437813B100234370704701234370704710B5044601F03CF928
:4007C000204610BD08B5672901D0472907D101F047F9FF280ED0FF2001F0E0F808BD722901D0522906D101F035F9FF2802D0FF2001F0CEF808BD00BF08B5672901D04729BF
:4008000003D1002001F0CAF808BD722901D0522902D1002001F0BCF808BD00BF08B5672901D0472903D17A2001F0B8F808BD722901D0522902D17A2001F0AAF808BD00BF7C
:4008400010B401604260836010BC7047F8B5084614461F46069D002100F052FD204600F0E1FD0022531CDCB2BA4206D26E1C287800F0D8FD22463546F4E700F0B7FDF8BD61
:4008800010B584B004AC04F8013D00940123FFF7DDFF04B010BD00BFF8B50C4616461F46069D0021204600F02BFD304600F0BAFD0121204600F064FD0022531CDCB27B1EDB
:4008C0009A4207DA6E1C012000F0D8FD287022463546F2E7002000F0D1FD287000F086FDF8BD00BF08B501F0D9FD08BD10B5044600236B2268210068FFF7C2FF6D2319229F
:4009000068212068FFF7BCFF18231B2268212068FFF7B6FF20236A2268212068FFF7B0FF37231A4668212068FFF7AAFF06231A2268212068FFF7A4FF10BD00BF70B50446C8
:400940000026466000258560C56005610120FFF7C9FF20601420FFF7C5FF0580458085808660C6600661A0601420FFF7BBFF0580458085808660C6600661E0600C20FFF7FF
:40098000B1FF0546231DA268E168FFF759FF2561E3682B602046FFF7A9FF204670BD00BF30B585B0044602AB009306233B2268210068FFF771FFA2689DF808109DF80930A3
:4009C00043EA01231380A2689DF80A109DF80B3043EA01235380A2689DF80C109DF80D3043EA01239380A568B5F9000001F0D6FA4FF0645101F026FBA860A568B5F902002E
:400A000001F0CCFA4FF0645101F01CFBE860A568B5F9040001F0C2FA4FF0645101F012FB2861A06805B030BD10B50446FFF7B8FFA3680021186901F0A3FC08B1012010BD8A
:400A4000002010BD704700BF40887047808870470088704738B5C17109B9002383718379062B55D8DFE803F004070F1D253F47000133837138BD0139C9B2C17109024180D8
:400A80000133837138BD428811434180012902D0B1F57A7F02D94FF47A7242800133837138BD0139C9B2C171090281800133837138BD838819438180012902D0B1F57A7FA3
:400AC00002D94FF47A738380044600F10E0582881049284601F0B8FD284600F09FFDA3790133A37138BD0139C9B2C171090201800133837138BD028811430180012902D0E5
:400B0000B1F57A7F02D94FF47A7202800133837138BD00BF202D0000FEE700BFF0B40022174611E050F82760F3B226F0FF0608E001EB420511F812406D78A5550132013B56
:400B4000DBB2002BF4D10137232FEBD9F0BC7047064B1B78DBB203F00701054A11701B09013213704422034B1A707047CF0100496E5800407658004008B50A46002101F0F0
:400B8000A0FC08BD38B50522304B1A801823304A13700B21023211800232137019250232158002321370EF21023211800232137045F6BF5102321180023213704FF6FF7105
:400BC00002321180023213700222224B1A7008224FF040231A70032103F5007319701E4B1B78DBB21D490B701D4B1A8041F25122023B1A8000240CE01A4B1B7803F0010308
:400C000043EA440404F003044FF4F07001F0FCF8013D0DB1032CEFD115B90320FFF77CFF114B4FF480721A8007221A7000220F490A704820023108701A700222033B1A7014
:400C40000B4A137843F03F03137038BD80400040824000400043004008010049A146004022420040254200400440004006400040A243004008B501F019FC08BD38B572B692
:400C8000304A137843F00403137000240CE02E4D630019194A0011462A44084691882858FFF76AFF0134E4B2082CF0D927494FF09040FFF733FF264A137843F002031370D8
:400CC0001032137843F002031370224C237843F040032370A2F58632513A137843F01003137008221C491D48FFF7C4FF0A221C491C48FFF7BFFF08221B491C48FFF7BAFF35
:400D000008221B491B48FFF7B5FF08221A491B48FFF7B0FF1A4A137843F008031370194D61232B70FFF72EFF81232B700122164B1A70FFF70DFF0E2221461448FFF79AFF5A
:400D400038BD00BFE8460040382D00009000004803500140A0430040280A004802510040300A0048C05100403C0A004812510040440A0048225100404C0A004832510040A2
:400D8000224300400048004004000840B043004008B501F057FB03680C2B00D1FEE7FEE708B5094B1A681044084BC31A802B02DC054B186005E001F045FB0C2303604FF0FB
:400DC000FF32104608BD00BFD080FF1F5082FF1F08B5104E104D16E029686B68AC68002204E051F8040B43F8040B0432A242F8D1E868002203E0002143F8041B043282424F
:400E0000F9D11035013E002EE6D101F021FBFFF7EBF9FEE701000000CC2D000008B5104A104B1A60104A136843F40073136000230AE0032B03D80D4A52F8231000E00C49BC
:400E40000C4A42F8231001332F2BF2D90A4B1A780A4B1A70074A0A4B1A60FFF70FFF08BD0004FA050CED00E014ED00E000000000910D00000080FF1FBC760040C080FF1FDE
:400E800008ED00E0024A137843F080031370704775650040014B1880704700BF086A0040014B1880704700BF886A0040014B1880704700BF486A0040014B1880704700BF3E
:400EC000686A0040014B1870704700BF85650040014B1878704700BF65650040014B188880B27047A86A004008B501E0FFF7F6FFFFF7EEFF10F0100FF8D108BD10B5164AAB
:400F0000137803F0C00343F0090313701F32137843F001031370114C237843F0010323704FF46170FFF7B6FF4FF46170FFF7B8FF0020FFF7BBFF0020FFF7BEFF0020FFF71D
:400F4000C1FF00F069FF237843F01003237000F067FFFFF7C9FF10BD756500409565004008B5054B1B7823B9FFF7C8FF0122024B1A70FFF787FF08BDF981FF1F38B5022293
:400F8000114B1A7081220E3B1A70082202331A700F2511331D70002401331C704FF400420A4B1A600721284600F0C0FA0849284600F0A8FA1022074B1A70074B1C70074BE0
:400FC0001C70074B1C7038BDD649004080E100E0311000001082FF1F1682FF1F1882FF1F1482FF1F08B500F017FF064A137843F0040313701032137843F00403137000F00A
:401000000FFF08BDA543004008B5074B1B7823B9FFF7B4FF0122044B1A70FFF7E3FF4FF40042024B1A6008BDFA81FF1F00E100E038B5A54B1C78A54B1B7813F0400F00F019
:401040003A81E4B214F0010F00F01D819F4B1B78453B052B00F21481DFE813F006008200120112010600DF0004F0DF0504F00A04082C42D1954B1B78DBB2452B35D1944BF6
:401080001B7813F0FF0F10D0924B1B681B78DBB2914A137004228C4B1A7001228F4B1A7046228A4B1A702C46EDE08D4B1B7813F0020F0DD08B4A137843F00A0313706022B9
:4010C000824B1A704FF40042874B1A602C46DAE0864A137843F0100313701022844B1A700422023B1A702C46CDE00022764B1A704A22764B1A702C46C5E00A2C2BD1794AB1
:40110000137843F0A0031370754B1B7813F0020F14D06E4B1B7813F0080F01D0092300E00A23704A11780B4313706022674B1A704FF400426C4B1A602C46A4E06B4A137852
:4011400043F0100313701022694B1A700422023B1A702C4697E0002000F0BCF92C4692E014F0020F36D15D4B1A78D2B2584B1B78DBB29A4210D2594A1378DBB25549096892
:40118000CB5CDBB254490B7004214F4B197013780133DBB2137076E0514B1B7813F0020F0CD0504A137843F00A0313706022474B1A704FF400424C4B1A6064E04B4A137857
:4011C00043F0100313701022494B1A700422023B1A7058E0424B1B7813F0020F0CD0414A137843F09A0313706022384B1A704FF400423D4B1A6046E03C4A137843F01003A5
:40120000137010223A4B1A700422023B1A70354A137843F09003137035E0364A1378DBB2354908682C490978C9B2C15413780133DBB213701278D2B2304B1B78DBB29A4235
:4012400003D21022204B1A701DE0254B1B7813F0020F0CD0234A137843F00903137060221A4B1A704FF400421F4B1A600BE01F4A137843F0100313700022134B1A7002E05A
:40128000002000F027F914F0200F1CD00F4B1B7813F0080F01D0012300E00223114A11780B431370114A137803F0EF0313701022064B1A7038BD054B1B7813F0100F02D101
:4012C0001022024B1A7038BDD74900401082FF1F1782FF1F1C82FF1FD84900401482FF1F1582FF1F1682FF1F80E100E0D6490040D94900401882FF1F2082FF1F2482FF1FAF
:401300001A4B1B78DBB2102B29D1194B1B7813F0080F26D14FF40042164B1A604000C0B229B140F001004922104B1A7002E045220E4B1A70104B1870012201331A700F4B34
:401340001B7813F0010FFAD00C4B1B7803F00A030A2B08D11022054B1A700320704702207047012070470020704700BF1082FF1FD949004080E100E0D8490040D7490040C4
:40138000164B1B7813F0040F23D04000C0B229B140F001004922124B1A7002E04522104B1A70104B1870122201331A700422023B1A700D4B1B7813F0010FFAD00A4B1B7881
:4013C00003F00A030A2B06D11022054B1A7003207047022070470020704700BFD94900401082FF1FD8490040D74900400A4B1B7813F0040F0ED01023074A13700421023A75
:401400001170064A1370064B1B7813F0210FFAD00020704702207047D94900401082FF1FD7490040114B1B7813F0040F1BD0104B18700422013B1A7046220E4B1A700E4BF2
:401440001B7813F0010FFAD00B4B1B7813F0020F04D16022074B1A70002070476022054B1A70032070470220704700BFD9490040D84900401082FF1FD7490040114B1B7865
:4014800013F0040F1BD0104B1B78DBB2492B05D100220E4B1A704A220B4B1A700B4B1B7813F0010FFAD00A4B1B78DBB218B11021064A117004E06021034A117000E00023D9
:4014C00018467047D94900401082FF1FD7490040D849004001BE704710B5044605E0084B186800F091FCA4F50044B4F5004FF6D8034B586800FB04F000F086FC10BD00BFAC
:40150000D480FF1F70B504460E46074B1D681F2802D90020FFF7DEFF04F01F04103455F8240045F8246070BD08ED00E038B504460D46072902D90020FFF7CCFF1F2C02D95F
:401540000020FFF7C7FF04F01F0000F1604000F564406D01EDB2057038BD00BF08B50D490420FFF7CFFF07210420FFF7DFFF0023094A13707221094A11702021023A1170A3
:4015800006215D3A1170472110321170B73A137008BD00BF41160000FB81FF1F8665004010B500F039FC04460D4A137843F020031370023A137843F0100313701022094BA8
:4015C0001A6002F1804202F5C942137843F01003137000F081F8204600F022FC10BD00BF9665004000E100E008B5054B5B7823B9FFF7B4FF0122024B5A70FFF7D1FF08BDD7
:40160000FB81FF1F034B1B7813F0040FFAD1024B18707047606400404064004038B5074B5B782BB938BDFFF7EDFF0134A4B201E005460024285D0028F5D138BDFB81FF1F30
:401640001D4B1B78DBB213F01E0F05D01B4803F01E0201780A43027003F0200303F0FF0233B3174B1978C9B2164B1B78DBB21648C154164B1B7813F0FF0F02D00121144B85
:40168000197010490B780133DBB20B700B78DBB20F2B02D900210B4B19700A4B1978C9B20C4B1B78DBB2994202D10121074B1970002AC5D1704700BF64650040FB81FF1F08
:4016C00046650040FE81FF1F2882FF1FFF81FF1F0082FF1FFD81FF1F054A137843F0040313701032137843F004031370704700BFA243004008B500F08FFB0B4A137843F0BA
:4017000020031370083A137843F01003137002F58272137843F01003137000F081FB0822024B1A6008BD00BF9B64004000E100E008B500F071FB084A137803F0EF031370EF
:4017400002F58272137803F0EF03137000F068FB0822024B1A6008BD9364004080E100E00822014B1A60704700E100E00822014B1A60704780E100E0014B1878704700BF68
:401780006364004010B5FFF7F1FF064B1C78064A137803F061031C4300231370FFF7E0FF204610BD676500403A82FF1F10B5FFF7DDFF134B1A78D2B2124B1B78DBB29A4209
:4017C00014D0114B1B7813F0FF0F0CD10C4A13780133DBB213701378DBB2072B06D90022074B1A7002E00022074B1A70044B1B78DBB2064AD45CE4B2FFF7B2FF204610BD9D
:401800004482FF1F3882FF1F3B82FF1F3C82FF1F08B501E00A4B1B780A4B1B7813F0080FF8D100F0F9FA084B1A7842F003021A701A7802F0FC021A7000F0F2FA08BD00BFEF
:401840005B640040676500409B64004038B507240F4B1C7008250F4B1D600F490320FFF751FE21460320FFF761FEFFF7D1FF00240A4B1C700A4B1C700A4B1C70FFF77CFF7F
:40188000FFF780FF084B1C7003F582731D7038BD8B64004080E100E0C91800003B82FF1F4482FF1F3882FF1F8364004008B5054B1B7823B9FFF7CAFF0122024B1A70FFF72B
:4018C00019FF08BD0282FF1F204B1978204A137803F061030B43137032E01E4B1A78D2B21D490B780133DBB20B700B78DBB2072B02D90021184B1970174B1978C9B2174BA0
:401900001B78DBB299420ED114490B780133DBB20B700B78DBB2072B02D900210F4B197001210F4B19700C4B1B78DBB20D49CA54064B1978064A137803F061030B431370BB
:40194000034B1B7813F0080FC7D17047676500403A82FF1F5B6400403882FF1F4482FF1F3B82FF1F3C82FF1F024A137843F080031370704771640040014B1870704700BF9F
:4019800001640040014B1870704700BF41640040014B1870704700BF21640040014B1870704700BF31640040014B1870704700BF81640040014B1878704700BF616400405F
:4019C000014B1878704700BF5164004008B501E0FFF7F6FFFFF7EEFF10F0100FF8D108BD10B5134A137803F0C00343F009031370104C237843F001032370FF20FFF7BCFFD1
:401A0000FF20FFF7BFFF0020FFF7C2FF0020FFF7C5FF0020FFF7C8FF00F0FEF9237843F01003237000F0FCF9FFF7D0FF10BD00BF716400409164004008B5054B1B7823B9EE
:401A4000FFF7CEFF0122024B1A70FFF78DFF08BD0382FF1F014B1878704700BF21640040014B1878704700BF31640040014B1B689864704708ED00E04001C0B2014B1870A3
:401A8000704700BF02E400E00422014B1A60704700E100E00422014B1A60704780E100E010B50446FFF7F6FF2046FFF7DFFF0720FFF7E2FFFFF7E8FF10BD00BF014B1B6838
:401AC0001864704708ED00E04001C0B2014B1870704700BF00E400E00122014B1A60704700E100E00122014B1A60704780E100E010B50446FFF7F6FF2046FFF7DFFF072080
:401B0000FFF7E2FFFFF7E8FF10BD00BF08B500F083F9094A137843F020031370053A137843F0100313700432137843F01003137000F076F908BD00BF97640040014B18786E
:401B4000704700BF62640040014B1878704700BF66640040034B1B7813F0020FFAD0024B187070476264004043640040014B1870704700BF03640040014B1878704700BF12
:401B800053640040044B1B7813F0080F01D0012070470020704700BF6664004008B500F03BF9064B1A7842F003021A701A7802F0FC021A7000F034F908BD00BF9364004080
:401BC00008B501E00A4B1B780A4B1B7813F0080FF8D100F021F9084B1A7842F003021A701A7802F0FC021A7000F01AF908BD00BF53640040666400409364004008B5072233
:401C0000064B1A70FFF7DCFFFFF798FFFFF79CFF0023034A13700432137008BD876400408264004008B5054B1B7823B9FFF7E6FF0122024B1A70FFF769FF08BD0482FF1F00
:401C4000014B1B685865704708ED00E04001C0B2014B1870704700BF05E400E02022014B1A60704700E100E02022014B1A60704780E100E010B50446FFF7F6FF2046FFF7B0
:401C8000DFFF0720FFF7E2FFFFF7E8FF10BD00BF044A137803F0FB03800000F0040018431070704730510040044A137803F0F703C00000F00800184310707047305100407D
:401CC000084A137843F0010313701032137843F00103137002F64D32137843F001031370704700BFA3430040084A137803F0FE031370A2F65D32137803F0FE0313701032AF
:401D0000137803F0FE031370704700BF004F0040014B1870704700BF034F0040014B1880704700BF044F0040014B1880704700BF064F004008B5164A137803F001031370C2
:401D40000232137803F0FC031370124B1A7802F0CF021A701A7842F030021A701A7802F0F0021A701A7842F00F021A700A4A137843F00103137042F20F70FFF7CFFF42F2D0
:401D80000F70FFF7D1FF0020FFF7C2FF08BD00BF004F00400B4F0040014F004008B5054B1B7823B9FFF7C6FF0122024B1A70FFF787FF08BD0582FF1F014B1B685864704771
:401DC00008ED00E04001C0B2014B1870704700BF01E400E00222014B1A60704700E100E00222014B1A60704780E100E010B50446FFF7F6FF2046FFF7DFFF0720FFF7E2FFD6
:401E0000FFF7E8FF10BD00BF0230800803D000BF01380046FCD17047EFF3108072B6704780F31088704700BF80F0004002E000BF81F0004142001FBF5FEA410392EA030FDA
:401E40007FEA226C7FEA236C6AD04FEA1262D2EB1363C1BFD218414048404140B8BF5B42192B88BF704710F0004F40F4000020F07F4018BF404211F0004F41F4000121F0CD
:401E80007F4118BF494292EA030F3FD0A2F1010241FA03FC10EB0C00C3F1200301FA03F100F0004302D5494260EB4000B0F5000F13D3B0F1807F06D340084FEA310102F1ED
:401EC0000102FE2A51D2B1F1004F40EBC25008BF20F0010040EA03007047490040EB000010F4000FA2F10102EDD1B0FA80FCACF1080CB2EB0C0200FA0CF0AABF00EBC250F1
:401F000052421843BCBFD0401843704792F0000F81F4000106BF80F400000132013BB5E74FEA41037FEA226C18BF7FEA236C21D092EA030F04D092F0000F08BF08467047D7
:401F400090EA010F1CBF0020704712F07F4F04D1400028BF40F00040704712F100723CBF00F50000704700F0004343F0FE4040F4000070477FEA226216BF08467FEA236388
:401F80000146420206BF5FEA412390EA010F40F4800070474FF0000304E000BF10F0004348BF40425FEA000C08BF704743F0964301464FF000001CE050EA010208BF704762
:401FC0004FF000030AE000BF50EA010208BF704711F0004302D5404261EB41015FEA010C02BF84460146002043F0B64308BFA3F18053A3F50003BCFA8CF2083AA3EBC253BA
:4020000010DB01FA02FC634400FA02FCC2F12002BCF1004F20FA02F243EB020008BF20F00100704702F1200201FA02FCC2F1200250EA4C0021FA02F243EB020008BF20EA06
:40204000DC7070474FF0FF0C1CEAD0521EBF1CEAD15392EA0C0F93EA0C0F6FD01A4480EA010C400218BF5FEA41211ED04FF0006343EA501043EA5111A0FB01310CF0004028
:40208000B1F5000F3EBF490041EAD3715B0040EA010062F17F02FD2A1DD8B3F1004F40EBC25008BF20F00100704790F0000F0CF0004C08BF49024CEA502040EA51207F3A9E
:4020C000C2BFD2F1FF0340EAC250704740F400004FF00003013A5DDC12F1190FDCBF00F000407047C2F10002410021FA02F1C2F1200200FA02FC5FEA310040F1000053EA57
:402100004C0308BF20EADC70704792F0000F00F0004C02BF400010F4000F013AF9D040EA0C0093F0000F01F0004C02BF490011F4000F013BF9D041EA0C018FE70CEAD153A7
:4021400092EA0C0F18BF93EA0C0F0AD030F0004C18BF31F0004CD8D180EA010000F00040704790F0000F17BF90F0004F084691F0000F91F0004F14D092EA0C0F01D1420261
:402180000FD193EA0C0F03D14B0218BF084608D180EA010000F0004040F0FE4040F40000704740F0FE4040F4400070474FF0FF0C1CEAD0521EBF1CEAD15392EA0C0F93EA6E
:4021C0000C0F69D0A2EB030280EA010C49024FEA402037D04FF0805343EA111143EA10130CF000408B4238BF5B0042F17D024FF4000C8B4224BF5B1A40EA0C00B3EB510F31
:4022000024BFA3EB510340EA5C00B3EB910F24BFA3EB910340EA9C00B3EBD10F24BFA3EBD10340EADC001B0118BF5FEA1C1CE0D1FD2A3FF650AF8B4240EBC25008BF20F020
:40224000010070470CF0004C4CEA50207F32C2BFD2F1FF0340EAC250704740F400004FF00003013A37E792F0000F00F0004C02BF400010F4000F013AF9D040EA0C0093F061
:40228000000F01F0004C02BF490011F4000F013BF9D041EA0C0195E70CEAD15392EA0C0F08D142027FF47DAF93EA0C0F7FF470AF084676E793EA0C0F04D14B023FF44CAFD1
:4022C00008466EE730F0004C18BF31F0004CCAD130F000427FF45CAF31F000437FF43CAF5FE700BF4FF0FF3C06E000BF4FF0010C02E000BF4FF0010C4DF804CD4FEA400260
:402300004FEA41037FEA226C18BF7FEA236C11D001B052EA530C18BF90EA010F58BFB2EB030088BFC81738BF6FEAE17018BF40F0010070477FEA226C02D15FEA402C05D13A
:402340007FEA236CE4D15FEA412CE1D05DF8040B704700BF844608466146FFE70FB5FFF7C9FF002848BF10F1000F0FBD4DF808EDFFF7F4FF0CBF012000205DF808FB00BFF7
:402380004DF808EDFFF7EAFF34BF012000205DF808FB00BF4DF808EDFFF7E0FF94BF012000205DF808FB00BF4DF808EDFFF7D2FF94BF012000205DF808FB00BF4DF808ED19
:4023C000FFF7C8FF34BF012000205DF808FB00BF4FEA4002B2F1FE4F0FD34FF09E03B3EB12620DD94FEA002343F0004310F0004F23FA02F018BF404270474FF0000070477A
:4024000012F1610F01D1420205D110F0004008BF6FF0004070474FF0000070470B460146184600F001B8000010B5054C13462CB10A4601460220AFF3008010BD204610BD24
:4024400000000000014B1868704700BF4481FF1F0E4B70B51E460E4C0025E41AA410A54204D056F8253098470135F8E700F09AFC084B094C1E46E41AA4100025A54204D0AE
:4024800056F8253098470135F8E770BDB02D0000B02D0000B02D0000BC2D0000024B0146186800F063B800BF4481FF1F10B5431E0A44914204D011F8014B03F8014FF8E77D
:4024C00010BD03460244934202D003F8011BFAE77047000038B50546002944D051F8043C0C1F002BB8BFE41800F0D2F81E4A1368114613B96360146030E0A3420DD9226807
:40250000A018834201BF18685B681218226063600C6023E0A24203D813465A68002AF9D118681918A1420BD12168014458188242196013D110685268014419605A600DE009
:4025400002D90C232B6009E021686018824201BF106852680918216062605C602846BDE8384000F096B838BD0C82FF1F70B5CD1C25F0030508350C2D38BF0C25002D06465A
:4025800001DBA94202D90C23336046E000F080F8234B1C681A462146A1B10B685B1B0ED40B2B03D90B60CC18CD501EE08C420BBF63684B681360636018BF0C4615E00C461B
:4025C0004968E9E7174C23681BB9304600F02CF820602946304600F027F8431C18D0C41C24F00304A0420DD12560304600F051F804F10B00231D20F00700C31A0ED05A42B6
:40260000E25070BD211A304600F00EF80130EBD10C233360304600F03CF8002070BD00BF0C82FF1F0882FF1F38B5064C0023054608462360FEF7B4FB431C02D1236803B158
:402640002B6038BD4882FF1F0EB400B54FF402719CB0ADF814106FF00041049107914FF6FF711DAB02900690084853F8042BADF81610006802A9019300F066F8029B0022F5
:402680001A701CB05DF804EB03B070474481FF1F704770472DE9F0478E6882469E420C46914698463ED88A8912F4906F3AD02568096902236F1A656905EB450595FBF3F56E
:4026C0007B1C43449D4238BF1D4653050FD52946FFF74CFF064698B13A462169FFF7E6FEA38923F4906343F08003A38113E02A4600F0E3FA064670B921695046FFF7EAFE6B
:402700000C23CAF80030A3894FF0FF3043F04003A381BDE8F08726613E44266046466561ED1BA560464528BF464649463246206800F0A8FAA36800209B1BA36023681E444A
:402740002660BDE8F08700002DE9F04F9DB003938B8980461C060D4616460DD50B695BB94021FFF703FF2860286118B90C23C8F80030CDE040236B610023099320238DF8AD
:402780002930DFF89CB130238DF82A3037463C4614F8013B1BB9B7EB060910D003E0252BF9D02746F3E74B46324629464046FFF771FF013000F0A780099B4B4409933B784D
:4027C000002B00F0A08000234FF0FF3204930793059206938DF853301A930126052221784E4800F041FA671C049B38B14B4A3C46801A06FA00F018430490EFE7D90644BFFA
:4028000020228DF853201A0744BF2B228DF8532022782A2A03D0079A00210A200BE0039A111D12680391002A10DA524243F00200079204900BE027463B780134303B092B9B
:4028400003D800FB02320121F5E701B107923B782E2B1ED17B782A2B0AD1039B02371A1D1B680392002BB8BF4FF0FF33059310E0002319460593781C0A2407463A7801301A
:40288000303A092A03D804FB01210123F5E703B1059103223978224800F0E6F940B14023CBEB000003FA00F0049B013718430490397806221B487E1C8DF8281000F0D4F919
:4028C00088B1194B33B9039B073323F007030833039314E003AB00932A46144B04A94046AFF3008007E003AB00932A460F4B04A9404600F093F8B0F1FF3F824603D0099B72
:402900005344099342E7AB895B0601D4099801E04FF0FF301DB0BDE8F08F00BF702D0000762D00007A2D000000000000952600002DE9F04791461F460A698B68064693427F
:40294000B8BF1346C9F8003091F843200C46DDF8208012B10133C9F800302368990642BFD9F800300233C9F80030256815F0060510D104F1190A07E001235246394630467B
:40298000C04701301AD00135E368D9F800209B1A9D42F1DB94F843302268003318BF012392060FD5E118302081F843005A1C94F845102244023382F8431003E04FF0FF30DB
:4029C000BDE8F08704F1430239463046C0470130F4D02268D9F80050E36802F00602042A08BF5D1B2269A3680CBF25EAE57500259342C4BF9B1AED184FF000091A344D450A
:402A000009D00123224639463046C0470130D5D009F10109F3E70020BDE8F0872DE9F04317460A7E85B06E2A984606460C460C9B01F1430E00F0AE8011D8632A22D009D87D
:402A4000002A00F0BB80582A40F0CA8081F84520834955E0642A1ED0692A1CD0C0E0732A00F0B08009D86F2A2ED0702A40F0B8800A6842F020020A603EE0752A24D0782AD1
:402A80003AD0ADE01A6801F14205111D1960136884F84230A8E021681A6811F0800F02D0111D196008E011F0400F02F10401196002D0B2F9003000E01368002B3CDA2D22D7
:402AC0005B4284F8432037E021681A6811F0800F02D0111D196007E011F0400F02F10401196001D0138800E01368227E5C496F2A14BF0A2208221BE078225A4984F84520A0
:402B00002268186812F0800F00F104051D6003D1550601D5038800E00368D00744BF42F0200222601BB9226822F0200222601022002084F8430001E049490A226568002D3A
:402B4000A56008DB206820F0040020602BB9002D7DD175460CE0002B79D07546B3FBF2F002FB1033CB5C05F8013D03460028F5D1082A0BD12368DA0708D5236962689A422A
:402B8000DEBF302305F8013C05F1FF35C5EB0E0323612EE008681A6810F0800F496903D0101D1860136808E010F0400F02F104001860136801D0198000E0196000232361BD
:402BC000754616E01A68111D1960156800216268284600F049F808B1401B6060636804E004F1420584F8422001232361002384F84330CDF800803B4603AA21463046FFF757
:402C000097FE013002D14FF0FF3026E023692A4639463046C0470130F5D023689B0710D5002504F1190907E001234A4639463046C0470130E7D00135E368039A9B1A9D421A
:402C4000F2DBE068039B9842B8BF184605E00B7804F1420584F842308AE705B0BDE8F083812D0000922D000010B5C9B202449042034605D01C7801308C42F8D1184610BDB8
:402C8000002010BD884210B501EB020301D8421E0BE09842FBD28118D21AD34204D013F8014D01F8014DF8E710BD994204D011F8014B02F8014FF8E710BDF8B507461546D3
:402CC0000E4621B91146BDE8F840FFF74FBC1AB9FFF700FC2846F8BD00F015F885420ED929463846FFF742FC044650B131462A46FFF7DCFB31463846FFF7ECFB01E0304695
:402D0000F8BD2046F8BD51F8040C0028BEBF091851F8043CC0180438704700000000000053656E736F72204D6964646C653A202564200A0D00000000C84900401900004F94
:402D400000400C00405100403000F0510040100000000140001000140140000800400140000A004C014000020050014020004300232D302B2000686C4C00656667454647CA
:402D8000003031323334353637383941424344454600303132333435363738396162636465660000F8B500BFF8BC08BC9E4670474D000000D50300001D0E0000F8B500BFD4
:402DC000F8BC08BC9E46704729000000E02D0000C880FF1F80000000080100000000000000000000000000005082FF1F0000E02EC05D00001800000000366E0100000000C3
:402E0000000000000000000000000000000000000000000000000000000000006E2D00000000000000000000000000000000000000000000000000000000000000000000F7
:402E400000000000000000000000000000000000000000000000000000000000E480FF1F0000000000000000000000000000000000000000000000000000000000000000D0
:402E80000000000000000000000000000000000000000000000000000000000000000000000000000000000000000000000000000000000000000000000000000000000012
:402EC00000000000000000000000000000000000000000000000000000000000000000000000000000000000000000000000000000000000000000000000000000000000D2
:402F00000000000000000000000000000000000000000000000000000000000000000000000000000000000000000000000000000000000000000000000000000000000091
:402F40000000000000000000000000000000000000000000000000000000000000000000000000000000000000000000000000000000000000000000000000000000000051
:020000040003F7
:0200000480007A
:40000000024F00400852004007640040046500405B00014037010140470201404C0301403C04014054050140410601404D0701400B090140460A0140410B0140040D014015
:400040005C140140471501405B1601405517014004190140041B014006400140114101400B42014003430140024401400A4501400446014003470140084801401949014085
:40008000154C0140094D0140085001400351014001300A3600200130088011081801190260026443800F810F82478347867887078B078438850F86728778040C05380613BC
:4000C0000704081109280A060D010E131011120E152016081B061D121F20220C261029202B182D182F2230103301340F353E3A203E013F0440344101450C46BE480D49FF15
:400100004AFF4BFF4EF04F44500C5401580459045A045B045C225D225F0166C06A406B028701910294029D01A901AA03B002B201B703B980C050C104C5D0C650C721C83A32
:40014000C9FFCAFFCBFFCDA0CF04D018D280D407D804D904DA04DB04DC24DD44DF01E040E2C0E440E540E6C0E8C0EAC0ECC0EEC000040309080209080B200E1010301280B5
:400180001308160418041A801C401E1021202204268028022B082E012F48312832803320374138243B803C04400241404349450248204E024F0150105340540455025626D1
:4001C00058105A895C505E085F017780C007C22CC44CCA2CCC9ECE4ED08BD210D6FF0201040207010E01130119021F04220226022B02300231043401350137023A803E11F9
:400200005441580459045B045C425D105F01850286018A028D039002930199089A029F04A708A903B104B201B308B503B602B920BE40BF14C001C105C210C404C5CEC60B59
:40024000C7FDC837C9FFCAFFCBFFCC22CEF0CF0CD08CD110D441D804D904DA24DB04DC85DD08DF31E840E901EAC0EB0100100108030406020750088009010A010B081410A0
:400280001680182019801E49204021102310240825802602274028102B082E2030023250331136223780388439803A043C08400141024A504B4050805104530259905B042A
:4002C0005E64610867107901800485088A048C809004958097209A229B889F01A004A280A320A580A606A708B410B580C0B6C20AC430CA26CCBDCE4AD009D208D67ED8426E
:40030000DE01EA01020404040502070808040B010C040F3C1102130414021502171021202302254026012B023002313E32013340350136043E413F055608580459045B04CF
:400340005C415F0184018B018C068E08920A9301940198019C069E18A001A406A608A814AA08AE10B21EB301B601BA08BE40D608D804D904DB04DC42DD10DF0100AA0380E3
:400380000480071009040C020D800E28101014811604170818031A201B011E011F0821022224242029202BA0320133043602384039043A203E283F044104421058205A4457
:4003C0005D085E905F016010625064106681670478017A80858087088B048C118D0990409129949196289768988099209A249B089C109E80A2C2A322A402A503A620A70845
:40040000A910AD09B284B410B520B640C0AFC2F4C4F4CA07CC83CE2ED6FED8FEE640E840EA0AEE440108050309630B0C0D020E011101150C16011763190C1D6F210F236097
:4004400025042B432D103120334C3401350F371039023B283E103F405420580459045B045C205D105F01840887018A058E1092039301950196029810A206A302A608A806EF
:40048000A901AA01AD01AE01B007B208B410B502B701BA02BE14BF40D602D804D904DB24DC12DD80DF31010802010308044009200A800B200F2010021294188019101A80F3
:4004C0001B041C0421202301244825502610271028042A812CA02F06330534813604372039083D683E02440245405E02640265106608685569046A026B05780479057A019F
:400500007B0291299201948095049602976198809A5D9B409F14A280A34BA457A614A820A904AB40AE04B640B740C087C22EC40FCAFDCCF3CEF2D680D870DE01EA06EE04A4
:40054000894094049D40A880A910AE10B180B308B505EA10EE4009020D02130219022F01330135023F10560859045B045F018202880889018B088C088D108F019101920804
:400580009302940897209A089E019F01A004A401A501A704AB1EB001B202B31FB408B604B720BE51BF04C003C104C230C402C5FEC6C0C7BDC83BC9FFCAFFCBFFCC22CEF0A2
:4005C000CF0CD08CD110D602D72CD804D904DA24DB24DC58DD88DE08DF21E840E901EAC0EB0104A007800C0A0F0A150817021D121F48201021042308240127202B012C20A1
:400600002F0830223408354036013780388039103D103E40444047284C804E1055055610570459806302644067806C7A6D106E427C84848087028B018C1094019620980812
:40064000A502AA10AD02B408C0D0C2F0C430CA68CCD5CE3CD0E0D608D888DE50E290E602E840EA189401A801E080E440020808021A0826042A0330043201340836023E1083
:400680004020410149FF4AFF4BFF4DA04F0450185418560458045A045B045C095D295F01604062C06440654066C068C06AC06CC06EC081C085C88730893B8A0C8FC0960882
:4006C00097C099C09C02A3C0A53BA606A9A2AB09AD51AE01AF0EB004B104B202B338B401B503B608B7C0C020C105C5D0C652C701C81EC9FFCAFFCBFFCDAFCE0FCF04D0183A
:40070000D280D407D804D904DA04DB04DC29DD99DF01E040E2C0E440E540E6C0E8C0EAC0ECC0EEC00010038004080510072009200C080F02102816201740181019801A0491
:400740001B011DB21E202504262127012C852F20360437203DAA4120438045204D014F805428562057C05B015D815E2460846240774078047A208102848088018D80900CC9
:400780009A409C01A080A151A204A320A504A621A820A940B340C04AC2A2C4A6CAF0CC60CEF0D02CD210D6F1D80DE210E401E810EA250110074009180E020F23100113046C
:4007C000153C17021A021B801D3F211C232124012508280129272B182D042F8030023201331F35C037383B083E013F104063410442054402450C46E0480949FF4AFF4BFF09
:400800004C624DA04EF04F41500C56025713580459045A045B045C225D225F016640670269106A306B106D106E106F1282028601A402B002B201B902BE01BF01C002C6402D
:40084000C9FFCA07CBFFCC40CD20CEF0CF05D008D420D604D804D904DA04DB04DD02DF01E040E1A8E240E320021003400501064007010E400F0410101714188019081D09AD
:400880001F04234024022520260427012CA12D1034A036253D883E224110448045294C054D104F0450025310571058025E016209630A6D206E406F3474207622772078024B
:4008C0007B40841085488C408E01900C912092019540976898809A109B409C019D089E029F20A080A208A345A422A504A604A710A880AB10AE48B040B280C08CC250C4648C
:40090000CAF0CCF0CEF0D0E4D230D681D80FE208E642B404E208E410E602E401E620E810EA053020330236883B40CCF0CE100B020F02308060106501801087019740A68814
:40094000A702A820C2C0CC10D8C0E410E680EA8012803E108D0197409D01A688B080B208B703C410CE2096109740A6087840DC0109010F105B1088408F109C40C20CD4019B
:40098000E001E4028402AF10B501EA088A049C02E201652086208E0896109740A608D880E210122014805202571076207B02822287408F1097409A209C80A302AA10AB02E7
:4009C000B120B480C430D4C0DC80DE20E280E480E640EAA008020A080C02132816405F017B107C10840286408F0196089C02A402B402C20EC40ED601DE03E408EE0210208E
:400A000083108820A710AB28B410C408E604E808003708370A170C21100511011A051B0100FF010F03C00000C0F0300030000000C30000C38000830000000000708B8B0070
:400A40008000000030080800080000000F0F00000300000000000000000000000000000000000000000000000000000000000000000000000000000000000000000000008D
:400A80000000000000000000000000000000000000000000000000000000000000000000000000000000000000000000000000000000000000000000000000000000000036
:400AC00000000000000000000000000000000000000000000000000000000000000000000000000000000000000000000000000000000000000000000000000000000000F6
:400B000000000000000000000000000000000000000000000000000000000000000000000000000000000000000000000000000000000000000000000000000000000000B5
:400B40000000000000000000000000000000000000000000000000000000000000000000000000000000000000000000000000000000000000000000000000000000000075
:0200000490006A
:0400000000004005B7
:0200000490105A
:04000000BC90ACAF55
:0200000490303A
:02000000B76ADD
:0200000490402A
:4000000000000000000000000000000000000000000000000000000000000000000000000000000000000000000000000000000000000000000000000000000000000000C0
:400040000000000000000000000000000000000000000000000000000000000000000000000000000000000000000000000000000000000000000000000000000000000080
:400080000000000000000000000000000000000000000000000000000000000000000000000000000000000000000000000000000000000000000000000000000000000040
:4000C0000000000000000000000000000000000000000000000000000000000000000000000000000000000000000000000000000000000000000000000000000000000000
:0200000490501A
:0C00000000012E16106900012E2AC7D343
:00000001FF