:400000000080002011000000590C0000590C000008B5044B1A6803F53F5302331A6000F03BFE00BFFA46004010B5054C237833B9044B13B10448AFF300800123237010BD74
:400040004881FF1F00000000BC210000084B10B51BB108490848AFF300800848036803B910BD074B002BFBD0BDE81040184700BF000000004C81FF1FBC210000C880FF1F48
:400080000000000008B55021014800F045FB08BD6481FF1F08B54621014800F03DFB08BD6481FF1F38B5194C204600F061FA0546204600F04FFA854226D1204600F04AFA2F
:4000C000A0F10A01204600F047FA204600F052FA204600F03FFA002810DD204600F03AFA7D30800080B200F045FE204600F032FA7D30800080B200F043FE38BD002000F054
:4001000039FE002000F03CFE38BD00BF6881FF1F012818D138B54FF6FF73994212D10A4C204600F0E1FA094D2A460949204601F079FF0434204600F0FDF92A4605492046F9
:4001400001F070FF38BD70476481FF1FCC80FF1FF10600005105000010B59CB062B600F0B7FE01F0A5F901F087FB674801F0C2FA664801F0E7FA664801F03AFC17A800F089
:40018000A1FB644C224617A913A800F0DBF812A800F0D6FA0194604B0093604B604A614903A800F05BF9604801F09CF95F4B1B7E2BB970215D4800F09DFA044600E00024B2
:4001C0006CB15A4C01232376722112A800F0EAFA4FF47A7001F0E4F8022323760DE0534B1B7E022B05D17021504800F083FA00B9012414B100224D4B1A764C4B1B7E022B9F
:4002000006D113A800F0F8F86F2803D1012402E0002400E000242CB10322444B1A7601F0BFFB0FE0414B1B7E032B05D113A800F0E3F8632800D1012424B102223B4B1A76B8
:4002400001F054FB394B1B7E022B05D16621374800F050FA044600E000241CB10422334B1A760DE0314B1B7E042B05D166212F4800F040FA00B9012414B102222B4B1A7693
:400280002A4B1B7E042B91D8DFE803F0030C18252E00672112A800F073FA722112A800F06FFA83E7722112A800F07CFA4FF47A7001F076F802221D4B1A7677E7722112A8AF
:4002C00000F05EFA672112A800F040FA0021114800F076F96AE7722112A800F051FA672112A800F05FFA61E7722112A800F048FA672112A800F056FA0D4903A800F0C8F813
:4003000003A800F0CDF851E78500000095000000A50000006881FF1F00004842736831BF333308C366E60E43C02100006481FF1F00004C4208B54FF6FF710120FFF7E8FE5B
:4003400008BD00BF10B5044600202070E0606260A16001F035FA204610BD00BF10B50C4601F046FA204601F01FFA10BD08B5A1F16203102B35D8DFE803F0112D3434093407
:400380003434343419343429343421000378012B29D1406800F078F9002008BD0378012B23D1406800F070F9002008BD0378012B1DD1406800F068F9002008BD0378012B10
:4003C00017D1406800F060F9002008BD012303706F2008BD00230370406800F0DBF8632008BD002008BD002008BD002008BD002008BD002008BD00BF38B50446806800F0C4
:40040000D7FAE060012804D105212046FFF7A6FF04E00E4B19782046FFF7A0FF01F0DCF9034680B101F0D2F90546094801F05AF8284601F04BF8074801F054F829462046DF
:40044000FFF794FF0346184638BD00BF7C81FF1FE0210000F421000001627047F8B504460F4616461D4600F065F8002323626362A362E36223636363079BA3636761A6617B
:40048000E56106992046FFF7E7FF2046F8BD00BF10B50446006A01F0CFFAA06210BD00BF70B50446416BC06901F0D0FB0546A16A606901F0CBFB0146284601F0BFFA0546FA
:4004C000E16AA06901F0C2FB0146284601F0B6FA05462063154901F075FD10B1134B236306E01349284601F04FFD08B1104B2363256B0021284601F05BFD40B1A66B284611
:4005000001F06AFD0146304600F05AF808E0A66B05F1004001F060FD0146304600F06AF8A36AE362206B606370BD00BF0000C8420000C8C210B5044600230360436001225D
:400540000272C360036100F06FFC204610BD00BF704700BFC0687047642902DD6423C3607047002902DC0023C3607047C160704700697047C3680361704700BF08B50160F2
:4005800088B200F0F7FB08BD08B5416088B200F0F7FB08BD10B504460021FFF7EFFF00212046FFF7F1FF10BD10B50C460172084601F070F984F0010001F078F910BD00BF38
:4005C00038B5054631B9FFF7D9FF00212846FFF7DBFF09E00C467D34A4002146FFF7CEFF21462846FFF7D0FF01212846FFF7DCFF38BD00BF38B5054631B9FFF7BFFF00214C
:400600002846FFF7C1FF09E00C467D34A4002146FFF7B4FF21462846FFF7B6FF00212846FFF7C2FF38BD00BF38B505467D318C002146FFF7A3FFC83C21462846FFF7A4FF99
:40064000002C03DA00212846FFF79EFF01212846FFF7AAFF38BD00BF38B505467D318C002146FFF791FFC83C21462846FFF786FF002C03DA00212846FFF780FF012128461C
:40068000FFF792FF38BD00BF38B504460D46C368182B03DC1921FFF75FFF06E0FFF75AFF00F10A012046FFF757FF2046FFF762FF662D04D1E1682046FFF782FF38BD622DE8
:4006C00004D1E1682046FFF795FF38BD722D04D1E1682046FFF7A8FF38BD6C2D03D1E1682046FFF7B9FF38BD0022027042707047704700BF502901D0702901D1037808E0F8
:40070000462901D0662903D1037813B1437800E000231846704700BF502907D1037813B1002303707047012303707047462906D1437813B10023437070470123437070473A
:4007400010B5044600F0A2FF204610BD08B5672901D0472907D100F0ADFFFF280ED0FF2000F046FF08BD722901D0522906D100F09BFFFF2802D0FF2000F034FF08BD00BF7F
:4007800008B5672901D0472903D1002000F030FF08BD722901D0522902D1002000F022FF08BD00BF08B5672901D0472903D17A2000F01EFF08BD722901D0522902D17A2042
:4007C00000F010FF08BD00BF10B401604260836010BC7047F8B5084614461F46069D002100F0F2FC204600F081FD0022531CDCB2BA4206D26E1C287800F078FD22463546B4
:40080000F4E700F057FDF8BD10B584B004AC04F8013D00940123FFF7DDFF04B010BD00BFF8B50C4616461F46069D0021204600F0CBFC304600F05AFD0121204600F004FD60
:400840000022531CDCB27B1E9A4207DA6E1C012000F078FD287022463546F2E7002000F071FD287000F026FDF8BD00BF08B501F019FC08BD10B5044600236B2268210068CA
:40088000FFF7C2FF6D23192268212068FFF7BCFF18231B2268212068FFF7B6FF20236A2268212068FFF7B0FF37231A4668212068FFF7AAFF06231A2268212068FFF7A4FFC2
:4008C00010BD00BF70B504460026466000258560C56005610120FFF7C9FF20601420FFF7C5FF0580458085808660C6600661A0601420FFF7BBFF0580458085808660C6604E
:400900000661E0600C20FFF7B1FF0546231DA268E168FFF759FF2561E3682B602046FFF7A9FF204670BD00BF30B585B0044602AB009306233B2268210068FFF771FFA268D5
:400940009DF808109DF8093043EA01231380A2689DF80A109DF80B3043EA01235380A2689DF80C109DF80D3043EA01239380A568B5F9000001F016F94FF0645101F066F97B
:40098000A860A568B5F9020001F00CF94FF0645101F05CF9E860A568B5F9040001F002F94FF0645101F052F92861A06805B030BD10B50446FFF7B8FFA3680021186901F092
:4009C000E3FA08B1012010BD002010BDFEE700BFF0B40022174611E050F82760F3B226F0FF0608E001EB420511F812406D78A5550132013BDBB2002BF4D10137202FEBD9B3
:400A0000F0BC7047064B1B78DBB203F00701054A11701B09013213704422034B1A707047CF0100496E5800407658004008B50A46002101F04AFB08BD38B500242E4B1C80CC
:400A4000582202331A70192502331D8018232B4A1370EF21023211800232137045F6BF5102321180023213704FF6FF7102321180023213700222224B1A7008224FF040238F
:400A80001A70032103F5007319701E4B1B78DBB21D490B701D4B1A8041F25122023B1A800CE01B4B1B7803F0010343EA440404F003044FF4F07000F0ABFF013D0DB1032CF7
:400AC000EFD115B90320FFF781FF124B4FF480721A8007221A7000220F490A704820023108701A700222033B1A700C4A137843F01F03137038BD00BF804000408640004000
:400B00000043004008010049A146004022420040254200400440004006400040A243004008B501F0C7FA08BD38B572B6374A137843F00403137000240CE0354D6300191906
:400B40004A0011462A44084691882858FFF76EFF0134E4B2082CF0D900240BE02C49A3001819420088180622C16B806BFFF7D8FF0134E4B2002CF1D026494FF09040FFF7E2
:400B800027FF254A254B1A60254A137843F0020313701032137843F002031370214C237843F040032370A2F58632513A137843F01003137008221C491C48FFF7B1FF0A2275
:400BC0001B491C48FFF7ACFF08221B491B48FFF7A7FF08221A491B48FFF7A2FF1A4A137843F008031370194D61232B70FFF724FF81232B700122164B1A70FFF703FF0E22B5
:400C000021461448FFF78CFF38BD00BFE8460040F82100008400004804000464D818014003500140A0430040EC07004802510040F4070048C05100400008004812510040C0
:400C40000808004822510040224300400048004004000840B043004008B501F0F7F903680C2B00D1FEE7FEE708B5094B1A681044084BC31A802B02DC054B186005E001F0A4
:400C8000E5F90C2303604FF0FF32104608BD00BFD080FF1FC081FF1F08B5104E104D16E029686B68AC68002204E051F8040B43F8040B0432A242F8D1E868002203E00021C6
:400CC00043F8041B04328242F9D11035013E002EE6D101F0C1F9FFF73FFAFEE7010000006422000008B5104A104B1A60104A136843F40073136000230AE0032B03D80D4ADC
:400D000052F8231000E00C490C4A42F8231001332F2BF2D90A4B1A780A4B1A70074A0A4B1A60FFF701FF08BD0004FA050CED00E014ED00E000000000590C00000080FF1F84
:400D4000BC760040C080FF1F08ED00E0024A137843F08003137070477A640040014B1880704700BF12680040014B1880704700BF92680040014B1880704700BF52680040ED
:400D8000014B1880704700BF72680040014B1870704700BF8A640040014B1878704700BF6A640040014B188880B27047B268004008B501E0FFF7F6FFFFF7EEFF10F0100F2D
:400DC000F8D108BD10B5164A137803F0C00343F0090313701F32137843F001031370114C237843F0010323704FF46170FFF7B6FF4FF46170FFF7B8FF0020FFF7BBFF002075
:400E0000FFF7BEFF0020FFF7C1FF00F009FE237843F01003237000F007FEFFF7C9FF10BD7A6400409A64004008B5054B1B7823B9FFF7C8FF0122024B1A70FFF787FF08BD6E
:400E40007D81FF1F38B50222114B1A7081220E3B1A70082202331A700F2511331D70002401331C704FF400420A4B1A600721284600F0C0FA0849284600F0A8FA1022074BAE
:400E80001A70074B1C70074B1C70074B1C7038BDD649004080E100E0F90E00009481FF1F9A81FF1F9C81FF1F9881FF1F08B500F0B7FD064A137843F00403137010321378CE
:400EC00043F00403137000F0AFFD08BDA543004008B5074B1B7823B9FFF7B4FF0122044B1A70FFF7E3FF4FF40042024B1A6008BD7E81FF1F00E100E038B5A54B1C78A54B61
:400F00001B7813F0400F00F03A81E4B214F0010F00F01D819F4B1B78453B052B00F21481DFE813F006008200120112010600DF0004F0DF0504F00A04082C42D1954B1B7844
:400F4000DBB2452B35D1944B1B7813F0FF0F10D0924B1B681B78DBB2914A137004228C4B1A7001228F4B1A7046228A4B1A702C46EDE08D4B1B7813F0020F0DD08B4A13785D
:400F800043F00A0313706022824B1A704FF40042874B1A602C46DAE0864A137843F0100313701022844B1A700422023B1A702C46CDE00022764B1A704A22764B1A702C4647
:400FC000C5E00A2C2BD1794A137843F0A0031370754B1B7813F0020F14D06E4B1B7813F0080F01D0092300E00A23704A11780B4313706022674B1A704FF400426C4B1A6030
:401000002C46A4E06B4A137843F0100313701022694B1A700422023B1A702C4697E0002000F0BCF92C4692E014F0020F36D15D4B1A78D2B2584B1B78DBB29A4210D2594AC4
:401040001378DBB255490968CB5CDBB254490B7004214F4B197013780133DBB2137076E0514B1B7813F0020F0CD0504A137843F00A0313706022474B1A704FF400424C4B4F
:401080001A6064E04B4A137843F0100313701022494B1A700422023B1A7058E0424B1B7813F0020F0CD0414A137843F09A0313706022384B1A704FF400423D4B1A6046E05F
:4010C0003C4A137843F01003137010223A4B1A700422023B1A70354A137843F09003137035E0364A1378DBB2354908682C490978C9B2C15413780133DBB213701278D2B297
:40110000304B1B78DBB29A4203D21022204B1A701DE0254B1B7813F0020F0CD0234A137843F00903137060221A4B1A704FF400421F4B1A600BE01F4A137843F01003137010
:401140000022134B1A7002E0002000F027F914F0200F1CD00F4B1B7813F0080F01D0012300E00223114A11780B431370114A137803F0EF0313701022064B1A7038BD054BDE
:401180001B7813F0100F02D11022024B1A7038BDD74900409481FF1F9B81FF1FA081FF1FD84900409881FF1F9981FF1F9A81FF1F80E100E0D6490040D94900409C81FF1F57
:4011C000A481FF1FA881FF1F1A4B1B78DBB2102B29D1194B1B7813F0080F26D14FF40042164B1A604000C0B229B140F001004922104B1A7002E045220E4B1A70104B187027
:40120000012201331A700F4B1B7813F0010FFAD00C4B1B7803F00A030A2B08D11022054B1A700320704702207047012070470020704700BF9481FF1FD949004080E100E008
:40124000D8490040D7490040164B1B7813F0040F23D04000C0B229B140F001004922124B1A7002E04522104B1A70104B1870122201331A700422023B1A700D4B1B7813F0C3
:40128000010FFAD00A4B1B7803F00A030A2B06D11022054B1A7003207047022070470020704700BFD94900409481FF1FD8490040D74900400A4B1B7813F0040F0ED01023A6
:4012C000074A13700421023A1170064A1370064B1B7813F0210FFAD00020704702207047D94900409481FF1FD7490040114B1B7813F0040F1BD0104B18700422013B1A7020
:4013000046220E4B1A700E4B1B7813F0010FFAD00B4B1B7813F0020F04D16022074B1A70002070476022054B1A70032070470220704700BFD9490040D84900409481FF1FCE
:40134000D7490040114B1B7813F0040F1BD0104B1B78DBB2492B05D100220E4B1A704A220B4B1A700B4B1B7813F0010FFAD00A4B1B78DBB218B11021064A117004E060219C
:40138000034A117000E0002318467047D94900409481FF1FD7490040D849004001BE704710B5044605E0084B186800F031FBA4F50044B4F5004FF6D8034B586800FB04F0F8
:4013C00000F026FB10BD00BFD480FF1F70B504460E46074B1D681F2802D90020FFF7DEFF04F01F04103455F8240045F8246070BD08ED00E038B504460D46072902D90020EB
:40140000FFF7CCFF1F2C02D90020FFF7C7FF04F01F0000F1604000F564406D01EDB2057038BD00BF08B50D490320FFF7CFFF07210320FFF7DFFF0023094A13707221094A7E
:4014400011702021A2F58172117006219F3211704721103211705232137008BD091500007F81FF1F8B65004010B500F0D9FA04460C4A137843F020031370A2F58172137822
:4014800043F0100313700822074B1A60074A137843F01003137000F083F8204600F0C4FA10BD00BF9B65004000E100E09A65004008B5054B5B7823B9FFF7B4FF0122024BA8
:4014C0005A70FFF7D1FF08BD7F81FF1F034B1B7813F0040FFAD1024B187070476A6500404965004038B5074B5B782BB938BDFFF7EDFF0134A4B201E005460024285D0028D9
:40150000F5D138BD7F81FF1F1D4B1B78DBB213F01E0F05D01B4803F01E0201780A43027003F0200303F0FF0233B3174B1978C9B2164B1B78DBB21648C154164B1B7813F04E
:40154000FF0F02D00121144B197010490B780133DBB20B700B78DBB20F2B02D900210B4B19700A4B1978C9B20C4B1B78DBB2994202D10121074B1970002AC5D1704700BF8B
:40158000696400407F81FF1F486400408281FF1FAC81FF1F8381FF1F8481FF1F8181FF1F054A137843F0020313701032137843F002031370704700BFA2430040024A1378B4
:4015C00043F080031370704772640040014B1870704700BF02640040014B1870704700BF42640040014B1870704700BF22640040014B1870704700BF32640040014B1870C1
:40160000704700BF82640040014B1878704700BF62640040014B1878704700BF5264004008B501E0FFF7F6FFFFF7EEFF10F0100FF8D108BD10B5134A137803F0C00343F0BF
:4016400009031370104C237843F001032370FF20FFF7BCFFFF20FFF7BFFF0020FFF7C2FF0020FFF7C5FF0020FFF7C8FF00F0D8F9237843F01003237000F0D6F9FFF7D0FF30
:4016800010BD00BF726400409264004008B5054B1B7823B9FFF7CEFF0122024B1A70FFF78DFF08BD8681FF1F014B1878704700BF22640040014B1878704700BF326400406D
:4016C000014B1B689864704708ED00E04001C0B2014B1870704700BF02E400E00422014B1A60704700E100E00422014B1A60704780E100E010B50446FFF7F6FF2046FFF732
:40170000DFFF0720FFF7E2FFFFF7E8FF10BD00BF014B1B681864704708ED00E04001C0B2014B1870704700BF00E400E00122014B1A60704700E100E00122014B1A607047CB
:4017400080E100E010B50446FFF7F6FF2046FFF7DFFF0720FFF7E2FFFFF7E8FF10BD00BF08B500F05DF9094A137843F020031370A2F58372137843F010031370083213782E
:4017800043F01003137000F04FF908BD99650040014B1878704700BF63640040014B1878704700BF6B640040034B1B7813F0020FFAD0024B18707047636400404364004032
:4017C000014B1870704700BF03640040014B1878704700BF53640040044B1B7813F0080F01D0012070470020704700BF6B64004008B500F015F9064B1A7842F003021A7006
:401800001A7802F0FC021A7000F00EF908BD00BF9364004008B501E00A4B1B780A4B1B7813F0080FF8D100F0FBF8084B1A7842F003021A701A7802F0FC021A7000F0F4F828
:4018400008BD00BF536400406B6400409364004008B50722064B1A70FFF7DCFFFFF798FFFFF79CFF0023034A13700832137008BD896500408364004008B5054B1B7823B9B1
:40188000FFF7E6FF0122024B1A70FFF769FF08BD8781FF1F044A137803F0DF03400100F0200018431070704710510040044A137803F0EF03000100F0100018431070704787
:4018C00010510040084A137843F0010313701032137843F00103137002F64D32137843F001031370704700BFA3430040084A137803F0FE031370A2F65D32137803F0FE03D7
:4019000013701032137803F0FE031370704700BF004F0040014B1870704700BF034F0040014B1880704700BF044F0040014B1880704700BF064F004008B5164A137803F088
:40194000010313700232137803F0FC031370124B1A7802F0CF021A701A7842F030021A701A7802F0F0021A701A7842F00F021A700A4A137843F00103137042F20F70FFF74F
:40198000CFFF42F20F70FFF7D1FF0020FFF7C2FF08BD00BF004F00400B4F0040014F004008B5054B1B7823B9FFF7C6FF0122024B1A70FFF787FF08BD8881FF1F014B1B6864
:4019C0005864704708ED00E04001C0B2014B1870704700BF01E400E00222014B1A60704700E100E00222014B1A60704780E100E010B50446FFF7F6FF2046FFF7DFFF07203E
:401A0000FFF7E2FFFFF7E8FF10BD00BF000000000230800803D000BF01380046FCD17047EFF3108072B6704780F31088704700BF80F0004002E000BF81F0004142001FBF22
:401A40005FEA410392EA030F7FEA226C7FEA236C6AD04FEA1262D2EB1363C1BFD218414048404140B8BF5B42192B88BF704710F0004F40F4000020F07F4018BF404211F04C
:401A8000004F41F4000121F07F4118BF494292EA030F3FD0A2F1010241FA03FC10EB0C00C3F1200301FA03F100F0004302D5494260EB4000B0F5000F13D3B0F1807F06D301
:401AC00040084FEA310102F10102FE2A51D2B1F1004F40EBC25008BF20F0010040EA03007047490040EB000010F4000FA2F10102EDD1B0FA80FCACF1080CB2EB0C0200FAB1
:401B00000CF0AABF00EBC25052421843BCBFD0401843704792F0000F81F4000106BF80F400000132013BB5E74FEA41037FEA226C18BF7FEA236C21D092EA030F04D092F054
:401B4000000F08BF0846704790EA010F1CBF0020704712F07F4F04D1400028BF40F00040704712F100723CBF00F50000704700F0004343F0FE4040F4000070477FEA2262C3
:401B800016BF08467FEA23630146420206BF5FEA412390EA010F40F4800070474FF0000304E000BF10F0004348BF40425FEA000C08BF704743F0964301464FF000001CE00F
:401BC00050EA010208BF70474FF000030AE000BF50EA010208BF704711F0004302D5404261EB41015FEA010C02BF84460146002043F0B64308BFA3F18053A3F50003BCFA66
:401C00008CF2083AA3EBC25310DB01FA02FC634400FA02FCC2F12002BCF1004F20FA02F243EB020008BF20F00100704702F1200201FA02FCC2F1200250EA4C0021FA02F2A8
:401C400043EB020008BF20EADC7070474FF0FF0C1CEAD0521EBF1CEAD15392EA0C0F93EA0C0F6FD01A4480EA010C400218BF5FEA41211ED04FF0006343EA501043EA511134
:401C8000A0FB01310CF00040B1F5000F3EBF490041EAD3715B0040EA010062F17F02FD2A1DD8B3F1004F40EBC25008BF20F00100704790F0000F0CF0004C08BF49024CEA5D
:401CC000502040EA51207F3AC2BFD2F1FF0340EAC250704740F400004FF00003013A5DDC12F1190FDCBF00F000407047C2F10002410021FA02F1C2F1200200FA02FC5FEA36
:401D0000310040F1000053EA4C0308BF20EADC70704792F0000F00F0004C02BF400010F4000F013AF9D040EA0C0093F0000F01F0004C02BF490011F4000F013BF9D041EAA9
:401D40000C018FE70CEAD15392EA0C0F18BF93EA0C0F0AD030F0004C18BF31F0004CD8D180EA010000F00040704790F0000F17BF90F0004F084691F0000F91F0004F14D075
:401D800092EA0C0F01D142020FD193EA0C0F03D14B0218BF084608D180EA010000F0004040F0FE4040F40000704740F0FE4040F4400070474FF0FF0C1CEAD0521EBF1CEAFD
:401DC000D15392EA0C0F93EA0C0F69D0A2EB030280EA010C49024FEA402037D04FF0805343EA111143EA10130CF000408B4238BF5B0042F17D024FF4000C8B4224BF5B1A31
:401E000040EA0C00B3EB510F24BFA3EB510340EA5C00B3EB910F24BFA3EB910340EA9C00B3EBD10F24BFA3EBD10340EADC001B0118BF5FEA1C1CE0D1FD2A3FF650AF8B4204
:401E400040EBC25008BF20F0010070470CF0004C4CEA50207F32C2BFD2F1FF0340EAC250704740F400004FF00003013A37E792F0000F00F0004C02BF400010F4000F013AD3
:401E8000F9D040EA0C0093F0000F01F0004C02BF490011F4000F013BF9D041EA0C0195E70CEAD15392EA0C0F08D142027FF47DAF93EA0C0F7FF470AF084676E793EA0C0FA3
:401EC00004D14B023FF44CAF08466EE730F0004C18BF31F0004CCAD130F000427FF45CAF31F000437FF43CAF5FE700BF4FF0FF3C06E000BF4FF0010C02E000BF4FF0010CA5
:401F00004DF804CD4FEA40024FEA41037FEA226C18BF7FEA236C11D001B052EA530C18BF90EA010F58BFB2EB030088BFC81738BF6FEAE17018BF40F0010070477FEA226C0B
:401F400002D15FEA402C05D17FEA236CE4D15FEA412CE1D05DF8040B704700BF844608466146FFE70FB5FFF7C9FF002848BF10F1000F0FBD4DF808EDFFF7F4FF0CBF0120D4
:401F800000205DF808FB00BF4DF808EDFFF7EAFF34BF012000205DF808FB00BF4DF808EDFFF7E0FF94BF012000205DF808FB00BF4DF808EDFFF7D2FF94BF012000205DF8E2
:401FC00008FB00BF4DF808EDFFF7C8FF34BF012000205DF808FB00BF4FEA4002B2F1FE4F0FD34FF09E03B3EB12620DD94FEA002343F0004310F0004F23FA02F018BF40422F
:4020000070474FF00000704712F1610F01D1420205D110F0004008BF6FF0004070474FF0000070470B460146184600F001B8000010B5054C13462CB10A4601460220AFF3FB
:40204000008010BD204610BD00000000014B1868704700BF4481FF1F0E4B70B51E460E4C0025E41AA410A54204D056F8253098470135F8E700F0E2F8084B094C1E46E41A82
:40208000A4100025A54204D056F8253098470135F8E770BD48220000482200004822000054220000024B0146186800F017B800BF4481FF1F10B5431E0A44914204D011F87B
:4020C000014B03F8014FF8E710BD03460244934202D003F8011BFAE77047000070B5CD1C25F0030508350C2D38BF0C25002D064601DBA94202D90C23336046E000F05CF8A8
:40210000234B1C681A462146A1B10B685B1B0ED40B2B03D90B60CC18CD501EE08C420BBF63684B681360636018BF0C4615E00C464968E9E7174C23681BB9304600F02CF8C4
:4021400020602946304600F027F8431C18D0C41C24F00304A0420DD12560304600F02DF804F10B00231D20F00700C31A0ED05A42E25070BD211A304600F00EF80130EBD138
:402180000C233360304600F018F8002070BD00BF9081FF1F8C81FF1F38B5064C0023054608462360FEF760FD431C02D1236803B12B6038BDBC81FF1F7047704700000000F7
:4021C0005361792048656C6C6F20546F206D79204C4974746C6520465249454E442100004D6F64746167657420636861722065723A2000000D0A0000C84900401900004F3A
:4022000000400C00305100404000F0510040100000000140001000140140000800400140000A004C01400002005001402000000060520040E407004806004300F8B500BF6D
:40224000F8BC08BC9E4670474D00000035030000E50C0000F8B500BFF8BC08BC9E4670472900000078220000C880FF1F800000007800000000000000000000000000000035
:40228000C081FF1F0000E02EC05D00001800000000366E0100000000000000000000000000000000000000000000000000000000000000003A22000000000000000000007B
:4022C00000000000000000000000000000000000000000000000000000000000000000000000000000000000000000000000000000000000E480FF1F00000000000000005C
:40230000000000000000000000000000000000000000000000000000000000000000000000000000000000000000000000000000000000000000000000000000000000009D
:40234000000000000000000000000000000000000000000000000000000000000000000000000000000000000000000000000000000000000000000000000000000000005D
:40238000000000000000000000000000000000000000000000000000000000000000000000000000000000000000000000000000000000000000000000000000000000001D
:4023C00000000000000000000000000000000000000000000000000000000000000000000000000000000000000000000000000000000000000000000000000000000000DD
:020000040003F7
:0200000480007A
:40000000024F0040045200400564004003650040570201403603014004040140150501400C0701405E0801404C0901404A0A0140410B0140030D01400615014004170140D4
:400040005F1801404E190140411A01404E1B0140044001400D4101400F4201400543014006450140084601400647014003480140104901400E4C01400F4D0140075001400C
:400080000251014001200A4B0010011008801108820F834789388A0F8B7889078A0F8B72060D11021201150816042202270C2A082F033008310832023302340435043601E9
:4000C00037013E104030410645D046204751483A49FF4AFF4BFF4DA04F04501852805407580459045A045B045C335D335F01604062C06440654066C068C06AC06CC06EC0AC
:40010000820383018604900494019E01B001B202B404B501BE11C002C103C220C401C5BCC6EDC7F0C82FC9FFCAFFCBFFCC22CEF0CF0CD08CD110D441D804D904DA24DB04E9
:40014000DC40DD08DF11E840E901EAC0EB01010A0504084009010A100C020F2016881A541D0C1E881F8020082440272A2C022E08370A3B02402A450848A04F21528253209A
:4001800054025608571059105A485C405E085F21631076807A088404860488408A048B108F01C02CC23DC450CA50CCC0CE01D04ED220D6FED802DE04E04239083F04590402
:4001C0005F0123108202850287109C4A9D0AA0A0A282A501A910AA10AB20AE08B240B380B420E001E608E801EAA8EC08810888408E809C4A9D08A020A280A901B080E2017F
:40020000E604EE0100030403051F0A081101120313061403150A1711180419141B091E0822042404251F2A042E0130013107320234083518360438803E15405341064204FA
:40024000440246C0470E481849FF4AFF4BFF4C624DA04EF04F41500C5608580459045A045B045C115D015F016640670269106A306B106D106E106F128002830188019102A3
:40028000B102B202B401B501BE14BF01C040C102C9FFCAFFCBFFCDA0CF04D018D418D604D804D904DA04DB04DC40DD19DF01E040E2C0E440E540E6C0E8C0EAC0ECC0EEC009
:4002C000010202080304060407600A080B040C0A0E010F041444154419141C041E61210122102480262127082F2033023508362138083A0A3E0840404110452A4E044F4032
:40030000560457105B015E646004628264206680670A82028301882089018D4090409120942897089A029B049C909D109E80A108A280A308A502A710AB40B108B201C07A41
:40034000C2F0C4F0CA40CCE1CE41D0E5D230D671D87DE040E280EC8009020A080D080E0E1201170C1B0326022A04300131043204330134023508360837023E10404041024D
:4003800045D146204705481B49FF4AFF4BFF4DAF4E0F4F04501852805407580459045A045B045C995D995F01604062C06440654066C068C06AC06CC06EC0840488048902B9
:4003C000920296029E01A004A401A808AB02AF01B002B101B204B401B502B608BE51BF10D420D804D904DB04DC01DF01006004280A400D020E010F201028148017241840EF
:4004000019081A081B801D481E801F2820102250234027482E802F043008322036C038103B403D2040404110481049014A205028511059015AA85F016410654066107240EC
:4004400083A187048B209A129B049D109F08A110A910AE02B510B704C063C2B8C476CA30CC06CE2CD005D68FD870E404EA4886108B08E6808C029C02E008E401E610EA0543
:400480009C02AC28E802EE0C000901710210030E0640070809710A400B060E200F0C12031410160C1810192C1B431C0C1E11241C2602281429802B13301F33303460350F43
:4004C00037C039883B203E103F044002450449FF4A074BFF4C404D204EF04F0550085608580459045A045B045C115D015F01604061A8624063208013826486408C038E14CA
:4005000098139A2CA44AA634AA35AE48B068B40FB610BA22BE40C023C105C5E0C6B0C7C0C82AC9FFCAFFCBFFCEF0CF44D00CD602D724D804DA04DB24DC01DD81DE08DF2140
:40054000E6C0EA40EB0200020104020104C2050807080A040E400F2A11A012201520170419801A041B111D201E401F0224022540262027142E2036203C023D803F2A4224F1
:400580004710480149034D044F08511052015301551056205D4061106402682A6B6079087A089080914994289608974099149B089CD49D0A9F61A208A308A40AA522A722DB
:4005C000AA10AD04AE14B105B340C0FDC2F2C467CA20CC20CEF0D026D208D610D814DE06EA08000102020A1E22212401260428012A082C102E01301F32203E015401580467
:400600005B045C085D105F21800481088280841885048808891C8B638C108D63917F943C9542964299739A049B0C9C3C9E41A067A10FA218A370A47FA521AA43AB73AD0C5F
:40064000B020B11CB21FB30FB480B658B760BA88BB28BE01D602D710D804D904DB04DC11DD10DF0100100340040206190C440D800E14102A110115101680170418101A80A1
:400680001D801E54250227252C412D182F0832043304360237283A803B403C403E1A59955E406C146D806F20761B79087C807D808110820283058401861089088A808B2031
:4006C0008C018D088E4090409109930294289608974099859B489CC49D089F01A02AA308A502A720AC12C0FAC2E0C47FCAF0CCE0CEF0D61FDE02E008E210E401E610EA0557
:40070000338836803704CCF00B080F086302641087088F049F04A680A788C2C0D640D880E64012803E105B0887089F04A680A780AF04B010B301C410CE20D640E210EC106F
:40074000830496109F04A780E28009100B800F105940C20ED4018301894093909D40AF10B510E001EE088B409392A301B301E004E8019610AB80EE201220164074087B0202
:40078000822086408C08A302AA10AB02C430DC80DE20E010E480EAA013281704630267027B107F409342A301AF10B340C40ED603DE03EE01104073408310874088408F0439
:4007C000934097809B04A710AB28C408DC01E201E608001B010108190C130D0110031C0300FF03C00280000043000000C0F0300030000000C30000C38000830000000000AF
:40080000F0FB0B00C000000070080800080000000000000000000000000000000000000000000000000000000000000000000000000000000000000000000000000000007A
:400840000000000000000000000000000000000000000000000000000000000000000000000000000000000000000000000000000000000000000000000000000000000078
:400880000000000000000000000000000000000000000000000000000000000000000000000000000000000000000000000000000000000000000000000000000000000038
:4008C00000000000000000000000000000000000000000000000000000000000000000000000000000000000000000000000000000000000000000000000000000000000F8
:4009000000000000000000000000000000000000000000000000000000000000000000000000000000000000000000000000000000000000000000000000000000000000B7
:0200000490006A
:0400000000004005B7
:0200000490105A
:04000000BC90ACAF55
:0200000490303A
:020000009D7EE3
:0200000490402A
:4000000000000000000000000000000000000000000000000000000000000000000000000000000000000000000000000000000000000000000000000000000000000000C0
:400040000000000000000000000000000000000000000000000000000000000000000000000000000000000000000000000000000000000000000000000000000000000080
:400080000000000000000000000000000000000000000000000000000000000000000000000000000000000000000000000000000000000000000000000000000000000040
:4000C0000000000000000000000000000000000000000000000000000000000000000000000000000000000000000000000000000000000000000000000000000000000000
:0200000490501A
:0C00000000012E16106900012E25ADE74E
:00000001FF