:400000000080002011000000C90E0000C90E000008B5044B1A6803F53F5302331A6000F073FF00BFFA46004010B5054C237833B9044B13B10448AFF300800123237010BD57
:400040004881FF1F00000000E42F0000084B10B51BB108490848AFF300800848036803B910BD074B002BFBD0BDE81040184700BF000000004C81FF1FE42F0000C880FF1FDC
:400080000000000010B5044C207801F055FB00232360636010BD00BF6481FF1F08B55021014800F003FC08BD6C81FF1F08B54621014800F0FBFB08BD6C81FF1F38B51B4CAD
:4000C000204600F015FB0546204600F003FB85422BD1204600F0FEFAA0F10A01204600F0FBFA204600F006FB204600F0F3FA002812DD204600F0EEFA00F17D0189002046B6
:4001000000F0FCFA204600F0E5FA00F17D018900204600F0FFFA38BD044C0021204600F0EDFA0021204600F0F5FA38BD7081FF1FF8B501F009FC03280ED91A4A1368013388
:400140001360032C0AD801F0CBFB0146164800F019FD0134E4B2F4E7002300E0012303B3104C04F12405284600F006FD02F076F804F160060146304600F03AFA284600F041
:40018000FBFC02F06BF80746284600F0F3FC02F065F802463946304600F032FA636801336360F8BD6481FF1F8881FF1F012830D14FF6FF7399422CD170B582B0154C04F1AA
:4001C000240000F0CDFC04F10806304600F056FB114D2A461149304602F084FA04F10C06304600F067FA2A460D49304602F07AFA603401960B4B00930B4B0C4A0C4920466F
:4002000000F0DEF92A460B49204602F06BFA02B070BD70476481FF1FCC80FF1F85080000D10600000000FA43FBCB6EBEAAF152C0AAF1DA40B105000010B58AB062B600F0C1
:400240007FFF01F0C3FD724801F0E8FD714801F0FBFC714801F020FD704801F09BFE01F05DFA6F4801F074FA6E4801F023FF05A800F0F2FB6C4A05A901A800F0E3F86846DE
:4002800000F028FB694B93F89C302BB97021684800F0FAFA044600E0002424B10122634B83F89C200FE0614B93F89C30022B05D170215F4800F0E8FA00B901241CB1002220
:4002C0005A4B83F89C20594B93F89C30022B06D101A800F02BF96F2803D1012402E0002400E0002434B10322504B83F89C2001F029FE11E04D4B93F89C30032B05D101A84B
:4003000000F014F9632800D101242CB10222474B83F89C2001F0BCFD444B93F89C30022B05D16621424800F0AFFA044600E0002434B104223D4B83F89C2001F089FB11E0BA
:400340003A4B93F89C30042B05D16621384800F09BFA00B901242CB10222344B83F89C2001F080FA314B93F89C30052B8AD8DFE803F003121F2C35436721684600F0CAFA2F
:400380007221684600F0C6FA284B93F89C1001A800F064F876E77221684600F0CDFA4FF47A7001F035F90222204B83F89C2069E77221684600F0AEFA6721684600F090FA6D
:4003C0000021194800F0B8F95CE77221684600F0A1FA6721684600F0AFFA53E77221684600F098FA6721684600F0A6FA01A800F09DF801F037FE45E76721684600F08AFA0F
:400400007221684600F098FA01A800F08FF839E7310100009D000000AD000000BD000000E82F0000850000007081FF1F6481FF1F6C81FF1F08B54FF6FF710120FFF7B6FE8A
:4004400008BD00BF10B504460020207020736260A16001F05FFC204610BD00BF10B50C4601F070FC204601F049FC10BD08B5A1F16203102B45D8DFE803F0153D44440944DB
:40048000444444442144443944442D000378012B39D1254B1B78032B37D1406800F0B0F9002008BD0378012B31D11F4B1B78032B2FD1406800F0A4F9002008BD0378012BF0
:4004C00029D1194B1B78032B27D1406800F098F9002008BD0378012B21D1134B1B78032B1FD1406800F08CF9002008BD012303706F2008BD00210170406800F01DF963207F
:4005000008BD002008BD002008BD002008BD002008BD002008BD002008BD002008BD002008BD002008BD00BF0082FF1F38B5044601F0FCFB0346002833D001F0F1FB0546CF
:40054000A06800F0FFFA01280BD1174B1B78052B01D0164A13700521134B19702046FFF77DFFA06800F0EEFA28B90F4B1B78052B03D0002302E0002300E001233BB10B4BA8
:400580001978094B19702046FFF768FF04E0064B19782046FFF762FF29462046FFF766FF0346184638BD00BF0082FF1F0182FF1F10B5044600F08CF8204610BD41627047AB
:4005C000F8B504460F4616461D4600F073F800236362A362E36223636363079BA363A761E661256206992046FFF7E8FF2046F8BD10B50446406A01F07FFDA06210BD00BFE8
:4006000070B50446416B006A01F080FE0546A16AA06901F07BFE0146284601F06FFD0546E16AE06901F072FE0146284601F066FD20631C4901F01EFF054620631A4902F089
:4006400021F810B1184B236306E01849284601F0FBFF08B1154B2363154B1B78042B18D1256B0021284602F003F840B1A66B284602F012F80146304600F078F80DE0A66BDA
:4006800005F1004002F008F80146304600F054F803E00021A06B00F04FF8A36AE362236B636370BD0000C0400000C8420000C8C20082FF1F10B50446002303604360012271
:4006C0000272C360036100F0E7FC204610BD00BF704700BFC0687047642902DD6423C3607047002902DC0023C3607047C160704700697047C3680361704700BF08B50160F9
:40070000037A1BB188B200F06DFC08BD88B200F069FC08BD08B5416088B200F069FC08BD10B50C460172084601F086FB84F0010001F08EFB10BD00BF38B5054631B9FFF735
:40074000DDFF00212846FFF7E5FF09E00C467D34A4002146FFF7D2FF21462846FFF7DAFF01212846FFF7DCFF38BD00BF38B5054631B9FFF7C3FF00212846FFF7CBFF09E0AB
:400780000C467D34A4002146FFF7B8FF21462846FFF7C0FF00212846FFF7C2FF38BD00BF38B505467D318C002146FFF7A7FFA4F5967421462846FFF7ADFF002C03DA002141
:4007C0002846FFF7A7FF01212846FFF7A9FF38BD38B505467D318C002146FFF79BFFA4F5967421462846FFF789FF002C03DA00212846FFF783FF01212846FFF791FF38BD52
:4008000038B504460D46C368182B03DC1921FFF763FF06E0FFF75EFF00F10A012046FFF75BFF237D662B01D1622D03D0622B05D1662D03D119212046FFF74EFF2046FFF7F6
:4008400059FF662D04D1E1682046FFF775FF13E0622D04D1E1682046FFF788FF0CE0722D04D1E1682046FFF79BFF05E06C2D03D1E1682046FFF7ACFF257538BD00220270B8
:4008800042707047704700BF502901D0702901D1037808E0462901D0662903D1037813B1437800E000231846704700BF502907D1037813B1002303707047012303707047A2
:4008C000462906D1437813B100234370704701234370704710B5044601F082F9204610BD08B5672901D0472907D101F08DF9FF280ED0FF2001F026F908BD722901D05229AD
:4009000006D101F07BF9FF2802D0FF2001F014F908BD00BF08B5672901D0472903D1002001F010F908BD722901D0522902D1002001F002F908BD00BF08B5672901D04729C8
:4009400003D17A2001F0FEF808BD722901D0522902D17A2001F0F0F808BD00BF10B401604260836010BC7047F8B5084614461F46069D002100F060FD204600F0EFFD002250
:40098000531CDCB2BA4206D26E1C287800F0E6FD22463546F4E700F0C5FDF8BD10B584B004AC04F8013D00940123FFF7DDFF04B010BD00BFF8B50C4616461F46069D002113
:4009C000204600F039FD304600F0C8FD0121204600F072FD0022531CDCB27B1E9A4207DA6E1C012000F0E6FD287022463546F2E7002000F0DFFD287000F094FDF8BD00BF99
:400A000008B501F0AFFE08BD10B5044600236B2268210068FFF7C2FF6D23192268212068FFF7BCFF18231B2268212068FFF7B6FF20236A2268212068FFF7B0FF37231A462F
:400A400068212068FFF7AAFF06231A2268212068FFF7A4FF10BD00BF70B504460026466000258560C56005610120FFF7C9FF20601420FFF7C5FF0580458085808660C660B3
:400A80000661A0601420FFF7BBFF0580458085808660C6600661E0600C20FFF7B1FF0546231DA268E168FFF759FF2561E3682B602046FFF7A9FF204670BD00BF30B585B01F
:400AC000044602AB009306233B2268210068FFF771FFA2689DF808109DF8093043EA01231380A2689DF80A109DF80B3043EA01235380A2689DF80C109DF80D3043EA01239B
:400B00009380A568B5F9000001F0ACFB4FF0645101F0FCFBA860A568B5F9020001F0A2FB4FF0645101F0F2FBE860A568B5F9040001F098FB4FF0645101F0E8FB2861A0686A
:400B400005B030BD10B50446FFF7B8FFA3680021186901F079FD08B1012010BD002010BD002280F838207047418070478180704701807047408870470088704780F83810E0
:400B8000704700BF30B58FB0044619B90121FFF7F5FF34E00D4690F83830022B12D0032B1FD0012B2BD1FFF7DFFF02212046FFF7E5FF2A46134901A801F0AAFE01A800F0EA
:400BC000C7FD1CE0FFF7D2FF03212046FFF7D6FF2A460D4901A801F09BFE01A800F0B8FD0DE0FFF7C5FF00212046FFF7C7FF2A46064901A801F08CFE01A800F0A9FD0FB007
:400C000030BD00BFF02F00000830000020300000FEE700BFF0B40022174611E050F82760F3B226F0FF0608E001EB420511F812406D78A5550132013BDBB2002BF4D10137A1
:400C4000212FEBD9F0BC7047064B1B78DBB203F00701054A11701B09013213704422034B1A707047CF0100496E5800407658004008B50A46002101F088FD08BD38B501224C
:400C8000334B1A801C2202331A700B2202331A801823304A137019250232158002321370EF21023211800232137045F6BF522A490A8002310B7002310A80284A13704FF6B3
:400CC000FF7102321180023213700222244B1A7008224FF040231A70032103F500731970204B1B78DBB220490B70204B1A8041F25122023B1A8000240CE01D4B1B7803F08E
:400D0000010343EA440404F003044FF4F07001F0DFF9013D0DB1032CEFD115B90320FFF777FF144B4FF480721A8007221A70002211490A704820023108701A700222033BB5
:400D40001A700E4A137843F07F03137038BD00BF804000408640004090400040964000400043004008010049A146004022420040254200400440004006400040A243004078
:400D800008B501F0F7FC08BD38B572B6394A137843F00403137000240CE0374D630019194A0011462A44084691882858FFF760FF0134E4B2082CF0D900240BE02E49A30088
:400DC0001819420088180622C16B806BFFF7D8FF0134E4B2002CF1D028494FF09040FFF719FF274A274B1A60274A137843F0020313701032137843F002031370234C2378E8
:400E000043F040032370A2F58632513A137843F01003137008221E491E48FFF7B1FF0A221D491E48FFF7ACFF08221D491D48FFF7A7FF08221C491D48FFF7A2FF08221C499A
:400E40001C48FFF79DFF1C4A137843F0080313701A4D61232B70FFF711FF81232B700122174B1A70FFF7F0FE0E2221461548FFF787FF38BDE8460040383000008800004801
:400E8000040404645814014003500140A0430040B00A004802510040B80A0048C0510040C40A004812510040CC0A004822510040D40A0048325100402243004000480040CE
:400EC00004000840B043004008B501F01FFC03680C2B00D1FEE7FEE708B5094B1A681044084BC31A802B02DC054B186005E001F00DFC0C2303604FF0FF32104608BD00BF4A
:400F0000D080FF1F6082FF1F08B5104E104D16E029686B68AC68002204E051F8040B43F8040B0432A242F8D1E868002203E0002143F8041B04328242F9D11035013E002E8C
:400F4000E6D101F0E9FBFFF777F9FEE701000000D830000008B5104A104B1A60104A136843F40073136000230AE0032B03D80D4A52F8231000E00C490C4A42F8231001339D
:400F80002F2BF2D90A4B1A780A4B1A70074A0A4B1A60FFF7F9FE08BD0004FA050CED00E014ED00E000000000C90E00000080FF1FBC760040C080FF1F08ED00E0024A1378C6
:400FC00043F080031370704775650040014B1880704700BF086A0040014B1880704700BF886A0040014B1880704700BF486A0040014B1880704700BF686A0040014B1870C3
:40100000704700BF85650040014B1878704700BF65650040014B188880B27047A86A004008B501E0FFF7F6FFFFF7EEFF10F0100FF8D108BD10B5164A137803F0C00343F0DB
:40104000090313701F32137843F001031370114C237843F0010323704FF46170FFF7B6FF4FF46170FFF7B8FF0020FFF7BBFF0020FFF7BEFF0020FFF7C1FF01F031F82378DB
:4010800043F01003237001F02FF8FFF7C9FF10BD756500409565004008B5054B1B7823B9FFF7C8FF0122024B1A70FFF787FF08BD0282FF1F38B50222114B1A7081220E3B67
:4010C0001A70082202331A700F2511331D70002401331C704FF400420A4B1A600721284600F0C0FA0849284600F0A8FA1022074B1A70074B1C70074B1C70074B1C7038BD12
:40110000D649004080E100E0691100001882FF1F1E82FF1F2082FF1F1C82FF1F08B500F0DFFF064A137843F0040313701032137843F00403137000F0D7FF08BDA543004043
:4011400008B5074B1B7823B9FFF7B4FF0122044B1A70FFF7E3FF4FF40042024B1A6008BD0382FF1F00E100E038B5A54B1C78A54B1B7813F0400F00F03A81E4B214F0010F64
:4011800000F01D819F4B1B78453B052B00F21481DFE813F006008200120112010600DF0004F0DF0504F00A04082C42D1954B1B78DBB2452B35D1944B1B7813F0FF0F10D096
:4011C000924B1B681B78DBB2914A137004228C4B1A7001228F4B1A7046228A4B1A702C46EDE08D4B1B7813F0020F0DD08B4A137843F00A0313706022824B1A704FF4004220
:40120000874B1A602C46DAE0864A137843F0100313701022844B1A700422023B1A702C46CDE00022764B1A704A22764B1A702C46C5E00A2C2BD1794A137843F0A003137067
:40124000754B1B7813F0020F14D06E4B1B7813F0080F01D0092300E00A23704A11780B4313706022674B1A704FF400426C4B1A602C46A4E06B4A137843F0100313701022FA
:40128000694B1A700422023B1A702C4697E0002000F0BCF92C4692E014F0020F36D15D4B1A78D2B2584B1B78DBB29A4210D2594A1378DBB255490968CB5CDBB254490B7080
:4012C00004214F4B197013780133DBB2137076E0514B1B7813F0020F0CD0504A137843F00A0313706022474B1A704FF400424C4B1A6064E04B4A137843F0100313701022E7
:40130000494B1A700422023B1A7058E0424B1B7813F0020F0CD0414A137843F09A0313706022384B1A704FF400423D4B1A6046E03C4A137843F01003137010223A4B1A709A
:401340000422023B1A70354A137843F09003137035E0364A1378DBB2354908682C490978C9B2C15413780133DBB213701278D2B2304B1B78DBB29A4203D21022204B1A70BC
:401380001DE0254B1B7813F0020F0CD0234A137843F00903137060221A4B1A704FF400421F4B1A600BE01F4A137843F0100313700022134B1A7002E0002000F027F914F0E1
:4013C000200F1CD00F4B1B7813F0080F01D0012300E00223114A11780B431370114A137803F0EF0313701022064B1A7038BD054B1B7813F0100F02D11022024B1A7038BDF6
:40140000D74900401882FF1F1F82FF1F2482FF1FD84900401C82FF1F1D82FF1F1E82FF1F80E100E0D6490040D94900402082FF1F2882FF1F2C82FF1F1A4B1B78DBB2102B63
:4014400029D1194B1B7813F0080F26D14FF40042164B1A604000C0B229B140F001004922104B1A7002E045220E4B1A70104B1870012201331A700F4B1B7813F0010FFAD043
:401480000C4B1B7803F00A030A2B08D11022054B1A700320704702207047012070470020704700BF1882FF1FD949004080E100E0D8490040D7490040164B1B7813F0040FE1
:4014C00023D04000C0B229B140F001004922124B1A7002E04522104B1A70104B1870122201331A700422023B1A700D4B1B7813F0010FFAD00A4B1B7803F00A030A2B06D13E
:401500001022054B1A7003207047022070470020704700BFD94900401882FF1FD8490040D74900400A4B1B7813F0040F0ED01023074A13700421023A1170064A1370064B92
:401540001B7813F0210FFAD00020704702207047D94900401882FF1FD7490040114B1B7813F0040F1BD0104B18700422013B1A7046220E4B1A700E4B1B7813F0010FFAD0DE
:401580000B4B1B7813F0020F04D16022074B1A70002070476022054B1A70032070470220704700BFD9490040D84900401882FF1FD7490040114B1B7813F0040F1BD0104B30
:4015C0001B78DBB2492B05D100220E4B1A704A220B4B1A700B4B1B7813F0010FFAD00A4B1B78DBB218B11021064A117004E06021034A117000E0002318467047D94900407D
:401600001882FF1FD7490040D849004001BE704710B5044605E0084B186800F059FDA4F50044B4F5004FF6D8034B586800FB04F000F04EFD10BD00BFD480FF1F70B5044666
:401640000E46074B1D681F2802D90020FFF7DEFF04F01F04103455F8240045F8246070BD08ED00E038B504460D46072902D90020FFF7CCFF1F2C02D90020FFF7C7FF04F02F
:401680001F0000F1604000F564406D01EDB2057038BD00BF08B50D490520FFF7CFFF07210520FFF7DFFF0023094A13707221094A11702021013211700621613A117047218E
:4016C0001032117002F5A772137008BD751700000482FF1F8864004010B500F001FD04460B4A137843F0200313700132137843F0100313702022074B1A60074A137843F019
:401700001003137000F082F8204600F0EDFC10BD9864004000E100E09665004008B5054B5B7823B9FFF7B6FF0122024B5A70FFF7D3FF08BD0482FF1F034B1B7813F0040F9C
:40174000FAD1024B18707047666500404765004038B5074B5B782BB938BDFFF7EDFF0134A4B201E005460024285D0028F5D138BD0482FF1F1D4B1B78DBB213F01E0F05D0DA
:401780001B4803F01E0201780A43027003F0200303F0FF0233B3174B1978C9B2164B1B78DBB21648C154164B1B7813F0FF0F02D00121144B197010490B780133DBB20B7030
:4017C0000B78DBB20F2B02D900210B4B19700A4B1978C9B20C4B1B78DBB2994202D10121074B1970002AC5D1704700BF696400400482FF1F496500400782FF1F3082FF1FF5
:401800000882FF1F0982FF1F0682FF1F054A137843F0040313701032137843F004031370704700BFA243004008B500F059FC0B4A137843F020031370A2F20112137843F0D5
:401840001003137002F20512137843F01003137000F04AFC1022024B1A6008BD9465004000E100E008B500F03BFC084A137803F0EF03137002F20512137803F0EF0313705E
:4018800000F032FC1022024B1A6008BD9364004080E100E01022014B1A60704700E100E01022014B1A60704780E100E0014B1878704700BF6364004010B5FFF7F1FF064B1F
:4018C0001C78064A137803F061031C4300231370FFF7E0FF204610BD686500404282FF1F10B5FFF7DDFF144B1A78D2B2134B1B78DBB29A4214D0124B1B7813F0FF0F0CD1FE
:401900000D4A13780133DBB213701378DBB2072B06D90022084B1A7002E00022084B1A70054B1B78DBB2074A32F81340A4B2FFF7B1FF204610BD00BF5482FF1F4082FF1F78
:401940004382FF1F4482FF1F10B5FFF7A9FF124B1A78D2B2114B1B78DBB29A4216D00E4B1A78D2B20D4B1B78DBB29A4206D20B4B1B78094A14781C1BE4B208E0074B1B788F
:40198000054A14781C1B0834E4B200E00024FFF781FF204610BD00BF5482FF1F4082FF1F08B501E00E4B1B880E4B1B7813F0080FF8D100F095FB0C4B1A7842F003021A7070
:4019C0001A7802F0FC021A7001331A7842F003021A701A7802F0FC021A7000F085FB08BD5A650040686500409A65004010B50F22104B1A701022104B1A6010490420FFF773
:401A00001DFE07210420FFF72DFEFFF7C9FF00240B4B1C700B4B1C700B4B1C70FFF746FFFFF74AFF094B1C70082203F205131A7010BD00BF8465004080E100E06D1A0000FE
:401A40004382FF1F5482FF1F4082FF1F8364004008B5054B1B7823B9FFF7C8FF0122024B1A70FFF7E1FE08BD0B82FF1F214B1978214A137803F061030B43137033E01F4B78
:401A80001A8892B21E490B780133DBB20B700B78DBB2072B02D90021194B1970184B1978C9B2184B1B78DBB299420ED115490B780133DBB20B700B78DBB2072B02D90021E8
:401AC000104B19700121104B19700D4B1B78DBB20E4921F81320074B1978074A137803F061030B431370044B1B7813F0080FC6D1704700BF686500404282FF1F5A65004003
:401B00004082FF1F5482FF1F4382FF1F4482FF1F024A137843F080031370704772640040014B1870704700BF02640040014B1870704700BF42640040014B1870704700BFC3
:401B400022640040014B1870704700BF32640040014B1870704700BF82640040014B1878704700BF62640040014B1878704700BF5264004008B501E0FFF7F6FFFFF7EEFF03
:401B800010F0100FF8D108BD10B5134A137803F0C00343F009031370104C237843F001032370FF20FFF7BCFFFF20FFF7BFFF0020FFF7C2FF0020FFF7C5FF0020FFF7C8FF61
:401BC00000F08EFA237843F01003237000F08CFAFFF7D0FF10BD00BF726400409264004008B5054B1B7823B9FFF7CEFF0122024B1A70FFF78DFF08BD0C82FF1F014B1878DE
:401C0000704700BF22640040014B1878704700BF32640040014B1B689864704708ED00E04001C0B2014B1870704700BF02E400E00422014B1A60704700E100E00422014B50
:401C40001A60704780E100E010B50446FFF7F6FF2046FFF7DFFF0720FFF7E2FFFFF7E8FF10BD00BF014B1B681864704708ED00E04001C0B2014B1870704700BF00E400E0BF
:401C80000122014B1A60704700E100E00122014B1A60704780E100E010B50446FFF7F6FF2046FFF7DFFF0720FFF7E2FFFFF7E8FF10BD00BF08B500F013FA094A137843F07C
:401CC000200313700132137843F010031370FF3A137843F01003137000F006FA08BD00BF99650040014B1878704700BF6A650040014B1878704700BF6B640040034B1B78D5
:401D000013F0020FFAD0024B187070476A6500404A640040014B1870704700BF0A640040014B1878704700BF5A640040044B1B7813F0080F01D0012070470020704700BFB9
:401D40006B64004008B500F0CBF9064B1A7842F003021A701A7802F0FC021A7000F0C4F908BD00BF9A64004008B501E00A4B1B780A4B1B7813F0080FF8D100F0B1F9084B86
:401D80001A7842F003021A701A7802F0FC021A7000F0AAF908BD00BF5A6400406B6400409A64004008B50722064B1A70FFF7DCFFFFF798FFFFF79CFF0023034A1370FF3A86
:401DC000137008BD896500408A65004008B5054B1B7823B9FFF7E6FF0122024B1A70FFF769FF08BD0D82FF1F014B1B689865704708ED00E04001C0B2014B1870704700BFC8
:401E000006E400E04022014B1A60704700E100E04022014B1A60704780E100E010B50446FFF7F6FF2046FFF7DFFF0720FFF7E2FFFFF7E8FF10BD00BF044A137803F0FB03B3
:401E4000800000F0040018431070704730510040044A137803F0F703C00000F0080018431070704730510040084A137843F0010313701032137843F00103137002F64D3235
:401E8000137843F001031370704700BFA3430040084A137803F0FE031370A2F65D32137803F0FE0313701032137803F0FE031370704700BF004F0040014B1870704700BF31
:401EC000034F0040014B1880704700BF044F0040014B1880704700BF064F004008B5164A137803F0010313700232137803F0FC031370124B1A7802F0CF021A701A7842F01E
:401F000030021A701A7802F0F0021A701A7842F00F021A700A4A137843F00103137042F20F70FFF7CFFF42F20F70FFF7D1FF0020FFF7C2FF08BD00BF004F00400B4F004079
:401F4000014F004008B5054B1B7823B9FFF7C6FF0122024B1A70FFF787FF08BD0E82FF1F014B1B685864704708ED00E04001C0B2014B1870704700BF01E400E00222014B68
:401F80001A60704700E100E00222014B1A60704780E100E010B50446FFF7F6FF2046FFF7DFFF0720FFF7E2FFFFF7E8FF10BD00BF084A137843F0020313701032137843F01A
:401FC0000203137002F65932137843F001031370704700BFA3430040014B1870704700BF0F4F0040014B1880704700BF104F0040014B1880704700BF124F004008B5164AFC
:40200000137803F0010313700232137803F0FC031370124B1A7802F0CF021A701A7842F030021A701A7802F0F0021A701A7842F00F021A700A4A137843F00103137042F27F
:402040000F70FFF7CFFF42F20F70FFF7D1FF0020FFF7C2FF08BD00BF0C4F0040174F00400D4F004008B5054B1B7823B9FFF7C6FF0122024B1A70FFF79BFF08BD0F82FF1F37
:40208000014B1B68D864704708ED00E04001C0B2014B1870704700BF03E400E00822014B1A60704700E100E00822014B1A60704780E100E010B50446FFF7F6FF2046FFF71F
:4020C000DFFF0720FFF7E2FFFFF7E8FF10BD00BF0230800803D000BF01380046FCD17047EFF3108072B6704780F31088704700BF80F0004002E000BF81F0004142001FBF57
:402100005FEA410392EA030F7FEA226C7FEA236C6AD04FEA1262D2EB1363C1BFD218414048404140B8BF5B42192B88BF704710F0004F40F4000020F07F4018BF404211F085
:40214000004F41F4000121F07F4118BF494292EA030F3FD0A2F1010241FA03FC10EB0C00C3F1200301FA03F100F0004302D5494260EB4000B0F5000F13D3B0F1807F06D33A
:4021800040084FEA310102F10102FE2A51D2B1F1004F40EBC25008BF20F0010040EA03007047490040EB000010F4000FA2F10102EDD1B0FA80FCACF1080CB2EB0C0200FAEA
:4021C0000CF0AABF00EBC25052421843BCBFD0401843704792F0000F81F4000106BF80F400000132013BB5E74FEA41037FEA226C18BF7FEA236C21D092EA030F04D092F08E
:40220000000F08BF0846704790EA010F1CBF0020704712F07F4F04D1400028BF40F00040704712F100723CBF00F50000704700F0004343F0FE4040F4000070477FEA2262FC
:4022400016BF08467FEA23630146420206BF5FEA412390EA010F40F4800070474FF0000304E000BF10F0004348BF40425FEA000C08BF704743F0964301464FF000001CE048
:4022800050EA010208BF70474FF000030AE000BF50EA010208BF704711F0004302D5404261EB41015FEA010C02BF84460146002043F0B64308BFA3F18053A3F50003BCFA9F
:4022C0008CF2083AA3EBC25310DB01FA02FC634400FA02FCC2F12002BCF1004F20FA02F243EB020008BF20F00100704702F1200201FA02FCC2F1200250EA4C0021FA02F2E2
:4023000043EB020008BF20EADC7070474FF0FF0C1CEAD0521EBF1CEAD15392EA0C0F93EA0C0F6FD01A4480EA010C400218BF5FEA41211ED04FF0006343EA501043EA51116D
:40234000A0FB01310CF00040B1F5000F3EBF490041EAD3715B0040EA010062F17F02FD2A1DD8B3F1004F40EBC25008BF20F00100704790F0000F0CF0004C08BF49024CEA96
:40238000502040EA51207F3AC2BFD2F1FF0340EAC250704740F400004FF00003013A5DDC12F1190FDCBF00F000407047C2F10002410021FA02F1C2F1200200FA02FC5FEA6F
:4023C000310040F1000053EA4C0308BF20EADC70704792F0000F00F0004C02BF400010F4000F013AF9D040EA0C0093F0000F01F0004C02BF490011F4000F013BF9D041EAE3
:402400000C018FE70CEAD15392EA0C0F18BF93EA0C0F0AD030F0004C18BF31F0004CD8D180EA010000F00040704790F0000F17BF90F0004F084691F0000F91F0004F14D0AE
:4024400092EA0C0F01D142020FD193EA0C0F03D14B0218BF084608D180EA010000F0004040F0FE4040F40000704740F0FE4040F4400070474FF0FF0C1CEAD0521EBF1CEA36
:40248000D15392EA0C0F93EA0C0F69D0A2EB030280EA010C49024FEA402037D04FF0805343EA111143EA10130CF000408B4238BF5B0042F17D024FF4000C8B4224BF5B1A6A
:4024C00040EA0C00B3EB510F24BFA3EB510340EA5C00B3EB910F24BFA3EB910340EA9C00B3EBD10F24BFA3EBD10340EADC001B0118BF5FEA1C1CE0D1FD2A3FF650AF8B423E
:4025000040EBC25008BF20F0010070470CF0004C4CEA50207F32C2BFD2F1FF0340EAC250704740F400004FF00003013A37E792F0000F00F0004C02BF400010F4000F013A0C
:40254000F9D040EA0C0093F0000F01F0004C02BF490011F4000F013BF9D041EA0C0195E70CEAD15392EA0C0F08D142027FF47DAF93EA0C0F7FF470AF084676E793EA0C0FDC
:4025800004D14B023FF44CAF08466EE730F0004C18BF31F0004CCAD130F000427FF45CAF31F000437FF43CAF5FE700BF4FF0FF3C06E000BF4FF0010C02E000BF4FF0010CDE
:4025C0004DF804CD4FEA40024FEA41037FEA226C18BF7FEA236C11D001B052EA530C18BF90EA010F58BFB2EB030088BFC81738BF6FEAE17018BF40F0010070477FEA226C45
:4026000002D15FEA402C05D17FEA236CE4D15FEA412CE1D05DF8040B704700BF844608466146FFE70FB5FFF7C9FF002848BF10F1000F0FBD4DF808EDFFF7F4FF0CBF01200D
:4026400000205DF808FB00BF4DF808EDFFF7EAFF34BF012000205DF808FB00BF4DF808EDFFF7E0FF94BF012000205DF808FB00BF4DF808EDFFF7D2FF94BF012000205DF81B
:4026800008FB00BF4DF808EDFFF7C8FF34BF012000205DF808FB00BF4FEA4002B2F1FE4F0FD34FF09E03B3EB12620DD94FEA002343F0004310F0004F23FA02F018BF404268
:4026C00070474FF00000704712F1610F01D1420205D110F0004008BF6FF0004070474FF0000070470B460146184600F001B8000010B5054C13462CB10A4601460220AFF335
:40270000008010BD204610BD00000000014B1868704700BF4481FF1F0E4B70B51E460E4C0025E41AA410A54204D056F8253098470135F8E700F0BCFC084B094C1E46E41ADD
:40274000A4100025A54204D056F8253098470135F8E770BDBC300000BC300000BC300000C8300000024B0146186800F063B800BF4481FF1F10B5431E0A44914204D011F860
:40278000014B03F8014FF8E710BD03460244934202D003F8011BFAE77047000038B50546002944D051F8043C0C1F002BB8BFE41800F0D2F81E4A1368114613B96360146033
:4027C00030E0A3420DD92268A018834201BF18685B681218226063600C6023E0A24203D813465A68002AF9D118681918A1420BD12168014458188242196013D11068526847
:40280000014419605A600DE002D90C232B6009E021686018824201BF106852680918216062605C602846BDE8384000F096B838BD1482FF1F70B5CD1C25F0030508350C2DCB
:4028400038BF0C25002D064601DBA94202D90C23336046E000F080F8234B1C681A462146A1B10B685B1B0ED40B2B03D90B60CC18CD501EE08C420BBF63684B681360636027
:4028800018BF0C4615E00C464968E9E7174C23681BB9304600F02CF820602946304600F027F8431C18D0C41C24F00304A0420DD12560304600F051F804F10B00231D20F0E1
:4028C0000700C31A0ED05A42E25070BD211A304600F00EF80130EBD10C233360304600F03CF8002070BD00BF1482FF1F1082FF1F38B5064C0023054608462360FEF7ECFA62
:40290000431C02D1236803B12B6038BD5882FF1F0EB400B54FF402719CB0ADF814106FF00041049107914FF6FF711DAB02900690084853F8042BADF81610006802A90193BE
:4029400000F066F8029B00221A701CB05DF804EB03B070474481FF1F704770472DE9F0478E6882469E420C46914698463ED88A8912F4906F3AD02568096902236F1A656950
:4029800005EB450595FBF3F57B1C43449D4238BF1D4653050FD52946FFF74CFF064698B13A462169FFF7E6FEA38923F4906343F08003A38113E02A4600F0E3FA064670B9F4
:4029C00021695046FFF7EAFE0C23CAF80030A3894FF0FF3043F04003A381BDE8F08726613E44266046466561ED1BA560464528BF464649463246206800F0A8FAA368002030
:402A00009B1BA36023681E442660BDE8F08700002DE9F04F9DB003938B8980461C060D4616460DD50B695BB94021FFF703FF2860286118B90C23C8F80030CDE040236B61CB
:402A40000023099320238DF82930DFF89CB130238DF82A3037463C4614F8013B1BB9B7EB060910D003E0252BF9D02746F3E74B46324629464046FFF771FF013000F0A78085
:402A8000099B4B4409933B78002B00F0A08000234FF0FF3204930793059206938DF853301A930126052221784E4800F041FA671C049B38B14B4A3C46801A06FA00F0184301
:402AC0000490EFE7D90644BF20228DF853201A0744BF2B228DF8532022782A2A03D0079A00210A200BE0039A111D12680391002A10DA524243F00200079204900BE0274614
:402B00003B780134303B092B03D800FB02320121F5E701B107923B782E2B1ED17B782A2B0AD1039B02371A1D1B680392002BB8BF4FF0FF33059310E0002319460593781C2E
:402B40000A2407463A780130303A092A03D804FB01210123F5E703B1059103223978224800F0E6F940B14023CBEB000003FA00F0049B013718430490397806221B487E1C72
:402B80008DF8281000F0D4F988B1194B33B9039B073323F007030833039314E003AB00932A46144B04A94046AFF3008007E003AB00932A460F4B04A9404600F093F8B0F1B2
:402BC000FF3F824603D0099B5344099342E7AB895B0601D4099801E04FF0FF301DB0BDE8F08F00BF7C3000008230000086300000000000005D2900002DE9F04791461F46CF
:402C00000A698B6806469342B8BF1346C9F8003091F843200C46DDF8208012B10133C9F800302368990642BFD9F800300233C9F80030256815F0060510D104F1190A07E0E2
:402C40000123524639463046C04701301AD00135E368D9F800209B1A9D42F1DB94F843302268003318BF012392060FD5E118302081F843005A1C94F845102244023382F80B
:402C8000431003E04FF0FF30BDE8F08704F1430239463046C0470130F4D02268D9F80050E36802F00602042A08BF5D1B2269A3680CBF25EAE57500259342C4BF9B1AED18CB
:402CC0004FF000091A344D4509D00123224639463046C0470130D5D009F10109F3E70020BDE8F0872DE9F04317460A7E85B06E2A984606460C460C9B01F1430E00F0AE80DC
:402D000011D8632A22D009D8002A00F0BB80582A40F0CA8081F84520834955E0642A1ED0692A1CD0C0E0732A00F0B08009D86F2A2ED0702A40F0B8800A6842F020020A6018
:402D40003EE0752A24D0782A3AD0ADE01A6801F14205111D1960136884F84230A8E021681A6811F0800F02D0111D196008E011F0400F02F10401196002D0B2F9003000E0CC
:402D80001368002B3CDA2D225B4284F8432037E021681A6811F0800F02D0111D196007E011F0400F02F10401196001D0138800E01368227E5C496F2A14BF0A2208221BE0F0
:402DC00078225A4984F845202268186812F0800F00F104051D6003D1550601D5038800E00368D00744BF42F0200222601BB9226822F0200222601022002084F8430001E012
:402E000049490A226568002DA56008DB206820F0040020602BB9002D7DD175460CE0002B79D07546B3FBF2F002FB1033CB5C05F8013D03460028F5D1082A0BD12368DA07BE
:402E400008D5236962689A42DEBF302305F8013C05F1FF35C5EB0E0323612EE008681A6810F0800F496903D0101D1860136808E010F0400F02F104001860136801D01980EB
:402E800000E0196000232361754616E01A68111D1960156800216268284600F049F808B1401B6060636804E004F1420584F8422001232361002384F84330CDF800803B4614
:402EC00003AA21463046FFF797FE013002D14FF0FF3026E023692A4639463046C0470130F5D023689B0710D5002504F1190907E001234A4639463046C0470130E7D0013554
:402F0000E368039A9B1A9D42F2DBE068039B9842B8BF184605E00B7804F1420584F842308AE705B0BDE8F0838D3000009E30000010B5C9B202449042034605D01C7801301D
:402F40008C42F8D1184610BD002010BD884210B501EB020301D8421E0BE09842FBD28118D21AD34204D013F8014D01F8014DF8E710BD994204D011F8014B02F8014FF8E770
:402F800010BDF8B5074615460E4621B91146BDE8F840FFF74FBC1AB9FFF700FC2846F8BD00F015F885420ED929463846FFF742FC044650B131462A46FFF7DCFB31463846E4
:402FC000FFF7ECFB01E03046F8BD2046F8BD51F8040C0028BEBF091851F8043CC01804387047000000000000484545454A00000053656E736F722072696768742069733A0B
:40300000202564200A0D000053656E736F72206D6964646C652069733A202564200A0D0053656E736F72206C6566742069733A202564200A0D000000C84900401900004F7D
:4030400000401800405100403000F0510040100000000140001000140140000800400140000A004C01400002005001402000000060520040A80A004806004300232D302B0D
:403080002000686C4C00656667454647003031323334353637383941424344454600303132333435363738396162636465660000F8B500BFF8BC08BC9E4670474D000000FC
:4030C00035040000550F0000F8B500BFF8BC08BC9E46704729000000E8300000C880FF1F800000001801000000000000000000006082FF1F0000E02EC05D00001800000031
:4031000000366E0100000000000000000000000000000000000000000000000000000000000000007A30000000000000000000000000000000000000000000000000000040
:40314000000000000000000000000000000000000000000000000000000000000000000000000000E480FF1F000000000000000000000000000000000000000000000000CD
:40318000000000000000000000000000000000000000000000000000000000000000000000000000000000000000000000000000000000000000000000000000000000000F
:4031C00000000000000000000000000000000000000000000000000000000000000000000000000000000000000000000000000000000000000000000000000000000000CF
:40320000000000000000000000000000000000000000000000000000000000000000000000000000000000000000000000000000000000000000000000000000000000008E
:40324000000000000000000000000000000000000000000000000000000000000000000000000000000000000000000000000000000000000000000000000000000000004E
:020000040003F7
:0200000480007A
:40000000044F00400552004005640040066500404D0201403503014016050140040601401B0701404E080140550901404C0A0140390B01405C1401404B15014045160140EF
:400040004C1701404F1801405F190140511A01405D1B0140074001401041014012420140054301400545014004460140014701400B480140194901400E4C0140144D0140CB
:40008000085001400351014001300A4B0D50164B00100110098011081902820F8347887289388B78840F850F860F887889078A47030E07010A050B021508160422022A09F7
:4000C0002D01300831083202330234043504360137013E104030410645D046204715483A49FF4AFF4BFF4DA04F04501852805407580459045A045B045C445D445F01604053
:4001000062C06440654066C068C06AC06CC06EC08502860688018F02921097029A18A402A61CA702A818AA06AB01AC02AD02AE0CB01EB301B601B702BA02BE40BF40D44164
:40014000D804D904DB04DC62DF010108030804100A400B080F201001112415C0168818801B401C101D481E081F012020214026482788280329082A102F01300837083884DB
:4001800039043C103E083F0245084F215608571158445B105D205E085F81620476808410C046C22AC457CA1ECC42CEEAD040D220D6FED802780479049141940496409708AF
:4001C0009C469D089E049F10A110A340A408A708AA08AD01AE10B160B240B440B510EA80B820BE10D804DF011B208020850489048A908B408C028E40914194049504964087
:40020000970899409C429F10A110A340A408A728AA04AD48B720E208E604EA41EE08030A04010506070809060A020B080D060E020F1810011514170818021F1027012801A4
:4002400029013001311E320233013B023E043F044002470449FF4A074BFF4C404D204EF04F05500856025713580459045A045B045C225D225F01604061A862406320802450
:400280008301841C86618701887F8C1C8E629263944098609E04A010A408A818AC67AE18B060B501B61FBA80BF10D418D604D804D904DB04DC02DD20DF0101800228034009
:4002C0000408060807010810098A0E4810A81140171019C11D021E202004246025012E102F1036803704382239083A103C403D013E203F044520460147404D0355045901C2
:400300005E02608463016C046E406F1874FC751081108480880889408A088D4D8F2190029440952296249718980299209A409B0C9D4E9E309F01A160A24DA313A454A50279
:40034000A620AA10AC04AD03B420C0EFC25FC44FCA60CC50CEF3D020D681D80DE020E290E660E840041808080C101204140218051A181C1C1E01220224182605281D2F01B9
:40038000301C34023501360138803E10400441034240440245CF460B47DE483749FF4AFF4BFF4C224EF04F0C508C51105608580459045A245B045C825D185F116840690107
:4003C0006AC06B01820184038C03930194089502980499029D02A204A402A502AB04B008B102B204B301B403B704B820BE15BF01D420D804D904DB04DD10DF0100A8044098
:4004000005020620085009020A200C040E281268170518021B111D201E101F0123082540260528022C102D082F04344035443628370140A0410142044A504C044D20500436
:40044000538258805D01624066106712792098029B04A780AB80B002B704C0B7C26FC43ECA68CCF0D007D688D878DE04EC14001002C1030104C106080E1E1A801E2120C1C0
:40048000220224C1260430203101321F348036403E544010410349FF4AFF4BFF4DA04F0450185602572C580459045A045B245C685D895E085F01604062C06440654066C051
:4004C00068C06AC06CC06EC082028309870288018B049D089E02A302A601B108B201B302B504B602B701BF04C010C102C5D0C650C712C83AC9FFCAFFCBFFCDAFCE0FCF0461
:40050000D018D280D407D804D904DA04DB04DC99DD99DF01E040E2C0E440E540E6C0E8C0EAC0ECC0EEC0004A0401070409800A0C0F0210A01620186019501E201F80210237
:40054000268427842E02368039013E283F02400141084202460A4F015508562857215E285F816202638068A577407B0A8010810283808548860488408A048B028DA08E029B
:40058000900191019C409D189F40A348A520A720AD01AF05B008B180B302B718C05DC283C42CCA80CC10CEE1D03AD6F0D801DE0CE004E202E409E840EA0FEE0A01011302C3
:4005C0001F0427023102330137043F04540159045B045C905D205F0181038203840C8508867189028E208F139010911F92409513970C980999019AD09C109D0C9EAC9F1395
:40060000A10FA310A414A504A8DCA90CAA22B01FB30FB4E0B51CBA20BB28C015C102C5EBC70CC813C9FFCAFFCBFFCEF0CF44D00CD608D804D904DA04DB04DC22DD02DF012F
:40064000E6C0EA40EB02000401820A410B080C080E2010201120180419022008220424012605270228A02A102F20312032843302374239AA3F0140064201482049C04B01C8
:400680005008584059185B015D405E285F016008618863408142820185088604888489109149924094049748982299409A109F10A110A280A340A408A708A804AC40B00894
:4006C000C00DC20BC406CA47CC9FCE8FD00CD208D6FFD80FE002E209E40CE804EE0904010C010D011804200226012B0130043403350138203A083E013F1054205604580407
:4007000059045B045C025F0180028204870189028C208E028F0292029680980299029A089D029E40A201A63CA802AA10AE80AF01B0C0B102B201B301B43EBE11BF05C0546F
:40074000C106C202C401C50CC70EC811C9FFCAFFCBFFCC62CDA0CEF0CF41D00CD602D804D904DA04DB24DC01DD82DF11E640E702E910EA30EB10ED10EE10EF1201400340D3
:4007800004400620080209080A0A0E080F081110124113081501170419011A241C201D041F2121012320261029012A022B012F0430A03510361039503B043D804008410203
:4007C000420249404A084B0451045D0265106608678268A069506A086B4079208030810285488741880889088A208B0190409121950A96349728980299209A609B1C9C1417
:400800009D0C9E019F21A142A248A31BA588A6A0A880AA20AD10AE10B004B314C0A9C24FC43FCA28CC0CCE1ED00DD20CD680D8F0DE04E024E620EA02EC20020109400F403F
:4008400011081201133014011524170A1802193E1C041D4021122204230D2540293E2F4030013138320433063402354037013E153F10400241044220440649FF4AFF4BFF4C
:400880004C024E704F0C508C51105441580459045A245B045C205D185F21684069016AC06B018A01B201C004C106C240C402C50DC6CEC7BFC83DC9FFCAFFCBFFCC23CEF0C6
:4008C000CF0CD08CD110D608D804DA24DB04DC01DD18DF31E840E901EAC0EB010240060408A10A200C301102182019101A401E1021882201230828102A012B0A310832016D
:400900003350395041024320444045204A084C084F0455015610574459205A445E805F18632064056684672079087F40813082088440873689048A848B408C088D028E01EF
:400940009150922094209612972098A099209A409B509C049E11A020A240A31AA588A744A902AA04AC10AE91AF20B010B208B304B480B740C048C20FC408CA0FCC0FCE0CA3
:40098000D0A5D224D67ED872DE82E210E415E6C0E8E0EA1DEEC031203304368037083B80CCF0CE100A040E013240358063026601852097809F0CA520A680C2C0CC30D640F8
:4009C000D880E210128017083E1059085D08968097809D809F0CA680AA01AE05B301C430CE20D6C0E850EA20969097809D809F04B5080B200C015301C20CD4019801AB01D3
:400A0000B310EA049801808085808740961097809D809F04AA40E210E680EE80122014205280588076407B0282A0830498809A409C209F04A302AA10AB02AE40B420C43074
:400A4000D4A0DC80DE20E280E480E620EAB0080209800F101328150861017B107F208101AC01C20EC40ED802DE0310807001800183108B108C808D809310A180A710AB2809
:400A8000AD04B402B720C408DC01E208E603E802EA08005708550C07104711011A451B011C0700FF013F03C00280000043000000C0F0300030000000C30000C38000830072
:400AC00000000000708B8B008000000030080800080000000F0F00000300000000000000000000000000000000000000000000000000000000000000000000000000000087
:400B000000000000000000000000000000000000000000000000000000000000000000000000000000000000000000000000000000000000000000000000000000000000B5
:400B40000000000000000000000000000000000000000000000000000000000000000000000000000000000000000000000000000000000000000000000000000000000075
:400B80000000000000000000000000000000000000000000000000000000000000000000000000000000000000000000000000000000000000000000000000000000000035
:400BC00000000000000000000000000000000000000000000000000000000000000000000000000000000000000000000000000000000000000000000000000000000000F5
:0200000490006A
:0400000000004005B7
:0200000490105A
:04000000BC90ACAF55
:0200000490303A
:020000000E3EB2
:0200000490402A
:4000000000000000000000000000000000000000000000000000000000000000000000000000000000000000000000000000000000000000000000000000000000000000C0
:400040000000000000000000000000000000000000000000000000000000000000000000000000000000000000000000000000000000000000000000000000000000000080
:400080000000000000000000000000000000000000000000000000000000000000000000000000000000000000000000000000000000000000000000000000000000000040
:4000C0000000000000000000000000000000000000000000000000000000000000000000000000000000000000000000000000000000000000000000000000000000000000
:0200000490501A
:0C00000000012E16106900012E2C1EA716
:00000001FF