:400000000080002011000000090D0000090D000008B5044B1A6803F53F5302331A6000F093FE00BFFA46004010B5054C237833B9044B13B10448AFF300800123237010BDBA
:400040004881FF1F00000000BC240000084B10B51BB108490848AFF300800848036803B910BD074B002BFBD0BDE81040184700BF000000004C81FF1FBC240000C880FF1F42
:400080000000000008B55021014800F063FB08BD6481FF1F08B54621014800F05BFB08BD6481FF1F38B5194C204600F07FFA0546204600F06DFA854226D1204600F068FA99
:4000C000A0F10A01204600F065FA204600F070FA204600F05DFA002810DD204600F058FA7D30800080B200F09DFE204600F050FA7D30800080B200F09BFE38BD002000F00E
:4001000091FE002000F094FE38BD00BF6881FF1F08B501F0CDFA0146024801761C3000F077FC08BD6481FF1F01281CD138B54FF6FF73994216D10C4C04F11C0000F064FCAA
:40014000204600F0EFFA094D2A460949204602F0E9F80434204600F00BFA2A460549204602F0E0F838BD70476481FF1FCC80FF1F2D0700008D05000010B59CB062B600F076
:40018000FFFE01F0EBF901F0CFFC01F011FB744801F0F2FC734801F005FC734801F02AFC724801F0A5FD17A800F0AAFB704C224617A913A800F0F2F812A800F0DFFA019468
:4001C0006C4B00936C4B6D4A6D4903A800F064F96C4B93F85C302BB970216A4800F0A8FA044600E000247CB1664C012384F85C30722112A800F0F4FA4FF47A7001F028F94F
:40020000022384F85C300FE05E4B93F85C30022B05D170215B4800F08BFA00B901241CB10022584B83F85C20564B93F85C30022B06D113A800F00CF96F2803D1012402E0F1
:40024000002400E0002434B103224E4B83F85C2001F026FD11E04B4B93F85C30032B05D113A800F0F5F8632800D101242CB10222444B83F85C2001F0B9FC424B93F85C301C
:40028000022B05D166213F4800F052FA044600E0002424B104223B4B83F85C200FE0394B93F85C30042B05D16621364800F040FA00B901241CB10222324B83F85C20314BAE
:4002C00093F85C30042B83D8DFE803F0030F1C293200672112A800F071FA722112A800F06DFA13A800F0B4F872E7722112A800F077FA4FF47A7001F0ABF80222214B83F8AF
:400300005C2065E7722112A800F058FA672112A800F03AFA0021164800F070F958E7722112A800F04BFA672112A800F059FA4FE7722112A800F042FA672112A800F050FAB7
:4003400013A800F085F8104800F060FB01F0A6FD014603A800F0BAF803A800F0BFF837E7110100008500000095000000A50000006881FF1F00004842736831BF333308C3BC
:4003800066E60E436481FF1F8081FF1F08B54FF6FF710120FFF7C8FE08BD00BF10B5044600202070E0606260A16001F061FB204610BD00BF10B50C4601F072FB204601F0DE
:4003C0004BFB10BD08B5A1F16203102B35D8DFE803F0112D343409343434343419343429343421000378012B29D1406800F06AF9002008BD0378012B23D1406800F062F93F
:40040000002008BD0378012B1DD1406800F05AF9002008BD0378012B17D1406800F052F9002008BD012303706F2008BD00230370406800F0CDF8632008BD002008BD0020F0
:4004400008BD002008BD002008BD002008BD00BF38B5044601F018FB0346B8B101F00EFB0546A06800F0C2FAE060012804D105212046FFF79FFF04E0054B19782046FFF7E4
:4004800099FF29462046FFF79DFF0346184638BDC081FF1F01627047F8B504460F4616461D4600F065F8002323626362A362E36223636363079BA3636761A661E561069971
:4004C0002046FFF7E7FF2046F8BD00BF10B50446006A01F031FCA06210BD00BF70B50446416BC06901F032FD0546A16A606901F02DFD0146284601F021FC0546E16AA069BB
:4005000001F024FD0146284601F018FC05462063154901F0D7FE10B1134B236306E01349284601F0B1FE08B1104B2363256B0021284601F0BDFE40B1A66B284601F0CCFE78
:400540000146304600F05AF808E0A66B05F1004001F0C2FE0146304600F06AF8A36AE362206B606370BD00BF0000C8420000C8C210B5044600230360436001220272C3607B
:40058000036100F0A9FC204610BD00BF704700BFC0687047642902DD6423C3607047002902DC0023C3607047C160704700697047C3680361704700BF08B5016088B200F0E5
:4005C00031FC08BD08B5416088B200F031FC08BD10B504460021FFF7EFFF00212046FFF7F1FF10BD10B50C460172084601F0D2FA84F0010001F0DAFA10BD00BF38B50546AE
:4006000031B9FFF7D9FF00212846FFF7DBFF09E00C467D34A4002146FFF7CEFF21462846FFF7D0FF01212846FFF7DCFF38BD00BF38B5054631B9FFF7BFFF00212846FFF7DF
:40064000C1FF09E00C467D34A4002146FFF7B4FF21462846FFF7B6FF00212846FFF7C2FF38BD00BF38B505467D318C002146FFF7A3FFC83C21462846FFF7A4FF002C03DAB4
:4006800000212846FFF79EFF01212846FFF7AAFF38BD00BF38B505467D318C002146FFF791FFC83C21462846FFF786FF002C03DA00212846FFF780FF01212846FFF792FF5E
:4006C00038BD00BF38B504460D46C368182B03DC1921FFF75FFF06E0FFF75AFF00F10A012046FFF757FF2046FFF762FF662D04D1E1682046FFF782FF38BD622D04D1E16811
:400700002046FFF795FF38BD722D04D1E1682046FFF7A8FF38BD6C2D03D1E1682046FFF7B9FF38BD0022027042707047704700BF502901D0702901D1037808E0462901D095
:40074000662903D1037813B1437800E000231846704700BF502907D1037813B1002303707047012303707047462906D1437813B100234370704701234370704710B504462B
:4007800001F0DCF8204610BD08B5672901D0472907D101F0E7F8FF280ED0FF2001F080F808BD722901D0522906D101F0D5F8FF2802D0FF2001F06EF808BD00BF08B56729FD
:4007C00001D0472903D1002001F06AF808BD722901D0522902D1002001F05CF808BD00BF08B5672901D0472903D17A2001F058F808BD722901D0522902D17A2001F04AF880
:4008000008BD00BF10B401604260836010BC7047F8B5084614461F46069D002100F02CFD204600F0BBFD0022531CDCB2BA4206D26E1C287800F0B2FD22463546F4E700F0F8
:4008400091FDF8BD10B584B004AC04F8013D00940123FFF7DDFF04B010BD00BFF8B50C4616461F46069D0021204600F005FD304600F094FD0121204600F03EFD0022531C71
:40088000DCB27B1E9A4207DA6E1C012000F0B2FD287022463546F2E7002000F0ABFD287000F060FDF8BD00BF08B501F07BFD08BD10B5044600236B2268210068FFF7C2FF53
:4008C0006D23192268212068FFF7BCFF18231B2268212068FFF7B6FF20236A2268212068FFF7B0FF37231A4668212068FFF7AAFF06231A2268212068FFF7A4FF10BD00BFAD
:4009000070B504460026466000258560C56005610120FFF7C9FF20601420FFF7C5FF0580458085808660C6600661A0601420FFF7BBFF0580458085808660C6600661E060F2
:400940000C20FFF7B1FF0546231DA268E168FFF759FF2561E3682B602046FFF7A9FF204670BD00BF30B585B0044602AB009306233B2268210068FFF771FFA2689DF808108F
:400980009DF8093043EA01231380A2689DF80A109DF80B3043EA01235380A2689DF80C109DF80D3043EA01239380A568B5F9000001F078FA4FF0645101F0C8FAA860A5680D
:4009C000B5F9020001F06EFA4FF0645101F0BEFAE860A568B5F9040001F064FA4FF0645101F0B4FA2861A06805B030BD10B50446FFF7B8FFA3680021186901F045FC08B1E1
:400A0000012010BD002010BD704700BF80887047C17109B9002383718379062B31D8DFE803F004070F151D232B000133837170470139C9B2C17109024180013383717047A0
:400A40004288114341800133837170470139C9B2C171090281800133837170478288114381800133837170470139C9B2C171090201800133837170470288114301800133C3
:400A800083717047FEE700BFF0B40022174611E050F82760F3B226F0FF0608E001EB420511F812406D78A5550132013BDBB2002BF4D10137222FEBD9F0BC7047064B1B786F
:400AC000DBB203F00701054A11701B09013213704422034B1A707047CF0100496E5800407658004008B50A46002101F06EFC08BD38B50522304B1A801823304A13700B21C7
:400B0000023211800232137019250232158002321370EF21023211800232137045F6BF5102321180023213704FF6FF7102321180023213700222224B1A7008224FF0402310
:400B40001A70032103F5007319701E4B1B78DBB21D490B701D4B1A8041F25122023B1A8000240CE01A4B1B7803F0010343EA440404F003044FF4F07001F0CAF8013D0DB129
:400B8000032CEFD115B90320FFF77CFF114B4FF480721A8007221A7000220F490A704820023108701A700222033B1A700B4A137843F03F03137038BD8040004082400040BA
:400BC0000043004008010049A146004022420040254200400440004006400040A243004008B501F0E7FB08BD38B572B6354A137843F00403137000240CE0334D6300191929
:400C00004A0011462A44084691882858FFF76AFF0134E4B2082CF0D900240BE02A49A3001819420088180622C16B806BFFF7D8FF0134E4B2002CF1D024494FF09040FFF729
:400C400023FF234A137843F0020313701032137843F0020313701F4C237843F040032370A2F58632513A137843F010031370082219491A48FFF7B4FF0A2219491948FFF75E
:400C8000AFFF082218491948FFF7AAFF082218491848FFF7A5FF184A137843F008031370164D61232B70FFF723FF81232B700122134B1A70FFF702FF0E2221461148FFF707
:400CC0008FFF38BDE8460040C02400008C00004803500140A0430040E00A004802510040E80A0048C0510040F40A004812510040FC0A00482251004022430040004800402D
:400D000004000840B043004008B501F01FFB03680C2B00D1FEE7FEE708B5094B1A681044084BC31A802B02DC054B186005E001F00DFB0C2303604FF0FF32104608BD00BF0D
:400D4000D080FF1F1882FF1F08B5104E104D16E029686B68AC68002204E051F8040B43F8040B0432A242F8D1E868002203E0002143F8041B04328242F9D11035013E002E96
:400D8000E6D101F0E9FAFFF7F7F9FEE7010000002C25000008B5104A104B1A60104A136843F40073136000230AE0032B03D80D4A52F8231000E00C490C4A42F82310013397
:400DC0002F2BF2D90A4B1A780A4B1A70074A0A4B1A60FFF709FF08BD0004FA050CED00E014ED00E000000000090D00000080FF1FBC760040C080FF1F08ED00E0024A137838
:400E000043F080031370704774650040014B1880704700BF086A0040014B1880704700BF886A0040014B1880704700BF486A0040014B1880704700BF686A0040014B187085
:400E4000704700BF84650040014B1878704700BF64650040014B188880B27047A86A004008B501E0FFF7F6FFFFF7EEFF10F0100FF8D108BD10B5164A137803F0C00343F09F
:400E800009031370134C237843F0010323702132137843F0010313704FF46170FFF7B6FF4FF46170FFF7B8FF0020FFF7BBFF0020FFF7BEFF0020FFF7C1FF00F031FF237893
:400EC00043F01003237000F02FFFFFF7C9FF10BD746500409465004008B5054B1B7823B9FFF7C8FF0122024B1A70FFF787FF08BDC181FF1F38B50222114B1A7081220E3B67
:400F00001A70082202331A700F2511331D70002401331C704FF400420A4B1A600721284600F0C0FA0849284600F0A8FA1022074B1A70074B1C70074B1C70074B1C7038BDD3
:400F4000D649004080E100E0A90F0000D881FF1FDE81FF1FE081FF1FDC81FF1F08B500F0DFFE064A137843F0040313701032137843F00403137000F0D7FE08BDA5430040CD
:400F800008B5074B1B7823B9FFF7B4FF0122044B1A70FFF7E3FF4FF40042024B1A6008BDC281FF1F00E100E038B5A54B1C78A54B1B7813F0400F00F03A81E4B214F0010F68
:400FC00000F01D819F4B1B78453B052B00F21481DFE813F006008200120112010600DF0004F0DF0504F00A04082C42D1954B1B78DBB2452B35D1944B1B7813F0FF0F10D058
:40100000924B1B681B78DBB2914A137004228C4B1A7001228F4B1A7046228A4B1A702C46EDE08D4B1B7813F0020F0DD08B4A137843F00A0313706022824B1A704FF40042E1
:40104000874B1A602C46DAE0864A137843F0100313701022844B1A700422023B1A702C46CDE00022764B1A704A22764B1A702C46C5E00A2C2BD1794A137843F0A003137029
:40108000754B1B7813F0020F14D06E4B1B7813F0080F01D0092300E00A23704A11780B4313706022674B1A704FF400426C4B1A602C46A4E06B4A137843F0100313701022BC
:4010C000694B1A700422023B1A702C4697E0002000F0BCF92C4692E014F0020F36D15D4B1A78D2B2584B1B78DBB29A4210D2594A1378DBB255490968CB5CDBB254490B7042
:4011000004214F4B197013780133DBB2137076E0514B1B7813F0020F0CD0504A137843F00A0313706022474B1A704FF400424C4B1A6064E04B4A137843F0100313701022A8
:40114000494B1A700422023B1A7058E0424B1B7813F0020F0CD0414A137843F09A0313706022384B1A704FF400423D4B1A6046E03C4A137843F01003137010223A4B1A705C
:401180000422023B1A70354A137843F09003137035E0364A1378DBB2354908682C490978C9B2C15413780133DBB213701278D2B2304B1B78DBB29A4203D21022204B1A707E
:4011C0001DE0254B1B7813F0020F0CD0234A137843F00903137060221A4B1A704FF400421F4B1A600BE01F4A137843F0100313700022134B1A7002E0002000F027F914F0A3
:40120000200F1CD00F4B1B7813F0080F01D0012300E00223114A11780B431370114A137803F0EF0313701022064B1A7038BD054B1B7813F0100F02D11022024B1A7038BDB7
:40124000D7490040D881FF1FDF81FF1FE481FF1FD8490040DC81FF1FDD81FF1FDE81FF1F80E100E0D6490040D9490040E081FF1FE881FF1FEC81FF1F1A4B1B78DBB2102B6E
:4012800029D1194B1B7813F0080F26D14FF40042164B1A604000C0B229B140F001004922104B1A7002E045220E4B1A70104B1870012201331A700F4B1B7813F0010FFAD005
:4012C0000C4B1B7803F00A030A2B08D11022054B1A700320704702207047012070470020704700BFD881FF1FD949004080E100E0D8490040D7490040164B1B7813F0040FE4
:4013000023D04000C0B229B140F001004922124B1A7002E04522104B1A70104B1870122201331A700422023B1A700D4B1B7813F0010FFAD00A4B1B7803F00A030A2B06D1FF
:401340001022054B1A7003207047022070470020704700BFD9490040D881FF1FD8490040D74900400A4B1B7813F0040F0ED01023074A13700421023A1170064A1370064B95
:401380001B7813F0210FFAD00020704702207047D9490040D881FF1FD7490040114B1B7813F0040F1BD0104B18700422013B1A7046220E4B1A700E4B1B7813F0010FFAD0E1
:4013C0000B4B1B7813F0020F04D16022074B1A70002070476022054B1A70032070470220704700BFD9490040D8490040D881FF1FD7490040114B1B7813F0040F1BD0104B33
:401400001B78DBB2492B05D100220E4B1A704A220B4B1A700B4B1B7813F0010FFAD00A4B1B78DBB218B11021064A117004E06021034A117000E0002318467047D94900403E
:40144000D881FF1FD7490040D849004001BE704710B5044605E0084B186800F059FCA4F50044B4F5004FF6D8034B586800FB04F000F04EFC10BD00BFD480FF1F70B504466B
:401480000E46074B1D681F2802D90020FFF7DEFF04F01F04103455F8240045F8246070BD08ED00E038B504460D46072902D90020FFF7CCFF1F2C02D90020FFF7C7FF04F0F1
:4014C0001F0000F1604000F564406D01EDB2057038BD00BF08B50D490420FFF7CFFF07210420FFF7DFFF0023094A13707221094A11702021043A11700621603A1170472148
:40150000103211704E32137008BD00BF79150000C381FF1F8B65004010B500F001FC04460B4A137843F020031370043A137843F0100313701022074B1A60074A137843F0ED
:401540001003137000F064F8204600F0EDFB10BD9B65004000E100E09565004008B5054B5B7823B9FFF7B6FF0122024B5A70FFF7D3FF08BDC381FF1F1D4B1B78DBB213F028
:401580001E0F05D01B4803F01E0201780A43027003F0200303F0FF0233B3174B1978C9B2164B1B78DBB21648C154164B1B7813F0FF0F02D00121144B197010490B78013338
:4015C000DBB20B700B78DBB20F2B02D900210B4B19700A4B1978C9B20C4B1B78DBB2994202D10121074B1970002AC5D1704700BF67650040C381FF1F49640040C681FF1F45
:40160000F081FF1FC781FF1FC881FF1FC581FF1F054A137843F0040313701032137843F004031370704700BFA243004008B500F077FB0A4A137843F020031370013A137891
:4016400043F0100313700632137843F01003137000F06AFB0822024B1A6008BD9264004000E100E00822014B1A60704700E100E00822014B1A60704780E100E0014B1878E7
:40168000704700BF6164004010B5FFF7F1FF064B1C78064A137803F061031C4300231370FFF7E0FF204610BD676400400282FF1F10B5FFF7DDFF134B1A78D2B2124B1B7838
:4016C000DBB29A4214D0114B1B7813F0FF0F0CD10C4A13780133DBB213701378DBB2072B06D90022074B1A7002E00022074B1A70044B1B78DBB2064AD45CE4B2FFF7B2FF68
:40170000204610BD0C82FF1F0082FF1F0382FF1F0482FF1F08B501E00A4B1B780A4B1B7813F0080FF8D100F0FBFA084B1A7842F003021A701A7802F0FC021A7000F0F4FA1D
:4017400008BD00BF52640040676400409264004038B507240F4B1C7008250F4B1D600F490320FFF78BFE21460320FFF79BFEFFF7D1FF00240A4B1C700A4B1C700A4B1C700C
:40178000FFF77CFFFFF780FF084B1C7006331D7038BD00BF8264004080E100E0CD1700000382FF1F0C82FF1F0082FF1F8164004008B5054B1B7823B9FFF7CAFF0122024BE0
:4017C0001A70FFF733FF08BDCA81FF1F204B1978204A137803F061030B43137032E01E4B1A78D2B21D490B780133DBB20B700B78DBB2072B02D90021184B1970174B19781D
:40180000C9B2174B1B78DBB299420ED114490B780133DBB20B700B78DBB2072B02D900210F4B197001210F4B19700C4B1B78DBB20D49CA54064B1978064A137803F06103B0
:401840000B431370034B1B7813F0080FC7D17047676400400282FF1F526400400082FF1F0C82FF1F0382FF1F0482FF1F024A137843F080031370704770640040014B187068
:40188000704700BF00640040014B1870704700BF40640040014B1870704700BF20640040014B1870704700BF30640040014B1870704700BF80640040014B1878704700BFF4
:4018C00060640040014B1878704700BF5064004008B501E0FFF7F6FFFFF7EEFF10F0100FF8D108BD10B5134A137803F0C00343F009031370104C237843F001032370FF2080
:40190000FFF7BCFFFF20FFF7BFFF0020FFF7C2FF0020FFF7C5FF0020FFF7C8FF00F000FA237843F01003237000F0FEF9FFF7D0FF10BD00BF706400409064004008B5054BAA
:401940001B7823B9FFF7CEFF0122024B1A70FFF78DFF08BDCB81FF1F014B1878704700BF20640040014B1878704700BF30640040014B1B689864704708ED00E04001C0B244
:40198000014B1870704700BF02E400E00422014B1A60704700E100E00422014B1A60704780E100E010B50446FFF7F6FF2046FFF7DFFF0720FFF7E2FFFFF7E8FF10BD00BF34
:4019C000014B1B681864704708ED00E04001C0B2014B1870704700BF00E400E00122014B1A60704700E100E00122014B1A60704780E100E010B50446FFF7F6FF2046FFF7B7
:401A0000DFFF0720FFF7E2FFFFF7E8FF10BD00BF08B500F085F9094A137843F020031370053A137843F0100313700232137843F01003137000F078F908BD00BF9864004043
:401A4000014B1878704700BF63640040014B1878704700BF65640040034B1B7813F0020FFAD0024B187070476364004044640040014B1870704700BF04640040014B1878AA
:401A8000704700BF54640040044B1B7813F0080F01D0012070470020704700BF6564004008B500F03DF9064B1A7842F003021A701A7802F0FC021A7000F036F908BD00BF3E
:401AC0009464004008B501E00A4B1B780A4B1B7813F0080FF8D100F023F9084B1A7842F003021A701A7802F0FC021A7000F01CF908BD00BF546400406564004094640040DD
:401B000008B50722064B1A70FFF7DCFFFFF798FFFFF79CFF0023034A13700232137008BD886400408364004008B5054B1B7823B9FFF7E6FF0122024B1A70FFF769FF08BDBF
:401B4000CC81FF1F014B1B685865704708ED00E04001C0B2014B1870704700BF05E400E02022014B1A60704700E100E02022014B1A60704780E100E010B50446FFF7F6FFA2
:401B80002046FFF7DFFF0720FFF7E2FFFFF7E8FF10BD00BF044A137803F0DF03400100F0200018431070704710510040044A137803F0EF03000100F0100018431070704701
:401BC00010510040084A137843F0010313701032137843F00103137002F64D32137843F001031370704700BFA3430040084A137803F0FE031370A2F65D32137803F0FE03D4
:401C000013701032137803F0FE031370704700BF004F0040014B1870704700BF034F0040014B1880704700BF044F0040014B1880704700BF064F004008B5164A137803F085
:401C4000010313700232137803F0FC031370124B1A7802F0CF021A701A7842F030021A701A7802F0F0021A701A7842F00F021A700A4A137843F00103137042F20F70FFF74C
:401C8000CFFF42F20F70FFF7D1FF0020FFF7C2FF08BD00BF004F00400B4F0040014F004008B5054B1B7823B9FFF7C6FF0122024B1A70FFF787FF08BDCD81FF1F014B1B681C
:401CC0005864704708ED00E04001C0B2014B1870704700BF01E400E00222014B1A60704700E100E00222014B1A60704780E100E010B50446FFF7F6FF2046FFF7DFFF07203B
:401D0000FFF7E2FFFFF7E8FF10BD00BF000000000230800803D000BF01380046FCD17047EFF3108072B6704780F31088704700BF80F0004002E000BF81F0004142001FBF1F
:401D40005FEA410392EA030F7FEA226C7FEA236C6AD04FEA1262D2EB1363C1BFD218414048404140B8BF5B42192B88BF704710F0004F40F4000020F07F4018BF404211F049
:401D8000004F41F4000121F07F4118BF494292EA030F3FD0A2F1010241FA03FC10EB0C00C3F1200301FA03F100F0004302D5494260EB4000B0F5000F13D3B0F1807F06D3FE
:401DC00040084FEA310102F10102FE2A51D2B1F1004F40EBC25008BF20F0010040EA03007047490040EB000010F4000FA2F10102EDD1B0FA80FCACF1080CB2EB0C0200FAAE
:401E00000CF0AABF00EBC25052421843BCBFD0401843704792F0000F81F4000106BF80F400000132013BB5E74FEA41037FEA226C18BF7FEA236C21D092EA030F04D092F051
:401E4000000F08BF0846704790EA010F1CBF0020704712F07F4F04D1400028BF40F00040704712F100723CBF00F50000704700F0004343F0FE4040F4000070477FEA2262C0
:401E800016BF08467FEA23630146420206BF5FEA412390EA010F40F4800070474FF0000304E000BF10F0004348BF40425FEA000C08BF704743F0964301464FF000001CE00C
:401EC00050EA010208BF70474FF000030AE000BF50EA010208BF704711F0004302D5404261EB41015FEA010C02BF84460146002043F0B64308BFA3F18053A3F50003BCFA63
:401F00008CF2083AA3EBC25310DB01FA02FC634400FA02FCC2F12002BCF1004F20FA02F243EB020008BF20F00100704702F1200201FA02FCC2F1200250EA4C0021FA02F2A5
:401F400043EB020008BF20EADC7070474FF0FF0C1CEAD0521EBF1CEAD15392EA0C0F93EA0C0F6FD01A4480EA010C400218BF5FEA41211ED04FF0006343EA501043EA511131
:401F8000A0FB01310CF00040B1F5000F3EBF490041EAD3715B0040EA010062F17F02FD2A1DD8B3F1004F40EBC25008BF20F00100704790F0000F0CF0004C08BF49024CEA5A
:401FC000502040EA51207F3AC2BFD2F1FF0340EAC250704740F400004FF00003013A5DDC12F1190FDCBF00F000407047C2F10002410021FA02F1C2F1200200FA02FC5FEA33
:40200000310040F1000053EA4C0308BF20EADC70704792F0000F00F0004C02BF400010F4000F013AF9D040EA0C0093F0000F01F0004C02BF490011F4000F013BF9D041EAA6
:402040000C018FE70CEAD15392EA0C0F18BF93EA0C0F0AD030F0004C18BF31F0004CD8D180EA010000F00040704790F0000F17BF90F0004F084691F0000F91F0004F14D072
:4020800092EA0C0F01D142020FD193EA0C0F03D14B0218BF084608D180EA010000F0004040F0FE4040F40000704740F0FE4040F4400070474FF0FF0C1CEAD0521EBF1CEAFA
:4020C000D15392EA0C0F93EA0C0F69D0A2EB030280EA010C49024FEA402037D04FF0805343EA111143EA10130CF000408B4238BF5B0042F17D024FF4000C8B4224BF5B1A2E
:4021000040EA0C00B3EB510F24BFA3EB510340EA5C00B3EB910F24BFA3EB910340EA9C00B3EBD10F24BFA3EBD10340EADC001B0118BF5FEA1C1CE0D1FD2A3FF650AF8B4201
:4021400040EBC25008BF20F0010070470CF0004C4CEA50207F32C2BFD2F1FF0340EAC250704740F400004FF00003013A37E792F0000F00F0004C02BF400010F4000F013AD0
:40218000F9D040EA0C0093F0000F01F0004C02BF490011F4000F013BF9D041EA0C0195E70CEAD15392EA0C0F08D142027FF47DAF93EA0C0F7FF470AF084676E793EA0C0FA0
:4021C00004D14B023FF44CAF08466EE730F0004C18BF31F0004CCAD130F000427FF45CAF31F000437FF43CAF5FE700BF4FF0FF3C06E000BF4FF0010C02E000BF4FF0010CA2
:402200004DF804CD4FEA40024FEA41037FEA226C18BF7FEA236C11D001B052EA530C18BF90EA010F58BFB2EB030088BFC81738BF6FEAE17018BF40F0010070477FEA226C08
:4022400002D15FEA402C05D17FEA236CE4D15FEA412CE1D05DF8040B704700BF844608466146FFE70FB5FFF7C9FF002848BF10F1000F0FBD4DF808EDFFF7F4FF0CBF0120D1
:4022800000205DF808FB00BF4DF808EDFFF7EAFF34BF012000205DF808FB00BF4DF808EDFFF7E0FF94BF012000205DF808FB00BF4DF808EDFFF7D2FF94BF012000205DF8DF
:4022C00008FB00BF4DF808EDFFF7C8FF34BF012000205DF808FB00BF4FEA4002B2F1FE4F0FD34FF09E03B3EB12620DD94FEA002343F0004310F0004F23FA02F018BF40422C
:4023000070474FF00000704712F1610F01D1420205D110F0004008BF6FF0004070474FF0000070470B460146184600F001B8000010B5054C13462CB10A4601460220AFF3F8
:40234000008010BD204610BD00000000014B1868704700BF4481FF1F0E4B70B51E460E4C0025E41AA410A54204D056F8253098470135F8E700F0C6F8084B094C1E46E41A9B
:40238000A4100025A54204D056F8253098470135F8E770BD1025000010250000102500001C250000024B0146186800F017B800BF4481FF1F10B5431E0A44914204D011F84C
:4023C000014B03F8014FF8E710BD03460244934202D003F8011BFAE77047000070B5CD1C25F0030508350C2D38BF0C25002D064601DBA94202D90C23336046E000F05CF8A5
:40240000234B1C681A462146A1B10B685B1B0ED40B2B03D90B60CC18CD501EE08C420BBF63684B681360636018BF0C4615E00C464968E9E7174C23681BB9304600F02CF8C1
:4024400020602946304600F027F8431C18D0C41C24F00304A0420DD12560304600F02DF804F10B00231D20F00700C31A0ED05A42E25070BD211A304600F00EF80130EBD135
:402480000C233360304600F018F8002070BD00BFD481FF1FD081FF1F38B5064C0023054608462360FEF738FC431C02D1236803B12B6038BD1082FF1F704770470000000040
:4024C000C84900401900004F00400C00305100404000F0510040100000000140001000140140000800400140000A004C01400002005001402000000060520040D80A0048B0
:4025000006004300F8B500BFF8BC08BC9E4670474D0000008D030000950D0000F8B500BFF8BC08BC9E4670472900000040250000C880FF1F80000000D00000000000000091
:4025400000000000000000001882FF1F0000E02EC05D00001800000000366E0100000000000000000000000000000000000000000000000000000000000000000225000094
:40258000000000000000000000000000000000000000000000000000000000000000000000000000000000000000000000000000000000000000000000000000E480FF1F99
:4025C00000000000000000000000000000000000000000000000000000000000000000000000000000000000000000000000000000000000000000000000000000000000DB
:40260000000000000000000000000000000000000000000000000000000000000000000000000000000000000000000000000000000000000000000000000000000000009A
:40264000000000000000000000000000000000000000000000000000000000000000000000000000000000000000000000000000000000000000000000000000000000005A
:40268000000000000000000000000000000000000000000000000000000000000000000000000000000000000000000000000000000000000000000000000000000000001A
:020000040003F7
:0200000480007A
:40000000024F0040065200400764004004650040420001403201014046020140370301403D04014050050140410601404D0701404F0801403D090140050B01405C140140F2
:400040004B150140551601404B17014014190140411A01404B1B0140064001401B4101400F420140094301400645014008460140014701400F4801400D490140144C014028
:400080000A4D0140095001400351014001300A1B002001100880098010081108800F814782078347857887788807840F850F87388B7207020F0112011304170419081A02FD
:4000C0001D0222042708290131023204330434023508360137013F054010410645D546014702481749FF4AFF4BFF4DA04F04501852805407580459045A045B045C445D4495
:400100005F01604062C06440654066C068C06AC06CC06EC0860192029E02A601A701A801B001B301B602B701BE01D441D804D904DB04DC04DF01050806200A400B080C80B2
:400140000E100FA010801504172019101A021BC41E801F40210222542580272029042B042E0831903209388039043A084380482049064A084B0850C0520859025AA85D081C
:400180005E9066047240C020C29AC468CA46CC0FCE0AD008D204D67FD8400A020B010E7810401204140416201E04200422082404261028012D0230013102327C33013402FB
:4001C0003E053F01400241054220440345BC46E047DF483B49FF4AFF4BFF4C224EF04F0C508C51105602572C580459045A245B245C155D885E085F21684069016AC06B01E7
:400200008B01950196029E019F01A601A802B202B401B701BE04BF40D441D804D904DB04DC04DD10DF01054807280A020B100E62102012081525180819041D081F112240AD
:40024000244026082F02328838403B503F1045284D084F4254015714580859105A80610467406D156E607D087F0287188E0192029E28A020A710A902AA04AF40C0C0C2B559
:40028000C476CA10CC0ACE24D060D210D60ED882DE50E010050409040D04130217041D0223042E012F0130013104350237013F11400341044230440145FB46FD47CE483F75
:4002C00049FF4AFF4BFF4C224EF04F0C508C51105608580459045A245B045C815D185F31684069016AC06B018301930295029E01A102A904AD01B101B506B601B920BF0157
:40030000D420D804D904DB04DC28DD10DF210E02101012211A801D4020012201230425012610270829802B802F463101324033083504370138203A443F02400241064304F0
:40034000481849104B01500851105202538058805A225B045F01610162A163106410670679027C807D087E02864088108D01911792409302952097109B209D509E28A001EA
:40038000A104A201A307A520A680A808AA80AB02B101B404B504C280C401CAB9CCCBCE8ED00BD68FD87FDE41E218EA10EC40003802040310041805100622081209100A205C
:4003C0000C200E180F101110120114281501170E18201B0C1D0C1E061F032001210123062401270828012B0331103401363E370F3B803E103F015608580459045B045C228F
:400400005F0186038E08920596029A019C069E01A606A901AA08B207B408B701BA08BE10BF40D420D604D804D904DB04DC02DF0100800108040205040602070809400BA89F
:400440000C280E4211201308151517021824190C1D201E02230124422540264027012B0C2C202E022F543504365037023C023D143E4048014B405A025F60611062056301C8
:4004800066A08284850286088A018B088E0191159240950897889B289C029D049E289F01A001A210A304A522A810AA14AB80AD80B308B401C0F5C2FFC476CAE4CCF0CEF0FB
:4004C000D631D83FE202E602EA0D031E0920120114021501170819011B041C011D101F01210123022401252028012B012D20300231203401371F38083B203E153F405602AA
:40050000580459045B245C205D805F3189078A019101930E9907A904AB11AD02AE01AF11B107B518B601BE40BF10C064C105C203C402C60EC7C0C824C9FFCAFFCBFFCC62D7
:40054000CDA0CEF0CF41D00CD608D804D904DA04DB04DC20DD02DF01E640E702E910EA30EB10ED10EE10EF1200100E810F201002171418021D292004220123402502270ACF
:4005800029402A102C042E412F20320133203640371439103D303F014014410248044B8050025140598061806E816F147D0185888F1091019301960198049F14A640AB14D5
:4005C000AC04B240B701C002C2B0C461CAFCCC75CEA4D007D20CD608D808DE80E010EA28EC1086019101B101E480EA200004040409010B020D030E01110212021301140135
:4006000019031A021F042304280429042C042D043004310434023503360139023E114040410249FF4AFF4BFF4DA04F04501852805407580459045A045B045C295D995F0122
:40064000604062C06440654066C068C06AC06CC06EC0870188028E0292029C02A001AA02B002B101B401BE11C040C102C5D5C620C710C82BC9FFCAFFCBFFCDAFCE0FCF0400
:40068000D018D401D804D904DA04DB04DC50DD29DF01E040E2C0E440E540E6C0E8C0EAC0ECC0EEC00008020103400420070109200A500E010F8010051501160419411A0440
:4006C0001C401E08208021102480288530203102334039503F04412042C0452046804D0A5520560159625A045C605D015E087002814084A485128780880189108C208D01F5
:400700008F4090209101925193049480980499209A049B019D089E01A3C0A442AD81B201C0CDC29EC453CA0DCC0DCE4CD0A5D6FFE002E606E808EA01EC0202100605080346
:400740000A040C0A0E041003120416081C031E0C28102F0133013410360F3A803E104016410345E0460C470B481649FF4AFF4BFF4EF04F44500C5608580459045A045B04E9
:400780005C025D025F0166C06A406B02860C870189038D038E019102920898049F04A304A708AE02B002B104B201B303B404B508B608B908BF04C003C504C9FFCA07CBFF32
:4007C000CC40CD20CEF0CF05D008D418D604D804D904DA04DB04DC99DD22DF01E040E1A8E240E3200108020104280680070109200A400D800E200F801002171019A01AD0D9
:400800001D901E011F402125271029082A012E803240330138283A203B8041044580462048204C044D01500452045304540857C05A025C40600462806340668087448C40A3
:400840009064978898049B019D10A290A468A920AA80AC06B104B510B601C0F5C2BAC441CA13CC09CE0ED052D220D611D81DE020E401E6D0E804EA08EE46934094109640BE
:400880009A209D409E10A102A404A510A720A801A980AE20AF4AB120B541E020E401E6C0EE900120040106060708080209800DC0120113C6153019CE1B301C071DF81F0266
:4008C00020062138220123C424072510280629FE2C042D482F013207330135F0373E3BA0580459045C225F01810482038402850289078E03900393019401950197069803AA
:400900009D069E039F01A106A301A403A906B107B403BB02D602D710D804D904DB04DC22DD20DF010008020406100741084009820D900E290F4010181102120114101620CA
:4009400018101F1020082194221025012740284029402A242C082E0130083102321033403604374139083A113B403E2A450247015D806D206E406F207408760F83208580E2
:40098000861089508A108D9193409410964097209A209D409E10A102A404A510A720B310C0B6C2F9C42FCAAFCCDFCEEFD610E290E440E630E808EA21EC0230103108368886
:4009C0003B20CCF0CE1003020408070809200D10308052205C026310841085208C04931097209C10A508A688AF10C0E0C2C0CC10D420D680D840E010E640EA1012803E10F0
:400A00008E2091209720A508A6A8AB08B080B208B402B702C410CE20E82062028602912096109720A508A608D840E2400B800C020D015D80C20CD604898093809D80B00229
:400A4000B101E401EA04EE01AF4081018510871089048A408D088F02912096109720A508B608E040E480E6401102150476407B0295049A40A302A501AA10C430DC80DE20A0
:400A8000EA801108132015085B0866087B087F10830889048B108D04A002B402C40ED602D801DE03E004E603EC02104074028840A002AB20AE08AF08C408DE04E201003795
:400AC00008330A070C05102511011A251B011C0400FF010F03C000008280000043000000CEF1310031000000C30000C38000830000000000F0FB0B00C00000003008080020
:400B000008000000000000000000000000000000000000000000000000000000000000000000000000000000000000000000000000000000000000000000000000000000AD
:400B40000000000000000000000000000000000000000000000000000000000000000000000000000000000000000000000000000000000000000000000000000000000075
:400B80000000000000000000000000000000000000000000000000000000000000000000000000000000000000000000000000000000000000000000000000000000000035
:400BC00000000000000000000000000000000000000000000000000000000000000000000000000000000000000000000000000000000000000000000000000000000000F5
:400C000000000000000000000000000000000000000000000000000000000000000000000000000000000000000000000000000000000000000000000000000000000000B4
:0200000490006A
:0400000000004005B7
:0200000490105A
:04000000BC90ACAF55
:0200000490303A
:02000000795D28
:0200000490402A
:4000000000000000000000000000000000000000000000000000000000000000000000000000000000000000000000000000000000000000000000000000000000000000C0
:400040000000000000000000000000000000000000000000000000000000000000000000000000000000000000000000000000000000000000000000000000000000000080
:400080000000000000000000000000000000000000000000000000000000000000000000000000000000000000000000000000000000000000000000000000000000000040
:4000C0000000000000000000000000000000000000000000000000000000000000000000000000000000000000000000000000000000000000000000000000000000000000
:0200000490501A
:0C00000000012E16106900012E2789C691
:00000001FF