:400000000080002011000000650800006508000008B5044B1A6803F53F5302331A6000F029FC00BFFA46004010B5054C237833B9044B13B10448AFF300800123237010BD78
:400040004881FF1F0000000060100000084B10B51BB108490848AFF300800848036803B910BD074B002BFBD0BDE81040184700BF000000004C81FF1F60100000C880FF1F22
:400080000000000008B55021014800F053FA08BD6481FF1F08B54621014800F04BFA08BD6481FF1F012826D14FF6FF73994222D170B5114C201D00F095FA04F140063046C6
:4000C00000F0D4F80D4D2A460D49304600F074FF04F14406304600F04DF92A460949304600F06AFF204600F00DFA2A460649204600F062FF70BD70476481FF1FCC80FF1FAB
:4001000075020000910300000D05000030B58DB062B64D4800F074FE4C4800F099FE0BA800F01CFA4A4A4B4B009313464FF07C5102A800F011F900F0FDFC00242CB9702154
:40014000454800F0E5F9054600E000254DB9022C05D17021404800F0DBF900B9012515B902E0012400E00024022C09D13A4800F14401403000F0CAF86F2803D1012502E0E0
:40018000002500E000251DB100F0F6FE03240EE0032C08D1304800F14401403000F0B6F8632800D1012515B100F08CFE0224022C05D16621284800F0ABF9054600E00025C3
:4001C0004DB9042C05D16621234800F0A1F900B9012515B902E0042400E00224042CADD8DFE804F0030C161F280067210BA800F0D5F972210BA800F0D1F99FE772210BA819
:4002000000F0DEF94FF47A7000F00EFC022495E772210BA800F0C2F967210BA800F0A4F98CE772210BA800F0B9F967210BA800F0C7F983E772210BA800F0B0F967210BA8AB
:4002400000F0BEF97AE700BF85000000950000000AD7233C000048426481FF1F08B54FF6FF710120FFF71EFF08BD00BF00220270704700BF704700BF10B50C78A4F16203E3
:40028000102B37D8DFE803F0123036360936363636361B36362D363624000378012B2BD12146104600F008F900242CE00378012B24D12146104600F0FFF8002423E00378CE
:4002C000012B1DD12146104600F0F6F800241AE00378012B16D12146104600F0EDF8002411E0012303700EE000230370104600F067F808E0002406E0002404E0002402E036
:40030000002400E00024204610BD00BF2DE9F04700AF8046894600F04DFC012817D90546EA46C31D23F00703ADEB030D6E460024AC4205D200F00CFC30550134E4B2F7E7DD
:400340004A4631464046FFF797FFD54600E00020BD46BDE8F08700BF30B40025056145618561C5610562016042608360029BC36030BC704710B5044600230360436001223F
:400380000272C360036100F03FFB204610BD00BF704700BFC0687047C368642B02DD6423C3607047C160704708B5016088B200F0CFFA08BD08B5416088B200F0CFFA08BD13
:4003C00010B504460021FFF7EFFF00212046FFF7F1FF10BD10B50C460172084600F046FD84F0010000F04EFD10BD00BF38B5054631B9FFF7D9FF00212846FFF7DBFF09E030
:400400000C467D34A4002146FFF7CEFF21462846FFF7D0FF01212846FFF7DCFF38BD00BF38B5054631B9FFF7BFFF00212846FFF7C1FF09E00C467D34A4002146FFF7B4FF81
:4004400021462846FFF7B6FF00212846FFF7C2FF38BD00BF10B504467D318B004268D11A08D5C2EB4301FFF7A5FF00212046FFF79BFF01E0FFF79EFF01212046FFF7AAFF0B
:4004800010BD00BF10B504467D31890003685A1A002A08DAC3EB4101FFF786FF00212046FFF788FF03E04368591AFFF77DFF01212046FFF78FFF10BD38B505460C46FFF744
:4004C00069FF411C2846FFF767FF662C04D1E9682846FFF78BFF38BD622C04D1E9682846FFF79EFF38BD722C04D1E9682846FFF7B1FF38BD6C2C03D1E9682846FFF7C2FF79
:4005000038BD00BF0022027042707047704700BF502901D0702901D1037808E0462901D0662903D1037813B1437800E000231846704700BF502907D1037813B100230370E2
:400540007047012303707047462906D1437813B100234370704701234370704710B5044600F01AFC204610BD08B5672901D0472907D100F025FCFF280ED0FF2000F0BEFB0A
:4005800008BD722901D0522906D100F013FCFF2802D0FF2000F0ACFB08BD00BF08B5672901D0472903D1002000F0A8FB08BD722901D0522902D1002000F09AFB08BD00BFC9
:4005C00008B5672901D0472903D17A2000F096FB08BD722901D0522902D17A2000F088FB08BD00BF704700BFFEE700BFF0B40022174611E050F82760F3B226F0FF0608E0C9
:4006000001EB420511F812406D78A5550132013BDBB2002BF4D101371E2FEBD9F0BC7047064B1B78DBB203F00701054A11701B09013213704422034B1A707047CF01004991
:400640006E5800407658004008B50A46002100F0FEFC08BD38B500242E4B1C80582202331A70172202331A8018232B4A13701925023215800232137045F6BF510232118021
:40068000023213704FF6FF7102321180023213700222224B1A7008224FF040231A70032103F5007319701E4B1B78DBB21D490B701D4B1A8041F25122023B1A800CE01B4B8E
:4006C0001B7803F0010343EA440404F003044FF4F07000F061FC013D0DB1032CEFD115B90320FFF781FF124B4FF480721A8007221A7000220F490A704820023108701A704E
:400700000222033B1A700C4A137843F01F03137038BD00BF80400040864000400043004008010049A146004022420040254200400440004006400040A243004008B500F037
:400740007BFC08BD38B572B6354A137843F00403137000240CE0334D630019194A0011462A44084691882858FFF76EFF0134E4B2072CF0D900240BE02A49A3001819420084
:4007800088180622416B006BFFF7D8FF0134E4B2002CF1D024494FF09040FFF727FF234A137843F0020313701032137843F0020313701F4C237843F040032370A2F58632A4
:4007C000513A137843F010031370082219491A48FFF7B4FF0A2219491948FFF7AFFF082218491948FFF7AAFF082218491848FFF7A5FF184A137843F008031370164D61234B
:400800002B70FFF727FF81232B700122134B1A70FFF706FF0E2221461148FFF78FFF38BDE8460040641000007C00004803500140A0430040D008004802510040D80800481B
:40084000C0510040E408004812510040EC08004822510040224300400048004004000840B043004008B500F0BBFB03680C2B00D1FEE7FEE708B5104E104D16E029686B6843
:40088000AC68002204E051F8040B43F8040B0432A242F8D1E868002203E0002143F8041B04328242F9D11035013E002EE6D100F09DFBFFF72BFCFEE701000000C810000039
:4008C00008B5104A104B1A60104A136843F40073136000230AE0032B03D80D4A52F8231000E00C490C4A42F8231001332F2BF2D90A4B1A780A4B1A70074A0A4B1A60FFF703
:4009000021FF08BD0004FA050CED00E014ED00E000000000650800000080FF1FBC760040C080FF1F08ED00E0024A137843F080031370704778650040014B1880704700BF27
:40094000106A0040014B1880704700BF906A0040014B1880704700BF506A0040014B1880704700BF706A0040014B1870704700BF8C640040014B1878704700BF6C64004085
:40098000014B188880B27047B06A004008B501E0FFF7F6FFFFF7EEFF10F0100FF8D108BD08B5174A137803F0C00343F0090313702032137843F0010313700132137843F046
:4009C000010313704FF46170FFF7B6FF4FF46170FFF7B8FF0020FFF7BBFF0020FFF7BEFF0020FFF7C1FF00F0DFFA064A137843F01003137000F0DCFAFFF7C8FF08BD00BF03
:400A0000786500409C64004008B5054B1B7823B9FFF7C6FF0122024B1A70FFF785FF08BDBD81FF1F01BE704710B5044605E0084B186800F0B1FAA4F50044B4F5004FF6D812
:400A4000034B586800FB04F000F0A6FA10BD00BFD080FF1F70B504460E46074B1D681F2802D90020FFF7DEFF04F01F04103455F8240045F8246070BD08ED00E038B504467A
:400A80000D46072902D90020FFF7CCFF1F2C02D90020FFF7C7FF04F01F0000F1604000F564406D01EDB2057038BD00BF08B50D490320FFF7CFFF07210320FFF7DFFF002346
:400AC000094A13707221094A11702021FD3211700621A2F25F1211704721103211705032137008BD150C0000BE81FF1F8864004010B500F059FA04460B4A137843F02003F4
:400B00001370FD32137843F0100313700822074B1A60074A137843F01003137000F0C6F8204600F045FA10BD9864004000E100E09664004008B5054B5B7823B9FFF7B6FF66
:400B40000122024B5A70FFF7D3FF08BDBE81FF1F0822134B1A60134A9378DBB2D178C9B2127912F0FF0F01D18B4211D00E4AD05CC0B20133DBB20F2B00D90023094A937038
:400B8000137913F0FF0F06D00022064B1A7102E0064B1878C0B20822054B1A60704700BF80E100E0BE81FF1FC881FF1F4B65004000E100E00822144B1A60144B9A78D2B277
:400BC000DB78DBB29A4206D1104B1B7913F0FF0F15D0102014E00D4B9A78D2B2DB78DBB29A4205D2094AD3789078181AC0B207E0064AD3789078181A1030C0B200E0002020
:400C00000822034B1A60704780E100E0BE81FF1F00E100E01D4B1B78DBB213F01E0F05D01B4803F01E0201780A43027003F0200303F0FF0233B3174B1978C9B2164B1B781F
:400C4000DBB21648C154164B1B7813F0FF0F02D00121144B197010490B780133DBB20B700B78DBB20F2B02D900210B4B19700A4B1978C9B20C4B1B78DBB2994202D10121AE
:400C8000074B1970002AC5D1704700BF65650040BE81FF1F4B650040C181FF1FC881FF1FC281FF1FC381FF1FC081FF1F054A137843F0040313701032137843F004031370C2
:400CC000704700BFA2430040024A137843F08003137070477D640040014B1870704700BF0D640040014B1870704700BF4D640040014B1870704700BF2D640040014B18704C
:400D0000704700BF3D640040014B1870704700BF8D640040014B1878704700BF6D640040014B1878704700BF5D64004008B501E0FFF7F6FFFFF7EEFF10F0100FF8D108BD12
:400D400010B5134A137803F0C00343F009031370104C237843F001032370FF20FFF7BCFFFF20FFF7BFFF0020FFF7C2FF0020FFF7C5FF0020FFF7C8FF00F016F9237843F08F
:400D80001003237000F014F9FFF7D0FF10BD00BF7D6400409D64004008B5054B1B7823B9FFF7CEFF0122024B1A70FFF78DFF08BDC581FF1F014B1878704700BF2D640040D6
:400DC000014B1878704700BF3D640040014B1B689864704708ED00E04001C0B2014B1870704700BF02E400E00422014B1A60704700E100E00422014B1A60704780E100E05E
:400E000010B50446FFF7F6FF2046FFF7DFFF0720FFF7E2FFFFF7E8FF10BD00BF014B1B681864704708ED00E04001C0B2014B1870704700BF00E400E00122014B1A607047DF
:400E400000E100E00122014B1A60704780E100E010B50446FFF7F6FF2046FFF7DFFF0720FFF7E2FFFFF7E8FF10BD00BF044A137803F0DF03400100F02000184310707047A4
:400E800010510040044A137803F0EF03000100F0100018431070704710510040084A137843F0010313701032137843F00103137002F64D32137843F001031370704700BF4F
:400EC000A3430040084A137803F0FE031370A2F65D32137803F0FE0313701032137803F0FE031370704700BF004F0040014B1870704700BF034F0040014B1880704700BFD0
:400F0000044F0040014B1880704700BF064F004008B5164A137803F0010313700232137803F0FC031370124B1A7802F0CF021A701A7842F030021A701A7802F0F0021A701D
:400F40001A7842F00F021A700A4A137843F0010313704FF6FF70FFF7CFFF4FF6FF70FFF7D1FF0020FFF7C2FF08BD00BF004F00400B4F0040014F004008B5054B1B7823B9F7
:400F8000FFF7C6FF0122024B1A70FFF787FF08BDC681FF1F000000000230800803D000BF01380046FCD17047EFF3108072B6704780F31088704700BF0B460146184600F0CF
:400FC00001B8000010B5054C13462CB10A4601460220AFF3008010BD204610BD00000000014B1868704700BF4081FF1F0E4B70B51E460E4C0025E41AA410A54204D056F8D4
:40100000253098470135F8E700F04AF8084B094C1E46E41AA4100025A54204D056F8253098470135F8E770BDAC100000AC100000AC100000B810000010B5431E0A44914290
:4010400004D011F8014B03F8014FF8E710BD03460244934202D003F8011BFAE77047000000000000004F00400C00305100404000F051004010000000014000100014014098
:40108000000800400140000A004C0140000200500140200060520040C808004806004300F8B500BFF8BC08BC9E4670474D0000005D020000C1080000F8B500BFF8BC08BC32
:4010C0009E46704729000000D8100000C880FF1F800000009000000000000000000000000000E02EC05D00001800000000366E0100000000000000000000000000000000E6
:40110000000000000000000000000000000000009E100000000000000000000000000000000000000000000000000000000000000000000000000000000000000000000001
:4011400000000000000000000000000000000000E080FF1F0000000000000000000000000000000000000000000000000000000000000000000000000000000000000000F1
:40118000000000000000000000000000000000000000000000000000000000000000000000000000000000000000000000000000000000000000000000000000000000002F
:4011C00000000000000000000000000000000000000000000000000000000000000000000000000000000000000000000000000000000000000000000000000000000000EF
:4012000000000000000000000000000000000000000000000000000000000000000000000000000000000000000000000000000000000000000000000000000000000000AE
:40124000000000000000000000000000000000000000000000000000000000000000000000000000000000000000000000000000000000000000000000000000000000006E
:020000040003F7
:0200000480007A
:40000000024F00400452004005640040036500405006014041070140470801404C0901400D0B01404C0C0140300D01404A14014057150140181701405F1801404E19014076
:400040004E1A0140511B0140064001400A4101400B4201400D4301400745014004460140034701400948014006490140084C01400A4D01400C5001400251014001100A4B6F
:40008000088009C010101110860F874788728C0F8D0F853889788B0701100203040C067107080814110C1303170C19011B0E1E2020DC210122222306240926D028102A40DB
:4000C0002C102EAC2F03301F34E03510370F3A203B803F104005470449FF4A074BFF4C404D204EF04F0550085401580459045A045B045C225D225F01604061A8624063201A
:40010000860188018B018D088E029104960199069C08A106A404AF02B001B106B202B308B408B604B701B902BE51BF05D441D804D904DB04DC48DF31002401400521072069
:40014000080809080B020F0210201605170518021A441B081D111F012140220927092A012B822F8231103301351037253AA03D083E014E0155045604570358085A405B1076
:400180005CA05E015F086320782079027A04800182808520862087018B028D12C077C285C4F4CA99CCE5CECCD210D6FED802DE01E002E208E404E60AEA04001A011C0204C5
:4001C00003030418050409020A010D0F0E040F101113130C141E151F190C1A011C061D081E18201A220423132408250329012C10301C310F3402351C36013A0A3B023E5062
:400200004043410545EC470B481349FF4AFF4BFF4EF04F44500C56025712580459045A045B045C225D225F0166C06A406B02920197049902A504AF03B102B201B304B50147
:40024000D804D904DC90DF0105010606071008020C040D200E2215051601170118201C201D091EE92040221023102503262129082A402D202E022F50310432103404354000
:40028000360137103D253E48444046204C804D404F0857085E086C0A6D086F0474407540760977108280861487088A208D409440960197919B019D229E089F10A450A5012D
:4002C000A640A804B201B308C0F0C2E8C4B0CAEACCF6CEF0D0C0D210D640E040E208E4809004944097919B019D229E089F18A450A501A640AB04AC04EC06010703180508BD
:400300000601091F0D10130419181D1C1E021F012303251C26022702290432013402371F39203B803F105407580459045B045C235D905F018B048E019202930196049701F2
:4003400099049A01A702A902B002B201B301B404B502B704BF04C040C106C5D5C610C702C81BC9FFCAFFCBFFCDA0CF04D018D280D407D804D904DA04DB04DC33DD33DF01E3
:40038000E040E2C0E440E540E6C0E8C0EAC0ECC0EEC00302050409020B280F0216101B271C081F0822542404270129042B082D202E042F40320833223502364037103B20DE
:4003C0003CA03D023E08430249054A084B085218531059015AA85C405F1971028A048B01C021C28EC420CAE6CCB7CEF4D001D204D6FF0402060807010A3C0C200E02100264
:4004000012101602180120022204260133013401363E3E50400641024260440145BC46FD470E481F49FF4AFF4BFF4C224EF04F0C508C51105608580459045A245B045D08A7
:400440005F31684069016AC06B0180038102820488038A0C8C0A8E04930198039A049E059F04A101A608A901AD04B104B20FB503B920BA08BF01D418D604D804D904DB04CA
:40048000DC22DD20DF0100400108030804180502071108020A280E080F021080121017041A011B101C101F0420202204248027042D022E802F043680370138043F024120FC
:4004C0004201480849244A805024514059245B805C01600461886210640967807902800885098680874088898C428D408F809001922094849502970899029A809B019F14B7
:40050000A120A204A309A430A588A710AC80B020B5A0B608C0D7C2CEC42CCAB0CC90CE82D00CD204D68ED8BEDE01E002E201E402E608EE02800182048B848C408D408E1043
:400540009404954299029A809B019C809F14A208A309A430A508A604A790A940B205E040E205E61402010303050C060408020E01100211031401150C19051A041B081C017E
:400580001F0320042303250326042802290A2B042C042D03300132043303350C360238023E044020410649FF4AFF4BFF4DA04F0450185280580459045A045B045C225D9919
:4005C0005F01604062C06440654066C068C06AC06CC06EC0820187019A019B01A602B202B401B501C020C106C5D5C601C702C817C9FFCAFFCBFFCDAFCE0FCF04D018D420A2
:40060000D604D804D904DA04DB04DC99DD09DF01E040E2C0E440E540E6C0E8C0EAC0ECC0EEC0024005010612074409200C020D080E020F0811301304144015401628190854
:400640001B201C401D801F482110251027202C012D102F50312035203601374438103B243D093E0A4120452049044A084B054E08524C5B016004628063A0768083648510FC
:400680008841890890209141960897A199019A309B049C429D2E9E44A00AA10EA2A1A304A530B080C0F8C2F2C4F4CAF0CCF4CEC2D024D224D601D80FE082EC20EE800801F7
:4006C00009010A1618041A211C021E292407270228072F01300832073302343035013E103F105608580459045B045C425F01810182028401850189018A018E048F02930133
:400700009B029C01A201A401AA04B001B101B204B302B402BE05BF05C041C103C202C406C60CC70EC814C9FFCAFFCBFFCC62CDA0CEF0CF41D00CD602D72CD804D904DA0496
:40074000DB24DC09DD82DE08DF11E640E702E910EA30EB10ED10EE10EF12001004480684088009100E0110081108150416081701181019021B101D201E602004220427A0F7
:4007800028223620371138203E153F80458A47104F20560857405A40600266016C046D446E156F217D807F08838085408728888089208A118B208C048D408E04906094144D
:4007C000960898209A819C029D22A008A19EA220A520AF28B020B301B601B710C0F2C283C476CA0ACCA0CEF4D0F0D220D608D888DE30E2D0E410E6A0E810EC683040310298
:4008000036883A20CCF0CE100A100B020F405B049C409E20A502A688C270D64012805901921093429C409E209F04A502A688C410D64082108440921093429C409E209F0411
:40084000A502A608A901E080E610EA200A010C4058086410C203D602D80192019840A808AC1086019201984082208F0593429E209F04A608A902E220EA8086088740934056
:40088000A608E210E44062026708860298409B20B320D803EC041010772088109B20AF04B040C408DE04E204EA01001D01010A150C050D010E0C0F01101511011A051C15AE
:4008C0001D0100FF0103000080800000400000007080800080000000C00000C08000800000000000F0FB0B00C0000000C0F030003000000000000000000000000000000061
:4009000000000000000000000000000000000000000000000000000000000000000000000000000000000000000000000000000000000000000000000000000000000000B7
:400940000000000000000000000000000000000000000000000000000000000000000000000000000000000000000000000000000000000000000000000000000000000077
:400980000000000000000000000000000000000000000000000000000000000000000000000000000000000000000000000000000000000000000000000000000000000037
:4009C00000000000000000000000000000000000000000000000000000000000000000000000000000000000000000000000000000000000000000000000000000000000F7
:0200000490006A
:0400000000004005B7
:0200000490105A
:04000000BC90ACAF55
:0200000490303A
:02000000037487
:0200000490402A
:4000000000000000000000000000000000000000000000000000000000000000000000000000000000000000000000000000000000000000000000000000000000000000C0
:400040000000000000000000000000000000000000000000000000000000000000000000000000000000000000000000000000000000000000000000000000000000000080
:400080000000000000000000000000000000000000000000000000000000000000000000000000000000000000000000000000000000000000000000000000000000000040
:4000C0000000000000000000000000000000000000000000000000000000000000000000000000000000000000000000000000000000000000000000000000000000000000
:0200000490501A
:0C00000000012E16106900012E1F13DDF8
:00000001FF