:400000000080002011000000AD070000AD07000008B5044B1A6803F53F5302331A6000F0E5FB00BFFA46004010B5054C237833B9044B13B10448AFF300800123237010BD2F
:400040004881FF1F00000000E8140000084B10B51BB108490848AFF300800848036803B910BD074B002BFBD0BDE81040184700BF000000004C81FF1FE8140000C880FF1F0A
:400080000000000008B55021014800F0A5F908BD6481FF1F08B54621014800F09DF908BD6481FF1F38B5194C204600F00DF90546204600F0FBF8854226D1204600F0F6F874
:4000C000A0F10A01204600F0F3F8204600F0FEF8204600F0EBF8002810DD204600F0E6F87D30800080B200F0EFFB204600F0DEF87D30800080B200F0EDFB38BD002000F0B4
:40010000E3FB002000F0E6FB38BD00BF6881FF1F012818D138B54FF6FF73994212D10A4C204600F053F9094D2A460949204601F00FF90434204600F0A9F82A4605492046FF
:4001400001F006F938BD70476481FF1FCC80FF1FD5030000A902000010B596B062B600F061FC00F0EDFE01F093F8304800F0FEFF2F4801F023F82F4801F0CAF811A800F071
:400180009DF92D4A11A90DA800F066F80CA800F037F92A4A2A4B009313464FF07C5103A800F066F8274800F0E5FE0024632C08DC2146214800F0A6F8C82000F039FE01344C
:4001C000F4E700211C4800F09DF80024632C08DC2146194800F0B0F8C82000F029FE0134F4E70021144800F08DF80024632C08DC2146114800F0D2F8C82000F019FE0134ED
:40020000F4E700210C4800F07DF80024632C08DC2146094800F0AAF8C82000F009FE0134F4E70021044800F06DF8BEE78500000095000000A50000006881FF1F0AD7233CCC
:4002400000004842EC14000008B54FF6FF710120FFF75EFF08BD00BF10B5044600202070E0606260A16000F0DBFF204610BD00BF30B40025056145618561C5610562016023
:4002800042608360029BC36030BC704710B5044600230360436001220272C360036100F06DFB204610BD00BF704700BFC0687047642902DD6423C3607047002902DC00236A
:4002C000C3607047C160704700697047C3680361704700BF08B5016088B200F0F5FA08BD08B5416088B200F0F5FA08BD10B50C460172084600F0DAFF84F0010000F0E2FF08
:4003000010BD00BF38B5054631B9FFF7E3FF00212846FFF7E5FF09E00C467D34A4002146FFF7D8FF21462846FFF7DAFF01212846FFF7DCFF38BD00BF38B5054631B9FFF739
:40034000C9FF00212846FFF7CBFF09E00C467D34A4002146FFF7BEFF21462846FFF7C0FF00212846FFF7C2FF38BD00BF38B505467D318C002146FFF7ADFFC83C21462846E4
:40038000FFF7AEFF002C03DA00212846FFF7A8FF01212846FFF7AAFF38BD00BF38B505467D318C002146FFF79BFFC83C21462846FFF790FF002C03DA00212846FFF78AFFA4
:4003C00001212846FFF792FF38BD00BF0022027042707047704700BF502907D1037813B1002303707047012303707047462906D1437813B1002343707047012343707047B4
:4004000010B5044600F08AFE204610BD10B401604260836010BC7047F8B5084614461F46069D002100F07AFC204600F0D3FC0022531CDCB2BA4206D26E1C287800F0CAFCF9
:4004400022463546F4E700F0A9FCF8BD10B584B004AC04F8013D00940123FFF7DDFF04B010BD00BF08B500F0B3FF08BD10B5044600236B2268210068FFF7E8FF6D2319224B
:4004800068212068FFF7E2FF18231B2268212068FFF7DCFF20236A2268212068FFF7D6FF37231A4668212068FFF7D0FF06231A2268212068FFF7CAFF10BD00BF70B504468F
:4004C0000026466000258560C56005610120FFF7C9FF20601420FFF7C5FF0580458085808660C6600661A0601420FFF7BBFF0580458085808660C6600661E0600C20FFF784
:40050000B1FF0546231DA268E168FFF77FFF2561E3682B602046FFF7A9FF204670BD00BFFEE700BFF0B40022174611E050F82760F3B226F0FF0608E001EB420511F812404A
:400540006D78A5550132013BDBB2002BF4D10137202FEBD9F0BC7047064B1B78DBB203F00701054A11701B09013213704422034B1A707047CF0100496E58004076580040CA
:4005800008B50A46002100F036FF08BD38B500242E4B1C80582202331A70192502331D8018232B4A1370EF21023211800232137045F6BF5102321180023213704FF6FF7179
:4005C00002321180023213700222224B1A7008224FF040231A70032103F5007319701E4B1B78DBB21D490B701D4B1A8041F25122023B1A800CE01B4B1B7803F0010343EA04
:40060000440404F003044FF4F07000F091FE013D0DB1032CEFD115B90320FFF781FF124B4FF480721A8007221A7000220F490A704820023108701A700222033B1A700C4A51
:40064000137843F01F03137038BD00BF80400040864000400043004008010049A146004022420040254200400440004006400040A243004008B500F0B3FE08BD38B572B6AF
:40068000374A137843F00403137000240CE0354D630019194A0011462A44084691882858FFF76EFF0134E4B2082CF0D900240BE02C49A3001819420088180622C16B806BB0
:4006C000FFF7D8FF0134E4B2002CF1D026494FF09040FFF727FF254A254B1A60254A137843F0020313701032137843F002031370214C237843F040032370A2F58632513A5A
:40070000137843F01003137008221C491C48FFF7B1FF0A221B491C48FFF7ACFF08221B491B48FFF7A7FF08221A491B48FFF7A2FF1A4A137843F008031370194D61232B70EE
:40074000FFF724FF81232B700122164B1A70FFF703FF0E2221461448FFF78CFF38BD00BFE84600400C1500008400004804000464D818014003500140A0430040EC07004809
:4007800002510040F4070048C051004000080048125100400808004822510040224300400048004004000840B043004008B500F0E3FD03680C2B00D1FEE7FEE708B5094B8D
:4007C0001A681044084BC31A802B02DC054B186005E000F0D1FD0C2303604FF0FF32104608BD00BFD080FF1FC081FF1F08B5104E104D16E029686B68AC68002204E051F821
:40080000040B43F8040B0432A242F8D1E868002203E0002143F8041B04328242F9D11035013E002EE6D100F0ADFDFFF795FCFEE7010000007815000008B5104A104B1A60FF
:40084000104A136843F40073136000230AE0032B03D80D4A52F8231000E00C490C4A42F8231001332F2BF2D90A4B1A780A4B1A70074A0A4B1A60FFF701FF08BD0004FA05A7
:400880000CED00E014ED00E000000000AD0700000080FF1FBC760040C080FF1F08ED00E0024A137843F08003137070477A640040014B1880704700BF12680040014B1880AA
:4008C000704700BF92680040014B1880704700BF52680040014B1880704700BF72680040014B1870704700BF8A640040014B1878704700BF6A640040014B188880B27047D3
:40090000B268004008B501E0FFF7F6FFFFF7EEFF10F0100FF8D108BD10B5164A137803F0C00343F0090313701F32137843F001031370114C237843F0010323704FF46170B0
:40094000FFF7B6FF4FF46170FFF7B8FF0020FFF7BBFF0020FFF7BEFF0020FFF7C1FF00F0EFFC237843F01003237000F0EDFCFFF7C9FF10BD7A6400409A64004008B5054B76
:400980001B7823B9FFF7C8FF0122024B1A70FFF787FF08BD7D81FF1F38B50222114B1A7081220E3B1A70082202331A700F2511331D70002401331C704FF400420A4B1A6021
:4009C0000721284600F05EFA0849284600F046FA1022074B1A70074B1C70074B1C70074B1C7038BDD649004080E100E04D0A00009081FF1F9681FF1F9881FF1F9481FF1FC8
:400A000008B500F09DFC064A137843F0040313701032137843F00403137000F095FC08BDA543004008B5074B1B7823B9FFF7B4FF0122044B1A70FFF7E3FF4FF40042024B13
:400A40001A6008BD7E81FF1F00E100E038B5A54B1C78A54B1B7813F0400F00F03A81E4B214F0010F00F01D819F4B1B78453B052B00F21481DFE813F0060082001201120104
:400A80000600DF0004F0DF0504F00A04082C42D1954B1B78DBB2452B35D1944B1B7813F0FF0F10D0924B1B681B78DBB2914A137004228C4B1A7001228F4B1A7046228A4B2E
:400AC0001A702C46EDE08D4B1B7813F0020F0DD08B4A137843F00A0313706022824B1A704FF40042874B1A602C46DAE0864A137843F0100313701022844B1A700422023BC6
:400B00001A702C46CDE00022764B1A704A22764B1A702C46C5E00A2C2BD1794A137843F0A0031370754B1B7813F0020F14D06E4B1B7813F0080F01D0092300E00A23704A83
:400B400011780B4313706022674B1A704FF400426C4B1A602C46A4E06B4A137843F0100313701022694B1A700422023B1A702C4697E0002000F05AF92C4692E014F0020F06
:400B800036D15D4B1A78D2B2584B1B78DBB29A4210D2594A1378DBB255490968CB5CDBB254490B7004214F4B197013780133DBB2137076E0514B1B7813F0020F0CD0504A33
:400BC000137843F00A0313706022474B1A704FF400424C4B1A6064E04B4A137843F0100313701022494B1A700422023B1A7058E0424B1B7813F0020F0CD0414A137843F078
:400C00009A0313706022384B1A704FF400423D4B1A6046E03C4A137843F01003137010223A4B1A700422023B1A70354A137843F09003137035E0364A1378DBB23549086862
:400C40002C490978C9B2C15413780133DBB213701278D2B2304B1B78DBB29A4203D21022204B1A701DE0254B1B7813F0020F0CD0234A137843F00903137060221A4B1A7083
:400C80004FF400421F4B1A600BE01F4A137843F0100313700022134B1A7002E0002000F0C5F814F0200F1CD00F4B1B7813F0080F01D0012300E00223114A11780B43137095
:400CC000114A137803F0EF0313701022064B1A7038BD054B1B7813F0100F02D11022024B1A7038BDD74900409081FF1F9781FF1F9C81FF1FD84900409481FF1F9581FF1F06
:400D00009681FF1F80E100E0D6490040D94900409881FF1FA081FF1FA481FF1F1A4B1B78DBB2102B29D1194B1B7813F0080F26D14FF40042164B1A604000C0B229B140F0E5
:400D400001004922104B1A7002E045220E4B1A70104B1870012201331A700F4B1B7813F0010FFAD00C4B1B7803F00A030A2B08D11022054B1A700320704702207047012090
:400D800070470020704700BF9081FF1FD949004080E100E0D8490040D74900400A4B1B7813F0040F0ED01023074A13700421023A1170064A1370064B1B7813F0210FFAD0DA
:400DC0000020704702207047D94900409081FF1FD7490040114B1B7813F0040F1BD0104B18700422013B1A7046220E4B1A700E4B1B7813F0010FFAD00B4B1B7813F0020F82
:400E000004D16022074B1A70002070476022054B1A70032070470220704700BFD9490040D84900409081FF1FD749004001BE704710B5044605E0084B186800F079FAA4F54F
:400E40000044B4F5004FF6D8034B586800FB04F000F06EFA10BD00BFD480FF1F70B504460E46074B1D681F2802D90020FFF7DEFF04F01F04103455F8240045F8246070BDAC
:400E800008ED00E038B504460D46072902D90020FFF7CCFF1F2C02D90020FFF7C7FF04F01F0000F1604000F564406D01EDB2057038BD00BF08B50D490320FFF7CFFF072150
:400EC0000320FFF7DFFF0023094A13707221094A11702021A2F58172117006219F3211704721103211705232137008BD990F00007F81FF1F8B65004010B500F021FA0446CF
:400F00000C4A137843F020031370A2F58172137843F0100313700822074B1A60074A137843F01003137000F083F8204600F00CFA10BD00BF9B65004000E100E09A650040EB
:400F400008B5054B5B7823B9FFF7B4FF0122024B5A70FFF7D1FF08BD7F81FF1F034B1B7813F0040FFAD1024B187070476A6500404965004038B5074B5B782BB938BDFFF7FD
:400F8000EDFF0134A4B201E005460024285D0028F5D138BD7F81FF1F1D4B1B78DBB213F01E0F05D01B4803F01E0201780A43027003F0200303F0FF0233B3174B1978C9B24B
:400FC000164B1B78DBB21648C154164B1B7813F0FF0F02D00121144B197010490B780133DBB20B700B78DBB20F2B02D900210B4B19700A4B1978C9B20C4B1B78DBB299422C
:4010000002D10121074B1970002AC5D1704700BF696400407F81FF1F486400408281FF1FA881FF1F8381FF1F8481FF1F8181FF1F054A137843F0020313701032137843F031
:4010400002031370704700BFA2430040024A137843F080031370704772640040014B1870704700BF02640040014B1870704700BF42640040014B1870704700BF2264004040
:40108000014B1870704700BF32640040014B1870704700BF82640040014B1878704700BF62640040014B1878704700BF5264004008B501E0FFF7F6FFFFF7EEFF10F0100F75
:4010C000F8D108BD10B5134A137803F0C00343F009031370104C237843F001032370FF20FFF7BCFFFF20FFF7BFFF0020FFF7C2FF0020FFF7C5FF0020FFF7C8FF00F020F942
:40110000237843F01003237000F01EF9FFF7D0FF10BD00BF726400409264004008B5054B1B7823B9FFF7CEFF0122024B1A70FFF78DFF08BD8681FF1F014B1B689864704770
:4011400008ED00E04001C0B2014B1870704700BF02E400E00422014B1A60704700E100E00422014B1A60704780E100E010B50446FFF7F6FF2046FFF7DFFF0720FFF7E2FF5D
:40118000FFF7E8FF10BD00BF014B1B681864704708ED00E04001C0B2014B1870704700BF00E400E00122014B1A60704700E100E00122014B1A60704780E100E010B50446DD
:4011C000FFF7F6FF2046FFF7DFFF0720FFF7E2FFFFF7E8FF10BD00BF08B500F0B1F8094A137843F020031370A2F58372137843F0100313700832137843F01003137000F0F8
:40120000A3F808BD99650040014B1878704700BF63640040014B1878704700BF6B640040014B1870704700BF0364004008B501E00A4B1B780A4B1B7813F0080FF8D100F024
:401240007FF8084B1A7842F003021A701A7802F0FC021A7000F078F808BD00BF536400406B6400409364004008B50722064B1A70FFF7DCFFFFF7C8FFFFF7CCFF0023034AA4
:4012800013700832137008BD896500408364004008B5054B1B7823B9FFF7E6FF0122024B1A70FFF799FF08BD8781FF1F044A137803F0DF03400100F0200018431070704779
:4012C00010510040044A137803F0EF03000100F0100018431070704710510040014B1B685864704708ED00E04001C0B2014B1870704700BF01E400E00222014B1A607047E1
:4013000000E100E00222014B1A60704780E100E010B50446FFF7F6FF2046FFF7DFFF0720FFF7E2FFFFF7E8FF10BD00BF000000000230800803D000BF01380046FCD1704720
:40134000EFF3108072B6704780F31088704700BF0B460146184600F001B8000010B5054C13462CB10A4601460220AFF3008010BD204610BD00000000014B1868704700BF93
:401380004481FF1F0E4B70B51E460E4C0025E41AA410A54204D056F8253098470135F8E700F0D6F8084B094C1E46E41AA4100025A54204D056F8253098470135F8E770BDC5
:4013C0005C1500005C1500005C15000068150000024B0146186800F017B800BF4481FF1F10B5431E0A44914204D011F8014B03F8014FF8E710BD03460244934202D003F810
:40140000011BFAE77047000070B5CD1C25F0030508350C2D38BF0C25002D064601DBA94202D90C23336046E000F05CF8234B1C681A462146A1B10B685B1B0ED40B2B03D900
:401440000B60CC18CD501EE08C420BBF63684B681360636018BF0C4615E00C464968E9E7174C23681BB9304600F02CF820602946304600F027F8431C18D0C41C24F00304C3
:40148000A0420DD12560304600F02DF804F10B00231D20F00700C31A0ED05A42E25070BD211A304600F00EF80130EBD10C233360304600F018F8002070BD00BF8C81FF1F4C
:4014C0008881FF1F38B5064C0023054608462360FFF774F9431C02D1236803B12B6038BDB881FF1F70477047000000005361792048656C6C6F20546F206D79204C49747467
:401500006C6520465249454E44210000C84900401900004F00400C00305100404000F0510040100000000140001000140140000800400140000A004C0140000200500140F1
:401540002000000060520040E407004806004300F8B500BFF8BC08BC9E4670474D0000004902000039080000F8B500BFF8BC08BC9E4670472900000088150000C880FF1FDA
:4015800080000000780000000000000000000000C081FF1F0000E02EC05D00001800000000366E0100000000000000000000000000000000000000000000000000000000EC
:4015C000000000004E150000000000000000000000000000000000000000000000000000000000000000000000000000000000000000000000000000000000000000000088
:4016000000000000E480FF1F000000000000000000000000000000000000000000000000000000000000000000000000000000000000000000000000000000000000000028
:40164000000000000000000000000000000000000000000000000000000000000000000000000000000000000000000000000000000000000000000000000000000000006A
:40168000000000000000000000000000000000000000000000000000000000000000000000000000000000000000000000000000000000000000000000000000000000002A
:4016C00000000000000000000000000000000000000000000000000000000000000000000000000000000000000000000000000000000000000000000000000000000000EA
:4017000000000000000000000000000000000000000000000000000000000000000000000000000000000000000000000000000000000000000000000000000000000000A9
:020000040003F7
:0200000480007A
:40000000024F0040045200400564004003650040570201403603014004040140150501400C0701405E0801404C0901404A0A0140410B0140030D01400615014004170140D4
:400040005F1801404E190140411A01404E1B0140044001400D4101400F4201400543014006450140084601400647014003480140104901400E4C01400F4D0140075001400C
:400080000251014001200A4B0010011008801108820F834789388A0F8B7889078A0F8B72060D11021201150816042202270C2A082F033008310832023302340435043601E9
:4000C00037013E104030410645D046204751483A49FF4AFF4BFF4DA04F04501852805407580459045A045B045C335D335F01604062C06440654066C068C06AC06CC06EC0AC
:40010000820383018604900494019E01B001B202B404B501BE11C002C103C220C401C5BCC6EDC7F0C82FC9FFCAFFCBFFCC22CEF0CF0CD08CD110D441D804D904DA24DB04E9
:40014000DC40DD08DF11E840E901EAC0EB01010A0504084009010A100C020F2016881A541D0C1E881F8020082440272A2C022E08370A3B02402A450848A04F21528253209A
:4001800054025608571059105A485C405E085F21631076807A088404860488408A048B108F01C02CC23DC450CA50CCC0CE01D04ED220D6FED802DE04E04239083F04590402
:4001C0005F0123108202850287109C4A9D0AA0A0A282A501A910AA10AB20AE08B240B380B420E001E608E801EAA8EC08810888408E809C4A9D08A020A280A901B080E2017F
:40020000E604EE0100030403051F0A081101120313061403150A1711180419141B091E0822042404251F2A042E0130013107320234083518360438803E15405341064204FA
:40024000440246C0470E481849FF4AFF4BFF4C624DA04EF04F41500C5608580459045A045B045C115D015F016640670269106A306B106D106E106F128002830188019102A3
:40028000B102B202B401B501BE14BF01C040C102C9FFCAFFCBFFCDA0CF04D018D418D604D804D904DA04DB04DC40DD19DF01E040E2C0E440E540E6C0E8C0EAC0ECC0EEC009
:4002C000010202080304060407600A080B040C0A0E010F041444154419141C041E61210122102480262127082F2033023508362138083A0A3E0840404110452A4E044F4032
:40030000560457105B015E646004628264206680670A82028301882089018D4090409120942897089A029B049C909D109E80A108A280A308A502A710AB40B108B201C07A41
:40034000C2F0C4F0CA40CCE1CE41D0E5D230D671D87DE040E280EC8009020A080D080E0E1201170C1B0326022A04300131043204330134023508360837023E10404041024D
:4003800045D146204705481B49FF4AFF4BFF4DAF4E0F4F04501852805407580459045A045B045C995D995F01604062C06440654066C068C06AC06CC06EC0840488048902B9
:4003C000920296029E01A004A401A808AB02AF01B002B101B204B401B502B608BE51BF10D420D804D904DB04DC01DF01006004280A400D020E010F201028148017241840EF
:4004000019081A081B801D481E801F2820102250234027482E802F043008322036C038103B403D2040404110481049014A205028511059015AA85F016410654066107240EC
:4004400083A187048B209A129B049D109F08A110A910AE02B510B704C063C2B8C476CA30CC06CE2CD005D68FD870E404EA4886108B08E6808C029C02E008E401E610EA0543
:400480009C02AC28E802EE0C000901710210030E0640070809710A400B060E200F0C12031410160C1810192C1B431C0C1E11241C2602281429802B13301F33303460350F43
:4004C00037C039883B203E103F044002450449FF4A074BFF4C404D204EF04F0550085608580459045A045B045C115D015F01604061A8624063208013826486408C038E14CA
:4005000098139A2CA44AA634AA35AE48B068B40FB610BA22BE40C023C105C5E0C6B0C7C0C82AC9FFCAFFCBFFCEF0CF44D00CD602D724D804DA04DB24DC01DD81DE08DF2140
:40054000E6C0EA40EB0200020104020104C2050807080A040E400F2A11A012201520170419801A041B111D201E401F0224022540262027142E2036203C023D803F2A4224F1
:400580004710480149034D044F08511052015301551056205D4061106402682A6B6079087A089080914994289608974099149B089CD49D0A9F61A208A308A40AA522A722DB
:4005C000AA10AD04AE14B105B340C0FDC2F2C467CA20CC20CEF0D026D208D610D814DE06EA08000102020A1E22212401260428012A082C102E01301F32203E015401580467
:400600005B045C085D105F21800481088280841885048808891C8B638C108D63917F943C9542964299739A049B0C9C3C9E41A067A10FA218A370A47FA521AA43AB73AD0C5F
:40064000B020B11CB21FB30FB480B658B760BA88BB28BE01D602D710D804D904DB04DC11DD10DF0100100340040206190C440D800E14102A110115101680170418101A80A1
:400680001D801E54250227252C412D182F0832043304360237283A803B403C403E1A59955E406C146D806F20761B79087C807D808110820283058401861089088A808B2031
:4006C0008C018D088E4090409109930294289608974099859B489CC49D089F01A02AA308A502A720AC12C0FAC2E0C47FCAF0CCE0CEF0D61FDE02E008E210E401E610EA0557
:40070000338836803704CCF00B080F086302641087088F049F04A680A788C2C0D640D880E64012803E105B0887089F04A680A780AF04B010B301C410CE20D640E210EC106F
:40074000830496109F04A780E28009100B800F105940C20ED4018301894093909D40AF10B510E001EE088B409392A301B301E004E8019610AB80EE201220164074087B0202
:40078000822086408C08A302AA10AB02C430DC80DE20E010E480EAA013281704630267027B107F409342A301AF10B340C40ED603DE03EE01104073408310874088408F0439
:4007C000934097809B04A710AB28C408DC01E201E608001B010108190C130D0110031C0300FF03C00280000043000000C0F0300030000000C30000C08300830000000000AF
:40080000F0FB0B00C000000070080800080000000000000000000000000000000000000000000000000000000000000000000000000000000000000000000000000000007A
:400840000000000000000000000000000000000000000000000000000000000000000000000000000000000000000000000000000000000000000000000000000000000078
:400880000000000000000000000000000000000000000000000000000000000000000000000000000000000000000000000000000000000000000000000000000000000038
:4008C00000000000000000000000000000000000000000000000000000000000000000000000000000000000000000000000000000000000000000000000000000000000F8
:4009000000000000000000000000000000000000000000000000000000000000000000000000000000000000000000000000000000000000000000000000000000000000B7
:0200000490006A
:0400000000004005B7
:0200000490105A
:04000000BC90ACAF55
:0200000490303A
:0200000083C2B9
:0200000490402A
:4000000000000000000000000000000000000000000000000000000000000000000000000000000000000000000000000000000000000000000000000000000000000000C0
:400040000000000000000000000000000000000000000000000000000000000000000000000000000000000000000000000000000000000000000000000000000000000080
:400080000000000000000000000000000000000000000000000000000000000000000000000000000000000000000000000000000000000000000000000000000000000040
:4000C0000000000000000000000000000000000000000000000000000000000000000000000000000000000000000000000000000000000000000000000000000000000000
:0200000490501A
:0C00000000012E16106900012E20942B28
:00000001FF