:400000000080002011000000890800008908000008B5044B1A6803F53F5302331A6000F03BFC00BFFA46004010B5054C237833B9044B13B10448AFF300800123237010BD1E
:400040004881FF1F00000000B80F0000084B10B51BB108490848AFF300800848036803B910BD074B002BFBD0BDE81040184700BF000000004C81FF1FB80F0000C880FF1F74
:400080000000000008B55021014800F04BFA08BD6481FF1F08B54621014800F043FA08BD6481FF1F012826D14FF6FF73994222D170B5114C201D00F08DFA04F140063046DE
:4000C00000F0E2F80D4D2A460D49304600F020FF04F14406304600F0A1F92A460949304600F016FF204600F005FA2A460649204600F00EFF70BD70476481FF1FCC80FF1F4D
:400100009102000035040000FD04000030B58FB062B6524800F0B4FE514800F0D9FE0DA800F014FA4F4A504B009313464FF07C5104A800F065F900F007FD00242CB97021B3
:400140004A4800F0DDF9054600E000254DB9022C05D17021454800F0D3F900B9012515B902E0012400E00024022C09D13F4800F14401403000F01EF96F2803D1012502E08C
:40018000002500E0002565B9032C08D1374800F14401403000F00EF9632800D1012515B902E0032400E00224022C05D166212F4800F0A6F9054600E000254DB9042C05D187
:4001C00066212A4800F09CF900B9012515B902E0042400E00224042CB0D8DFE804F0030C161F280067210DA800F0D0F972210DA800F0CCF9A2E772210DA800F0D9F94FF41C
:400200007A7000F01BFC022498E772210DA800F0BDF967210DA800F09FF98FE772210DA800F0B4F967210DA800F0C2F986E772210DA800F0ABF967210DA800F0B9F90C4BB3
:4002400093E803000290ADF80C10090C8DF80E10072202A9074800F01DF86FE785000000950000000AD7233C000048426481FF1FBC0F0000A481FF1F08B54FF6FF710120EF
:40028000FFF710FF08BD00BF00220270704700BF704700BF70B50E4615460024AC4205D8305D00F0C1FC0134E4B2F7E770BD00BF70B50D4616460C78A4F16203102B63D8DB
:4002C000DFE803F01A5C626209626262626229626259626241000378012B57D14978304600F0C2F82F4800F0ABFC687861284FD100F09AFC002452E00378012B4AD1497826
:40030000304600F0BFF8284800F09AFC687800F08BFC002443E00378012B3DD16C224978304600F0BDF84FF4FA7000F087FB0021304600F099F81D4800F082FC687800F013
:4003400073FC00242BE00378012B27D172224978304600F0A5F84FF4FA7000F06FFB0021304600F081F8124800F06AFC687800F05BFC002413E00123037010E000210170DA
:40038000304600F071F80AE0002408E0002406E0002404E0002402E0002400E00024204670BD00BFC40F0000D80F0000E80F0000F40F00002DE9F04700AF8046894600F0B1
:4003C00003FC012817D90546EA46C31D23F00703ADEB030D6E460024AC4205D200F0C2FB30550134E4B2F7E74A4631464046FFF75FFFD54600E00020BD46BDE8F08700BF73
:4004000030B40025056145618561C5610562016042608360029BC36030BC704710B504460023036043600123037200F0F7FA204610BD00BF704700BF08B50160C8B200F049
:4004400099FA08BD08B54160C8B200F099FA08BD10B50C460172084600F05EFC84F0010000F066FC10BD00BF38B504460D46FFF7E3FF29462046FFF7E5FF01212046FFF700
:40048000E7FF38BD38B504460D46FFF7D5FF29462046FFF7D7FF00212046FFF7D9FF38BD38B504460D466C2A10D14368C1F164018B4201DDFFF7C0FF616829442046FFF76D
:4004C000C1FF01212046FFF7C3FF38BD722A0FD10368C1F164018B4201DDFFF7B3FF216829442046FFF7A8FF01212046FFF7B0FF38BD00BF0022027042707047704700BF69
:40050000502901D0702901D1037808E0462901D0662903D1037813B1437800E000231846704700BF502907D1037813B1002303707047012303707047462906D1437813B13F
:4005400000234370704701234370704710B5044600F062FC204610BD08B5672901D0472907D100F06DFCFF280ED0FF2000F006FC08BD722901D0522906D100F05BFCFF280A
:4005800002D0FF2000F0F4FB08BD00BF08B5672901D0472903D1002000F0F0FB08BD722901D0522902D1002000F0E2FB08BD00BF08B5672901D0472903D17A2000F0DEFBD5
:4005C00008BD722901D0522902D17A2000F0D0FB08BD00BF704700BFFEE700BFF0B40022174611E050F82760F3B226F0FF0608E001EB420511F812406D78A5550132013B22
:40060000DBB2002BF4D101371D2FEBD9F0BC7047064B1B78DBB203F00701054A11701B09013213704422034B1A707047CF0100496E5800407658004008B50A46002100F03C
:40064000B2FC08BD38B500242E4B1C80582202331A700B2202331A8018232B4A13703321023211800232137045F6BF5102321180023213704FF6FF710232118002321370B1
:400680000222224B1A7008224FF040231A70032103F5007319701E4B1B78DBB21D490B701D4B1A8041F25122023B1A8019250CE01A4B1B7803F0010343EA440404F003043F
:4006C0004FF4F07000F014FC013D0DB1032CEFD115B90320FFF780FF114B4FF480721A8007221A7000220F490A704820023108701A700222033B1A700B4A137843F01F0376
:40070000137038BD80400040864000400043004008010049A146004022420040254200400440004006400040A243004008B500F02FFC08BD38B572B63C4A137843F00403C8
:40074000137000240CE03A4D630019194A0011462A44084691882858FFF76EFF0134E4B2052CF0D900240BE03149A3001819420088180622816A406AFFF7D8FF0134E4B218
:40078000002CF1D02B494FF09040FFF727FF2A4A2A4B1A602A4A137843F0020313701032137843F002031370264C237843F040032370A2F58632513A137843F010031370C4
:4007C000082221492148FFF7B1FF0A2220492148FFF7ACFF082220492048FFF7A7FF08221F492048FFF7A2FF08221F491F48FFF79DFF08221E491F48FFF798FF1E4A13788C
:4008000043F0080313701D4D61232B70FFF71AFF81232B7001221A4B1A70FFF7F9FE0E2221461848FFF782FF38BD00BFE84600400010000078000048040424645818014080
:4008400003500140A04300400C0700480251004014070048C051004020070048F251004028070048125100403007004822510040380700483251004022430040004800406A
:4008800004000840B043004008B500F055FB03680C2B00D1FEE7FEE708B5104E104D16E029686B68AC68002204E051F8040B43F8040B0432A242F8D1E868002203E0002198
:4008C00043F8041B04328242F9D11035013E002EE6D100F037FBFFF719FCFEE7010000005810000008B5104A104B1A60104A136843F40073136000230AE0032B03D80D4AAB
:4009000052F8231000E00C490C4A42F8231001332F2BF2D90A4B1A780A4B1A70074A0A4B1A60FFF707FF08BD0004FA050CED00E014ED00E000000000890800000080FF1F56
:40094000BC760040C080FF1F08ED00E0024A137843F080031370704778640040014B1870704700BF08640040014B1870704700BF48640040014B1870704700BF28640040AD
:40098000014B1870704700BF38640040014B1870704700BF88640040014B1878704700BF68640040014B1878704700BF5864004008B501E0FFF7F6FFFFF7EEFF10F0100F64
:4009C000F8D108BD10B5134A137803F0C00343F009031370104C237843F0010323706420FFF7BCFF6420FFF7BFFF0020FFF7C2FF0020FFF7C5FF0020FFF7C8FF00F080FA1E
:400A0000237843F01003237000F07EFAFFF7D0FF10BD00BF786400409864004008B5054B1B7823B9FFF7CEFF0122024B1A70FFF78DFF08BDB581FF1F01BE704710B50446D8
:400A400005E0084B186800F053FAA4F50044B4F5004FF6D8034B586800FB04F000F048FA10BD00BFD080FF1F70B504460E46074B1D681F2802D90020FFF7DEFF04F01F04EF
:400A8000103455F8240045F8246070BD08ED00E038B504460D46072902D90020FFF7CCFF1F2C02D90020FFF7C7FF04F01F0000F1604000F564406D01EDB2057038BD00BFD3
:400AC00008B50D490220FFF7CFFF07210220FFF7DFFF0023094A13707221094A11702021023A117006215F3A11704721103211704E32137008BD00BF650C0000B681FF1FC8
:400B00008D64004010B500F0FBF904460B4A137843F020031370023A137843F0100313700422074B1A60074A137843F01003137000F0E4F8204600F0E7F910BD9D640040A1
:400B400000E100E09A64004008B5054B5B7823B9FFF7B6FF0122024B5A70FFF7D3FF08BDB681FF1F0422134B1A60134A9378DBB2D178C9B2127912F0FF0F01D18B4211D021
:400B80000E4AD05CC0B20133DBB20F2B00D90023094A9370137913F0FF0F06D00022064B1A7102E0064B1878C0B20422054B1A60704700BF80E100E0B681FF1FC081FF1FF1
:400BC0004A65004000E100E00422144B1A60144B9A78D2B2DB78DBB29A4206D1104B1B7913F0FF0F15D0102014E00D4B9A78D2B2DB78DBB29A4205D2094AD3789078181A5C
:400C0000C0B207E0064AD3789078181A1030C0B200E000200422034B1A60704780E100E0B681FF1F00E100E0034B1B7813F0040FFAD1024B187070476A6400404A6400408E
:400C400038B5074B5B782BB938BDFFF7EDFF0134A4B201E005460024285D0028F5D138BDB681FF1F1D4B1B78DBB213F01E0F05D01B4803F01E0201780A43027003F02003BE
:400C800003F0FF0233B3174B1978C9B2164B1B78DBB21648C154164B1B7813F0FF0F02D00121144B197010490B780133DBB20B700B78DBB20F2B02D900210B4B19700A4B85
:400CC0001978C9B20C4B1B78DBB2994202D10121074B1970002AC5D1704700BF6B640040B681FF1F4A650040B981FF1FC081FF1FBA81FF1FBB81FF1FB881FF1F054A1378A2
:400D000043F0040313701032137843F004031370704700BFA2430040044A137803F0DF03400100F0200018431070704710510040044A137803F0EF03000100F01000184385
:400D40001070704710510040024A137843F080031370704779640040014B1870704700BF0D640040014B1870704700BF4D640040014B1870704700BF2D640040014B187092
:400D8000704700BF3D640040014B1870704700BF89640040014B1878704700BF69640040014B1878704700BF5D64004008B501E0FFF7F6FFFFF7EEFF10F0100FF8D108BD9A
:400DC00008B5134A137803F0C00343F0090313702432137843F001031370FF20FFF7BCFFFF20FFF7BFFF0020FFF7C2FF0020FFF7C5FF0020FFF7C8FF00F082F8054A1378C6
:400E000043F01003137000F07FF8FFF7CFFF08BD796400409964004008B5054B1B7823B9FFF7CEFF0122024B1A70FFF78DFF08BDBD81FF1F014B1878704700BF2D640040A0
:400E4000014B1878704700BF3D640040014B1B685864704708ED00E04001C0B2014B1870704700BF01E400E00222014B1A60704700E100E00222014B1A60704780E100E022
:400E800010B50446FFF7F6FF2046FFF7DFFF0720FFF7E2FFFFF7E8FF10BD00BF014B1B681864704708ED00E04001C0B2014B1870704700BF00E400E00122014B1A6070475F
:400EC00000E100E00122014B1A60704780E100E010B50446FFF7F6FF2046FFF7DFFF0720FFF7E2FFFFF7E8FF10BD00BF000000000230800803D000BF01380046FCD1704766
:400F0000EFF3108072B6704780F31088704700BF0B460146184600F001B8000010B5054C13462CB10A4601460220AFF3008010BD204610BD00000000014B1868704700BFD7
:400F40004081FF1F0E4B70B51E460E4C0025E41AA410A54204D056F8253098470135F8E700F066F8084B094C1E46E41AA4100025A54204D056F8253098470135F8E770BD7D
:400F80003C1000003C1000003C1000004810000010B5431E0A44914204D011F8014B03F8014FF8E710BD03460244934202D003F8011BFAE7704700000000000057616C6C19
:400FC0006168000020476F696E6720666F7277617264202020200000476F696E67206261636B776172640000476F696E67206C6566740000476F696E67207269676874003B
:4010000040510040300000000140001000140140000800400140000A004C01400002005001402000605200400407004806004300F8B500BFF8BC08BC9E4670474D000000DC
:4010400079020000E5080000F8B500BFF8BC08BC9E4670472900000068100000C880FF1F800000008800000000000000000000000000E02EC05D00001800000000366E0192
:4010800000000000000000000000000000000000000000000000000000000000000000002E10000000000000000000000000000000000000000000000000000000000000F2
:4010C0000000000000000000000000000000000000000000000000000000000000000000E080FF1F0000000000000000000000000000000000000000000000000000000072
:4011000000000000000000000000000000000000000000000000000000000000000000000000000000000000000000000000000000000000000000000000000000000000AF
:40114000000000000000000000000000000000000000000000000000000000000000000000000000000000000000000000000000000000000000000000000000000000006F
:40118000000000000000000000000000000000000000000000000000000000000000000000000000000000000000000000000000000000000000000000000000000000002F
:4011C00000000000000000000000000000000000000000000000000000000000000000000000000000000000000000000000000000000000000000000000000000000000EF
:020000040003F7
:0200000480007A
:400000000652004005640040036500400103014001050140010701404D08014043090140540A01404B0B01405A0C0140350D014005170140491801404A1901404A1A014037
:40004000471B0140044001400841014006420140064301400845014008460140034701400A48014003490140084C0140074D014005500140015101400008010808C009407E
:4000800010101130880F890F8A0F8B388D72880789788B47E620E208E60207030A010B04160219021E0424022A053202330134043504360137023E104020410445D0465066
:4000C0004721483A49FF4AFF4BFF4DA04F04501852805407580459045A045B045C115D115F01604062C06440654066C068C06AC06CC06EC084638703881889018A678C6759
:400100008E18907F941898089C21A010A478A607AA67AC42AF04B003B21CB302B478B501B704BA28D280D407D804D904DB04DC32DD30DF01012803020604088209080A0480
:400140000F22108012191728180419021B081E281F8022902310264027182A902B08371039083B103E083F20450147204D015501560C571159815A285D015EA872807740A2
:4001800087408B809158920E930894049703980699A19B209C909D069E109F40A0D0A108A544A688A710B040B301C047C2AFC46FCA08CC20CE66D0A0D6FF0206080109039E
:4001C0000B141113130C150A171423082513260B27042A042F153002310F32083404360137103B023F404051410245E046CB480E49FF4AFF4BFF4EF04F44500C54015804EB
:4002000059045A045B045C235D225F0166C06A406B0281808313840C867187088C149009917192D09306952C960397439E209F0CA010A2ACA4DCA571A622A70EA810AA40D6
:40024000B21FB330B4E0B50FB7C0B988BA20BB20BF04D418D604D804D904DB04DC22DD20DF010280030804A005180E900F021224150216081708180819801B0A1E101F2433
:40028000210122422640271C284029082B212F203202330434403642370838203E093F024201432048404A02505059145A805B015D026785800487408B029158920E930465
:4002C00094049702980699219A0C9B209C909E109F50A090A108A220A301A544A688A710B004C0AAC2B0C476CA4BCCD3CEC4D00CD208D68FD8B0E4010701160119011F024C
:400300002A013001330237013F404002470449FF4A074BFF4C404D204EF04F055008580459045A045C115D025F01604061A8624063208302846785018618887C8A028B045E
:400340008F02907F941898089B019C049F04A010A45CA621AA23AB01AD01AE04B101B240B304B41FB502B638B902BA22BE04BF14C050C106C5D1C620C705C81BC9FFCAFFD0
:40038000CBFFCDA0CF04D018D602D712D804D904DA04DB04DC22DD23DF01E040E2C0E440E540E6C0E8C0EAC0ECC0EEC000040120088209080A440F2010A0118012181720FA
:4003C00019241A421E80220423442721280229203020314032803410374038043B623D08471049414A204B20510452045310560857015904681069507080710872048A4081
:400400008B01C006C22FC44FCA0CCC3CCE4FD020D20CD602E620E080E204E410E640E8200121030209400D100F211521170819211A011B041F80231E2402270129402D40CD
:40044000311F334034023520360137803E103F11400341024230440145CE460F47DB483749FF4AFF4BFF4C224EF04F0C508C511056025728580459045A245B245C285D8847
:400480005E085F31684069016AC06B0185028C02AA01AB01AD04B001B101B202B502B704BE04BF50D420D604D804D904DB04DC44DF0100A003080C201004143019041B0258
:4004C0001D201F5020082180234025402608278828012A402B042C202D402F48348037143B083D103E41452047884D024E105504564258016198638067206E416F157C2085
:400500007E80834484048A808C208F029004915092029308974398169C809D0C9E01A050A544A608B010B404B702C001C240C422CAFCCC70CEB2D070D601D84FDEA0E08098
:40054000E412E644E820040806700702083B0C220E891302160418041C111E8A283B2B01300332383404350136C037023E503F40402641014205440445E0470C481249FF79
:400580004AFF4BFF4C624DA04EF04F41500C5608580459045A045B045C025D025F016640670269106A306B106D106E106F12840188018B018E018F0190049C01A101A201AA
:4005C000AA06B002B101B201B404B602BE14BF01D441D804D904DB04DF010060010802010402058006820714088809200E81111016041701184219181E901F902120230123
:40060000278028082F80320338083F50400642804A0A4B02500459825A105B085C205D045F806009620463506720800181088504874088808C208E10900491109223970396
:40064000980299029A029B1D9C809D189E01A010A208A508C0E7C297C452CA84CC01CE32D00DD20CD67FD84F308234103708CCF002205F208B209C109F08A482C010D62096
:4006800084029C109F08A220A482E21084109C109F08A220A480E6400B020E01601066208B40C203D803E00480108A20934294109E20B201E401EE0188089342E0010304EE
:4006C000830888408C808F049F08A480B220C040E22008409C40C2405C0867408301860193429808D601D80110107E0188109202C408DE04E204000E0C0E0E0E10151C150F
:4007000000FF000080800000400000000108080008000000800040808000800000000000040000000000000030CBCB00C0000000C0F0300030000000400000000000000047
:400740000000000000000000000000000000000000000000000000000000000000000000000000000000000000000000000000000000000000000000000000000000000079
:400780000000000000000000000000000000000000000000000000000000000000000000000000000000000000000000000000000000000000000000000000000000000039
:4007C00000000000000000000000000000000000000000000000000000000000000000000000000000000000000000000000000000000000000000000000000000000000F9
:4008000000000000000000000000000000000000000000000000000000000000000000000000000000000000000000000000000000000000000000000000000000000000B8
:0200000490006A
:0400000000004005B7
:0200000490105A
:04000000BC90ACAF55
:0200000490303A
:0200000041F2CB
:0200000490402A
:4000000000000000000000000000000000000000000000000000000000000000000000000000000000000000000000000000000000000000000000000000000000000000C0
:400040000000000000000000000000000000000000000000000000000000000000000000000000000000000000000000000000000000000000000000000000000000000080
:400080000000000000000000000000000000000000000000000000000000000000000000000000000000000000000000000000000000000000000000000000000000000040
:4000C0000000000000000000000000000000000000000000000000000000000000000000000000000000000000000000000000000000000000000000000000000000000000
:0200000490501A
:0C00000000012E16106900012E1E525B3C
:00000001FF