:400000000080002011000000990800009908000008B5044B1A6803F53F5302331A6000F043FC00BFFA46004010B5054C237833B9044B13B10448AFF300800123237010BDF6
:400040004881FF1F00000000D80F0000084B10B51BB108490848AFF300800848036803B910BD074B002BFBD0BDE81040184700BF000000004C81FF1FD80F0000C880FF1F34
:400080000000000008B55021014800F069FA08BD6481FF1F08B54621014800F061FA08BD6481FF1F012826D14FF6FF73994222D170B5114C201D00F0ABFA04F14006304684
:4000C00000F0E2F80D4D2A460D49304600F030FF04F14406304600F0A1F92A460949304600F026FF204600F023FA2A460649204600F01EFF70BD70476481FF1FCC80FF1FFF
:4001000091020000350400003905000030B58FB062B6524800F0ACFE514800F0D1FE0DA800F032FA4F4A504B009313464FF07C5104A800F065F900F017FD00242CB9702158
:400140004A4800F0FBF9054600E000254DB9022C05D17021454800F0F1F900B9012515B902E0012400E00024022C09D13F4800F14401403000F01EF96F2803D1012502E050
:40018000002500E0002565B9032C08D1374800F14401403000F00EF9632800D1012515B902E0032400E00224022C05D166212F4800F0C4F9054600E000254DB9042C05D169
:4001C00066212A4800F0BAF900B9012515B902E0042400E00224042CB0D8DFE804F0030C161F280067210DA800F0EEF972210DA800F0EAF9A2E772210DA800F0F7F94FF4A4
:400200007A7000F02BFC022498E772210DA800F0DBF967210DA800F0BDF98FE772210DA800F0D2F967210DA800F0E0F986E772210DA800F0C9F967210DA800F0D7F90C4BEF
:4002400093E803000290ADF80C10090C8DF80E10072202A9074800F01DF86FE785000000950000000AD7233C000048426481FF1FDC0F0000A481FF1F08B54FF6FF710120CF
:40028000FFF710FF08BD00BF00220270704700BF704700BF70B50E4615460024AC4205D8305D00F0D1FC0134E4B2F7E770BD00BF70B50D4616460C78A4F16203102B63D8CB
:4002C000DFE803F01A5C626209626262626229626259626241000378012B57D14978304600F0C2F82F4800F0BBFC687861284FD100F0AAFC002452E00378012B4AD1497806
:40030000304600F0CBF8284800F0AAFC687800F09BFC002443E00378012B3DD16C224978304600F0D5F84FF4FA7000F097FB0021304600F099F81D4800F092FC687800F0AF
:4003400083FC00242BE00378012B27D172224978304600F0BDF84FF4FA7000F07FFB0021304600F081F8124800F07AFC687800F06BFC002413E00123037010E00021017082
:40038000304600F071F80AE0002408E0002406E0002404E0002402E0002400E00024204670BD00BFE40F0000F80F000008100000141000002DE9F04700AF8046894600F02F
:4003C00013FC012817D90546EA46C31D23F00703ADEB030D6E460024AC4205D200F0D2FB30550134E4B2F7E74A4631464046FFF75FFFD54600E00020BD46BDE8F08700BF53
:4004000030B40025056145618561C5610562016042608360029BC36030BC704710B504460023036043600123037200F007FB204610BD00BF704700BF08B5016088B200F078
:40044000A1FA08BD08B5416088B200F0A1FA08BD10B50C460172084600F040FD84F0010000F048FD10BD00BF38B5054631B9FFF7E3FF00212846FFF7E5FF09E00C467D34AA
:40048000A4002146FFF7D8FF21462846FFF7DAFF01212846FFF7DCFF38BD00BF38B5054631B9FFF7C9FF00212846FFF7CBFF09E00C467D34A4002146FFF7BEFF21462846FD
:4004C000FFF7C0FF00212846FFF7C2FF38BD00BF38B505467D318C006C2A12D14368191B08D5C3EB4401FFF7ADFF00212846FFF7A3FF01E0FFF7A6FF01212846FFF7A8FF41
:4005000038BD722A12D101682144642908DD6421FFF792FFC4F164012846FFF793FF01E0FFF78AFF01212846FFF792FF38BD00BF0022027042707047704700BF502901D003
:40054000702901D1037808E0462901D0662903D1037813B1437800E000231846704700BF502907D1037813B1002303707047012303707047462906D1437813B10023437073
:40058000704701234370704710B5044600F03CFC204610BD08B5672901D0472907D100F047FCFF280ED0FF2000F0E0FB08BD722901D0522906D100F035FCFF2802D0FF2048
:4005C00000F0CEFB08BD00BF08B5672901D0472903D1002000F0CAFB08BD722901D0522902D1002000F0BCFB08BD00BF08B5672901D0472903D17A2000F0B8FB08BD7229BE
:4006000001D0522902D17A2000F0AAFB08BD00BF704700BFFEE700BFF0B40022174611E050F82760F3B226F0FF0608E001EB420511F812406D78A5550132013BDBB2002BAF
:40064000F4D101371D2FEBD9F0BC7047064B1B78DBB203F00701054A11701B09013213704422034B1A707047CF0100496E5800407658004008B50A46002100F0A4FC08BD4F
:4006800038B500242C4B1C80582202331A70332202331A801823294A137045F6BF5102321180023213704FF6FF7102321180023213700222224B1A7008224FF040231A701F
:4006C000032103F5007319701E4B1B78DBB21E490B701E4B1A8041F25122023B1A8019250CE01B4B1B7803F0010343EA440404F003044FF4F07000F00BFC013D0DB1032CA8
:40070000EFD115B90320FFF785FF124B4FF480721A8007221A7000220F490A704820023108701A700222033B1A700C4A137843F00F03137038BD00BF8040004086400040CF
:400740000043004008010049A146004022420040254200400440004006400040A243004008B500F025FC08BD38B572B6374A137843F00403137000240CE0354D630019196B
:400780004A0011462A44084691882858FFF772FF0134E4B2072CF0D900240BE02C49A3001819420088188022416B006BFFF7D8FF0134E4B2002CF1D026494FF09040FFF729
:4007C0002BFF254A254B1A60254A137843F0020313701032137843F002031370214C237843F040032370A2F58632513A137843F01003137008221C491C48FFF7B1FF0A2235
:400800001B491C48FFF7ACFF08221B491B48FFF7A7FF08221A491B48FFF7A2FF1A4A137843F008031370194D61232B70FFF728FF81232B700122164B1A70FFF707FF0E2270
:4008400021461448FFF78CFF38BD00BFE84600402010000078000048040400A45808014003500140A0430040A808004802510040B0080048C0510040BC0800481251004093
:40088000C408004822510040224300400048004004000840B043004008B500F05DFB03680C2B00D1FEE7FEE708B5104E104D16E029686B68AC68002204E051F8040B43F804
:4008C000040B0432A242F8D1E868002203E0002143F8041B04328242F9D11035013E002EE6D100F03FFBFFF711FCFEE7010000008410000008B5104A104B1A60104A1368A1
:4009000043F40073136000230AE0032B03D80D4A52F8231000E00C490C4A42F8231001332F2BF2D90A4B1A780A4B1A70074A0A4B1A60FFF719FF08BD0004FA050CED00E0CA
:4009400014ED00E000000000990800000080FF1FBC760040C080FF1F08ED00E0024A137843F080031370704779640040014B1880704700BF14680040014B1880704700BF5E
:4009800094680040014B1880704700BF54680040014B1880704700BF74680040014B1870704700BF8B650040014B1878704700BF6B650040014B188880B27047B468004022
:4009C00008B501E0FFF7F6FFFFF7EEFF10F0100FF8D108BD08B5174A137803F0C00343F0090313702132137843F0010313700132137843F0010313704FF46170FFF7B6FFEE
:400A00004FF46170FFF7B8FF0020FFF7BBFF0020FFF7BEFF0020FFF7C1FF00F081FA064A137843F01003137000F07EFAFFF7C8FF08BD00BF796400409B65004008B5054B5A
:400A40001B7823B9FFF7C6FF0122024B1A70FFF785FF08BDB581FF1F01BE704710B5044605E0084B186800F053FAA4F50044B4F5004FF6D8034B586800FB04F000F048FA73
:400A800010BD00BFD080FF1F70B504460E46074B1D681F2802D90020FFF7DEFF04F01F04103455F8240045F8246070BD08ED00E038B504460D46072902D90020FFF7CCFF88
:400AC0001F2C02D90020FFF7C7FF04F01F0000F1604000F564406D01EDB2057038BD00BF08B50D490220FFF7CFFF07210220FFF7DFFF0023094A13707221094A11702021C9
:400B0000FE3A11700621603A11704721103211704E32137008BD00BF850C0000B681FF1F8A65004010B500F0FBF904460B4A137843F020031370FE3A137843F010031370BB
:400B40000422074B1A60074A137843F01003137000F0E4F8204600F0E7F910BD9A65004000E100E09A64004008B5054B5B7823B9FFF7B6FF0122024B5A70FFF7D3FF08BDA3
:400B8000B681FF1F0422134B1A60134A9378DBB2D178C9B2127912F0FF0F01D18B4211D00E4AD05CC0B20133DBB20F2B00D90023094A9370137913F0FF0F06D00022064BE5
:400BC0001A7102E0064B1878C0B20422054B1A60704700BF80E100E0B681FF1FC081FF1F4865004000E100E00422144B1A60144B9A78D2B2DB78DBB29A4206D1104B1B79B6
:400C000013F0FF0F15D0102014E00D4B9A78D2B2DB78DBB29A4205D2094AD3789078181AC0B207E0064AD3789078181A1030C0B200E000200422034B1A60704780E100E07B
:400C4000B681FF1F00E100E0034B1B7813F0040FFAD1024B187070476A6400404964004038B5074B5B782BB938BDFFF7EDFF0134A4B201E005460024285D0028F5D138BD05
:400C8000B681FF1F1D4B1B78DBB213F01E0F05D01B4803F01E0201780A43027003F0200303F0FF0233B3174B1978C9B2164B1B78DBB21648C154164B1B7813F0FF0F02D07B
:400CC0000121144B197010490B780133DBB20B700B78DBB20F2B02D900210B4B19700A4B1978C9B20C4B1B78DBB2994202D10121074B1970002AC5D1704700BF6C640040E4
:400D0000B681FF1F48650040B981FF1FC081FF1FBA81FF1FBB81FF1FB881FF1F054A137843F0020313701032137843F002031370704700BFA2430040024A137843F080036B
:400D40001370704774640040014B1870704700BF0D640040014B1870704700BF4D640040014B1870704700BF2D640040014B1870704700BF3D640040014B1870704700BF5B
:400D80008D640040014B1878704700BF6D640040014B1878704700BF5D64004008B501E0FFF7F6FFFFF7EEFF10F0100FF8D108BD10B5134A137803F0C00343F0090313700E
:400DC000104C237843F001032370FF20FFF7BCFFFF20FFF7BFFF0020FFF7C2FF0020FFF7C5FF0020FFF7C8FF00F09AF8237843F01003237000F098F8FFF7D0FF10BD00BF3A
:400E0000746400409D64004008B5054B1B7823B9FFF7CEFF0122024B1A70FFF78DFF08BDBD81FF1F014B1878704700BF2D640040014B1878704700BF3D640040014B1B6858
:400E40005864704708ED00E04001C0B2014B1870704700BF01E400E00222014B1A60704700E100E00222014B1A60704780E100E010B50446FFF7F6FF2046FFF7DFFF0720C9
:400E8000FFF7E2FFFFF7E8FF10BD00BF014B1B681864704708ED00E04001C0B2014B1870704700BF00E400E00122014B1A60704700E100E00122014B1A60704780E100E018
:400EC00010B50446FFF7F6FF2046FFF7DFFF0720FFF7E2FFFFF7E8FF10BD00BF044A137803F0DF03400100F0200018431070704710510040044A137803F0EF03000100F076
:400F0000100018431070704710510040000000000230800803D000BF01380046FCD17047EFF3108072B6704780F31088704700BF0B460146184600F001B8000010B5054C98
:400F400013462CB10A4601460220AFF3008010BD204610BD00000000014B1868704700BF4081FF1F0E4B70B51E460E4C0025E41AA410A54204D056F8253098470135F8E7DA
:400F800000F06CF8084B094C1E46E41AA4100025A54204D056F8253098470135F8E770BD6810000068100000681000007410000010B5431E0A44914204D011F8014B03F824
:400FC000014FF8E710BD03460244934202D003F8011BFAE7704700000000000057616C6C6168000020476F696E6720666F7277617264202020200000476F696E6720626137
:40100000636B776172640000476F696E67206C6566740000476F696E6720726967687400305100404000F0510040100000000140000480040140800B00140140000800407F
:401040000140000A004C01400002005001402000000401402808004880004300F8B500BFF8BC08BC9E4670474D00000079020000F5080000F8B500BFF8BC08BC9E467047A2
:401080002900000098100000C880FF1F80000000880000000000000000000000000000000000E02EC05D00001800000000366E010000000000000000000000000000000009
:4010C000000000000000000000000000000000005A100000000000000000000000000000000000000000000000000000000000000000000000000000000000000000000086
:4011000000000000000000000000000000000000E080FF1F000000000000000000000000000000000000000000000000000000000000000000000000000000000000000031
:40114000000000000000000000000000000000000000000000000000000000000000000000000000000000000000000000000000000000000000000000000000000000006F
:40118000000000000000000000000000000000000000000000000000000000000000000000000000000000000000000000000000000000000000000000000000000000002F
:4011C00000000000000000000000000000000000000000000000000000000000000000000000000000000000000000000000000000000000000000000000000000000000EF
:4012000000000000000000000000000000000000000000000000000000000000000000000000000000000000000000000000000000000000000000000000000000000000AE
:020000040003F7
:0200000480007A
:4000000007520040056400400365004005030140110401404805014015070140450801405D090140610A0140500B0140580C0140370D014007170140511801404E190140F4
:40004000421A0140401B0140054001400C41014007420140034301400B450140034601400347014007480140054C0140094D01400A50014001510140008008C009401030C4
:40008000112061806440854788078A0F8C388D0F88788A728B0F828083808C80E001E60284038A048B0196019E03AC04B001B402B604B701BE51D441D804D904DB04DC804C
:4000C000DF0100420120032006040720080A0A150C400E101080112012201780180919421A041E801F9020082101232025802802292831803214386039103D104001410801
:4001000048044A104B01511052845C085EA0672072807A027E0282B08440860489408C048F0190209B809E80A080A780AF80B410C06FC2ABC48ECA0ECC0ECE2CD00AD204E9
:40014000D670D840DE18E201E404E609E802EA20EC408120840185088C429120930194409C029D28A401A602A910AA10AD01AE01B10AB320E609EA09EC02EE0405030806D1
:400180000B040C040D031303140615011A021B031C101F0320012103250226012B042C0830083104320634013610370338083E453F0156025728580459045B245C195D808E
:4001C0005E085F1187018E028F0293019A01AB04B001B104B301B502B602C032C106C6BCC70EC81CC9FFCAFFCBFFCEF0CF44D00CD280D804D904DA04DB04DC93DD91DF0198
:40020000E6C0EA40EB0200800560070408200C080D200E1114021506162017801A821C081D081F41200421012310250127022A202D012F1431023588361138043B403C4059
:400240003E083F204120430445014640480850405110520859045A0465046C846D406F6873407C087D208340873088848B408C048D409010910492159304948495209602D8
:40028000983899629B089E409F02A040A122A508A68CA901AA98AB04AD20AF0AB140B204B540B610C0C1C2E2C4B0CAE4CCF1CE7AD006D204D840DE60E008E250E880EE206E
:4002C0000210030208060A180F011014120813011406150116081A0A280129012C062E082F0131023201341E37013A203E043F404020410649FF4AFF4BFF4DA04F045018C3
:400300005401580459045A045B045C915D195F01604062C06440654066C068C06AC06CC06EC08302870188108A0C8C1C8E029102940C96119E03A410A701A814AC09AE10D9
:40034000B302B501B61FBF10C020C106C5D1C752C833C9FFCAFFCBFFCDAFCE0FCF04D018D608D804D904DA04DB04DC91DD09DF01E040E2C0E440E540E6C0E8C0EAC0ECC078
:40038000EEC0012003400560080109200A100E111140120815201620174019241E01224224102708280129602F2033063602388039403A013C083E0240044330471048044F
:4003C0004C084D06540C5502560359055AA05D185F80640266046708812882048704881289108FC092149304960298289A209D609E409F42A040A120A508A684A708AB0141
:40040000AF20B201B404C0CAC2AEC4E3CA4CCC83CEC9D024D224D67FD870E090E410E801EA200A0A0C0C0E02160617021A021B041F012604280129012E0C3102320E3304DA
:40044000340135013A083E103F104003470449FF4A074BFF4C404D204EF04F05500854185604580459045A045B045C215D115F01604061A862406320870488028B018E0456
:4004800093039603970299049A04B002B201B302B404B504B701BF04C050C106C5D5C610C702C81BC9FFCAFFCBFFCDA0CF04D018D407D804D904DA04DB04DC22DD22DF018F
:4004C000E040E2C0E440E540E6C0E8C0EAC0ECC0EEC00010020205600B280D200E10130C14081620176018141A401E1422142301260227182F08320A3310369037043B282D
:40050000450849014A1A4B0852085310552459015A685F02651066406740811082048304874088408C208D048E20C0C3C266C4E0CA20CC77CE06D040D20CD68FD8B0E6408F
:400540008F019301AA02B110E208E801EE0101010201070208020B010C0413011407170419011C061E011F022007210424062504280129042A062F043101320733023704FB
:4005800039023A023F44402541044206440346C0470E481849FF4AFF4BFF4C624DA04EF04F41500C54205604580459045A045B045C115D015F016640670269106A306B10A1
:4005C0006D106E106F128101830E8567860189448B319567A522A601A751B001B107B360B518BF10D608D804D904DB04DC19DF010004042206020EF2110416A017101880EF
:400600001C401F0421092211231026442780282029082C802D402F28300836013794390B3B303C083D023E10404042804505468847104C014D804E04540457105A405C0223
:400640006280641067867D087E147F0487408F04901491449306944095019728989299029B089D889E08A080A328A695A710A910AA40B380C0D4C2A0C474CAF2CCF2CEE7C5
:40068000D0E0D230D688D8F8E410EC200108051C0703080109040D1F1103150219131B0C1D1F230325012801290C2C013310350F36013B203F0456025712580459045B041E
:4006C0005C115D105F01801C81048201840785028618880889068B018C1F8D0791069301941C960299019A049B069E03A301A404A620A818A906AC10B107B21FB420BA0839
:40070000BB02D407D804D904DB04DC11DD90DF010020046007500E15100A14201602172018021A011B801E141F04212022042601274028202A202B802E21312832013350FF
:400740003601371038603A023B083C403E123F045A085C905D025F08681A6908701072227324882090509202942295089610988099029B089C209E229F10A108A408A60191
:40078000B440C0F2C2E0C4E3CAA7CCAFCEFFD6F23010330835203708CCF009220C085D02810287089C109D209F08A708C270D680E6609D209F08A008AD02B010B520E84049
:4007C0009D209F08A0080B020F045C0166018B048F01C203D601D801E202E604A801B601EC0287408B10E40187089F08A808A920E210E880EE805C0167809390D601D80184
:400800001040731088409310B401C408DC01E201EC08000F01010A070C0B0D010E06100311011C031D0100FF400000000C0013004000000100104001400000000000004018
:4008400000000C202000031E000008001101060411010E02000100080F200040301F400020000200000040100103100006DEFC0B1FFFFFFF2200F00C8C10800000000000F7
:40088000040424040128000100000000000000004001C00100000000000000000000000000000000000000007080800080000000800040808000800000000000F0FB0B00B6
:4008C000C0000000C0F03000300000000000000000000000000000000000000000000000000000000000000000000000000000000000000000000000000000000000000028
:4009000000000000000000000000000000000000000000000000000000000000000000000000000000000000000000000000000000000000000000000000000000000000B7
:400940000000000000000000000000000000000000000000000000000000000000000000000000000000000000000000000000000000000000000000000000000000000077
:400980000000000000000000000000000000000000000000000000000000000000000000000000000000000000000000000000000000000000000000000000000000000037
:4009C00000000000000000000000000000000000000000000000000000000000000000000000000000000000000000000000000000000000000000000000000000000000F7
:0200000490006A
:0400000000004005B7
:0200000490105A
:04000000BC90ACAF55
:0200000490303A
:02000000C82A0C
:0200000490402A
:4000000000000000000000000000000000000000000000000000000000000000000000000000000000000000000000000000000000000000000000000000000000000000C0
:400040000000000000000000000000000000000000000000000000000000000000000000000000000000000000000000000000000000000000000000000000000000000080
:400080000000000000000000000000000000000000000000000000000000000000000000000000000000000000000000000000000000000000000000000000000000000040
:4000C0000000000000000000000000000000000000000000000000000000000000000000000000000000000000000000000000000000000000000000000000000000000000
:0200000490501A
:0C00000000012E16106900012E1ED8937E
:00000001FF