:400000000080002011000000910600009106000008B5044B1A6803F53F5302331A6000F03FFB00BFFA46004010B5054C237833B9044B13B10448AFF300800123237010BD0F
:400040004881FF1F00000000F80D0000084B10B51BB108490848AFF300800848036803B910BD074B002BFBD0BDE81040184700BF000000004C81FF1FF80D0000C880FF1FF8
:400080000000000008B5034801460C3000F0E2F808BD00BF6481FF1F08B55021014800F087F908BD7481FF1F08B54621014800F07FF908BD7481FF1F012822D14FF6FF7325
:4000C00099421ED170B50F4C04F10C06304600F05FF80D4D2A460D49304600F039FE204600F0EAF82A460A49204600F031FE1034204600F04DF92A460649204600F028FE9A
:4001000070BD70476481FF1FCC80FF1F9D010000D10200009903000000B58DB062B6124800F00AFD114800F0CBFD114800F0F0FD104A114B009313464FF07C5103A800F076
:40014000ADF802A800F048F946210C4800F026F920B1672102A800F057F9F5E7672102A800F040F9F0E700BF8500000099000000A90000000AD7233C000048427481FF1F81
:4001800008B54FF6FF710120FFF796FF08BD00BF10B5044600F0DCFB204610BD704700BF38B50C4615460B78623B102B49D8DFE803F01648484809484848484821484848F6
:4001C000484835004978284600F09CF81D4800F03BFC6078612834D100F02AFC38BD4978284600F09DF8184800F02EFC607800F01FFC38BD6C224978284600F09FF84FF4FD
:40020000FA7000F01FFB0021284600F07BF80F4800F01AFC607800F00BFC38BD72224978284600F08BF84FF4FA7000F00BFB0021284600F067F8064800F006FC607800F078
:40024000F7FB38BDFC0D0000100E0000200E00002C0E00002DE9F04700AF8046894600F0B7FB012816D90546EA46C31D23F00703ADEB030D6E460024AC4205D200F076FB9F
:4002800030550134E4B2F7E74A4631464046FFF787FFD546BD46BDE8F08700BF30B40025056145618561C5610562016042608360029BC36030BC704710B5044600230360A8
:4002C00043600123037200F0ADFA204610BD00BF704700BF08B50160C8B200F04FFA08BD08B54160C8B200F04FFA08BD10B50C460172084600F03CFC84F0010000F044FCB2
:4003000010BD00BF38B504460D46FFF7E3FF29462046FFF7E5FF01212046FFF7E7FF38BD38B504460D46FFF7D5FF29462046FFF7D7FF00212046FFF7D9FF38BD38B5044651
:400340000D466C2A10D14368C1F164018B4201DDFFF7C0FF616829442046FFF7C1FF01212046FFF7C3FF38BD722A0FD10368C1F164018B4201DDFFF7B3FF2168294420465D
:40038000FFF7A8FF01212046FFF7B0FF38BD00BF0022027042707047704700BF502901D100787047462901D14078704700207047502907D1037813B100230370704701234A
:4003C00003707047462906D1437813B100234370704701234370704710B5044600F048FC204610BD08B5672901D0472903D1002000F0F0FB08BD722901D0522902D1002081
:4004000000F0E2FB08BD00BF08B5672901D0472903D1322000F0DEFB08BD722901D0522902D1322000F0D0FB08BD00BFFEE700BFF0B40022174611E050F82760F3B226F09C
:40044000FF0608E001EB420511F812406D78A5550132013BDBB2002BF4D101371E2FEBD9F0BC7047064B1B78DBB203F00701054A11701B09013213704422034B1A7070477F
:40048000CF0100496E5800407658004008B50A46002100F0A8FC08BD38B50B222C4B1A8018232C4A13703321023211800232137042F6DF6102321180023213704FF6FF71B0
:4004C00002321180023213700222234B1A7008224FF040231A70032103F5007319701F4B1B78DBB21E490B701E4B1A8041F25122023B1A80002419250CE01B4B1B7803F0D0
:40050000010343EA440404F003044FF4F07000F00FFC013D0DB1032CEFD115B90320FFF785FF124B4FF480721A8007221A7000220F490A704820023108701A700222033B81
:400540001A700C4A137843F00F03137038BD00BF80400040824000400043004008010049A146004022420040254200400440004006400040A243004008B500F029FC08BD85
:4005800038B572B62F4A137843F00403137000240CE02D4D630019194A0011462A44084691882858FFF772FF0134E4B2062CF0D926494FF09040FFF73BFF254A254B1A601C
:4005C000254A137843F0020313701032137843F002031370214C237843F040032370A2F58632513A137843F01003137008221C491C48FFF7C1FF0A221B491C48FFF7BCFF31
:4006000008221B491B48FFF7B7FF0A221A491B48FFF7B2FF1A4A137843F008031370194D61232B70FFF738FF81232B700122164B1A70FFF717FF0E2221461448FFF79CFF45
:4006400038BD00BFE8460040380E00007C000048000424A45804014003500140A0430040EC06004802510040F4060048C051004000070048125100400807004820510040D4
:40068000224300400048004004000840B043004008B500F071FB03680C2B00D1FEE7FEE708B5104E104D16E029686B68AC68002204E051F8040B43F8040B0432A242F8D1C7
:4006C000E868002203E0002143F8041B04328242F9D11035013E002EE6D100F053FBFFF71BFDFEE7010000008C0E000008B5104A104B1A60104A136843F400731360002330
:400700000AE0032B03D80D4A52F8231000E00C490C4A42F8231001332F2BF2D90A4B1A780A4B1A70074A0A4B1A60FFF729FF08BD0004FA050CED00E014ED00E0000000001B
:40074000910600000080FF1FBC760040C080FF1F08ED00E0024A137843F080031370704774650040014B1870704700BF07650040014B1870704700BF47650040014B1870BF
:40078000704700BF27650040014B1870704700BF37650040014B1870704700BF84650040014B1878704700BF64650040014B1878704700BF5765004008B501E0FFF7F6FF2C
:4007C000FFF7EEFF10F0100FF8D108BD08B5134A137803F0C00343F0090313702332137843F0010313706420FFF7BCFF6420FFF7BFFF0020FFF7C2FF0020FFF7C5FF002074
:40080000FFF7C8FF00F09CFA054A137843F01003137000F099FAFFF7CFFF08BD746500409465004008B5054B1B7823B9FFF7CEFF0122024B1A70FFF78DFF08BD7681FF1FDF
:4008400001BE704710B5044605E0084B186800F06FFAA4F50044B4F5004FF6D8034B586800FB04F000F064FA10BD00BFD080FF1F70B504460E46074B1D681F2802D900201E
:40088000FFF7DEFF04F01F04103455F8240045F8246070BD08ED00E038B504460D46072902D90020FFF7CCFF1F2C02D90020FFF7C7FF04F01F0000F1604000F564406D01B3
:4008C000EDB2057038BD00BF08B50D490220FFF7CFFF07210220FFF7DFFF0023094A13707221094A11702021013A11700621A2F2631211704721103211705032137008BD16
:400900006D0A00007781FF1F8665004010B500F017FA04460B4A137843F020031370013A137843F0100313700422074B1A60074A137843F01003137000F00CF9204600F0C5
:4009400003FA10BD9665004000E100E09264004008B5054B5B7823B9FFF7B6FF0122024B5A70FFF7D3FF08BD7781FF1F0422134B1A60134A9378DBB2D178C9B2127912F0F3
:40098000FF0F01D18B4211D00E4AD05CC0B20133DBB20F2B00D90023094A9370137913F0FF0F06D00022064B1A7102E0064B1878C0B20422054B1A60704700BF80E100E019
:4009C0007781FF1F8081FF1F4565004000E100E00422144B1A60144B9A78D2B2DB78DBB29A4206D1104B1B7913F0FF0F15D0102014E00D4B9A78D2B2DB78DBB29A4205D206
:400A0000094AD3789078181AC0B207E0064AD3789078181A1030C0B200E000200422034B1A60704780E100E07781FF1F00E100E0034B1B7813F0040FFAD1024B18707047F3
:400A4000626400404564004038B5074B5B782BB938BDFFF7EDFF0134A4B201E005460024285D0028F5D138BD7781FF1F1D4B1B78DBB213F01E0F05D01B4803F01E020178E5
:400A80000A43027003F0200303F0FF0233B3174B1978C9B2164B1B78DBB21648C154164B1B7813F0FF0F02D00121144B197010490B780133DBB20B700B78DBB20F2B02D907
:400AC00000210B4B19700A4B1978C9B20C4B1B78DBB2994202D10121074B1970002AC5D1704700BF656500407781FF1F456500407A81FF1F8081FF1F7B81FF1F7C81FF1FC6
:400B00007981FF1F014B1B681865704708ED00E04001C0B2014B1870704700BF04E400E01022014B1A60704700E100E01022014B1A60704780E100E010B50446FFF7F6FFA6
:400B40002046FFF7DFFF0720FFF7E2FFFFF7E8FF10BD00BF054A137843F0020313701032137843F002031370704700BFA2430040044A137803F0DF03400100F020001843C2
:400B80001070704710510040044A137803F0EF03000100F0100018431070704710510040024A137843F080031370704776640040014B1870704700BF06640040014B1870C2
:400BC000704700BF46640040014B1870704700BF26640040014B1870704700BF36640040014B1870704700BF86640040014B1878704700BF66640040014B1878704700BF3B
:400C00005664004008B501E0FFF7F6FFFFF7EEFF10F0100FF8D108BD10B5134A137803F0C00343F009031370104C237843F0010323706420FFF7BCFF6420FFF7BFFF00202E
:400C4000FFF7C2FF0020FFF7C5FF0020FFF7C8FF00F076F8237843F01003237000F074F8FFF7D0FF10BD00BF766400409664004008B5054B1B7823B9FFF7CEFF0122024B84
:400C80001A70FFF78DFF08BD7E81FF1F014B1B685864704708ED00E04001C0B2014B1870704700BF01E400E00222014B1A60704700E100E00222014B1A60704780E100E029
:400CC00010B50446FFF7F6FF2046FFF7DFFF0720FFF7E2FFFFF7E8FF10BD00BF014B1B681864704708ED00E04001C0B2014B1870704700BF00E400E00122014B1A60704721
:400D000000E100E00122014B1A60704780E100E010B50446FFF7F6FF2046FFF7DFFF0720FFF7E2FFFFF7E8FF10BD00BF000000000230800803D000BF01380046FCD1704727
:400D4000EFF3108072B6704780F31088704700BF0B460146184600F001B8000010B5054C13462CB10A4601460220AFF3008010BD204610BD00000000014B1868704700BF99
:400D80004081FF1F0E4B70B51E460E4C0025E41AA410A54204D056F8253098470135F8E700F060F8084B094C1E46E41AA4100025A54204D056F8253098470135F8E770BD45
:400DC000700E0000700E0000700E00007C0E000010B5431E0A44914204D011F8014B03F8014FF8E710BD03460244934202D003F8011BFAE7704700000000000020476F6964
:400E00006E6720666F7277617264202020200000476F696E67206261636B776172640000476F696E67206C6566740000476F696E6720726967687400305100404000F051C2
:400E40000040100000000140001000140140000800400140000A004C014000020050014020004300F8B500BFF8BC08BC9E4670474D00000081010000ED060000F8B500BFB9
:400E8000F8BC08BC9E46704729000000A00E0000C880FF1F80000000480000000000000000000000000000000000E02EC05D00001800000000366E01000000000000000032
:400EC000000000000000000000000000000000000000000000000000620E000000000000000000000000000000000000000000000000000000000000000000000000000082
:400F0000000000000000000000000000000000000000000000000000E080FF1F00000000000000000000000000000000000000000000000000000000000000000000000033
:400F40000000000000000000000000000000000000000000000000000000000000000000000000000000000000000000000000000000000000000000000000000000000071
:400F80000000000000000000000000000000000000000000000000000000000000000000000000000000000000000000000000000000000000000000000000000000000031
:400FC00000000000000000000000000000000000000000000000000000000000000000000000000000000000000000000000000000000000000000000000000000000000F1
:4010000000000000000000000000000000000000000000000000000000000000000000000000000000000000000000000000000000000000000000000000000000000000B0
:020000040003F7
:0200000480007A
:40000000085200400464004004650040550201403A03014050040140470501404906014041070140010B0140020D01404E140140471501404F1601403D1701400119014011
:40004000031B0140074001400A4101400B42014004430140024401400D45014002460140014701400448014003490140064C0140094D014005500140025101400001040E4A
:40008000084009401002111260806440820F84078547860F840F853886728778040C067108140B0A0C100E401504162017081810190E1AAC1E032009210122D024DC250EFC
:4000C00026222F08330634E03501361F370839083A203F544002454049FF4A074BFF4C404D204EF04F0550085401580459045A045B045C015D115F01604061A862406320EB
:400100008108850889018E1E8F08930894019608970199019E21A001A104A202A401A502A604A908AC10AE01B020B103B41FB504B708B902BE10BF50D608D804D904DB0444
:40014000DC18DD20DF31004004A408040A200B020D200E010F201002110515021704184019101C041E011FB02101224223042640272828042B902C902D022F2230023120F7
:400180003314371439053BA03F2047204C404F0257105B405D025E805F1862C078028B048E608F40C0E1C2E5C43DCAD7CC67CE2FD020D6F8D808DE01E202010205021302B9
:4001C00015011902330235013F14400341024230440645FE46CD470B481F49FF4AFF4BFF4C224EF04F0C508C51105602572459045A245B245D885E085F31684069016AC05C
:400200006B01830884048A068B53938C940195AC974399319BC6A531A601A74EAD30AF40B202B3F0B404B50FB601BB28BE50C026C103C5EBC7C0C823C9FFCAFFCBFFCEF039
:40024000CF44D00CD441D804D904DA04DB04DC12DD21DF01E6C0EA40EB02050406040D0815081D041E101F902014220427142C102F023006310832103602371439053F2263
:4002800040144410471049114A104C904F20504051045220534057025C485E2060046720680269056A207806840292809420950596609780981099109A409C029F14A108F8
:4002C000A282A311A482A620A702A908AB01AF12C060C220C420CA50CCE7CEA3D066D224D670D844DE03EE01020103080A010B060E08110414011A081B011E0422022701DB
:400300002804300131043204330134083508360237023E153F044020410445D046104725483A49FF4AFF4BFF4DA04F04501852805407580459045A045B045C315D335F01A0
:40034000604062C06440654066C068C06AC06CC06EC0880191019A0C9F02A608AA07B008B202B401B502B604B701BF40D608D804D904DB04DC23DD20DF01001006450920C0
:400380000DA00E10102814401520181019201A411C401D401E041F082110228025202604278128082B082F2031813201362037013C023F2045224D01542855025601571001
:4003C0005A885B205D215E045F80600461806204740192989440964099019A409B209E04A840AB20AF80B008B280C0D2C2E2C456CA40CCA9CEA0D0A0D6FED80EEE01E20216
:40040000E460060107030A080D020E0D1202150822042B0C300231013201330434043502360837083E1052805407580459045B045F0180018101820E87018F0293029444D7
:40044000963198229A519B01A467A867A901B007B101B260B502B618B902BB80BE40BF10C045C106C202C401C6CEC80CC9FFCAFFCBFFCC62CDA0CEF0CF41D00CD418D604CA
:40048000D804D904DA04DB04DC11DD11DF01E640E702E910EA30EB10ED10EE10EF120064012005010A400E281080130C171418401A051B041D831E20225823402602270964
:4004C00029202C08320835103602380C3B403D0A3F80459146404C084D90576059025AA45E0266026706724079047A10830484088603870188408E04900893029440951450
:4005000099929A409B149C409F01A090A114A201A502A720C017C268C468CA24CCA2CEDAD0B0D230D68FD8B0E008E40400330110020C04020508081F093C0A200BC20DC090
:400540000E23100311E71318141C15181623191C1BE11C011F04203F2144240C2580280429FF2C082FE3300F31C0331F342C353836103A223B083E405602571358045904AD
:400580005B045C115D105F019C01A401A801B601C040C105C5D1C602C705C817C9FFCAFFCBFFCDA0CF04D018D420D604D804DA04DB04DC01DD20DF01E040E2C0E440E54082
:4005C000E6C0E8C0EAC0ECC0EEC00599064009400C400D0A0E400F201028161A170119801D111E01251C26212C402D9C355538043A043E4A3F204040481049024B805084CC
:4006000053405A025E016008628463406C286D806F147504761A8740900492029302980899409C40A280A620A720AA04AB01B201C0F0C2B1C4F6CAF0CCF0CEF0D001D2081D
:40064000D681D80FEC80E008E2C0E404324437823B104E044F10CCF0CE100120050806045720878096889F82C0E0D440E2408520960899209F02A720A908AA44E440E8803F
:40068000EC20EE8096089F02AF20EE107D80DE0403080A045D806208860489408E08A540C002C202D604D802E4069D80AB089D80870296089F02E64086049608E6105B0827
:4006C0006420B180D602D801EC011280802087088A808E809C209F08C408E203000E08060A0E10071A0700FF010300000E01010001000000800040808000800000000000FA
:4007000030CBCB00C0000000440000561200120000000000000000000000000000000000000000000000000000000000000000000000000000000000000000000000000075
:400740000000000000000000000000000000000000000000000000000000000000000000000000000000000000000000000000000000000000000000000000000000000079
:400780000000000000000000000000000000000000000000000000000000000000000000000000000000000000000000000000000000000000000000000000000000000039
:4007C00000000000000000000000000000000000000000000000000000000000000000000000000000000000000000000000000000000000000000000000000000000000F9
:4008000000000000000000000000000000000000000000000000000000000000000000000000000000000000000000000000000000000000000000000000000000000000B8
:0200000490006A
:0400000000004005B7
:0200000490105A
:04000000BC90ACAF55
:0200000490303A
:020000009AA8BC
:0200000490402A
:4000000000000000000000000000000000000000000000000000000000000000000000000000000000000000000000000000000000000000000000000000000000000000C0
:400040000000000000000000000000000000000000000000000000000000000000000000000000000000000000000000000000000000000000000000000000000000000080
:400080000000000000000000000000000000000000000000000000000000000000000000000000000000000000000000000000000000000000000000000000000000000040
:4000C0000000000000000000000000000000000000000000000000000000000000000000000000000000000000000000000000000000000000000000000000000000000000
:0200000490501A
:0C00000000012E16106900012E1DAB112E
:00000001FF