:400000000080002011000000110800001108000008B5044B1A6803F53F5302331A6000F0FFFB00BFFA46004010B5054C237833B9044B13B10448AFF300800123237010BD4B
:400040004881FF1F00000000400F0000084B10B51BB108490848AFF300800848036803B910BD074B002BFBD0BDE81040184700BF000000004C81FF1F400F0000C880FF1F64
:400080000000000008B55021014800F047FA08BD6481FF1F08B54621014800F03FFA08BD6481FF1F012822D14FF6FF7399421ED170B50F4C261D304600F0E2F80D4D2A4608
:4000C0000D49304600F0E8FE04F10806304600F0A1F92A460949304600F0DEFE204600F005FA2A460649204600F0D6FE70BD70476481FF1FCC80FF1F890200002D0400000C
:40010000F504000030B58FB062B6524800F07CFE514800F0A1FE0DA800F014FA4F4A504B009313464FF07C5104A800F065F900F0CFFC00242CB970214A4800F0DDF905468D
:4001400000E000254DB9022C05D17021454800F0D3F900B9012515B902E0012400E00024022C09D13F4800F10801043000F01EF96F2803D1012502E0002500E0002565B95F
:40018000032C08D1374800F10801043000F00EF9632800D1012515B902E0032400E00224022C05D166212F4800F0A6F9054600E000254DB9042C05D166212A4800F09CF9C9
:4001C00000B9012515B902E0042400E00224042CB0D8DFE804F0030C161F280067210DA800F0D0F972210DA800F0CCF9A2E772210DA800F0D9F94FF47A7000F0E3FB0224BC
:4002000098E772210DA800F0BDF967210DA800F09FF98FE772210DA800F0B4F967210DA800F0C2F986E772210DA800F0ABF967210DA800F0B9F90C4B93E803000290ADF815
:400240000C10090C8DF80E10072202A9074800F01DF86FE785000000950000000AD7233C000048426481FF1F440F00006881FF1F08B54FF6FF710120FFF714FF08BD00BFCB
:4002800000220270704700BF704700BF70B50E4615460024AC4205D8305D00F089FC0134E4B2F7E770BD00BF70B50D4616460C78A4F16203102B63D8DFE803F01A5C6262A8
:4002C00009626262626229626259626241000378012B57D14978304600F0C2F82F4800F073FC687861284FD100F062FC002452E00378012B4AD14978304600F0BFF82848FD
:4003000000F062FC687800F053FC002443E00378012B3DD16C224978304600F0BDF84FF4FA7000F04FFB0021304600F099F81D4800F04AFC687800F03BFC00242BE003789F
:40034000012B27D172224978304600F0A5F84FF4FA7000F037FB0021304600F081F8124800F032FC687800F023FC002413E00123037010E000210170304600F071F80AE0E2
:40038000002408E0002406E0002404E0002402E0002400E00024204670BD00BF4C0F0000600F0000700F00007C0F00002DE9F04700AF8046894600F0CBFB012817D9054620
:4003C000EA46C31D23F00703ADEB030D6E460024AC4205D200F08AFB30550134E4B2F7E74A4631464046FFF75FFFD54600E00020BD46BDE8F08700BF30B4002505614561F9
:400400008561C5610562016042608360029BC36030BC704710B504460023036043600123037200F0BFFA204610BD00BF704700BF08B50160C8B200F061FA08BD08B5416018
:40044000C8B200F061FA08BD10B50C460172084600F026FC84F0010000F02EFC10BD00BF38B504460D46FFF7E3FF29462046FFF7E5FF01212046FFF7E7FF38BD38B504464C
:400480000D46FFF7D5FF29462046FFF7D7FF00212046FFF7D9FF38BD38B504460D466C2A10D14368C1F164018B4201DDFFF7C0FF616829442046FFF7C1FF01212046FFF741
:4004C000C3FF38BD722A0FD10368C1F164018B4201DDFFF7B3FF216829442046FFF7A8FF01212046FFF7B0FF38BD00BF0022027042707047704700BF502901D0702901D1F2
:40050000037808E0462901D0662903D1037813B1437800E000231846704700BF502907D1037813B1002303707047012303707047462906D1437813B1002343707047012343
:400540004370704710B5044600F02AFC204610BD08B5672901D0472907D100F035FCFF280ED0FF2000F0CEFB08BD722901D0522906D100F023FCFF2802D0FF2000F0BCFB04
:4005800008BD00BF08B5672901D0472903D1002000F0B8FB08BD722901D0522902D1002000F0AAFB08BD00BF08B5672901D0472903D17A2000F0A6FB08BD722901D05229A1
:4005C00002D17A2000F098FB08BD00BFFEE700BFF0B40022174611E050F82760F3B226F0FF0608E001EB420511F812406D78A5550132013BDBB2002BF4D101371B2FEBD9B9
:40060000F0BC7047064B1B78DBB203F00701054A11701B09013213704422034B1A707047CF0100496E5800407658004008B50A46002100F07CFC08BD38B50B222C4B1A8099
:4006400018232C4A13703321023211800232137045F6BF5102321180023213704FF6FF7102321180023213700222234B1A7008224FF040231A70032103F5007319701F4B8A
:400680001B78DBB21E490B701E4B1A8041F25122023B1A80002419250CE01B4B1B7803F0010343EA440404F003044FF4F07000F0E3FB013D0DB1032CEFD115B90320FFF7C7
:4006C00085FF124B4FF480721A8007221A7000220F490A704820023108701A700222033B1A700C4A137843F00F03137038BD00BF80400040824000400043004008010049E6
:40070000A146004022420040254200400440004006400040A243004008B500F0FDFB08BD38B572B62B4A137843F00403137000240CE0294D630019194A0011462A44084664
:4007400091882858FFF772FF0134E4B2072CF0D922494FF09040FFF73BFF214A137843F0020313701032137843F0020313701D4C237843F040032370A2F58632513A13785D
:4007800043F0100313700A2217491848FFF7C4FF082217491748FFF7BFFF082216491748FFF7BAFF164A137843F008031370154D61232B70FFF740FF81232B700122124B76
:4007C0001A70FFF71FFF0E2221461048FFF7A4FF38BD00BFE8460040880F00007000004803500140A04300408C050048C05100409805004812510040A00500482251004059
:40080000224300400048004004000840B043004008B500F055FB03680C2B00D1FEE7FEE708B5104E104D16E029686B68AC68002204E051F8040B43F8040B0432A242F8D161
:40084000E868002203E0002143F8041B04328242F9D11035013E002EE6D100F037FBFFF751FCFEE701000000E40F000008B5104A104B1A60104A136843F40073136000233C
:400880000AE0032B03D80D4A52F8231000E00C490C4A42F8231001332F2BF2D90A4B1A780A4B1A70074A0A4B1A60FFF739FF08BD0004FA050CED00E014ED00E0000000008A
:4008C000110800000080FF1FBC760040C080FF1F08ED00E0024A137843F080031370704778640040014B1870704700BF08640040014B1870704700BF48640040014B1870B9
:40090000704700BF28640040014B1870704700BF38640040014B1870704700BF8B650040014B1878704700BF6B650040014B1878704700BF5864004008B501E0FFF7F6FF9C
:40094000FFF7EEFF10F0100FF8D108BD08B5134A137803F0C00343F0090313702032137843F0010313706420FFF7BCFF6420FFF7BFFF0020FFF7C2FF0020FFF7C5FF0020F5
:40098000FFF7C8FF00F080FA054A137843F01003137000F07DFAFFF7CFFF08BD786400409B65004008B5054B1B7823B9FFF7CEFF0122024B1A70FFF78DFF08BD7881FF1F8A
:4009C00001BE704710B5044605E0084B186800F053FAA4F50044B4F5004FF6D8034B586800FB04F000F048FA10BD00BFD080FF1F70B504460E46074B1D681F2802D90020D5
:400A0000FFF7DEFF04F01F04103455F8240045F8246070BD08ED00E038B504460D46072902D90020FFF7CCFF1F2C02D90020FFF7C7FF04F01F0000F1604000F564406D0131
:400A4000EDB2057038BD00BF08B50D490220FFF7CFFF07210220FFF7DFFF0023094A13707221094A117020210132117006215F3A1170472110321170B23A137008BD00BFE3
:400A8000ED0B00007981FF1F8965004010B500F0FBF904460B4A137843F0200313700132137843F0100313700422074B1A60074A137843F01003137000F0E4F8204600F00C
:400AC000E7F910BD9965004000E100E09964004008B5054B5B7823B9FFF7B6FF0122024B5A70FFF7D3FF08BD7981FF1F0422134B1A60134A9378DBB2D178C9B2127912F083
:400B0000FF0F01D18B4211D00E4AD05CC0B20133DBB20F2B00D90023094A9370137913F0FF0F06D00022064B1A7102E0064B1878C0B20422054B1A60704700BF80E100E097
:400B40007981FF1F8481FF1F4A65004000E100E00422144B1A60144B9A78D2B2DB78DBB29A4206D1104B1B7913F0FF0F15D0102014E00D4B9A78D2B2DB78DBB29A4205D279
:400B8000094AD3789078181AC0B207E0064AD3789078181A1030C0B200E000200422034B1A60704780E100E07981FF1F00E100E0034B1B7813F0040FFAD1024B1870704770
:400BC000696400404964004038B5074B5B782BB938BDFFF7EDFF0134A4B201E005460024285D0028F5D138BD7981FF1F1D4B1B78DBB213F01E0F05D01B4803F01E02017857
:400C00000A43027003F0200303F0FF0233B3174B1978C9B2164B1B78DBB21648C154164B1B7813F0FF0F02D00121144B197010490B780133DBB20B700B78DBB20F2B02D985
:400C400000210B4B19700A4B1978C9B20C4B1B78DBB2994202D10121074B1970002AC5D1704700BF6A6500407981FF1F4A6500407C81FF1F8481FF1F7D81FF1F7E81FF1F2E
:400C80007B81FF1F054A137843F0020313701032137843F002031370704700BFA2430040044A137803F0DF03400100F0200018431070704710510040044A137803F0EF0372
:400CC000000100F0100018431070704710510040024A137843F08003137070477B640040014B1870704700BF0B640040014B1870704700BF4B640040014B1870704700BF5E
:400D00002B640040014B1870704700BF3B640040014B1870704700BF8B640040014B1878704700BF6B640040014B1878704700BF5B64004008B501E0FFF7F6FFFFF7EEFF24
:400D400010F0100FF8D108BD10B5134A137803F0C00343F009031370104C237843F001032370FF20FFF7BCFFFF20FFF7BFFF0020FFF7C2FF0020FFF7C5FF0020FFF7C8FFAF
:400D800000F082F8237843F01003237000F080F8FFF7D0FF10BD00BF7B6400409B64004008B5054B1B7823B9FFF7CEFF0122024B1A70FFF78DFF08BD8081FF1F014B1878C3
:400DC000704700BF2B640040014B1878704700BF3B640040014B1B685864704708ED00E04001C0B2014B1870704700BF01E400E00222014B1A60704700E100E00222014BD2
:400E00001A60704780E100E010B50446FFF7F6FF2046FFF7DFFF0720FFF7E2FFFFF7E8FF10BD00BF014B1B681864704708ED00E04001C0B2014B1870704700BF00E400E00D
:400E40000122014B1A60704700E100E00122014B1A60704780E100E010B50446FFF7F6FF2046FFF7DFFF0720FFF7E2FFFFF7E8FF10BD00BF000000000230800803D000BF49
:400E800001380046FCD17047EFF3108072B6704780F31088704700BF0B460146184600F001B8000010B5054C13462CB10A4601460220AFF3008010BD204610BD0000000097
:400EC000014B1868704700BF4081FF1F0E4B70B51E460E4C0025E41AA410A54204D056F8253098470135F8E700F068F8084B094C1E46E41AA4100025A54204D056F82530DB
:400F000098470135F8E770BDC80F0000C80F0000C80F0000D40F000010B5431E0A44914204D011F8014B03F8014FF8E710BD03460244934202D003F8011BFAE770470000DC
:400F40000000000057616C6C6168000020476F696E6720666F7277617264202020200000476F696E67206261636B776172640000476F696E67206C6566740000476F696ED0
:400F80006720726967687400005100401000305100404000F0510040100000000140001000140140000800400140000A004C0140000200500140200043000000F8B500BF31
:400FC000F8BC08BC9E4670474D000000710200006D080000F8B500BFF8BC08BC9E46704729000000F80F0000C880FF1F8000000050000000000000000000000000000000C4
:401000000000E02EC05D00001800000000366E010000000000000000000000000000000000000000000000000000000000000000B80F000000000000000000000000000001
:40104000000000000000000000000000000000000000000000000000000000000000000000000000000000000000000000000000E080FF1F000000000000000000000000F2
:401080000000000000000000000000000000000000000000000000000000000000000000000000000000000000000000000000000000000000000000000000000000000030
:4010C00000000000000000000000000000000000000000000000000000000000000000000000000000000000000000000000000000000000000000000000000000000000F0
:4011000000000000000000000000000000000000000000000000000000000000000000000000000000000000000000000000000000000000000000000000000000000000AF
:40114000000000000000000000000000000000000000000000000000000000000000000000000000000000000000000000000000000000000000000000000000000000006F
:020000040003F7
:0200000480007A
:4000000006520040026400400365004001030140010501405708014043090140450A0140320B0140010D0140011501404E180140481901405A1A0140461B01400440014048
:400040000541014004420140014301400645014008460140044701400148014003490140074C0140074D0140045001400151014008C009401020113061806440890F8B0FA5
:4000800089728A388B0FE202E60807040808140117061A041B0A1E021F012001260228012E04300831043202330834043501360137023E154030410445D54721483349FF9C
:4000C0004AFF4BFF4DA04F0450185280580459045A045B045C015F01604062C06440654066C068C06AC06CC06EC085098706890E8B018D04910F9401950699029F01A10F59
:40010000B108B201B507BE04BF01C046C103C50CC6E0C70BC819C9FFCAFFCBFFCEF0CF44D00CD401D804D904DA04DB04DC10DD11DF01E6C0EA40EB0205100B2C0E180F02D4
:40014000110812101601171519041E861F8421102201250426802784288029023020310A33803620374438A43E08430A45014704480449084E204F01510453105501560826
:400180005701582059845B0277407A0386808A40902492209540960599229A019C10A204A420A50AA60AAB20C040C2E4C4F0CA01CC7FCE4ED0C3D204D60FE408EE040413F6
:4001C000060C080F0A100C01100C1213140C18031B021C081F01201F240428022E13321C340F350237013A2A580459045C315F0182089607970199049A049C01AB07B004F9
:40020000B201B301B408B502B602B704C020C105C5D0C650C721C83AC9FFCAFFCBFFCDA0CF04D018D280D407D804D904DA04DB04DC22DD22DF01E040E2C0E440E540E6C082
:40024000E8C0EAC0ECC0EEC00014014005010810090A0A010D200E020F201060120A183419221A201C401D201E2A2002230425042660284029022F0833A0362445204C0205
:400280004F015402560157185EA45F0175018104838084018C409704C017C2EFC40FCA20CC6CD020D210D6F0E004E6048704E602058007130A030C090ED00F0C140C152C15
:4002C000167117431A201C101EAC201022402308241428DC29712A222B0E2D712F0631C032E0330F341F353039223A083B083F10580459045C115F01840386148704881309
:4003000089088A048C138D108E0C911C932295189620991C9B219F03A13FA220A504A615A80AA927AA14AB18AE08B00FB11FB320B420B610B908BA02BB02BE50D602D7132B
:40034000D804D904DB04DC11DD10DF010108030A044005100B100E200F0A10041108124214441508180419801B031D101E201F0C2102231024402606270828A029202CC0E9
:400380002F06310B321033803404360438A83C483D083F085A0269146A106B11707071087201912892229305948095409611988099289A189C109D909F11A221A380A42483
:4003C000A50AA608A70AA820A908AF12B780C0C7C2E4C47FCAB7CC4FCE5ED60101110328053009301303140815221602171818021A0C1B032303240E25032704280E2903A9
:400400002C042D032E033103320E33303401370C3F404065410442024401460E470C481449FF4AFF4BFF4C624DA04EF04F41500C54185604580459045A045B045C115D1130
:400440005F016640670269106A306B106D106E106F1284048A039801A608AA08AE04B001B204B402B608BE40C003C540C9FFCA07CBFFCC40CD20CEF0CF05D008D407D80425
:40048000DA04DB04DD01DF01E040E1A8E240E3200618081009080E08115414021528180819041D801E68200121082209281029252B02300231083210380239144081411010
:4004C00043024708480249204A014C805104524057045A025E605F056004618063408002822087408C218D40900491349220930594089540988099219A189B089C309E40AC
:40050000A221A480A608A704C060C246C4E7CA0FCC07CE07D04DD20CD6F1D80D302033083610CC708420A420A610A708E2408610A610A708E610A7080B020F0862086420D2
:40054000C203D803820883018C2093029C20A304A608E00287048B40AB04E004A7088708A708E6405F0167089349B701D601D801EC08128073408E809340C408DC01E202E3
:40058000000F0C0F10031C03003F000080004080800080000000000030CBCB00C0000000C0F0300030000000000000000000000000000000000000000000000000000000CA
:4005C00000000000000000000000000000000000000000000000000000000000000000000000000000000000000000000000000000000000000000000000000000000000FB
:4006000000000000000000000000000000000000000000000000000000000000000000000000000000000000000000000000000000000000000000000000000000000000BA
:40064000000000000000000000000000000000000000000000000000000000000000000000000000000000000000000000000000000000000000000000000000000000007A
:40068000000000000000000000000000000000000000000000000000000000000000000000000000000000000000000000000000000000000000000000000000000000003A
:0200000490006A
:0400000000004005B7
:0200000490105A
:04000000BC90ACAF55
:0200000490303A
:02000000924D1F
:0200000490402A
:4000000000000000000000000000000000000000000000000000000000000000000000000000000000000000000000000000000000000000000000000000000000000000C0
:400040000000000000000000000000000000000000000000000000000000000000000000000000000000000000000000000000000000000000000000000000000000000080
:400080000000000000000000000000000000000000000000000000000000000000000000000000000000000000000000000000000000000000000000000000000000000040
:4000C0000000000000000000000000000000000000000000000000000000000000000000000000000000000000000000000000000000000000000000000000000000000000
:0200000490501A
:0C00000000012E16106900012E1DA2B692
:00000001FF