:400000000080002011000000B9050000B905000008B5044B1A6803F53F5302331A6000F0D3FA00BFFA46004010B5054C237833B9044B13B10448AFF300800123237010BD2E
:400040004881FF1F0000000048100000084B10B51BB108490848AFF300800848036803B910BD074B002BFBD0BDE81040184700BF000000004C81FF1F48100000C880FF1F52
:400080000000000008B5034801460C3000F0BCF808BD00BF6481FF1F012819D14FF6FF73994215D170B50B4C04F10C06304600F03FF8094D2A460949304600F071FF20468B
:4000C00000F0D4F82A460649204600F069FF70BD704700BF6481FF1FCC80FF1F390100007902000000B58DB062B600F02FFB00F07FFB00F0CFFD074800F0C0FE00F030FF9C
:40010000054A064B009313464FF07C5103A800F09FF8FEE7850000000AD7233C0000484208B54FF6FF710120FFF7B6FF08BD00BF00220270704700BF704700BF38B50C4640
:4001400015460B78623B102B53D8DFE803F01652525209525249524E21525252525235004978284600F0A2F8224800F00FFE607861283ED100F0FEFD38BD4978284600F0C3
:40018000A3F81D4800F002FE607800F0F3FD38BD6C224978284600F0A5F84FF4FA7000F0D9FC0021284600F081F8144800F0EEFD607800F0DFFD38BD72224978284600F06B
:4001C00091F84FF4FA7000F0C5FC0021284600F06DF80B4800F0DAFD607800F0CBFD38BD084A13680133136038BD064A1368013B136038BD4C100000601000007010000071
:400200007C100000D080FF1F2DE9F04700AF8046894600F07FFD012816D90546EA46C31D23F00703ADEB030D6E460024AC4205D200F03EFD30550134E4B2F7E74A46314692
:400240004046FFF77BFFD546BD46BDE8F08700BF30B40025056145618561C5610562016042608360029BC36030BC7047002202604260012202727047704700BF08B50160B6
:40028000C8B200F00FFA08BD08B54160C8B200F00FFA08BD10B50C460172084600F09CFC84F0010000F0A4FC10BD00BF38B504460D46FFF7E3FF29462046FFF7E5FF01214C
:4002C0002046FFF7E7FF38BD38B504460D46FFF7D5FF29462046FFF7D7FF00212046FFF7D9FF38BD38B504460D466C2A10D14368C1F164018B4201DDFFF7C0FF616829442F
:400300002046FFF7C1FF01212046FFF7C3FF38BD722A0FD10368C1F164018B4201DDFFF7B3FF216829442046FFF7A8FF01212046FFF7B0FF38BD00BFFEE700BFF0B40022D7
:40034000174611E050F82760F3B226F0FF0608E001EB420511F812406D78A5550132013BDBB2002BF4D10137232FEBD9F0BC7047064B1B78DBB203F00701054A11701B094E
:40038000013213704422034B1A707047CF0100496E5800407658004008B50A46002100F04AFE08BD38B50B222B4B1A8018232B4A13700E21023211800232137033210232AA
:4003C00011800232137042F6DF6102321180023213700222224B1A7008224FF040231A70032103F5007319701E4B1B78DBB21E490B701E4B1A8041F25122023B1A80002429
:4004000019250CE01A4B1B7803F0010343EA440404F003044FF4F07000F0B2FD013D0DB1032CEFD115B90320FFF786FF114B4FF480721A8007221A7000220F490A70482060
:40044000023108701A700222033B1A700B4A137843F00F03137038BD80400040824000400043004008010049A146004022420040254200400440004006400040A243004046
:4004800008B500F0CDFD08BD38B572B6374A137843F00403137000240CE0354D630019194A0011462A44084691882858FFF774FF0134E4B2072CF0D900240BE02C49A300AE
:4004C0001819420088188022416B006BFFF7D8FF0134E4B2002CF1D026494FF09040FFF72DFF254A254B1A60254A137843F0020313701032137843F002031370214C23786D
:4005000043F040032370A2F58632513A137843F0100313700A221C491C48FFF7B1FF0A221B491C48FFF7ACFF08221B491B48FFF7A7FF08221A491B48FFF7A2FF1A4A137851
:4005400043F008031370194D61232B70FFF72AFF81232B700122164B1A70FFF709FF0E2221461448FFF78CFF38BD00BFE84600408810000090000048040424E4D80A014092
:4005800003500140A0430040700C0048005100407C0C0048C0510040880C004812510040900C004822510040224300400048004004000840B043004008B500F005FD036832
:4005C0000C2B00D1FEE7FEE708B5104E104D16E029686B68AC68002204E051F8040B43F8040B0432A242F8D1E868002203E0002143F8041B04328242F9D11035013E002E72
:40060000E6D100F0E7FCFFF76DFDFEE701000000EC10000008B5104A104B1A60104A136843F40073136000230AE0032B03D80D4A52F8231000E00C490C4A42F823100133FA
:400640002F2BF2D90A4B1A780A4B1A70074A0A4B1A60FFF719FF08BD0004FA050CED00E014ED00E000000000B90500000080FF1FBC760040C080FF1F08ED00E0024A137807
:4006800043F080031370704778650040014B1870704700BF0A650040014B1870704700BF4A650040014B1870704700BF2A650040014B1870704700BF3A650040014B1870E5
:4006C000704700BF89640040014B1878704700BF69640040014B1878704700BF5A65004008B501E0FFF7F6FFFFF7EEFF10F0100FF8D108BD08B5134A137803F0C00343F000
:40070000090313702232137843F0010313706420FFF7BCFF6420FFF7BFFF0020FFF7C2FF0020FFF7C5FF0020FFF7C8FF00F030FC054A137843F01003137000F02DFCFFF7C8
:40074000CFFF08BD786500409964004008B5054B1B7823B9FFF7CEFF0122024B1A70FFF78DFF08BD7181FF1F38B50024134B1C70012510331D7000F00BFC114A137843F0FB
:400780001003137000F008FC0F220E4B1A70082210331A700C4B1D600721204600F004FA0A49204600F0ECF91022094B1A70094B1C70094B1C70094B1C7038BD7665004006
:4007C000966500402464004080E100E0190800007B81FF1F7E81FF1F8081FF1F7C81FF1F024A137843F00203137070477665004008B5074B1B7823B9FFF7B6FF0122044B24
:400800001A70FFF7EDFF0122024B1A6008BD00BF7281FF1F00E100E038B5AA4B1C78AA4B1B7813F0400F00F08481E4B214F0010F00F06781A44B1B78453B052B00F25E8142
:40084000DFE813F0060096005C015C010600000104F0DF0504F00A04082C53D19A4B1B78DBB2452B3FD1994B1B7813F0FF0F17D0974B1B681B78DBB2964A13700622964B3A
:400880001A70FF22A3F5B2731A70002240331A700122924B1A7046228B4B1A702C4630E18F4B1B7813F0020F0CD08E4A137843F00A0313706022844B1A7001228A4B1A6082
:4008C0002C461EE1894A137843F0200313705222814B1A70FF22A3F5B2731A70002240331A702C460DE102227B4B1A70FF22A3F5B2731A70002240331A704A22724B1A70F1
:400900002C46FEE00A2C2ED1764A137843F0A0031370734B1B7813F0020F13D06A4B1B7813F0080F01D0092300E00A236D4A11780B4313706022644B1A7001226A4B1A60BC
:400940002C46DEE0694A137843F0200313705222614B1A70FF22A3F5B2731A70002240331A702C46CDE0002000F0F2F82C46C8E014F0020F40D1594B1A78D2B2534B1B78BB
:40098000DBB29A4217D2554A1378DBB250490968CB5CDBB24F490B7006214F4B1970FF21A3F5B273197000214033197013780133DBB21370A5E04A4B1B7813F0020F0BD025
:4009C000484A137843F00A03137060223E4B1A700122454B1A6094E0444A137843F02003137052223C4B1A70FF22A3F5B2731A70002240331A7084E0394B1B7813F0020F54
:400A00000BD0384A137843F09A03137060222E4B1A700122344B1A6073E0344A137843F02003137052222C4B1A70FF22A3F5B2731A70002240331A702A4A137843F09003E4
:400A400013705EE02A4A1378DBB22A49086821490978C9B2C15413780133DBB213701278D2B2254B1B78DBB29A420AD202221A4B1A70FF22A3F5B2731A70002240331A700C
:400A80003FE0174B1B7813F0020F0BD0154A137843F00903137060220B4B1A700122124B1A602EE0114A137843F0200313701222094B1A70FF22A3F5B2731A70002240334F
:400AC0001A701EE0666500407B81FF1F7F81FF1F8481FF1F02640040766500407C81FF1F7D81FF1F7E81FF1F80E100E0866500408081FF1F8881FF1F8C81FF1F002000F006
:400B000027F814F0200F1CD00E4B1B7813F0080F01D0012300E002230B4A11780B4313700A4A137803F0DF0313701022054B1A7038BD044B1B7813F0100F02D11022014B3B
:400B40001A7038BD7B81FF1F7E81FF1F8665004001BE704710B5044605E0084B186800F00FFAA4F50044B4F5004FF6D8034B586800FB04F000F004FA10BD00BFD480FF1FD2
:400B800070B504460E46074B1D681F2802D90020FFF7DEFF04F01F04103455F8240045F8246070BD08ED00E038B504460D46072902D90020FFF7CCFF1F2C02D90020FFF745
:400BC000C7FF04F01F0000F1604000F564406D01EDB2057038BD00BF044A137803F0DF03400100F0200018431070704710510040044A137803F0EF03000100F01000184370
:400C0000107070471051004008B50E490120FFF7B7FF07210120FFF7C7FF00230A4A137072210A4A11702021013A11700621A2F26112117047211032117002F24F121370E5
:400C400008BD00BFB10D00007381FF1F8A65004010B500F09DF904460B4A137843F020031370013A137843F0100313700222074B1A60074A137843F01003137000F00CF98A
:400C8000204600F089F910BD9A65004000E100E09765004008B5054B5B7823B9FFF7B4FF0122024B5A70FFF7D3FF08BD7381FF1F0222134B1A60134A9378DBB2D178C9B260
:400CC000127912F0FF0F01D18B4211D00E4AD05CC0B20133DBB20F2B00D90023094A9370137913F0FF0F06D00022064B1A7102E0064B1878C0B20222054B1A60704700BF8C
:400D000080E100E07381FF1F9081FF1F4964004000E100E00222144B1A60144B9A78D2B2DB78DBB29A4206D1104B1B7913F0FF0F15D0102014E00D4B9A78D2B2DB78DBB227
:400D40009A4205D2094AD3789078181AC0B207E0064AD3789078181A1030C0B200E000200222034B1A60704780E100E07381FF1F00E100E0034B1B7813F0040FFAD1024B42
:400D800018707047676500404865004038B5074B5B782BB938BDFFF7EDFF0134A4B201E005460024285D0028F5D138BD7381FF1F1D4B1B78DBB213F01E0F05D01B4803F0F6
:400DC0001E0201780A43027003F0200303F0FF0233B3174B1978C9B2164B1B78DBB21648C154164B1B7813F0FF0F02D00121144B197010490B780133DBB20B700B78DBB240
:400E00000F2B02D900210B4B19700A4B1978C9B20C4B1B78DBB2994202D10121074B1970002AC5D1704700BF696500407381FF1F496400407681FF1F9081FF1F7781FF1F7D
:400E40007881FF1F7581FF1F014B1B68D864704708ED00E04001C0B2014B1870704700BF03E400E00822014B1A60704700E100E00822014B1A60704780E100E010B504468D
:400E8000FFF7F6FF2046FFF7DFFF0720FFF7E2FFFFF7E8FF10BD00BF054A137843F0040313701032137843F004031370704700BFA243004008B500F06BF8094A137843F0C9
:400EC00020031370083A137843F0100313700432137843F01003137000F05EF808BD00BF9B640040014B1878704700BF63640040014B1878704700BF6764004008B501E0CF
:400F00000A4B1B780A4B1B7813F0080FF8D100F03FF8084B1A7842F003021A701A7802F0FC021A7000F038F808BD00BF5B640040676400409B64004008B50722064B1A7077
:400F4000FFF7DCFFFFF7CEFFFFF7D2FF0023034A13700432137008BD8B6400408364004008B5054B1B7823B9FFF7E6FF0122024B1A70FFF79FFF08BD7A81FF1F000000008C
:400F80000230800803D000BF01380046FCD17047EFF3108072B6704780F31088704700BF0B460146184600F001B8000010B5054C13462CB10A4601460220AFF3008010BD7D
:400FC000204610BD00000000014B1868704700BF4481FF1F0E4B70B51E460E4C0025E41AA410A54204D056F8253098470135F8E700F068F8084B094C1E46E41AA410002501
:40100000A54204D056F8253098470135F8E770BDD0100000D0100000D0100000DC10000010B5431E0A44914204D011F8014B03F8014FF8E710BD03460244934202D003F80D
:40104000011BFAE7704700000000000020476F696E6720666F7277617264202020200000476F696E67206261636B776172640000476F696E67206C6566740000476F696E74
:401080006720726967687400305100404000F05100401000000001400010001401400006801A0140800100400140000A004C01400002005001402000001A0140F00B004888
:4010C00080004300F8B500BFF8BC08BC9E4670474D0000002101000015060000F8B500BFF8BC08BC9E4670472900000000110000C880FF1F8000000058000000000000002D
:401100000000000000000000320000000000E02EC05D00001800000000366E010000000000000000000000000000000000000000000000000000000000000000C2100000C3
:40114000000000000000000000000000000000000000000000000000000000000000000000000000000000000000000000000000000000000000000000000000E480FF1FED
:40118000000000000000000000000000000000000000000000000000000000000000000000000000000000000000000000000000000000000000000000000000000000002F
:4011C00000000000000000000000000000000000000000000000000000000000000000000000000000000000000000000000000000000000000000000000000000000000EF
:4012000000000000000000000000000000000000000000000000000000000000000000000000000000000000000000000000000000000000000000000000000000000000AE
:40124000000000000000000000000000000000000000000000000000000000000000000000000000000000000000000000000000000000000000000000000000000000006E
:020000040003F7
:0200000480007A
:400000000852004007640040036500404D0001403001014051020140520301405E040140520501404E06014050070140630801404A0901404A0A0140410B0140070D01408A
:40004000010F01400B1501403F160140531701404F180140561901400D1A0140531B01400740014010410140074201400343014008450140054601400347014007480140BE
:40008000074C0140074D014007500140015101400102040708C00980114014B0618064402204240F340883478778890F8B07870F89388A7200200210030B042005010604A4
:4000C00007060820090A0A020B010E1E1020121015011601170A181E1B0B1E1E20202208250126202704281E2C402F0B30603307341E3508360138023B083E113F10560846
:40010000580459045B045C135D305F0181028304840F850888018A028E109005920A930194089508960598019A029E02A001A204A406A502A704AA20AD08B01FB106B30104
:40014000B420B508B920D804D904DC11DF01002A0306048005080708080809220A010C600D020E2010601120120217261A441B401D031F10210423042510261A272029089A
:400180002B022F213120320835083601390A3B203E055A105B40600862508210C0EFC2FFC47FCA5ACCC6CEC7D60CD80CE201020303020401050A060407100803090A0B1012
:4001C0000C101001120616031702180219031A091C031F0122102504260329032A202D042E033007310432103420351C36083703380839223A023F1140324405450D46B09F
:40020000480949FF4A7F4BFF4C424DA04E70500C580459045A045C115D015F016109624063096430650982028F01900293049E01A103AB03B104B202B302B401B701BE0446
:40024000BF44D441D804D904DB04DC10DD30DF0101020509070A09010A020D120E200F0214081601170519241D221E021F1421012248251026822A102B402C102E042F0591
:40028000330234A0368037083A403C283D083F02442045184A014B404C204F40571058045A805B1062088104822183028510860188048A408D069244930494809502960177
:4002C000970299019A509B049C409D089F08A210A340A435A520A601A722AC04AF02B740C0F8C2F9C4F0CA75CC71CEE8D060D210D60ED80201010208030E061808040A089D
:400300000D010F06101012021308164018101A011B031D0C1F03200F230C26202A142C3F3040363F370F38803B80405445204605480649FF4AFF4BFF4C424DA04E70500860
:4003400051105608580459045A045B045C215D315F01614862406348648065486680674880028111821883088418850686068701881C89078A028C018E1E91029305940491
:400380009501970E980199109C02A006A412A507A608A80AA903AA10AB04AC1FB30FB41FB710B820B980BB08D804D904DC11DF010126050B0620070609100BA00C800E0458
:4003C0000F201011111012801401151416821A011B021E04214022402301260427022B402D18312232403521361439403A013C203D243E0242404A024B0252805A205B40C8
:4004000062608340864888018A048D409240932C948096039702989099019A209B249F09A020A212A310A415A508A702A808AB30AC40AF01B12AB324B501C0FEC2EEC4FFD5
:40044000CA61CCEDCEE9D001D208D60CD80CE621EA04EE080014011002010307040505010610081409080A010B070D03112213051401150516021778180119401A0E1B07F7
:400480001C101D012005213A2304250126202815297F2C112D032E083230340F357F3A203F10580459045C015F018133830C85FF8602880189408B138C04912A93549808CE
:4004C0009B019D809E049F56A002A50EA730A946ABA9AC04B001B202B60CB7FFB880BE05D420D604D804D904DB04DC12DD30DF01022103080505070809200B010C800D0857
:400500000E041140128015111602170418021B451C201D041E041F10200221802704280829042C012D012F64302031413585361039113B083C023D903E8858025C085D04CD
:400540005F08620A630A85028602870488218D059140930D9480951496029780988299019B209E839F09A020A120A23CA308A495A50AA740AA10B402B560B708C077C2E358
:40058000C4F9CAF6CCFDCEF7D601D80FE202EE0401E2070209040A060BE00D0D1018122313FF141615401621171D18181A251B081D3D1E021FC221922360255D27A2281887
:4005C00029012A202D012E293007343C35FF3A223F104003460449FF4A074BFF4C404D204EF04F055008580459045A045C025D025F01604061A86240632084018A028E0286
:40060000900196019E01A004A404A804B004B201B402B808BB20BE10C054C106C202C401C5E0C70CC812C9FFCAFFCBFFCC62CDA0CEF0CF41D00CD407D804D904DA04DB04CE
:40064000DC22DD02DF01E640E702E910EA30EB10ED10EE10EF120088030806040A210B800C880E4811141302160918441A801B081E482008222025102C542D403480350218
:4006800037143D083EA23F0240414204450848444B80520854805541560159855B206120621085408A808C808E20948096409720984299849B209D089E11A008A108A30192
:4006C000A410A520A614A910B001B408B689C047C2FDC4CECAF0CCF0CEF0D04DD20CD60FE010E460EA10EC10EE40050406010A010B040C020F0327022E023101320133045F
:40070000360237023E04580459045F0180028101830285018704880C90039110930195019604970898039B1E9C0CA20CA721A80CAE01B008B203B31FB404B520B808BE15F4
:40074000BF04C004C102C240C403C5CEC6D0C7BFC83BC9FFCAFFCBFFCC22CEF0CF0CD08CD110D602D724D804D904DA24DB24DC80DD88DE08DF11E840E901EAC0EB0100A02D
:400780000108068007040E4A0F2011401601171119841D1A208223202504262029082C2036203705388039443B203E0545264C104E40560A571066106E076F157C027D20D8
:4007C000831088408E0491049420968098029E02A020A110A301A502A610A810A910AE10B104B301B422C057C2F0C4D1CA42CCE0CECED0E0D820DEA0E080E240E8A0EA11B6
:400800008E029680A502B640E010E240EA10810289408A019602A540AD40AF12B118B301B480B510EE08004202090301044F05040801094D0B920C1F0D02100311A5134AF2
:40084000149015CC160B171318031A201BB51C481E021F022040221423042440251A260B276029FF2A012C012DA92F54304031FF32E0341F380A3E053F0152F6542056040D
:40088000580459045B045C015D105F018C019B01B401B701BE10D401D804D904DB04DC30DD20DF0102010301050D060A0C200E200F421507168017541A041C081D081F01C4
:4008C000228024802C802D082E802F0432203581361037443C023D903E083F40581059405A045B015C805E085F22650267066C086F30748175107628841085028804898129
:400900008A208C018E0190029104932C948095119602988099059A029B209D809E08A020A234A48CA548A680A720AD84AE02B008B140B210B301B601C0F1C2F0C4F0CAF0C1
:40094000CCF4CEF0D6FFD8B0E62203080603070808100A0C0B040C0C0E111301141C150816021B031C101F0120142302270128092A102B082D08321F350737083B203F4020
:400980004031410545B047EC483249FF4AFF4BFF4EF04F44500C5280580459045A045B045C125D025F0166C06A406B02851F8602891F8D018F269514960297499A04A201AB
:4009C000A50AA7D1AA04B107B201B318B402B580B604B760BE40BF40D418D604D804D904DB04DC20DD20DF010108058407080A0C0B200C88124814081501160419481B283C
:400A00001D042041210823042690270428202C182D802E4231083480350236143708384039143D223E0841084220460147084D81560857025A026004614062027640860874
:400A400088148A028B208C088F02900492C094819554962597A0988299029A039C149D099E0C9F16A088A111A22CA301A410A524A610B102B640C0E4C2A6C45ACAF2CCF2D5
:400A8000CEEED050D210D601D80DE060E480E660E880EE408101840291019B01AC01B301B401B602BE50D804D904DC10DF01006401200340050409080A450B8010981140F0
:400AC0001220140219101A411B021D201E0220042215273028502A202B0230893210371138623B043F0243084810492150405310584159105A815B4069146B0270987204D2
:400B000082018B308C218D4090409280930494809514962B97A0980299049A209B019C209D019F12A108A220A309A410A520AE80B210B301B544C02DC20FC48FCA0FCCAFA5
:400B4000CE8FD002D204D604E220E401E620E840EA80EC6031023380360237808E028F80CCF0014003400610512052028340852086109F80A502A780C070D4A0E040E2109B
:400B8000E4808A029F80A502A602A780A940EC209F80A502A78009010D080F0160108C10C20DD802E008A908B501B701EA08EE089840B040E80187808B809F80A780AD0243
:400BC000E610EA406440654089409840D601D801E0011280700480048E80C408DC01E202000F080B0A0E0C05100F1A0E1C0700FF004423001C0023040008000003C000000C
:400C0000331C0CE102180000043C00C21F102000080000E33FFF00000C80000001E700180FC00038101F2C0000008220000010003006000000D251000FFFFFFF00A000043B
:400C4000180000000000021104040404222000014000C0004040C000C000C000C000C000000000000000000000000000000000000600010006000600000000008000408063
:400C8000800080000000000000FBFB00C0000000B040400040000000000000000000000000000000000000000000000000000000000000000000000000000000000000000E
:400CC00000000000000000000000000000000000000000000000000000000000000000000000000000000000000000000000000000000000000000000000000000000000F4
:400D000000000000000000000000000000000000000000000000000000000000000000000000000000000000000000000000000000000000000000000000000000000000B3
:400D40000000000000000000000000000000000000000000000000000000000000000000000000000000000000000000000000000000000000000000000000000000000073
:400D80000000000000000000000000000000000000000000000000000000000000000000000000000000000000000000000000000000000000000000000000000000000033
:0200000490006A
:0400000000004005B7
:0200000490105A
:04000000BC90ACAF55
:0200000490303A
:02000000BE6DD3
:0200000490402A
:4000000000000000000000000000000000000000000000000000000000000000000000000000000000000000000000000000000000000000000000000000000000000000C0
:400040000000000000000000000000000000000000000000000000000000000000000000000000000000000000000000000000000000000000000000000000000000000080
:400080000000000000000000000000000000000000000000000000000000000000000000000000000000000000000000000000000000000000000000000000000000000040
:4000C0000000000000000000000000000000000000000000000000000000000000000000000000000000000000000000000000000000000000000000000000000000000000
:0200000490501A
:0C00000000012E16106900012E1FCED644
:00000001FF