:400000000080002011000000F9080000F908000008B5044B1A6803F53F5302331A6000F073FC00BFFA46004010B5054C237833B9044B13B10448AFF300800123237010BD06
:400040004881FF1F0000000080110000084B10B51BB108490848AFF300800848036803B910BD074B002BFBD0BDE81040184700BF000000004C81FF1F80110000C880FF1FE0
:400080000000000008B55021014800F0A5FA08BD6481FF1F08B54621014800F09DFA08BD6481FF1F38B5194C204600F0BFF90546204600F0ADF9854226D1204600F0A8F95A
:4000C000A0F10A01204600F0A5F9204600F0B0F9204600F09DF9002810DD204600F098F97D30800080B200F07DFC204600F090F97D30800080B200F07BFC38BD002000F017
:4001000071FC002000F074FC38BD00BF6881FF1F012826D14FF6FF73994222D170B5114C04F1180000F0B0FA04F15406304600F0DBF80D4D2A460D49304600F0CDFF261D2C
:40014000304600F055F92A460949304600F0C4FF204600F029FA2A460649204600F0BCFF70BD70476481FF1FCC80FF1FF10200000D040000B105000030B58DB062B64F48BB
:4001800000F0A6FE4E4800F0CBFE4E4800F084FF0BA800F035FA4C4A4C4B009313464FF07C5102A800F016F900F00EFD484800F087FD00242CB97021464800F0FBF905465D
:4001C00000E000254DB9022C05D17021414800F0F1F900B9012515B902E0012400E00024022C08D13B48011D543000F0CDF86F2803D1012502E0002500E000251DB100F008
:4002000023FF03240DE0032C07D13248011D543000F0BAF8632800D1012515B100F0BAFE0224022C05D166212A4800F0C3F9054600E000254DB9042C05D16621254800F0C4
:40024000B9F900B9012515B902E0042400E00224042CAFD8DFE804F0030C161F280067210BA800F0EDF972210BA800F0E9F9A1E772210BA800F0F6F94FF47A7000F01CFC26
:40028000022497E772210BA800F0DAF967210BA800F0BCF98EE772210BA800F0D1F967210BA800F0DFF985E772210BA800F0C8F967210BA800F0D6F97CE700BF8500000035
:4002C00095000000A50000000AD7233C00004842841100006481FF1F08B54FF6FF710120FFF716FF08BD00BF00220270704700BF704700BF10B50C78A4F16203102B37D833
:40030000DFE803F0123036360936363636361B36362D363624000378012B2BD12146104600F012F900242CE00378012B24D12146104600F009F9002423E00378012B1DD168
:400340002146104600F000F900241AE00378012B16D12146104600F0F7F8002411E0012303700EE000230370104600F071F808E0002406E0002404E0002402E0002400E0AC
:400380000024204610BD00BF2DE9F04700AF8046894600F059FC012817D90546EA46C31D23F00703ADEB030D6E460024AC4205D200F018FC30550134E4B2F7E74A46314642
:4003C0004046FFF797FFD54600E00020BD46BDE8F08700BF30B40025056145618561C5610562016042608360029BC36030BC704710B5044600230360436001220272C3602F
:40040000036100F049FB204610BD00BF704700BFC0687047642902DD6423C3607047002902DC0023C3607047C160704700697047C3680361704700BF08B5016088B200F0C7
:40044000D1FA08BD08B5416088B200F0D1FA08BD10B504460021FFF7EFFF00212046FFF7F1FF10BD10B50C460172084600F066FD84F0010000F06EFD10BD00BF38B50546C7
:4004800031B9FFF7D9FF00212846FFF7DBFF09E00C467D34A4002146FFF7CEFF21462846FFF7D0FF01212846FFF7DCFF38BD00BF38B5054631B9FFF7BFFF00212846FFF761
:4004C000C1FF09E00C467D34A4002146FFF7B4FF21462846FFF7B6FF00212846FFF7C2FF38BD00BF10B504467D318B004268D11A08D5C2EB4301FFF7A5FF00212046FFF760
:400500009BFF01E0FFF79EFF01212046FFF7AAFF10BD00BF10B504467D31890003685A1A002A08DAC3EB4101FFF786FF00212046FFF788FF03E04368591AFFF77DFF0121C5
:400540002046FFF78FFF10BD38B504460D46C368182B03DC1921FFF75DFF06E0FFF758FF00F10A012046FFF755FF2046FFF760FF662D04D1E1682046FFF780FF38BD622DB7
:4005800004D1E1682046FFF793FF38BD722D04D1E1682046FFF7A6FF38BD6C2D03D1E1682046FFF7B7FF38BD0022027042707047704700BF502901D0702901D1037808E03F
:4005C000462901D0662903D1037813B1437800E000231846704700BF502907D1037813B1002303707047012303707047462906D1437813B10023437070470123437070477C
:4006000010B5044600F030FC204610BD08B5672901D0472907D100F03BFCFF280ED0FF2000F0D4FB08BD722901D0522906D100F029FCFF2802D0FF2000F0C2FB08BD00BF0B
:4006400008B5672901D0472903D1002000F0BEFB08BD722901D0522902D1002000F0B0FB08BD00BF08B5672901D0472903D17A2000F0ACFB08BD722901D0522902D17A20E5
:4006800000F09EFB08BD00BF704700BFFEE700BFF0B40022174611E050F82760F3B226F0FF0608E001EB420511F812406D78A5550132013BDBB2002BF4D10137222FEBD9E2
:4006C000F0BC7047064B1B78DBB203F00701054A11701B09013213704422034B1A707047CF0100496E5800407658004008B50A46002100F03CFD08BD38B500242E4B1C801D
:40070000582202331A70192502331D8018232B4A1370EF21023211800232137045F6BF5102321180023213704FF6FF7102321180023213700222224B1A7008224FF04023D2
:400740001A70032103F5007319701E4B1B78DBB21D490B701D4B1A8041F25122023B1A800CE01B4B1B7803F0010343EA440404F003044FF4F07000F09FFC013D0DB1032C49
:40078000EFD115B90320FFF781FF124B4FF480721A8007221A7000220F490A704820023108701A700222033B1A700C4A137843F01F03137038BD00BF804000408640004043
:4007C0000043004008010049A146004022420040254200400440004006400040A243004008B500F0B9FC08BD38B572B62F4A137843F00403137000240CE02D4D6300191967
:400800004A0011462A44084691882858FFF76EFF0134E4B2072CF0D926494FF09040FFF737FF254A254B1A60254A137843F0020313701032137843F002031370214C237850
:4008400043F040032370A2F58632513A137843F01003137008221C491C48FFF7C1FF0A221B491C48FFF7BCFF08221B491B48FFF7B7FF08221A491B48FFF7B2FF1A4A1378D0
:4008800043F008031370194D61232B70FFF734FF81232B700122164B1A70FFF713FF0E2221461448FFF79CFF38BD00BFE8460040941100008C000048040404A458180140F4
:4008C00003500140A0430040CC08004802510040D4080048C0510040E008004812510040E808004822510040224300400048004004000840B043004008B500F001FC03689E
:400900000C2B00D1FEE7FEE708B5104E104D16E029686B68AC68002204E051F8040B43F8040B0432A242F8D1E868002203E0002143F8041B04328242F9D11035013E002E2E
:40094000E6D100F0E3FBFFF717FCFEE701000000F011000008B5104A104B1A60104A136843F40073136000230AE0032B03D80D4A52F8231000E00C490C4A42F8231001330E
:400980002F2BF2D90A4B1A780A4B1A70074A0A4B1A60FFF729FF08BD0004FA050CED00E014ED00E000000000F90800000080FF1FBC760040C080FF1F08ED00E0024A137871
:4009C00043F080031370704775650040014B1880704700BF106A0040014B1880704700BF906A0040014B1880704700BF506A0040014B1880704700BF706A0040014B1870A9
:400A0000704700BF89650040014B1878704700BF69650040014B188880B27047B06A004008B501E0FFF7F6FFFFF7EEFF10F0100FF8D108BD10B5164A137803F0C00343F0D1
:400A4000090313702332137843F001031370114C237843F0010323704FF46170FFF7B6FF4FF46170FFF7B8FF0020FFF7BBFF0020FFF7BEFF0020FFF7C1FF00F025FB2378E7
:400A800043F01003237000F023FBFFF7C9FF10BD756500409965004008B5054B1B7823B9FFF7C8FF0122024B1A70FFF787FF08BDBA81FF1F01BE704710B5044605E0084BE2
:400AC000186800F0F9FAA4F50044B4F5004FF6D8034B586800FB04F000F0EEFA10BD00BFD080FF1F70B504460E46074B1D681F2802D90020FFF7DEFF04F01F04103455F8CA
:400B0000240045F8246070BD08ED00E038B504460D46072902D90020FFF7CCFF1F2C02D90020FFF7C7FF04F01F0000F1604000F564406D01EDB2057038BD00BF08B50D49D0
:400B40000320FFF7CFFF07210320FFF7DFFF0023094A13707221094A11702021A2F2031211700621A13211704721103211704F32137008BDE50C0000BB81FF1F87650040BE
:400B800010B500F0A1FA04460C4A137843F020031370A2F20312137843F0100313700822074B1A60074A137843F01003137000F0E5F8204600F08CFA10BD00BF97650040D8
:400BC00000E100E09465004008B5054B5B7823B9FFF7B4FF0122024B5A70FFF7D1FF08BDBB81FF1F0822134B1A60134A9378DBB2D178C9B2127912F0FF0F01D18B4211D0A1
:400C00000E4AD05CC0B20133DBB20F2B00D90023094A9370137913F0FF0F06D00022064B1A7102E0064B1878C0B20822054B1A60704700BF80E100E0BB81FF1FC481FF1F63
:400C40004765004000E100E00822144B1A60144B9A78D2B2DB78DBB29A4206D1104B1B7913F0FF0F15D0102014E00D4B9A78D2B2DB78DBB29A4205D2094AD3789078181ADA
:400C8000C0B207E0064AD3789078181A1030C0B200E000200822034B1A60704780E100E0BB81FF1F00E100E0034B1B7813F0040FFAD1024B18707047646500404464004010
:400CC00038B5074B5B782BB938BDFFF7EDFF0134A4B201E005460024285D0028F5D138BDBB81FF1F1D4B1B78DBB213F01E0F05D01B4803F01E0201780A43027003F0200339
:400D000003F0FF0233B3174B1978C9B2164B1B78DBB21648C154164B1B7813F0FF0F02D00121144B197010490B780133DBB20B700B78DBB20F2B02D900210B4B19700A4B04
:400D40001978C9B20C4B1B78DBB2994202D10121074B1970002AC5D1704700BF64640040BB81FF1F47650040BE81FF1FC481FF1FBF81FF1FC081FF1FBD81FF1F054A13780E
:400D800043F0020313701032137843F002031370704700BFA2430040024A137843F08003137070477D640040014B1870704700BF0D640040014B1870704700BF4D64004037
:400DC000014B1870704700BF2D640040014B1870704700BF3D640040014B1870704700BF8D640040014B1878704700BF6D640040014B1878704700BF5D64004008B501E0DE
:400E0000FFF7F6FFFFF7EEFF10F0100FF8D108BD10B5134A137803F0C00343F009031370104C237843F001032370FF20FFF7BCFFFF20FFF7BFFF0020FFF7C2FF0020FFF7C1
:400E4000C5FF0020FFF7C8FF00F03EF9237843F01003237000F03CF9FFF7D0FF10BD00BF7D6400409D64004008B5054B1B7823B9FFF7CEFF0122024B1A70FFF78DFF08BDDE
:400E8000C281FF1F014B1878704700BF2D640040014B1878704700BF3D640040014B1B689864704708ED00E04001C0B2014B1870704700BF02E400E00422014B1A607047BE
:400EC00000E100E00422014B1A60704780E100E010B50446FFF7F6FF2046FFF7DFFF0720FFF7E2FFFFF7E8FF10BD00BF014B1B681864704708ED00E04001C0B2014B187054
:400F0000704700BF00E400E00122014B1A60704700E100E00122014B1A60704780E100E010B50446FFF7F6FF2046FFF7DFFF0720FFF7E2FFFFF7E8FF10BD00BF044A1378C1
:400F400003F0DF03400100F0200018431070704710510040044A137803F0EF03000100F0100018431070704710510040084A137843F0010313701032137843F00103137008
:400F800002F64D32137843F001031370704700BFA3430040084A137803F0FE031370A2F65D32137803F0FE0313701032137803F0FE031370704700BF004F0040014B18703F
:400FC000704700BF034F0040014B1880704700BF044F0040014B1880704700BF064F004008B5164A137803F0010313700232137803F0FC031370124B1A7802F0CF021A707B
:401000001A7842F030021A701A7802F0F0021A701A7842F00F021A700A4A137843F00103137042F20F70FFF7CFFF42F20F70FFF7D1FF0020FFF7C2FF08BD00BF004F00405E
:401040000B4F0040014F004008B5054B1B7823B9FFF7C6FF0122024B1A70FFF787FF08BDC381FF1F014B1B685864704708ED00E04001C0B2014B1870704700BF01E400E099
:401080000222014B1A60704700E100E00222014B1A60704780E100E010B50446FFF7F6FF2046FFF7DFFF0720FFF7E2FFFFF7E8FF10BD00BF000000000230800803D000BF05
:4010C00001380046FCD17047EFF3108072B6704780F31088704700BF0B460146184600F001B8000010B5054C13462CB10A4601460220AFF3008010BD204610BD0000000055
:40110000014B1868704700BF4081FF1F0E4B70B51E460E4C0025E41AA410A54204D056F8253098470135F8E700F04EF8084B094C1E46E41AA4100025A54204D056F82530B2
:4011400098470135F8E770BDD4110000D4110000D4110000E011000010B5431E0A44914204D011F8014B03F8014FF8E710BD03460244934202D003F8011BFAE77047000062
:40118000000000004C756C556D6F6D476179202020200000004F00400C00305100404000F0510040100000000140001000140140000800400140000A004C0140000200507E
:4011C0000140200043000000F8B500BFF8BC08BC9E4670474D000000D902000055090000F8B500BFF8BC08BC9E4670472900000000120000C880FF1F800000009000000016
:4012000000000000000000000000E02EC05D00001800000000366E010000000000000000000000000000000000000000000000000000000000000000C411000000000000F1
:401240000000000000000000000000000000000000000000000000000000000000000000000000000000000000000000000000000000000000000000E080FF1F00000000F0
:40128000000000000000000000000000000000000000000000000000000000000000000000000000000000000000000000000000000000000000000000000000000000002E
:4012C00000000000000000000000000000000000000000000000000000000000000000000000000000000000000000000000000000000000000000000000000000000000EE
:4013000000000000000000000000000000000000000000000000000000000000000000000000000000000000000000000000000000000000000000000000000000000000AD
:40134000000000000000000000000000000000000000000000000000000000000000000000000000000000000000000000000000000000000000000000000000000000006D
:020000040003F7
:0200000480007A
:40000000024F00400552004004640040046500400402014008030140530401404305014014070140440801404A090140180B0140460C0140370D01404F1401404D15014053
:400040004C160140451701405C1801404A1901400D1B0140074001400D4101400C42014006430140024401400945014007460140014701400448014002490140064C014075
:40008000074D01400A5001400251014001200A4B08800980103011206440843889788C478D0F840F87728807890F39083F0459045F012604860488408B409C80AC80E0A2AF
:4000C000E61001090310051408030A640B200C030D100E2C0F0C10101303144A151C162417021B202140224824032604290C2A252B112D102E40300F311F32683320341015
:4001000035403A0A3E103F1440464103450E46C0470B481949FF4AFF4BFF4EF04F44500C54185604580459045A045B045C115D115F0166C06A406B0283088511870E8A0192
:400140008D118F069001930C950C97139E02A920AB03B202B30FB601B730B980BB08BE40D804D904DC18DF3100400308070409060C400F4010291302184019041A841B0C67
:400180001D081F80200821022310240225042608270228012A022B092C0831023208331036083702384A39203C403F0A4040430848084B0850245A02608062607C028002F3
:4001C000820C8640871088049340960498509C80A204AC10C043C29CC40FCA2DCCC7CEDFD003D204D601D80DDE80E004EE028A208F04928093489520960298109E029F1441
:40020000A020A208A308A620A701A808AF80B108B440B504EA0501020401060808010A040F021220130215021A201C011E0220102201270129022A1E2E013101342035021A
:40024000361F37013E503F10400341064230440145CE460D47FB483749FF4AFF4BFF4C224EF04F0C508C51105608580459045A245B045D085F01684069016AC06B018202A8
:400280008E0293019B01AA01B001B301B402BE10D420D604D804D904DB04DC34DF010280030204280704080809080C110E031004160217211A441C081D80201026102782F5
:4002C0002F183220330237053CC03E0145884D155448570159025C485D015E2060066102620864406520664067287C8088048C089004941095049654972898069A029B209F
:400300009C409D209F82A2A0A302A502AA50B320B608B704C069C2D0C4D2CA60CCC5CE90D050D220D6F1D8FFDE10E220E610E850EC2014201504820188028C1090049614B7
:40034000972898049A029C609D209E099F82A2A0A302A502A704A880AB10AC04B04CB308E0200A020B040C011604180C19021D011E0126012701280C2B022C08300132027B
:400380003301340C3502370438203E113F145441580459045B045C305F018001860187028A028E0292049B019D02B004B202B401B502B701C040C105C5D5C612C80FC9FFE3
:4003C000CAFFCBFFCDA0CF04D018D280D407D804D904DA04DB04DC33DD33DF01E040E2C0E440E540E6C0E8C0EAC0ECC0EEC0002202200302052007020B400C400E100F0800
:40040000150416091B1A1C081EA0200222102404258026042D042F14318032203508361437803B043C204302481049014B8452A05340588059015A245C285E806508734065
:400440008A028D02C0CFC2E8C4E0CA60CC3CCE22D001D208D67FD840E082E610001E0110040605800618081E09080E060FC3101811181206140215FF180119E71B181C04FA
:400480001D3C1FC2201021C024082704281829442C062D3C2FC131C03201341E3520371F3A203B883E043F105401580459045B045C115D105F0180068201840688018A0640
:4004C0008E0198029C069E01A004A407B007BA02C003C540C9FFCA07CBFFCC40CD20CEF0CF05D008D280D804DA04DB04DC01DD91DF01E040E1A8E240E32000440180024A4D
:40050000059006400720080409200A810B080D800F041211132515011704180419141F032180225928042A492B02319032083305384039093A103B0144104F025508560498
:4005400059055A507680820485048601872188048C208D218E1091089240930D9622970298109A099B209C049D109E809F04A020A202A588A701AA01AD0CB362C0FFC2CF49
:40058000C43FCA0FCC0FCE0FD040D60FE001EA0CEC08EE02010802010504090C0D0E11011502170C19011F02210C23022501290E30013101330E580459045C195F018301C6
:4005C0008704880289018E0490029602970499019F01A204A302A602AA02AC01B002B101B201B404B706B902BE05BF40C065C103C202C401C6C0C7E0C828C9FFCAFFCBFF8C
:40060000CC62CDA0CEF0CF41D00CD602D711D804D904DA04DB04DC19DD11DF01E640E702E910EA30EB10ED10EE10EF12030A068009080A8010601208134019081A401B20A2
:400640001F0220802140260327902A012D052E203004319035203604378139093A203B023D803E103F0541404220431445C049104A0551115A20681469046B017210732537
:400680008440885489208E08928093489522960298109F10A020A208A308A701B101B202C013C20CC40FCAE1CCFECEF7D00ED20CD604E401E60800040502070C093E0A011E
:4006C0000D3E0E021528160C17121C022402280229142B233004320233303401350E360837013E044030410249FF4AFF4BFF4DA04F0450185602572C580459045A045B247C
:400700005C195D895E085F01604062C06440654066C068C06AC06CC06EC087018A02930298019B01A602AA01B202B301B401B502BF04C030C102C5D1C620C705C81BC9FF4D
:40074000CAFFCBFFCDAFCE0FCF04D018D407D804D904DA04DB04DC49DD99DF01E040E2C0E440E540E6C0E8C0EAC0ECC0EEC000200401060407010A040E22120413081714D8
:4007800019101B041C011D081E4422242404258026082E203122360839083C043F50412445204708481049014A1051205204530459115A4864406C146E026F1D7C807F1033
:4007C00080808304870488018B508D809428951096109C819F01A508A601A708B010B102B248B301C0D2C2A2C466CA20CC45CE72D066D60FD880DE50E020E210E4A4E82010
:40080000EA8082108A2096109E20A804AC40AD10AE28B106B318E680E8A0EC8030803308340236803880CCF0CE100B280F2063028B148C409480A480A680A708AC02C2705F
:40084000D640EE401280590881088310A310A480A680A709C410D640E480E620A310A708A880AF01EA20EE107280DC010B040E015F02660886809E80C203D601D8018F02FC
:4008800093049F02B209E008E804EE0193048310A310A708E480AF08EE406302640880089304D602D80110808880B305C408E601E801EE04001B0A020C190E091012110197
:4008C0001A021B011C121D0100FF01037080800080000000C00000C08000800000000000F0FB0B00C0000000C0F0300030000000000000000000000000000000000000003B
:4009000000000000000000000000000000000000000000000000000000000000000000000000000000000000000000000000000000000000000000000000000000000000B7
:400940000000000000000000000000000000000000000000000000000000000000000000000000000000000000000000000000000000000000000000000000000000000077
:400980000000000000000000000000000000000000000000000000000000000000000000000000000000000000000000000000000000000000000000000000000000000037
:4009C00000000000000000000000000000000000000000000000000000000000000000000000000000000000000000000000000000000000000000000000000000000000F7
:0200000490006A
:0400000000004005B7
:0200000490105A
:04000000BC90ACAF55
:0200000490303A
:02000000847BFF
:0200000490402A
:4000000000000000000000000000000000000000000000000000000000000000000000000000000000000000000000000000000000000000000000000000000000000000C0
:400040000000000000000000000000000000000000000000000000000000000000000000000000000000000000000000000000000000000000000000000000000000000080
:400080000000000000000000000000000000000000000000000000000000000000000000000000000000000000000000000000000000000000000000000000000000000040
:4000C0000000000000000000000000000000000000000000000000000000000000000000000000000000000000000000000000000000000000000000000000000000000000
:0200000490501A
:0C00000000012E16106900012E1F94E470
:00000001FF